:020000040800F2
:10000000E01300209D0100086D7E000821650008B6
:10001000A9720008A922000845AB000800000000F2
:10002000000000000000000000000000119900081E
:10003000C127000800000000498600080D9D000847
:10004000B7010008B7010008B7010008B7010008B0
:10005000B7010008B7010008B7010008B7010008A0
:10006000B7010008B7010008B7010008892500089A
:10007000B701000899250008B7010008A925000864
:10008000B9250008C9250008B7010008B701000814
:10009000B7010008B7010008B7010008B701000860
:1000A000B7010008B7010008B7010008B701000850
:1000B000B7010008B7010008B7010008B701000840
:1000C000B7010008B7010008B7010008B701000830
:1000D000B701000805AB000815AB000825AB000808
:1000E000B7010008B7010008B7010008B701000810
:1000F000B7010008B7010008B7010008D9250008BA
:10010000B7010008B7010008B7010008B7010008EF
:100110004DA400085DA40008E59D0008B701000893
:10012000B7010008E9250008F9250008B701000813
:10013000B7010008B7010008B7010008B7010008BF
:10014000B7010008B7010008B7010008B7010008AF
:10015000B7010008092600081926000835AB000879
:10016000B7010008B7010008B7010008B70100088F
:10017000B7010008B7010008B7010008000000003F
:10018000B7010008B7010008DFF80CD000F01CFF31
:100190000048004745C50008E01300200648804796
:1001A00006480047FEE7FEE7FEE7FEE7FEE7FEE75C
:1001B000FEE7FEE7FEE7FEE7D19D000889010008A3
:1001C0002DE9F05F0546002092469B46884606468C
:1001D000814640241BE0284641464746224600F01F
:1001E00028F953465A46C01A914110D31146184671
:1001F000224600F00FF92D1A67EB01084F46224600
:100200000120002100F006F917EB00094E41201EE5
:10021000A4F10104DFDC484631462A464346BDE8E6
:10022000F09F2DE9F0410024061B254671F10006E0
:1002300005DA01240027D0EB070067EB0101161E49
:1002400073F1000605DA0027D2EB0702012567EB00
:100250000303FFF7B5FF86460E4617469C46AC42A1
:1002600004D00025D0EB050E65EB010624B100207B
:10027000D2EB000760EB030C704631463A4663460A
:10028000BDE8F08140EA01039B0703D009E008C9FB
:10029000121F08C0042AFAD203E011F8013B00F84B
:1002A000013B521EF9D27047D2B201E000F8012B97
:1002B000491EFBD270470022F6E710B513460A46E6
:1002C00004461946FFF7F0FF204610BD10B504465E
:1002D00004E00B7800F8013B03B1491C521EF8D230
:1002E000204610BDCAB2401E10F8011F8A4202D03B
:1002F0000029F9D100207047421C10F8011B002989
:10030000FBD1801A704710B5002200E0521C835CBC
:100310008C5CA34201D1002BF8D1D8B2E1B2401AD3
:1003200010BD30B505460020034600E05B1C93423B
:1003300005D2EC5CC85C201A01D1002CF6D130BD8E
:100340000FB400B58DB010A909900B9000914FF03B
:10035000FF300A9000200C90054806900548079051
:100360006A4609A80F9900F0F9FB0DB05DF814FB7F
:10037000790B0008970B00082DE9F04791460F46CE
:1003800080460446002614F8015B2DB100F062F8A7
:100390000068405DC007F6D12B2D02D02D2D18D05E
:1003A000641E4A463946204600F006FC27B13968EB
:1003B000A14201D1C7F8008071054FF002040BD5AE
:1003C0004042002803DD0CF099F90460A007BDE865
:1003D000F08746F48066E4E70028F8DA0CF08EF93E
:1003E00004606FF00040F2E730B50B460146002094
:1003F0002022012409E021FA02F59D4205D303FAE7
:1004000002F5491B04FA02F52844151EA2F1010267
:10041000F1DC30BD202A04DB203A00FA02F1002092
:1004200070479140C2F1200320FA03F31943904032
:100430007047202A04DB203A21FA02F0002170479D
:1004400021FA02F3D040C2F120029140084319463C
:10045000704700000048704780D0000810B504467F
:10046000FFF7F8FF0068005D00F0010010BD2DE906
:10047000FF4F1C4681B00021D4E9016791464FF03F
:10048000FF358A468846A1696D1C02988847216A13
:10049000834688470028F6D1BBF1FF3F0CD026F4F5
:1004A000C066002F1ADD700615D5BBF12B0F0AD0E0
:1004B000BBF12D0F0FD104E04FF0FF3005B0BDE8C8
:1004C000F08F46F48066A1696D1C029888477F1EF4
:1004D0008346002F02DDBBF1300F03D0B9F1000FCE
:1004E0002AD025E0A1696D1C46F400767F1E029893
:1004F00088478346002F05DDBBF1780F06D0BBF19E
:10050000580F03D0B9F1000F10D011E0B9F1000F6E
:1005100002D0B9F1100F0BD1A1696D1C26F4007641
:100520007F1E029888478346102000E008208146FD
:100530004FEAE970009017E00A20F8E74346AAFB6B
:10054000092803FB0980DDF800C07F1E0AFB0C01AF
:1005500012EB0B0A41EBEB78A16946F4007605F14A
:100560000105029888478346002F06DD4946584614
:1005700000F054FD5FEA000BE0D5E169029888477E
:10058000B00502D46FF0010098E7F00718D17006AB
:1005900010D57005514605D50023D1EB030163EB5F
:1005A000080200E042462068031D23600068C0E99D
:1005B000001205E02068011D21600068C0E900A864
:1005C00028467BE72DE9FF5F1D464FF0FF3BD5E94D
:1005D000014691465F464FF00008A9697F1C0198CB
:1005E0008847296A824688470028F6D1BAF1FF3F3A
:1005F0000CD024F4C064002E19DD600614D5BAF1C5
:100600002B0F09D0BAF12D0F0ED103E0584604B0DC
:10061000BDE8F09F44F48064A9697F1C0198884775
:10062000761E8246002E02DDBAF1300F03D0B9F1FA
:10063000000F26D032E0A969761E44F400747F1CB6
:10064000019888478246002E05DDBAF1780F06D062
:10065000BAF1580F03D0B9F1000F10D01EE0B9F174
:10066000000F02D0B9F1100F18D1A969761E24F439
:1006700000747F1C019888478246102002E0082001
:1006800000E00A20814609E008FB0908A969761EF6
:1006900044F400747F1C019888478246002E05DDD3
:1006A0004946504600F0BAFC0028EDDAE9690198A5
:1006B0008847A00502D46FF00100A8E7E00725D124
:1006C000600613D5600502D5C8F1000000E0404681
:1006D00029680A1D2A600968220501D5087015E0FD
:1006E000220701D5088011E008600FE02868011D8D
:1006F00029600068210502D580F8008006E0210706
:1007000002D5A0F8008001E0C0F8008038467EE7FE
:100710002DE9FF5FD2E901A74FF0000891699946E2
:100720001446DDF838B0464601988847054659EA30
:100730000B0005D009E0A169761C019888470546A1
:10074000216A284688470028F5D1681C03D05FEA53
:10075000CA7005D015E04FF0FF3004B0BDE8F09F3F
:100760002068011D2160D0F800800AE05FEACA70AD
:1007700001D108F8015BA169761C7F1E01988847AA
:100780000546002F1ADD681C18D0B9F1000F0DD0F6
:10079000E81705EBD060421120F01F0059F8221035
:1007A0002A1A012090400142E0D107E0BBF1000F7E
:1007B000DCD1216A284688470028D7D0E169019812
:1007C0008847BBF1000F07D1002E05DD5FEACA7034
:1007D00002D1002188F80010A068B84203DDBBF107
:1007E000000F03D017B16FF00100B6E73046B4E751
:1007F0002DE9FF4F087883B09946FF2805D0491CA2
:100800002D2804D00024002008E000200BE0012463
:10081000F9E700EB800003EB4000491C0B78FF2B4D
:10082000F7D104B1404200230293147819461D46C3
:100830002D2C01D02B2C04D1521C2D2C13D0002494
:100840000294AA461478FF2C0FD00A25A3FB057842
:1008500001FB05814FF0000C03FB0C11521CE31946
:100860004AEB0101EEE70124EAE7814453EA010083
:1008700002D019F5C87F06DA03980021C0E90011FB
:1008800007B0BDE8F08F0025AE4E2F46DFF8B882E6
:10089000184600F0C4FDCDE90001B9F1000002DA0C
:1008A000C9F1000400E004460023A74A1AEB030B39
:1008B00042EB045A12E0E00707D02A463346384696
:1008C000414600F06FFA074688462A4633461046EE
:1008D000194600F067FA05460E466410002CEAD16E
:1008E000DDE90001B9F1000F5A46534606DA00F07F
:1008F000CBFA3A46434600F0C7FA05E000F052FA58
:100900003A46434600F04EFA029A0AB181F000419D
:10091000039AC2E90001B3E72DE9FF4F1F468DB0EE
:10092000D7E901464FF0FF382E2045464FF0000929
:100930000B90B9696D1C0E988847396A82468847C2
:100940000028F6D1BAF1FF3F0AD024F4D064002E7B
:1009500011DDBAF12B0F08D0BAF12D0F0BD102E047
:10096000404611B08DE744F48064B9696D1C0E985F
:1009700088478246761E6946600501D52D2000E035
:100980002B208DF8000001F1010B0DF1200809E08A
:10099000B9696D1C0E98884782460F9844F400741C
:1009A000761E0560002E02DDBAF1300FF0D00B99F3
:1009B0008A453ED144F0800406E00F99681CA9F1F5
:1009C000010944F400740860B9696D1C761E0E9824
:1009D000884782463028F0D02BE00B998A4505D114
:1009E000200603D444F08004761E18E050460BF035
:1009F0005BFF08B30DF11302761EAAF1300044F438
:100A00000074934506D20BF8010B200607D5A9F117
:100A1000010003E0200602D409F101008146A0058F
:100A200002D50F99681C0860B9696D1C0E9888473B
:100A30008246002ED1DC53E0002E51DDBAF1650F65
:100A400002D0BAF1450F4BD1A00549D5B9696D1C4B
:100A500024F44074761E0E9888478246002E0CDDE2
:100A60002B2804D0BAF12D0F07D144F48074B96952
:100A70006D1C0E9888478246761EE00501D52D2113
:100A800000E02B2108F8011BCDF82C8021E00DF1AE
:100A90002901761E44F4007488450CD2AAF1300076
:100AA00010F0FF0088F8000002D10B99884509D9A1
:100AB00008F1010806E0E00501D5244801E042F212
:100AC0000F708146B9696D1C0E98884782460F9851
:100AD0000560002E04DD50460BF0E6FE0028D6D15E
:100AE000F9690E988847FF208BF8000088F800000D
:100AF0000020069007904B466A4608A906A8FFF713
:100B000077FEA00502D46FF001002AE714F0240F4D
:100B10000AD0E00714D1DDE906123868031D3B60F6
:100B20000068C0E900120BE0DDE9060100F083FC7B
:100B30000146E00704D13868021D3A600068016090
:100B400028460EE7000014400000F03FF1D8FFFFF8
:100B5000026811441378016018467047D160044957
:100B600051610449116200211161114600F064BA1B
:100B7000510B00085D040008426842B1016811F899
:100B8000013B23B1521EC0E90012184670470121F3
:100B9000C160881E704742685AB1C368016843B992
:100BA00083688B4205D0491E521CC0E90012002008
:100BB00070474FF0FF3070472DE9F05F82460078B4
:100BC000002715468B460AF10104B946302801D0AA
:100BD0009DB113E014F8010B0127782803D05828A1
:100BE00001D045B10AE00DB1102D07D10027102525
:100BF00014F8010B02E0082500E00A250026B046A3
:100C00000EE005FB080005FB06F1012701EB10468D
:100C10001FFA80F8B6F5803F00D3B94614F8010BEF
:100C2000294600F0FBF90028EBDABBF1000F05D0F4
:100C30000FB1641E00E05446CBF80040B9F1000F3C
:100C400006D00BF05BFD02210160C81EBDE8F09FDD
:100C500048EA0640FAE72DE9FE4F804681EA0300A4
:100C6000C00F0C46009021F0004123F00045B8EB86
:100C70000200A94105D24046214690461C460B463B
:100C8000024623F00040104347D0270DC7F30A0067
:100C9000C3F30A510290401A019040286BDAC3F363
:100CA000130040F4801B0098924620B10023D2EB41
:100CB000030A63EB0B0B01985946C0F14002504602
:100CC000FFF7A8FB06460D4650465946019A00F02C
:100CD00093F910EB08006141002487EA115284EA7D
:100CE000E7731A4340D0009A62B3019A012A4FEA8F
:100CF000075215DC001B61EB02014FF0004202EAD3
:100D00000752CDE90042001C41F5801132462B46C6
:100D100000F037FB03B0BDE8F08F40462146F9E70D
:100D2000001B61EB0201001C41F5801300185B41C0
:100D30002018A2F5001747EB030140EAD570B61959
:100D40006D4111E06D084FEA360645EAC0754FEA7D
:100D50000752001B61EB0201001C41F5801149089C
:100D60004FEA30000019514132462B4603B0BDE82E
:100D7000F04F00F0F7BA0098012240000023D0EBBA
:100D8000020263EBE073009821464FEAE074B8EB8F
:100D9000000061EB0401E9E783F000435BE781F0C9
:100DA000004158E72DE9FE4F81EA030404F00044B6
:100DB00021F0004100944FF0000B23F0004350EA73
:100DC00001045ED052EA03045BD0C3F30A54C1F3BA
:100DD0000A552C44A4F2F3340194A0FB0254C1F34D
:100DE000130141F48011C3F3130343F4801301FB97
:100DF000024400FB034E840A970A44EA815447EAFE
:100E00008357A4FB076802958D0A05FB07854FEA07
:100E1000932C04FB0C542705029D4FEA065847EA21
:100E20001637B5EB08056EEB070C870E920E47EAF6
:100E3000811742EA8312A7FB0201B6EB0B0164EBB8
:100E400000042B0D43EA0C335E1844EB1C50DA46C9
:100E50005146E7FB0201C5F313044FEA0B3343EAA3
:100E600014534FEA0432019C43EA0603A4F10C0434
:100E70000294009CCDE900B400F083FA03B0BDE811
:100E8000F08F00200146F9E72DE9F04D81EA0304D7
:100E900004F0004B21F0004514464FF0000A23F007
:100EA000004150EA050220D054EA01021DD0C5F3EA
:100EB0000A570246C5F31303C1F31300C1F30A56E0
:100EC00040F4801543F48013A7EB0608101BD646A8
:100ED00008F2FD3873EB050002D308F1010801E0C8
:100EE00092185B41B8F1000F03DA00200146BDE81B
:100EF000F08D00204FF48011064684460EE0171B4B
:100F000073EB050705D3121B63EB050306434CEA9D
:100F1000010C49084FEA300092185B4150EA010782
:100F2000EDD152EA030012D082EA040083EA0501FF
:100F3000084305D0101BAB4106D20122002306E076
:100F400000224FF0004302E06FF0010253101AEB51
:100F500006004CEB085110EB0A0041EB0B01BDE819
:100F6000F04D00F0FFB9C1F30A52C1F3130140F292
:100F7000FF3341F480119A4202DA002001467047A3
:100F800040F233439A42A2F2334202DC5242FFF76C
:100F900050BAFFF73FBA000030B5041E71F10004EB
:100FA00004DB4FF00044404264EB0101141E73F176
:100FB000000405DB1C464FF00043524263EB040380
:100FC000994208BF904230BD1CB5094800900948BD
:100FD00001900546009C06E0E06840F0010394E8BB
:100FE000070098471034AC42F6D3FFF7D1F8000061
:100FF00048E0000868E00008202A06DBCB17203A0A
:1010000041FA02F043EAE07306E041FA02F3D0400D
:10101000C2F1200291400843194670473A2800D295
:10102000303820F02002412A01D3A2F13700884253
:1010300001D34FF0FF3070472DE9F34F8BB04FF0E5
:10104000000801F10C000C464FF0010B46460DF173
:10105000080A01906269012101989047051E2DD070
:10106000252D2CD0216A8847C0B1626901210198E1
:101070009047216A88470028F7D1411E626901988C
:10108000904700E0761CA1690B988847216A884741
:101090000028F7D1E1690B988847DBE7A1690B9835
:1010A00088470746A84201D1761CD3E7E1690B982F
:1010B00088477F1C02D1B8F1000F6FD046E10027AE
:1010C00062693D463946019890472A2804D16269F1
:1010D0000121019890470125DFF88492626901217E
:1010E00001989047A0F130010A290AD24F45E5DC6A
:1010F00007EB870100EB4107303FDFD445F01005D7
:10110000ECE7E90601D46FF000476C280AD04C28C0
:1011100014D0682815D06A280DD074281CD07A28DD
:101120001AD01DE062690121019890476C2802D015
:1011300045F0040514E045F002050DE045F02005FA
:101140000AE06269012101989047682802D045F0C1
:10115000080505E045F400656269012101989047A2
:10116000C4E9015765283DD019DC58287AD00CDC39
:10117000452837D004DC252826D0412831D131E05C
:1011800046282FD047282CD12CE05B2877D0612827
:1011900028D063287CD0642823D15AE0D0E06F287F
:1011A00048D008DC66281DD067281BD0692821D0CC
:1011B0006E2816D127E0702845D0732868D075288E
:1011C00047D078280DD14DE0A1690B988847054696
:1011D00025283FF469AFE1690B9888476D1C3FF4FF
:1011E0006AAFB3E023466A466FF001000B99FFF740
:1011F00093FB9EE045F040006060A80723464FF057
:10120000000236D43EE0E8077FF447AF2068011DB6
:1012100021600068290501D506701BE7290701D563
:10122000068017E7A90703D5F117C0E9006111E7A8
:1012300006600FE745F040006060A80723464FF0C6
:10124000080216D41EE040F60E0125EA0100606097
:1012500016E045F040006060A80723464FF00A0200
:1012600007D40FE045F040006060A80708D523468A
:1012700010226FF001000B99FFF7F9F859E007E031
:10128000234610226FF001000B99FFF79BF950E005
:101290004FF000094F464B46632802D05B2806D02A
:1012A00040E0E80601D40120A06001273AE062692D
:1012B0000121019890475E2805D14FF0010962692C
:1012C000494601989047216939B900210A46534699
:1012D00043F82120491C0829FADBB0B3216969B918
:1012E000C11700EBD16253110AEB830122F01F02F8
:1012F000821A01200B68904003430B606269012150
:10130000019890475D28E8D1B9F1000F09D000207D
:10131000514651F82020D24341F82020401C082893
:10132000F7DB02AB224600976FF001000B99FFF745
:10133000EFF900280CDA401C08D1BBF1000F05D0F2
:101340004FF0FF300DB0BDE8F08FFFE74046F9E702
:10135000E90701D108F1010806444FF0000B79E6D6
:10136000CCCCCC0C10B5141E73F1000408DA401C70
:1013700041F1000192185B411A4301D120F00100B4
:1013800010BD2DE9F04D92469B4611B1B1FA81F2A4
:1013900002E0B0FA80F220329046FFF73BF80446B4
:1013A0000F4640EA0A0041EA0B0153465A460843F9
:1013B00013D0114653EA010019D0C8F1400250463B
:1013C000FFF737F805460E46504659464246FFF7A6
:1013D00021F8084305D0012004E020463946BDE845
:1013E000F08D0020054346EAE0762C4337430A9807
:1013F0006305E40AA0EB08000022FD0A44EA475412
:101400000A3002D500200146E9E7010510196941BB
:10141000DDE9084500196941BDE8F04DA2E70EB5C8
:1014200040F2334202920022CDE900221346FFF738
:10143000A8FF03B000BD01F0004330B421F000412B
:1014400050EA010206D00A0DA2F56072C1F3130141
:10145000002A02DC30BC00207047440F44EAC1047B
:10146000C100E01830BC00EBC250AFF3008000298F
:10147000A8BF7047401C490008BF20F0010070471A
:1014800010B4B0FA80FC00FA0CF050EA010404BF7A
:1014900010BC704749B1CCF1200421FA04F411FAD0
:1014A0000CF118BF012121430843A3EB0C01CB1D14
:1014B0004FEA00614FEA102042BF002010BC704785
:1014C00000EBC35010440029A4BF10BC7047401C5F
:1014D000490008BF20F0010010BC704780B586B0FD
:1014E00040F27000C2F20000007880B3FFE701F024
:1014F000E3FE0590059840F21C21C2F20001096844
:10150000401A40F22001C2F20001098888421DD32E
:10151000FFE7059840F21C21C2F20001086000209C
:1015200005F0C4FE0490012005F0C0FE03900220E7
:1015300005F0BCFE0290032005F0B8FE019004986F
:101540000399029A019B00F071FEFFE7FFE706B0E6
:1015500080BD000080B58AB040F22C00C2F20000CD
:101560000078012840F0CE82FFE74DF6AC50C0F67F
:10157000000000F079FE40F22D00C2F20000019060
:1015800000F072FE4DF68350C0F6000000F06CFED5
:1015900001984DF6A351C0F600010822FEF7C1FEE6
:1015A000002845D1FFE700200990089040F22D0067
:1015B000C2F200004DF6C951C0F6000109AA08ABFD
:1015C000FEF7BEFE02282BD1FFE709984FF24841F3
:1015D000CFF6FF71884223DBFFE7099840F6B83168
:1015E00088421DDCFFE708984FF24841CFF6FF71B3
:1015F000884215DBFFE7089840F6B83188420FDCD7
:10160000FFE740F2E610C2F20000007838B9FFE7C9
:10161000BDF92400BDF9201006F0DAF9FFE706E075
:101620004DF67810C0F6000000F01EFEFFE762E203
:1016300040F22D00C2F200004DF6AF61C0F600018D
:10164000FEF761FE18B9FFE706F0C6F852E240F275
:101650002D00C2F200004DF61C61C0F60001FEF73D
:1016600052FE18B9FFE706F0A7F842E240F22D005B
:10167000C2F200004DF6E861C0F60001FEF743FE3D
:1016800098B9FFE740F2E610C2F20000007820B9F6
:10169000FFE706F01DFA38B9FFE74DF61B50C0F61C
:1016A000000000F0E1FDFFE722E240F22D00C2F26F
:1016B00000004DF6F461C0F60001FEF724FE68B9A3
:1016C000FFE7782005F03CFE38B9FFE74DF63B50C8
:1016D000C0F6000000F0C8FDFFE708E240F22D0070
:1016E000C2F200004DF60171C0F60001FEF70BFEDC
:1016F00068B9FFE7792005F023FE38B9FFE74DF61A
:101700006150C0F6000000F0AFFDFFE7EEE140F2EF
:101710002D00C2F200004DF67B61C0F60001FEF71D
:10172000F2FD60B9FFE705F047FE38B9FFE74DF677
:10173000FF40C0F6000000F097FDFFE7D5E140F262
:101740002D00C2F200004DF65561C0F60001FEF713
:10175000DAFD48B9FFE708F0B7F94DF63B30C0F6BF
:10176000000000F081FDBFE140F22D00C2F2000058
:101770004DF60661C0F60001FEF7C5FD48B9FFE76A
:1017800008F09CF94DF6D620C0F6000000F06CFD84
:10179000A9E140F22D00C2F200004DF6EA51C0F678
:1017A0000001FEF7B0FD98B9FFE708F0DDF908F099
:1017B0007DF902464DF63B31C0F600014DF6D620CC
:1017C000C0F60000002A18BF084600F04DFD89E170
:1017D00040F22D00C2F200004DF68751C0F6000124
:1017E0000D22FEF79EFD20BBFFE70020079040F290
:1017F0002D00C2F200004DF6C661C0F6000107AA36
:10180000FEF79EFD01280CD1FFE7079808F062F96A
:1018100038B1FFE74DF6B420C0F6000000F024FD1B
:1018200006E04DF62C10C0F6000000F01DFDFFE7AD
:1018300057E140F22D00C2F200004DF61471C0F6DF
:101840000001FEF760FD88B9FFE708F02FF90246B6
:101850004DF63B31C0F600014DF6D620C0F6000033
:10186000002A18BF084600F0FFFC39E140F22D00C5
:10187000C2F200004DF65F61C0F60001FEF743FDC5
:1018800048B9FFE708F08AF94DF64930C0F6000084
:1018900000F0EAFC23E140F22D00C2F200004DF618
:1018A0001161C0F60001FEF72EFD48B9FFE708F010
:1018B0006FF94DF6E520C0F6000000F0D5FC0DE113
:1018C00040F22D00C2F200004DF6F851C0F60001C2
:1018D000FEF719FD98B9FFE708F0AEF908F050F9E6
:1018E00002464DF64931C0F600014DF6E520C0F63E
:1018F0000000002A18BF084600F0B6FCEDE040F2F8
:101900002D00C2F200004DF69551C0F600010D22E7
:10191000FEF707FD20BBFFE70020069040F22D00F8
:10192000C2F200004DF6D761C0F6000106AAFEF72C
:1019300007FD01280CD1FFE7069808F035F938B10A
:10194000FFE74DF6C520C0F6000000F08DFC06E074
:101950004DF65210C0F6000000F086FCFFE7BBE039
:1019600040F22D00C2F200004DF62171C0F60001D8
:10197000FEF7C9FC88B9FFE708F002F902464DF608
:101980004931C0F600014DF6E520C0F60000002AFE
:1019900018BF084600F068FC9DE040F22D00C2F23E
:1019A00000004DF62871C0F60001FEF7ACFC18B936
:1019B000FFE700F009FC8DE040F22D00C2F20000CC
:1019C0004DF6C161C0F60001FEF79DFC60B1FFE776
:1019D00040F22D00C2F200004DF67961C0F6000120
:1019E000FEF791FCB8B9FFE7002005F05FFC059019
:1019F000012005F05BFC0490022005F057FC0390E9
:101A0000032005F053FC029005980499039A029B69
:101A100000F00CFC5DE040F22D00C2F200004DF63B
:101A20008E61C0F60001FEF76EFC60B1FFE740F288
:101A30002D00C2F200004DF6B151C0F60001FEF7D4
:101A400062FC18B9FFE700F0E9FB41E040F22D002D
:101A5000C2F200004DF66E61C0F60001FEF753FCC5
:101A6000A0B9FFE740F27001C2F200010120087046
:101A700001F022FC40F21C21C2F2000108604DF688
:101A80002040C0F6000000F0EFFB20E040F22D0007
:101A9000C2F200004DF67361C0F60001FEF733FCA0
:101AA00068B9FFE740F27001C2F20001002008703F
:101AB0004DF65730C0F6000000F0D6FB06E040F2CD
:101AC0002D00C2F2000000F0B7F8FFE7FFE7FFE7E4
:101AD000FFE7FFE7FFE7FFE7FFE7FFE7FFE7FFE7D6
:101AE000FFE7FFE7FFE7FFE7FFE7FFE7FFE7FFE7C6
:101AF000FFE7FFE7FFE740F22C01C2F20001002000
:101B00000870FFE740F21220C2F200000078A8B18E
:101B1000FFE701F0D1FB40F21821C2F20001096891
:101B2000401AB0F5967F09D9FFE705F0A7FB40F210
:101B30001221C2F2000100200870FFE700F052F904
:101B40000AB080BD80B582B041F60000C4F2020048
:101B5000102101F081FB8DF8070040F20400C2F271
:101B600000000078FF2808D1FFE79DF8070040F249
:101B70000401C2F2000108705CE040F20400C2F20D
:101B800000000078012843D1FFE79DF807000028F6
:101B90003ED1FFE701F090FB40F22801C2F20001C4
:101BA0000968401AC82833D3FFE701F085FB40F2EB
:101BB0002801C2F20001086040F2E610C2F2000003
:101BC0000178B1FA81F1490901700078A8B1FFE705
:101BD00005F054FB40F21221C2F2000100200090F7
:101BE000087006F017F8009A40F60040C4F20200B0
:101BF0004FF4007101F048FB09E040F60040C4F2E8
:101C000002004FF40071012201F03EFBFFE7FFE705
:101C100040F2E610C2F20000007818B1FFE705F0CC
:101C20002DFBFFE79DF8070040F20401C2F200011E
:101C30000870FFE702B080BD80B598B009A9069191
:101C40001790002007901690159014901390129002
:101C5000119010900F900E9017986A460EA99160FF
:101C60000FA9516010A911604DF6B551C0F60001E1
:101C700012AA11ABFEF764FB052840F0AE80FFE727
:101C80004DF64C61C0F6000112A8FEF73CFBD8BB34
:101C9000FFE740F2E610C2F20000007898BBFFE7D1
:101CA000BDF940006FF063010491642205920AF0CF
:101CB00021FC0499059AADF83600BDF944000AF0FC
:101CC00019FC0499059A4042ADF83400BDF93C0076
:101CD0000AF010FC4042ADF83200BDF93600BDF903
:101CE0003410BDF9322005F0EFF901F0E5FA40F2C9
:101CF0001821C2F20001086040F21221C2F2000174
:101D000001200870FFE767E04DF69961C0F6000119
:101D100012A8FEF7F8FA08B9FFE75CE04DF6E651C5
:101D2000C0F6000112A8FEF7EEFA002852D1FFE734
:101D3000069811998DF8311090ED070AB8EEC00A97
:101D40009FED271A80EE010A80ED020A90ED060A47
:101D5000B8EEC00A80EE010A80ED010A90ED050A96
:101D6000B8EEC00A80EE010A80ED000A9DF831004D
:101D700003280CDCFFE706999DF8310091ED020A7B
:101D8000D1ED010A91ED001A05F0ACFA21E09DF8C1
:101D9000310004281CD1FFE700208DF82300FFE765
:101DA0009DF82300032812DCFFE706999DF8230025
:101DB00091ED020AD1ED010A91ED001A05F092FAB7
:101DC000FFE79DF8230001308DF82300E8E7FFE7E7
:101DD000FFE7FFE7FFE7FFE7FFE718B080BD00BFC1
:101DE0000000C8422DE9F047C8B023A805F0FCFF69
:101DF000002859D0FFE7BDF88C001790BDF88E0081
:101E000019909DF898102B200029014618BF2D210C
:101E10001691BDF8901015919DF89910002918BFE2
:101E20002D201890259948F21F50C5F2EB10A1FB08
:101E300000204409642004FB10159DF89B00C0F3AA
:101E40008006C0F3C00700F0010823A800F03EF9A7
:101E500081469DF89D0000F065F9DDF854C0169AA2
:101E6000179BDDF860E08246199869461A91C1F81F
:101E700028A0C1F82490C1F82080CF618E614D6107
:101E80000C61C1F80CE0C1F808C04A6008604DF66A
:101E9000B832C0F6000228A81B9080210AF014FC7A
:101EA0001B9800F0E1F9FFE71EA805F05BFF00B307
:101EB000FFE7209BBDF87A009DF88420BDF886C01E
:101EC000BDF888E0BDF88A4069460C61C1F80CE0B5
:101ED000C1F808C04A6008604DF68242C0F60002B0
:101EE00028A8149080210AF0EFFB149800F0BCF9A8
:101EF000FFE71DA805F0BEFE30B3FFE79DF8743084
:101F00009DF875009DF876209DF877E04DF6A86164
:101F1000C0F600014DF6A16CC0F6000CBEF1000F3A
:101F200008BF8C466946C1F808C04A6008604DF693
:101F30006532C0F6000228A8139080210AF0C4FB85
:101F4000139800F091F9FFE7FFE70DF1710005F03C
:101F5000C5FE002800F0B780FFE79DF8710001384A
:101F6000014612910C2800F2AC801299DFE801F0D2
:101F7000070E151C3A49585F66758493A2004DF60A
:101F8000F420C0F6000000F06FF99BE04DF6DE4053
:101F9000C0F6000000F068F994E04DF6F610C0F6C7
:101FA000000000F061F98DE09DF872309DF973201A
:101FB0004DF67861C0F600014DF66960C0F600008C
:101FC000002AC8BF0846694608604DF69A32C0F636
:101FD000000228A8119080210AF076FB119800F0E9
:101FE00043F96FE09DF872304DF61732C0F60002EB
:101FF00028A8109080210AF067FB109800F034F9AF
:1020000060E09DF872304DF65942C0F6000228A8F3
:102010000F9080210AF058FB0F9800F025F951E04D
:102020004DF62F40C0F6000000F01EF94AE04DF6D4
:102030001820C0F6000000F017F943E09DF8723058
:102040004DF63D22C0F6000228A80E9080210AF02D
:102050003BFB0E9800F008F934E09DF872304DF625
:10206000A112C0F6000228A80D9080210AF02CFBD6
:102070000D9800F0F9F825E09DF872304DF66722D2
:10208000C0F6000228A80C9080210AF01DFB0C98D5
:1020900000F0EAF816E09DF872304DF68E22C0F698
:1020A000000228A80B9080210AF00EFB0B9800F08C
:1020B000DBF807E04DF6CB10C0F6000000F0D4F8D6
:1020C00000E0FFE741E748B0BDE8F08782B000904C
:1020D0000098807B0007002806D5FFE74DF6D75013
:1020E000C0F6000001901AE00098807B40070028AD
:1020F00006D5FFE74DF63860C0F6000001900EE00F
:102100000098027C4DF60E71C0F600014DF6DE50CF
:10211000C0F60000002A18BF08460190FFE70198AA
:1021200002B0704783B08DF807009DF807000146A4
:102130000091052824D80099DFE801F02103090F58
:10214000151B4DF64060C0F6000002901EE04DF6F3
:102150003160C0F60000029018E04DF62860C0F62D
:102160000000029012E04DF60E70C0F600000290E2
:102170000CE04DF6BB60C0F60000029006E0FFE701
:102180004DF6DE50C0F600000290FFE7029803B063
:102190007047000080B540F22D00C2F200004021DF
:1021A000FEF789F840F26F01C2F2000100200870CA
:1021B00040F26E01C2F20001087040F22C01C2F23E
:1021C0000001087080BD000080B5A8B0002005F0B7
:1021D0006DF80790012005F069F80690022005F0DF
:1021E00065F80590032005F061F80490079B0698B8
:1021F000059ADDF810C06946C1F808C04A60086059
:102200004DF64872C0F6000208A8039080210AF03B
:102210005BFA039800F028F828B080BD80B54DF631
:102220002E70C0F6000000F01FF880BD80B5A8B089
:102230002790269125922493279B2698259ADDF8AE
:1022400090C06946C1F808C04A6008604DF6367211
:10225000C0F6000204A8039080210AF035FA039822
:1022600000F002F828B080BD80B582B001900198DE
:102270000090FEF741F8009982B240F69440C2F215
:102280000000642303F0F4FF02B080BD80B540F687
:102290009440C2F2000040F26D01C2F2000101223E
:1022A00003F0F8FE80BD0000FFE7FEE780B582B0D6
:1022B00000208DF80700FFE79DF8070003280CD8E1
:1022C000FFE79DF80700002100F098F8FFE79DF870
:1022D000070001308DF80700EEE702B080BD000076
:1022E00080B588B0FFE70020079043F63000C4F2C5
:1022F0000200016841F001010160006800F0010086
:1023000007900798FFE7FFE70020069043F63000AC
:10231000C4F20200016841F002010160006800F0AF
:10232000020006900698FFE7FFE70020059043F6BD
:102330003000C4F20200016841F010010160006841
:1023400000F0100005900598FFE7FFE700200490DB
:1023500043F63000C4F20200016841F02001016040
:10236000006800F0200004900498FFE740F6C410D5
:10237000C2F2000001900021029102F0BDFE01991D
:1023800002980968486340F20040C4F20200032149
:102390000AF098F841F20040C4F202004FF4C04144
:1023A0000AF090F841F20000C4F202004FF490519C
:1023B0000AF088F80020C4F2020030210AF082F806
:1023C00002988DF80F00FFE79DF80F00032813D83F
:1023D000FFE79DF80F0000EB40014DF6CC00C0F682
:1023E000000000EBC1000AF039F9FFE79DF80F008B
:1023F00001308DF80F00E7E708B080BD80B58AB0E6
:102400008DF82700ADF824109DF82700042801D38B
:10241000FFE78FE0BDF92400652804DBFFE76420B7
:10242000ADF82400FFE7BDF9240010F1650F05DCCD
:10243000FFE74FF69C70ADF82400FFE79DF82700FA
:1024400000EB40014DF6CC00C0F6000000EBC100EF
:1024500008900898807D28B1FFE7BDF9240040422C
:10246000049003E0BDF924000490FFE70498ADF860
:102470001E00BDF91E00012804DBFFE708980AF0E2
:10248000FFF80EE0BDF91E00B0F1FF3F04DCFFE7EE
:1024900008980AF007F903E008980AF0CDF8FFE77A
:1024A000FFE7089800680068C06A01300690BDF92F
:1024B0001E0002900028039002D50298404203902B
:1024C00003980699484348F21F51C5F2EB11A0FB4F
:1024D0000110400905900898406830B9FFE7059859
:1024E000089909680968486323E008984068042847
:1024F00007D1FFE705980899096809688863019082
:1025000015E008984068082807D1FFE70598089962
:1025100009680968C863009006E005980899096889
:10252000096808640090FFE700980190FFE70198B0
:10253000FFE7FFE70AB080BD80B584B040F62C30DD
:10254000C2F200000090026800210191D16302688C
:1025500011640821029102F0E9FC00980C2102F0BC
:10256000E5FC019940F6C410C2F200000390026835
:1025700091630268D163042102F0D8FC02990398A8
:1025800002F0D4FC04B080BD80B540F27060C2F2AD
:10259000000000F0B9F980BD80B540F2B050C2F241
:1025A000000000F0B1F980BD80B540F21060C2F2C9
:1025B000000000F0A9F980BD80B540F2F070C2F2D1
:1025C000000000F0A1F980BD80B540F65000C2F2D5
:1025D000000000F099F980BD80B540F2D060C2F2F1
:1025E000000000F091F980BD80B540F6B000C2F265
:1025F000000000F089F980BD80B540F23070C2F271
:10260000000000F081F980BD80B540F61010C2F2E4
:10261000000000F079F980BD80B540F29070C2F200
:10262000000000F071F980BD82B00190019800783F
:1026300010384AF6AB21CAF6AA21A0FB0110000906
:10264000009000994DF29C00C0F60000405C01999A
:10265000C8650098042807D3FFE701990868042299
:1026600062F30900886506E00199086840F2FF32CC
:1026700090438865FFE70198806D02B070470000C5
:1026800086B0059000208DF813000598806A0390AD
:102690000598806910BBFFE70398029003281BD8B8
:1026A0000299DFE801F0020D0218059890F82F005A
:1026B000C00720B1FFE701208DF81300FFE70CE011
:1026C0000598C06AB0F1C07F04D1FFE701208DF802
:1026D0001300FFE701E000E0FFE745E005988069AF
:1026E000B0F5005F25D1FFE70398019003281ED8BD
:1026F0000199DFE801F00206021101208DF81300B4
:1027000016E0059890F82F00C00720B1FFE70120E0
:102710008DF81300FFE70BE00598C06AB0F1C07FA9
:1027200004D1FFE701208DF81300FFE700E0FFE789
:1027300019E003980090032804D3FFE700980328CA
:1027400004D00EE001208DF813000BE0059890F8FE
:102750002F00C00720B1FFE701208DF81300FFE72D
:1027600000E0FFE7FFE7FFE79DF8130006B07047C2
:1027700084B0039002910192009303980168086865
:1027800020F4802008600098039909684860039845
:102790008068402809D1FFE701980399096888609B
:1027A000029803990968C86008E0029803990968CB
:1027B0008860019803990968C860FFE704B0704712
:1027C0007047000072B6FFE7FEE7000080B584B0F6
:1027D00002900298806D019000F06EFD00900298CA
:1027E00090F8350002280DD0FFE702998020486557
:1027F000FFE70299002081F83400FFE701208DF8FF
:102800000F0055E002980168086820F01600086083
:1028100002980168486920F0800048610298006CC5
:1028200020B9FFE70298806C38B1FFE70298016891
:10283000086820F008000860FFE70298016808684F
:1028400020F001000860FFE7029800680068C007F8
:10285000C8B1FFE700F030FD0099401A062811D3F7
:10286000FFE70299202048650299032081F835008E
:10287000FFE70299002081F83400FFE703208DF87C
:102880000F0015E0E0E70298C16D3F2088400199F4
:1028900088600299012081F83500FFE70299002045
:1028A00081F83400FFE7FFE700208DF80F00FFE715
:1028B0009DF80F0004B080BD82B00090009890F8A1
:1028C0003500022807D0FFE70099802048650120E5
:1028D0008DF807000EE00099052081F8350000987A
:1028E0000168086820F001000860FFE700208DF80B
:1028F0000700FFE79DF8070002B0704781B0009025
:102900000098406D01B0704780B586B005900020FA
:10291000039040F21C00C2F20000006848F2B511BA
:10292000C1F64E31A0FB0110800A02900598806D1F
:10293000019001980068049004980599C96DC840F9
:10294000000700281AD5FFE70598006800684007CF
:10295000002812D5FFE705980168086820F00400F8
:1029600008600598C16D0820884001998860059924
:10297000486D40F001004865FFE7FFE704980599BE
:10298000C96DC840C007A0B1FFE70598006840695D
:10299000000600280CD5FFE70598C16D012088408E
:1029A000019988600599486D40F002004865FFE78D
:1029B000FFE704980599C96DC8404007002814D561
:1029C000FFE7059800680068800700280CD5FFE73E
:1029D0000598C16D04208840019988600599486D6B
:1029E00040F004004865FFE7FFE704980599C96DCA
:1029F000C840C006002847D5FFE705980068006872
:102A0000000700283FD5FFE70598C16D10208840DA
:102A100001998860059800680068400300281AD56D
:102A2000FFE70598006800680003002809D4FFE765
:102A30000598006C20B1FFE70598016C8847FFE717
:102A400008E00598806C20B1FFE70598816C884705
:102A5000FFE7FFE716E0059800680068C00500285A
:102A600007D4FFE705980168086820F008000860AF
:102A7000FFE70598006C20B1FFE70598016C8847D7
:102A8000FFE7FFE7FFE7FFE704980599C96DC84036
:102A90008006002840F18D80FFE7059800680068F7
:102AA000C006002840F18480FFE70598C16D202012
:102AB000884001998860059890F83500052834D140
:102AC000FFE705980168086820F01600086005987F
:102AD0000168486920F0800048610598006C20B9C1
:102AE000FFE70598806C38B1FFE705980168086832
:102AF00020F008000860FFE70598C16D3F2088407E
:102B0000019988600599012081F83500FFE7059952
:102B1000002081F83400FFE70598006D20B1FFE741
:102B20000598016D8847FFE77BE00598006800681D
:102B3000400300281AD5FFE70598006800680003E5
:102B4000002809D4FFE70598406C20B1FFE70598FD
:102B5000416C8847FFE708E00598C06B20B1FFE7AC
:102B60000598C16B8847FFE7FFE720E005980068FC
:102B70000068C005002811D4FFE7059801680868BF
:102B800020F0100008600599012081F83500FFE76A
:102B90000599002081F83400FFE7FFE70598C06B36
:102BA00020B1FFE70598C16B8847FFE7FFE7FFE724
:102BB000FFE70598406DA0B3FFE70598406DC0079B
:102BC00030B3FFE70599052081F8350005980168C5
:102BD000086820F001000860FFE7039801300390C7
:102BE0000299884201D9FFE707E0FFE705980068EE
:102BF0000068C0070028F0D1FFE70599012081F89F
:102C00003500FFE70599002081F83400FFE7FFE772
:102C10000598C06C20B1FFE70598C16C8847FFE7B5
:102C2000FFE706B080BD000080B586B004900020AC
:102C3000039000F041FB0290049820B9FFE70120C7
:102C40008DF81700A3E00498406A08B1FFE7FFE79A
:102C50000499022081F83500FFE70499002081F8EB
:102C60003400FFE704980168086820F0010008605C
:102C7000FFE7049800680068C00790B1FFE700F024
:102C80001BFB0299401A06280AD3FFE7049920206B
:102C900048650499032081F835008DF8170076E027
:102CA000E7E70498006800680390039848F23F0142
:102CB000CFF2100108400390049900914868D1F8C0
:102CC00008C0CB680A6940EA0C00184310434A69FF
:102CD00010438A691043CA691043096A0143039883
:102CE000084303900498406A042808D1FFE7049938
:102CF000C86A096B0143039808430390FFE70398F0
:102D00000499096808600498006840690390039872
:102D100020F0070003900498416A03980843039049
:102D20000498406A04281AD1FFE70498816A03983E
:102D3000084303900498C06A80B1FFE70498FFF746
:102D40009FFC50B1FFE70499402048650499012099
:102D500081F835008DF8170019E0FFE7FFE70398C9
:102D60000499096848610498FFF75EFC0190049893
:102D7000C16D3F2088400199886004990020486512
:102D8000049A012182F835108DF81700FFE79DF8AD
:102D9000170006B080BD000080B588B00690059190
:102DA0000492039300208DF80B000698806D01902B
:102DB000FFE7069890F83400012804D1FFE70220CD
:102DC0008DF81F0045E00699012081F83400FFE7E7
:102DD000FFE7069890F8350001282BD1FFE7069908
:102DE000022081F83500069900204865069805996B
:102DF000049A039BFFF7BCFC0698C16D3F208840F6
:102E00000199886006980168086840F0160008601B
:102E10000698006C38B1FFE706980168086840F032
:102E200008000860FFE706980168086840F00100A4
:102E3000086009E0FFE70699002081F83400FFE709
:102E400002208DF80B00FFE79DF80B008DF81F00A6
:102E5000FFE79DF81F0008B080BD000080B584B07A
:102E6000039000F029FA0290039801900198013034
:102E700048B1FFE740F22200C2F200000178019859
:102E800008440190FFE7FFE700F016FA0299401AA4
:102E90000199884201D2FFE7F6E704B080BD000047
:102EA0008EB00D900C9100200A90099008900B9024
:102EB000FFE70B980F2800F2CC81FFE70B99012068
:102EC00088400A900C9800680A990840099009986F
:102ED0000A99884240F0B881FFE70C98406800F0FA
:102EE0000300012807D0FFE70C98406800F00300BA
:102EF00002282FD1FFE70D98806808900B984100B9
:102F0000032000FA01F10898884308900C98C068E3
:102F10000B99490000FA01F10898084308900898B5
:102F20000D9988600D98406808900B99012000FA6F
:102F300001F10898884308900C984068C0F300108D
:102F40000B9900FA01F108980843089008980D9928
:102F50004860FFE70C98406800F00300032818D091
:102F6000FFE70D98C06808900B984100032000FA15
:102F700001F10898884308900C9880680B994900E3
:102F800000FA01F108980843089008980D99C86064
:102F9000FFE70C98406800F00300022826D1FFE705
:102FA0000D980B996FF0030202EA51010844006A80
:102FB00008900B9800F0070081000F2000FA01F143
:102FC0000898884308900C9800690B9901F0070154
:102FD000890000FA01F108980843089008980D99B3
:102FE0000B9B02EA530211440862FFE70D98006848
:102FF00008900B984100032000FA01F108988843DB
:1030000008900C98406800F003000B99490000FA02
:1030100001F108980843089008980D9908600C98E9
:1030200080798007002800F00E81FFE7FFE700208D
:10303000079043F64400C4F20200016841F4804165
:103040000160006800F4804007900798FFE70B9844
:1030500020F0030043F60801C4F201014058089033
:103060000B9800F0030081000F2000FA01F108988E
:10307000884308900D980021C4F20201884203D1D0
:10308000FFE7002006905EE00D9840F20041C4F298
:103090000201884203D1FFE70120059050E00D981E
:1030A00040F60001C4F20201884203D1FFE702208A
:1030B000049042E00D9840F60041C4F202018842BB
:1030C00003D1FFE70320039034E00D9841F20001A3
:1030D000C4F20201884203D1FFE70420029026E0F7
:1030E0000D9841F20041C4F20201884203D1FFE78A
:1030F0000520019018E00D9841F60001C4F202018C
:10310000884203D1FFE7062000900AE00D9941F6BE
:103110000042C4F202020820914208BF072000903A
:10312000FFE700980190FFE701980290FFE70298FF
:103130000390FFE703980490FFE704980590FFE7EA
:1031400005980690FFE70698C0B20B9901F00301BD
:10315000890000FA01F108980843089008980B9933
:1031600021F0030143F60802C4F20102885043F63D
:103170000840C4F201000068089009990898884343
:1031800008900C988079C006002805D5FFE70999BA
:10319000089808430890FFE7089843F60841C4F2EE
:1031A0000101086043F60C40C4F201000068089079
:1031B00009990898884308900C988079800600281F
:1031C00005D5FFE70999089808430890FFE7089894
:1031D00043F60C41C4F20101086043F60440C4F216
:1031E00001000068089009990898884308900C9895
:1031F00080798007002805D5FFE7099908980843DA
:103200000890FFE7089843F60441C4F20101086002
:1032100043F60040C4F2010000680890099908983C
:10322000884308900C988079C00728B1FFE7099976
:10323000089808430890FFE7089843F60041C4F255
:1032400001010860FFE7FFE7FFE70B9801300B90F3
:103250002FE60EB07047000082B00190ADF802106A
:1032600001980069BDF80210084204D0FFE7012070
:103270008DF8010003E000208DF80100FFE79DF8C4
:10328000010002B07047000082B00190ADF802105A
:103290008DF801209DF8010028B1FFE7BDF802007C
:1032A0000199886105E0BDF8020000040199886178
:1032B000FFE702B07047000040F6D870C2F200008D
:1032C0000068704780B58EB00C900C9820B9FFE76D
:1032D00001208DF8370043E10C9890F83D0040B98B
:1032E000FFE70C99002081F83C000C9800F03CF9B5
:1032F000FFE70C99242081F83D000C9801680868CC
:1033000020F0010008600C980168086840F4004053
:1033100008600C980168086820F40040086000F01C
:1033200059FB0A900C98406848F2A061C0F2010174
:1033300088420BD8FFE70A9948F28042C0F21E0289
:103340000020914238BF012009900AE00A9940F616
:103350000012C0F23D020020914238BF01200990C6
:10336000FFE70998012804D1FFE701208DF8370015
:10337000F6E00A984DF68361C4F21B31A0FB011000
:10338000800C0B900C980068406820F03F000B996F
:1033900008430C99096848600C980068006A20F09E
:1033A0003F0008900C98406848F2A061C0F201010B
:1033B000884204D8FFE70B98013007900EE00B9885
:1033C0004FF49671484344F6D351C1F26201A0FB19
:1033D0000101012000EB91100790FFE70898079981
:1033E00008430C99096808620C980068C0694CF69B
:1033F000FF71884306900C98406848F2A061C0F2C3
:10340000010188421FD8FFE70A9801380C994968E2
:103410004900B0FBF1F001306FF31F30032803D8EF
:10342000FFE7042005900BE00A9801380C994968E1
:103430004900B0FBF1F001306FF31F300590FFE75A
:10344000059804904CE00C98806868B9FFE70A98EA
:1034500001380C99496801EB4101B0FBF1F00130F2
:103460006FF31F3003900DE00A9801380C994968FA
:1034700019225143B0FBF1F00130042161F31F30F8
:103480000390FFE70398000518B9FFE701200290B9
:1034900023E00C98806868B9FFE70A9801380C9916
:1034A000496801EB4101B0FBF1F001306FF31F30CF
:1034B00001900DE00A9801380C994968192251438E
:1034C000B0FBF1F00130042161F31F300190FFE700
:1034D000019840F400400290FFE702980490FFE753
:1034E0000698049908430C990968C8610C9800680B
:1034F000006820F0C0000C9B1968DA691B6A1A4347
:10350000104308600C980068806848F2FF318843D7
:103510000C9A1168D36812691A43104388600C989A
:103520000068C06820F0FF000C9B19685A699B690D
:103530001A431043C8600C980168086840F0010005
:1035400008600C99002008640C9A202182F83D1034
:103550000C9908630C9981F83E008DF83700FFE75D
:103560009DF837000EB080BD80B588B00790002070
:10357000069005900490039002900798006845F229
:103580000041C4F20001884235D1FFE7FFE7002087
:10359000019043F63000C4F20200016841F00201DC
:1035A0000160006800F0020001900198FFE74FF40D
:1035B0004070029012200390002004900320059098
:1035C0000420069040F20040C4F2020002A9FFF776
:1035D00067FCFFE70020009043F64000C4F20200C1
:1035E000016841F400110160006800F400100090CF
:1035F0000098FFE7FFE708B080BD000040F222001E
:10360000C2F20000027840F6D871C2F200010868E8
:10361000104408607047000080B543F60041C4F2D2
:103620000201086840F400700860086840F4806097
:103630000860086840F480700860032000F08AF891
:103640000F2000F005F800F03BF8002080BD0000DE
:1036500080B582B0009040F21C00C2F20000006809
:1036600040F22201C2F200010A784FF47A71B1FBF4
:10367000F2F1B0FBF1F000F0A5FD20B1FFE7012071
:103680008DF8070018E000980F280DD8FFE7009983
:103690004FF0FF30002200F043F8009840F2240180
:1036A000C2F20001086003E001208DF8070003E08A
:1036B00000208DF80700FFE79DF8070002B080BDED
:1036C00082B0FFE70020019043F64400C4F20200FC
:1036D000016841F480410160006800F4804001907D
:1036E0000198FFE7FFE70020009043F64000C4F296
:1036F0000200016841F080510160006800F08050D4
:1037000000900098FFE702B07047000080B582B0DB
:103710008DF807009DF9070008F074FE02B080BD27
:1037200080B586B08DF817000491039200200290B6
:1037300008F080FE02909DF917000190029804990C
:10374000039A04F095FB0146019808F07BFE06B051
:1037500080BD000080B582B00190019808F094FE11
:1037600002B080BD80B584B002900191029820B96A
:10377000FFE701208DF80F0021E1019843F6004199
:10378000C4F20201096801F00701884212D9FFE77B
:10379000019943F60040C4F202000170006800F095
:1037A00007000199884204D0FFE701208DF80F003F
:1037B00005E1FFE702980078800700282AD5FFE797
:1037C000029800784007002809D5FFE743F6080172
:1037D000C4F20201086840F4E0500860FFE7029874
:1037E00000780007002809D5FFE743F60801C4F276
:1037F0000201086840F460400860FFE743F60801F2
:10380000C4F20201086820F0F000029A92681043A6
:103810000860FFE702980078C00700286ED0FFE735
:1038200002984068012811D1FFE743F60000C4F276
:103830000200006800F400310020B0EB514F04D1C9
:10384000FFE701208DF80F00B9E02CE002984068F6
:10385000022805D0FFE702984068032811D1FFE74E
:1038600043F60000C4F20200006800F0007100207E
:10387000B0EB516F04D1FFE701208DF80F009EE0FF
:1038800010E043F60000C4F20200006800F00201FC
:103890000020B0EB510F04D1FFE701208DF80F009D
:1038A0008DE0FFE7FFE743F60801C4F20201086874
:1038B00020F00300029A526810430860FFF7FCFCF6
:1038C0000090FFE743F60800C4F20200006800F031
:1038D0000C0002994968B0EB810F0ED0FFE7FFF7AB
:1038E000EBFC0099401A41F28931884204D3FFE78A
:1038F00003208DF80F0062E0E4E7FFE7019843F64C
:103900000041C4F20201096801F00701884212D2A5
:10391000FFE7019943F60040C4F20200017000681D
:1039200000F007000199884204D0FFE701208DF8DC
:103930000F0044E0FFE702980078400700280CD50C
:10394000FFE743F60801C4F20201086820F4E050E2
:10395000029AD26810430860FFE7029800780007D7
:1039600000280DD5FFE743F60801C4F202010868FC
:1039700020F46040029A126940EAC2000860FFE742
:1039800000F04CF843F60801C4F202010968C9B21C
:103990000A094DF28401C0F60001895CC84040F27A
:1039A0001C01C2F20001086040F22400C2F20000D3
:1039B0000068FFF74DFE00208DF80F00FFE79DF82F
:1039C0000F0004B080BD000040F21C00C2F20000F5
:1039D0000068704780B5FFF7F7FF43F60801C4F2AF
:1039E00002010968C1F382224DF29401C0F6000180
:1039F000895CC84080BD000080B5FFF7E5FF43F655
:103A00000801C4F20201096889B24A0B4DF294011F
:103A1000C0F60001895CC84080BD000080B586B05A
:103A20000020059004900390029043F60800C4F231
:103A30000200006800F00C000146019140B1FFE770
:103A4000019804280AD0FFE7019808280CD04FE01D
:103A500042F20040C0F2F40002904FE041F2002038
:103A6000C0F27A00029049E043F60400C4F202007A
:103A7000016801F03F01059100684002002813D55C
:103A8000FFE743F60400C4F202000068C0F38810A8
:103A900041F20021C0F27A01A0FB0101059A002346
:103AA000FCF78EFB049012E043F60400C4F202001F
:103AB0000068C0F3881042F20041C0F2F401A0FB9C
:103AC0000101059A0023FCF77BFB0490FFE743F616
:103AD0000400C4F20200006800F44031022000EB50
:103AE000D130039004980399B0FBF1F0029005E007
:103AF00042F20040C0F2F4000290FFE7029806B0E4
:103B000080BD000080B586B00490049820B9FFE71E
:103B100001208DF8170050E304980078C0070028B2
:103B200000F0A580FFE743F60800C4F20200006839
:103B300000F00C00042813D0FFE743F60800C4F29D
:103B40000200006800F00C0008281ED1FFE743F6D1
:103B50000400C4F2020000684002002815D5FFE707
:103B600043F60000C4F20200006800F400310020B7
:103B7000B0EB514F08D0FFE70498406820B9FFE749
:103B800001208DF8170018E370E0FFE70498406803
:103B9000B0F5803F09D1FFE743F60001C4F202010E
:103BA000086840F48030086020E004984068B0F570
:103BB000A02F0DD1FFE743F60001C4F2020108680F
:103BC00040F480200860086840F4803008600CE011
:103BD00043F60001C4F20201086820F48030086056
:103BE000086820F480200860FFE7FFE7FFE70498FB
:103BF0004068E8B1FFE7FFF75FFB0390FFE743F69C
:103C00000000C4F20200006800F400310020B0EBB4
:103C1000514F0CD1FFE7FFF74FFB0399401A65287E
:103C200004D3FFE703208DF81700C6E2E7E71CE0A6
:103C3000FFF742FB0390FFE743F60000C4F20200E7
:103C4000006800F400310020B0EB514F0CD0FFE7CA
:103C5000FFF732FB0399401A652804D3FFE70320DE
:103C60008DF81700A9E2E7E7FFE7FFE7FFE7049811
:103C700000788007002840F19680FFE743F60800AF
:103C8000C4F20200006810F00C0F13D0FFE743F6F7
:103C90000800C4F20200006800F00C0008282CD1D3
:103CA000FFE743F60400C4F2020000684002002867
:103CB00023D4FFE743F60000C4F20200006800F0DE
:103CC00002010020B0EB510F09D0FFE70498C06853
:103CD000012804D0FFE701208DF817006DE243F6BC
:103CE0000001C4F20201086820F0F800049A126989
:103CF00040EAC2000860FFE754E00498C06870B36F
:103D0000FFE70021C4F2472101200860FFF7D4FA41
:103D10000390FFE743F60000C4F20200006800F0E1
:103D200002010020B0EB510F0CD1FFE7FFF7C4FAFE
:103D30000399401A032804D3FFE703208DF81700E6
:103D40003BE2E7E743F60001C4F20201086820F015
:103D5000F800049A126940EAC200086021E00021DC
:103D6000C4F2472100200860FFF7A6FA0390FFE79E
:103D700043F60000C4F20200006800F002010020D7
:103D8000B0EB510F0CD0FFE7FFF796FA0399401AFA
:103D9000032804D3FFE703208DF817000DE2E7E7BF
:103DA000FFE7FFE7FFE704980078000700284BD5FE
:103DB000FFE70498406918B3FFE740F68061C4F25A
:103DC000472101200860FFF777FA0390FFE743F6E9
:103DD0007400C4F20200006800F002010020B0EBA1
:103DE000510F0CD1FFE7FFF767FA0399401A032838
:103DF00004D3FFE703208DF81700DEE1E7E722E0B8
:103E000040F68061C4F2472100200860FFF754FAB1
:103E10000390FFE743F67400C4F20200006800F06C
:103E200002010020B0EB510F0CD0FFE7FFF744FA7E
:103E30000399401A032804D3FFE703208DF81700E5
:103E4000BBE1E7E7FFE7FFE70498007840070028B9
:103E500040F1CE80FFE700208DF8070043F64000D8
:103E6000C4F202000068C000002815D4FFE7FFE795
:103E70000020009043F64000C4F20200016841F0C7
:103E800080510160006800F0805000900098FFE7CA
:103E900001208DF80700FFE747F20000C4F20000A0
:103EA0000068C005002822D4FFE747F20001C4F2F1
:103EB0000001086840F480700860FFF7FDF9039086
:103EC000FFE747F20000C4F200000068C0050028C8
:103ED0000CD4FFE7FFF7F0F90399401A032804D345
:103EE000FFE703208DF8170067E1EAE7FFE7FFE748
:103EF00004988068012809D1FFE743F67001C4F2F5
:103F00000201086840F0010008601FE00498806822
:103F100005280DD1FFE743F67001C4F202010868DD
:103F200040F004000860086840F0010008600CE000
:103F300043F67001C4F20201086820F00100086035
:103F4000086820F004000860FFE7FFE7FFE7049837
:103F50008068F8B1FFE7FFF7AFF90390FFE743F69A
:103F60007000C4F20200006800F002010020B0EB13
:103F7000510F0ED1FFE7FFF79FF90399401A41F265
:103F80008931884204D3FFE703208DF8170014E13C
:103F9000E5E71EE0FFF790F90390FFE743F67000B6
:103FA000C4F20200006800F002010020B0EB510FE3
:103FB0000ED0FFE7FFF780F90399401A41F28931EB
:103FC000884204D3FFE703208DF81700F5E0E5E70A
:103FD000FFE79DF80700012809D1FFE743F64001FC
:103FE000C4F20201086820F080500860FFE7FFE794
:103FF00004988069002800F0DC80FFE743F60800A1
:10400000C4F20200006800F00C00082800F085806F
:10401000FFE70498806902285CD1FFE76021C4F2C1
:10402000472100200860FFF747F90390FFE743F6B8
:104030000000C4F20200006800F000710020B0EB44
:10404000516F0CD0FFE7FFF737F90399401A0328A7
:1040500004D3FFE703208DF81700AEE0E7E70499EB
:10406000C869D1F820C04B6A8A6A40EA0C0040EA6D
:104070008310D2034FF6FF739A43A2F580321043A8
:10408000C96A40EA016043F60401C4F20201086013
:104090006021C4F2472101200860FFF70DF9039069
:1040A000FFE743F60000C4F20200006800F0007170
:1040B0000020B0EB516F0CD1FFE7FFF7FDF803993B
:1040C000401A032804D3FFE703208DF8170074E09B
:1040D000E7E721E06021C4F2472100200860FFF7F4
:1040E000EBF80390FFE743F60000C4F2020000681B
:1040F00000F000710020B0EB516F0CD0FFE7FFF72C
:10410000DBF80399401A032804D3FFE703208DF856
:10411000170052E0E7E7FFE74AE0049880690128CA
:1041200004D1FFE701208DF8170046E043F60400B4
:10413000C4F202000068029004988069012831D01E
:10414000FFE7029800F480000499C969884229D1E8
:10415000FFE7029800F03F000499096A884221D1E4
:10416000FFE7029847F6C07108400499496AB0EB2E
:10417000811F17D1FFE7029800F440300499896A43
:10418000C9034FF6FF729143A1F58031884209D1EE
:10419000FFE7029800F070600499C96AB0EB016F04
:1041A00004D0FFE701208DF8170006E0FFE7FFE7E6
:1041B000FFE700208DF81700FFE79DF8170006B015
:1041C00080BD000080B582B00190019805F074FDBB
:1041D00002B080BD81B0009001B0704781B0009006
:1041E00001B0704784B00290019100200090FFE779
:1041F000029890F83C00012804D1FFE702208DF8D6
:104200000F0044E00299012081F83C00FFE7FFE73E
:10421000009820F0FF000199C968084300900098B9
:1042200020F440700199896808430090009820F4B8
:1042300080600199496808430090009820F400606C
:104240000199096808430090009820F48050019972
:10425000096908430090009820F4005001994969C9
:1042600008430090009820F480400199C9690843F0
:1042700000900098029909684864FFE702990020BD
:1042800081F83C00FFE700208DF80F00FFE79DF864
:104290000F0004B07047000085B003900291FFE763
:1042A000039890F83C00012804D1FFE702208DF824
:1042B00013007EE00399012081F83C00FFE7FFE74F
:1042C0000399022081F83D0003980068406801903E
:1042D0000398006880680090019820F070000190B9
:1042E00002980168019808430190019803990968B0
:1042F0004860039800680021C4F2010188423CD064
:10430000FFE703980068B0F1804F36D0FFE70398CD
:10431000006840F20041C4F2000188422DD0FFE75E
:104320000398006840F60001C4F20001884224D0DE
:10433000FFE70398006840F60041C4F2000188429C
:104340001BD0FFE70398006840F20041C4F201016E
:10435000884212D0FFE70398006844F20001C4F2DB
:104360000101884209D0FFE70398006841F6000187
:10437000C4F2000188420ED1FFE7009820F08000CF
:1043800000900298416800980843009000980399B3
:1043900009688860FFE70399012081F83D00FFE785
:1043A0000399002081F83C00FFE700208DF81300FE
:1043B000FFE79DF8130005B07047000080B582B09C
:1043C0000090009820B9FFE701208DF807003FE03A
:1043D000009890F83D0040B9FFE70099002081F86F
:1043E0003C00009800F038F8FFE70099022081F8BF
:1043F0003D00009951F8040B05F0FCFC00990120E8
:1044000081F84600FFE70099012081F83E000099FD
:1044100081F83F00009981F84000009981F841003F
:10442000FFE7FFE70099012081F84200009981F839
:104430004300009981F84400009981F84500FFE7A6
:104440000099012081F83D0000208DF80700FFE76A
:104450009DF8070002B080BD80B586B00590059834
:1044600000680021C4F20101884212D1FFE7FFE792
:104470000020049043F64400C4F20200016841F0B9
:1044800001010160006800F0010004900498FFE75A
:104490005CE00598006840F60041C4F200018842E3
:1044A00012D1FFE7FFE70020039043F64000C4F27B
:1044B0000200016841F008010160006800F0080096
:1044C00003900398FFE740E00598006841F200017F
:1044D000C4F2000188421BD1FFE7FFE700200290F1
:1044E00043F64000C4F20200016841F0100101608F
:1044F000006800F0100002900298FFE7362000905C
:1045000000221146FFF70CF90098FFF7FFF81BE0B7
:104510000598006841F60001C4F20001884212D1FA
:10452000FFE7FFE70020019043F64000C4F20200DD
:10453000016841F040010160006800F04000019016
:104540000198FFE7FFE7FFE7FFE7FFE706B080BD61
:1045500080B586B00490039100208DF80B00FFE732
:10456000049890F83C00012804D1FFE702208DF860
:104570001700ABE00499012081F83C00FFE7FFE75A
:104580000499022081F83D00049800688068019039
:10459000019820F077000190019820F47F4001906D
:1045A00001980499096888600398006800900028C1
:1045B00072D0FFE7009810286ED0FFE700982028FF
:1045C0006AD0FFE70098302866D0FFE700984028BF
:1045D00055D0FFE70098502837D0FFE700986028B3
:1045E00040D0FFE7009870280BD0FFE70098B0F5A7
:1045F000805F05D0FFE70098B0F5005F16D052E06D
:1046000055E004980068039B5A689968DB6805F0D8
:10461000DFFC0498006880680190019840F0770002
:104620000190019804990968886040E00498006846
:10463000039B5A689968DB6805F0CAFC0498016816
:10464000886840F48040886031E004980068039AEC
:104650005168D26805F0A8FE04980068502105F062
:10466000D1FC24E004980068039A5168D26805F0F0
:10467000C3FE04980068602105F0C4FC17E00498AC
:104680000068039A5168D26805F08EFE04980068AD
:10469000402105F0B7FC0AE0049800680399096816
:1046A00005F0B0FC03E001208DF80B00FFE7049952
:1046B000012081F83D00FFE70499002081F83C00CB
:1046C000FFE79DF80B008DF81700FFE79DF8170036
:1046D00006B080BD80B586B004900391049820B9DF
:1046E000FFE701208DF8170088E0049890F83D005E
:1046F00040B9FFE70499002081F83C00049800F0DD
:1047000081F8FFE70499022081F83D0004980168D0
:10471000886844F2070290438860049951F8040BBA
:1047200005F068FB049800688068029004980068AF
:104730008069019004980068006A009003980168FD
:10474000029808430290019840F203318843019097
:1047500003998868896940EA01210198084301901A
:10476000019840F60C418843019001984FF2F00106
:10477000884301900399C868C96940EA01210198FA
:104780000843019003990869096A000140EA013170
:10479000019808430190009820F0220000900098B2
:1047A00020F08800009003994868496940EA0111A7
:1047B000009808430090029804990968886001985D
:1047C0000499096888610098049909680862049945
:1047D000012081F84600049981F83E00049981F88F
:1047E0003F00049981F84200049981F8430004993C
:1047F00081F83D0000208DF81700FFE79DF81700B5
:1048000006B080BD80B58EB00D9000200C900B904E
:104810000A90099008900D980068B0F1804F32D14D
:10482000FFE7FFE70020079043F64000C4F20200D4
:10483000016841F001010160006800F0010007908B
:104840000798FFE7FFE70020069043F63000C4F228
:104850000200016841F001010160006800F0010000
:1048600006900698FFE70320089002200990002098
:104870000A900B9001200C900020C4F2020008A9BD
:10488000FEF70EFBB3E00D98006840F20041C4F261
:104890000001884231D1FFE7FFE70020059043F691
:1048A0004000C4F20200016841F0020101600068AA
:1048B00000F0020005900598FFE7FFE70020049054
:1048C00043F63000C4F20200016841F001010160CA
:1048D000006800F0010004900498FFE7C0200890F1
:1048E0000220099000210A910B910C900020C4F243
:1048F000020008A9FEF7D4FA78E00D98006840F6A7
:104900000001C4F20001884232D1FFE7FFE7002036
:10491000039043F64000C4F20200016841F0040134
:104920000160006800F0040003900398FFE7FFE7D0
:104930000020029043F63000C4F20200016841F00A
:1049400002010160006800F0020002900298FFE797
:10495000C02008900220099000210A910B910C9030
:1049600040F20040C4F2020008A9FEF799FA3CE0C8
:104970000D98006840F20041C4F20101884233D131
:10498000FFE7FFE70020019043F64400C4F2020075
:10499000016841F002010160006800F0020001902E
:1049A0000198FFE7FFE70020009043F63000C4F2D3
:1049B0000200016841F004010160006800F0040099
:1049C00000900098FFE7C020089002200990002086
:1049D0000A900B9003200C9040F60000C4F20200F5
:1049E00008A9FEF75DFAFFE7FFE7FFE7FFE70EB074
:1049F00080BD000081B0009001B0704780B584B0E8
:104A0000039003980068C0680290039800680069EA
:104A100001909DF804008007002824D5FFE79DF849
:104A20000800800700281DD5FFE7039801686FF094
:104A300002000861039901200877039800688069E3
:104A4000800720B1FFE70398FFF7D4FF06E0039843
:104A500000F070F9039800F065FAFFE70399002071
:104A60000877FFE7FFE79DF804004007002825D5F9
:104A7000FFE79DF80800400700281ED5FFE70398D0
:104A800001686FF004000861039902200877039819
:104A90000068806910F4407F04D0FFE70398FFF7B7
:104AA000A9FF06E0039800F045F9039800F03AFAF0
:104AB000FFE7039900200877FFE7FFE79DF8040070
:104AC0000007002824D5FFE79DF80800000700280C
:104AD0001DD5FFE7039801686FF00800086103998E
:104AE0000420087703980068C069800720B1FFE7B9
:104AF0000398FFF77FFF06E0039800F01BF9039887
:104B000000F010FAFFE7039900200877FFE7FFE7BE
:104B10009DF80400C006002825D5FFE79DF8080091
:104B2000C00600281ED5FFE7039801686FF010004B
:104B3000086103990820087703980068C06910F499
:104B4000407F04D0FFE70398FFF754FF06E0039887
:104B500000F0F0F8039800F0E5F9FFE70399002072
:104B60000877FFE7FFE79DF80400C00778B1FFE78B
:104B70009DF80800C00748B1FFE7039801686FF08F
:104B800001000861039800F03BFBFFE7FFE79DF899
:104B900004000006002810D5FFE79DF80800000675
:104BA000002809D5FFE7039801686FF080000861CD
:104BB0000398FFF70FFBFFE7FFE79DF804004006AF
:104BC000002810D5FFE79DF808004006002809D509
:104BD000FFE7039801686FF040000861039800F058
:104BE00013FBFFE7FFE79DF804008006002810D5BF
:104BF000FFE79DF808008006002809D5FFE7039825
:104C000001686FF0200008610398FFF7E7FAFFE7FB
:104C1000FFE704B080BD000080B58AB00990002095
:104C2000089007900690059004900998006800216C
:104C3000C4F20101884223D1FFE7FFE7002003907F
:104C400043F63000C4F20200016841F01001016037
:104C5000006800F0100003900398FFE74FF4D04085
:104C600004900220059000200690079001200890F3
:104C700041F20000C4F2020004A9FEF711F956E067
:104C80000998006840F60041C4F20001884220D132
:104C9000FFE7FFE70020029043F63000C4F2020075
:104CA000016841F001010160006800F0010002901C
:104CB0000298FFE70C200490022005900021069145
:104CC000079108900020C4F2020004A9FEF7E8F85A
:104CD0002CE00998006841F60001C4F20001884206
:104CE00023D1FFE7FFE70020019043F63000C4F234
:104CF0000200016841F002010160006800F002005A
:104D000001900198FFE74FF4404004900220059085
:104D10000020069007900920089040F20040C4F25D
:104D2000020004A9FEF7BCF8FFE7FFE7FFE70AB0BF
:104D300080BD000081B0009001B0704780B586B0A2
:104D400004900391029200208DF80700FFE7049879
:104D500090F83C00012804D1FFE702208DF81700ED
:104D600089E00499012081F83C00FFE7FFE7029801
:104D700000900C2800F270800099DFE801F0076DC8
:104D80006D6D206D6D6D3A6D6D6D5300049800680A
:104D9000039905F04DF904980168886940F008000E
:104DA000886104980168886920F00400886103988C
:104DB00002690498016888691043886150E004988A
:104DC0000068039905F0AAF904980168886940F41D
:104DD0000060886104980168886920F480608861B7
:104DE0000398026904980168886940EA0220886192
:104DF00036E004980068039905F00AFA04980168FF
:104E0000C86940F00800C86104980168C86920F0CA
:104E10000400C8610398026904980168C8691043D6
:104E2000C8611DE004980068039905F06BFA0498C6
:104E30000168C86940F40060C86104980168C869E5
:104E400020F48060C8610398026904980168C86909
:104E500040EA0220C86103E001208DF80700FFE767
:104E6000FFE70499002081F83C00FFE79DF8070068
:104E70008DF81700FFE79DF8170006B080BD000011
:104E800080B582B00090009820B9FFE701208DF82E
:104E900007003FE0009890F83D0040B9FFE7009917
:104EA000002081F83C00009800F038F8FFE70099F6
:104EB000022081F83D00009951F8040B04F09AFF9C
:104EC0000099012081F84600FFE70099012081F850
:104ED0003E00009981F83F00009981F84000009958
:104EE00081F84100FFE7FFE70099012081F84200C7
:104EF000009981F84300009981F84400009981F8F5
:104F00004500FFE70099012081F83D0000208DF861
:104F10000700FFE79DF8070002B080BD81B0009058
:104F200001B0704781B0009001B0704780B58CB07F
:104F30000A900991099828B9FFE70A9890F83E006D
:104F400007901CE00998042805D1FFE70A9890F81B
:104F50003F00069010E00998082805D1FFE70A985D
:104F600090F84000059004E00A9890F84100059000
:104F7000FFE705980690FFE706980790FFE7079878
:104F8000012804D0FFE701208DF82F00AFE0099839
:104F900028B9FFE70A99022081F83E001EE009982F
:104FA000042806D1FFE70A99022081F83F00049007
:104FB00012E00998082806D1FFE70A99022081F833
:104FC0004000039005E00A99022081F84100039017
:104FD000FFE703980490FFE70498FFE70A9800684A
:104FE00009990122019204F0D7FF01980A990968F2
:104FF0000022C4F20102914202900CD0FFE70A980D
:1050000000684FF60041CBF6FE710844B0FA80F01C
:1050100040090290FFE70298C00738B1FFE70A98FD
:105020000168486C40F400404864FFE70A98006853
:105030000021C4F2010188423CD0FFE70A980068D1
:10504000B0F1804F36D0FFE70A98006840F2004187
:10505000C4F2000188422DD0FFE70A98006840F6AC
:105060000001C4F20001884224D0FFE70A980068DA
:1050700040F60041C4F2000188421BD0FFE70A98C5
:10508000006840F20041C4F20101884212D0FFE7FB
:105090000A98006844F20001C4F20101884209D074
:1050A000FFE70A98006841F60001C4F20001884257
:1050B00012D1FFE70A980068806800F007000890A6
:1050C0000898062807D0FFE70A980168086840F0AA
:1050D00001000860FFE706E00A980168086840F0F0
:1050E00001000860FFE700208DF82F00FFE79DF822
:1050F0002F000CB080BD000080B586B005900491F3
:10510000059800680499002204F046FF059801689C
:1051100001200022C4F20102914203900CD0FFE76B
:10512000059800684FF60041CBF6FE710844B0FACE
:1051300080F040090390FFE70398C007D8B1FFE76C
:10514000FFE705980068006A41F21111084210D18A
:10515000FFE705980068006A40F24441084207D121
:10516000FFE705980168486C20F400404864FFE7B9
:10517000FFE7FFE7FFE7FFE705980068006A41F2F5
:105180001111084210D1FFE705980068006A40F24B
:105190004441084207D1FFE705980168086820F0FC
:1051A00001000860FFE7FFE7FFE7049828B9FFE781
:1051B0000599012081F83E001EE00498042806D1DC
:1051C000FFE70599012081F83F00029012E0049862
:1051D000082806D1FFE70599012081F840000190D9
:1051E00005E00599012081F841000190FFE7019851
:1051F0000290FFE70298FFE7002006B080BD0000A4
:1052000081B0009001B0704781B0009001B070474C
:1052100082B00190ADF8021002B0704780B586B040
:105220000490FFE7FFE70498006850E8030F20F4BC
:1052300090700390FFE703990498026842E8031016
:105240000028F0D1FFE7FFE7FFE7FFE704980068D9
:1052500050E8050F20F001000290FFE70299049842
:10526000026842E805100028F0D1FFE7FFE7049844
:10527000006B012814D1FFE7FFE7FFE704980068FF
:1052800050E8030F20F010000190FFE70199049807
:10529000026842E803100028F0D1FFE7FFE7FFE7CC
:1052A0000498006840694006002832D5FFE7FFE710
:1052B000FFE70498006850E8050F20F040000090D8
:1052C000FFE700990498026842E805100028F0D131
:1052D000FFE7FFE70498C06BD0B1FFE70498C16B0C
:1052E000002008650498C06BFDF770FA78B1FFE7FD
:1052F0000498C06BFDF702FB202807D1FFE7049953
:105300001020486403208DF817000EE0FFE7FFE748
:10531000FFE704990020C885049A202182F84210F2
:10532000049908638DF81700FFE79DF8170006B091
:1053300080BD000080B584B00290FFE7FFE70298CF
:10534000006850E8030F20F0C0000190FFE70199CA
:105350000298026842E803100028F0D1FFE7FFE757
:105360000298006840690006002832D5FFE7FFE791
:10537000FFE70298006850E8050F20F080000090D9
:10538000FFE700990298026842E805100028F0D172
:10539000FFE7FFE70298806BD0B1FFE70298816BCF
:1053A000002008650298806BFDF710FA78B1FFE7DE
:1053B0000298806BFDF7A2FA202807D1FFE7029937
:1053C0001020486403208DF80F000CE0FFE7FFE792
:1053D000FFE702990020C884029A202182F8411038
:1053E0008DF80F00FFE79DF80F0004B080BD0000AE
:1053F00080B582B001900198006841F20001C4F2CA
:105400000101884203D1FFE703F0BCFD2CE00198C5
:10541000006844F60001C4F2000188420CD1FFE7A5
:1054200040F69440C2F2000040F26D01C2F2000169
:10543000012200F02FFE16E00198006844F20041BE
:10544000C4F20001884209D0FFE70198006841F2E8
:105450000041C4F20101884204D1FFE7019802F043
:1054600055F9FFE7FFE7FFE702B080BD80B592B0D6
:105470001190119800680068109011980068C06839
:105480000F901198006840690E9000200D900C90CC
:10549000109800F00F000D900D9888B9FFE79DF867
:1054A0004000800600280AD5FFE79DF83C008006F2
:1054B000002804D5FFE7119805F0E8F802E2FFE7BD
:1054C0000D98002800F0C280FFE79DF83800C00763
:1054D00038B9FFE7BDF83C0010F4907F00F0B680CB
:1054E000FFE79DF84000C00758B1FFE79DF83D0079
:1054F000C00730B1FFE71199486C40F001004864E3
:10550000FFE79DF84000400700280BD5FFE79DF816
:105510003800C00730B1FFE71199486C40F0020035
:105520004864FFE79DF84000800700280BD5FFE79F
:105530009DF83800C00730B1FFE71199486C40F082
:1055400004004864FFE79DF840000007002811D5DB
:10555000FFE79DF83C008006002805D4FFE79DF892
:105560003800C00730B1FFE71199486C40F00800DF
:105570004864FFE71198406C002866D0FFE79DF86B
:105580004000800600280AD5FFE79DF83C00800611
:10559000002804D5FFE7119805F078F8FFE7119887
:1055A00000684069C0F380100C901198406C0007AF
:1055B000002804D4FFE70C9800283ED0FFE711989C
:1055C00004F0EAFF119800684069400600282FD5D2
:1055D000FFE7FFE7FFE71198006850E8050F20F0AC
:1055E00040000B90FFE70B991198026842E8051004
:1055F0000028F0D1FFE7FFE71198C06B98B1FFE7F3
:105600001198C16B4AF26D40C0F600000865119810
:10561000C06BFDF751F928B1FFE71198C06B016D20
:105620008847FFE703E01198FFF7E2FEFFE703E09A
:105630001198FFF7DDFEFFE706E01198FFF7D8FEAF
:10564000119900204864FFE7FFE73BE11198006BE8
:10565000012840F01781FFE79DF84000C0060028B0
:1056600040F11081FFE79DF83C00C006002840F1A2
:105670000981FFE7FFE700200A90119800680068A1
:105680000A901198006840680A900A98FFE71198FC
:10569000006840694006002840F19A80FFE71198B1
:1056A000C06B00684068ADF82600BDF826000028F1
:1056B00075D0FFE7BDF826001199898D88426EDA12
:1056C000FFE7BDF826001199C8851198C06BC06925
:1056D000B0F5807F58D0FFE7FFE7FFE7119800683B
:1056E00050E8030F20F480700890FFE708991198A4
:1056F000026842E803100028F0D1FFE7FFE7FFE768
:10570000FFE71198006850E8050F20F001000790AE
:10571000FFE707991198026842E805100028F0D1C8
:10572000FFE7FFE7FFE7FFE71198006850E8050F84
:1057300020F040000690FFE706991198026842E8C1
:1057400005100028F0D1FFE7FFE71199202081F82C
:105750004200119900200863FFE7FFE711980068F5
:1057600050E8030F20F010000590FFE7059911980D
:10577000026842E803100028F0D1FFE7FFE7119824
:10578000C06BFDF723F8FFE71199022048631198D9
:10579000818DC28D891A89B2FFF73AFD17E0BDF8F5
:1057A00026001199898D884210D1FFE71198C06BAE
:1057B000C069B0F5807F08D1FFE7119902204863E6
:1057C0001198818DFFF724FDFFE7FFE7FFE779E000
:1057D0001199888DC98D401AADF812001198C08DAD
:1057E00000284ED0FFE7BDF81200002849D0FFE79F
:1057F000FFE7FFE71198006850E8030F20F490706E
:105800000390FFE703991198026842E8031000280B
:10581000F0D1FFE7FFE7FFE7FFE71198006850E8E6
:10582000050F20F001000290FFE70299119802682D
:1058300042E805100028F0D1FFE7FFE7119920208A
:1058400081F84200119900200863FFE7FFE71198F3
:10585000006850E8030F20F010000190FFE7019965
:105860001198026842E803100028F0D1FFE7FFE733
:105870001199022048631198BDF81210FFF7C8FC77
:10588000FFE71FE09DF84000000600280AD5FFE76B
:105890009DF83C000006002804D5FFE7119805F0AC
:1058A00079F80FE09DF84000400600280AD5FFE790
:1058B0009DF83C004006002804D5FFE7119804F04D
:1058C000B5FEFFE712B080BD80B582B000900098B1
:1058D00020B9FFE701208DF8070040E000988069BB
:1058E00008B1FFE700E0FFE7009890F8410040B9F9
:1058F000FFE70099002081F84000009800F034F89C
:10590000FFE70099242081F8410000980168C868E9
:1059100020F40050C860009804F06CFF0098016803
:10592000086920F49040086100980168486920F0F7
:105930002A00486100980168C86840F40050C860B7
:10594000009900204864009A202182F84110009AB2
:1059500082F84210009948638DF80700FFE79DF830
:10596000070002B080BD000080B5AEB02D900020D1
:105970002C902B902A90299028902D98006844F61E
:105980000041C4F20001884240F09580FFE7FFE744
:105990000020279043F64000C4F20200016841F461
:1059A00000210160006800F4002027902798FFE79D
:1059B000FFE70020269043F63000C4F202000168A1
:1059C00041F004010160006800F004002690269870
:1059D000FFE74FF4406028900220299000201990A2
:1059E0002A9003202B9008202C9040F60000C4F24F
:1059F000020028A9FDF754FA199940F2B050C2F2FA
:105A000000001A9046F24002C4F2020202604FF017
:105A1000006242608160C1604FF480620261416156
:105A200081614FF48072C26101624162FDF7FCF84E
:105A300018B1FFE7FCF7C6FEFFE7FFE72D9840F23D
:105A4000B051C2F20001C1632D988863FFE740F2B4
:105A50001060C2F20000189046F27001C4F2020118
:105A600001604FF000614160402181600021C16010
:105A70004FF48062026141618161C16101624162F2
:105A8000FDF7D2F818B1FFE7FCF79CFEFFE7FFE750
:105A90002D9840F21061C2F2000181632D98886355
:105AA000FFE73420179000221146FDF739FE1798C2
:105AB000FDF72CFEECE22D98006845F20001C4F2DF
:105AC0000001884240F0BF80FFE7FFE700202590FB
:105AD00043F64000C4F20200016841F48011016005
