:020000040800F2
:100000005009002029020008EB1A0008A515000875
:10001000E91A00081F040008691F0008000000001A
:10002000000000000000000000000000EF1A0008BF
:100030002104000800000000ED1A0008F11A000871
:10004000430200084302000843020008430200087C
:10005000430200084302000843020008430200086C
:10006000430200084302000843020008430200085C
:10007000430200084302000843020008430200084C
:10008000430200084302000843020008430200083C
:10009000430200084302000843020008430200082C
:1000A000430200084302000843020008430200081C
:1000B000430200084302000843020008430200080C
:1000C00043020008430200084302000843020008FC
:1000D00043020008430200084302000843020008EC
:1000E00043020008430200084302000843020008DC
:1000F00043020008430200084302000843020008CC
:1001000043020008430200084302000843020008BB
:1001100043020008430200084302000843020008AB
:10012000430200084302000843020008430200089B
:10013000430200084302000843020008430200088B
:10014000430200084302000843020008430200087B
:10015000430200084302000843020008430200086B
:10016000430200084302000843020008430200085B
:100170004302000843020008430200080000000098
:10018000430200084302000800F002F800F03CF8C7
:100190000AA090E8000C82448344AAF10107DA45E2
:1001A00001D100F031F8AFF2090EBAE80F0013F0F8
:1001B000010F18BFFB1A43F001031847281E000067
:1001C000481E0000103A24BF78C878C1FAD85207F8
:1001D00024BF30C830C144BF04680C6070470000C1
:1001E0000023002400250026103A28BF78C1FBD840
:1001F000520728BF30C148BF0B6070471FB501F0E0
:10020000DFFE1FBD10B510BD00F0CFF81146FFF79F
:10021000F5FF01F0BAFE00F0EDF803B4FFF7F2FFCE
:1002200003BC00F0F5F80000094880470948004782
:10023000FEE7FEE7FEE7FEE7FEE7FEE7FEE7FEE796
:10024000FEE7FEE704480549054A064B70470000F3
:100250008D1B000889010008500300205009002070
:10026000500500205005002053EA020C00F0698080
:100270002DE9F04B4FF00006002B1FBFB3FA83F5BA
:1002800003FA05F424FA05F65E4012BF1643B2FAEB
:1002900082F502FA05F4C5F120051EBF22FA05FC1D
:1002A00044EA0C04203556EA044C4FEA144418BFC3
:1002B000641C4FF000084FF00009904271EB030CF2
:1002C00039D3002919BFB1FA81F701FA07F6B0FA5C
:1002D00080F700FA07F6C7F120071EBF20FA07FCD7
:1002E00046EA0C062037B6FBF4FCA7EB0507103FE7
:1002F00007F01F0BCBF120060CFA0BFB2CFA06F6CD
:1003000044BFB3460026202FA4BF5E464FF0000B2B
:100310005BEA060C08BF4FF0010B19EB0B09ABFBB6
:10032000027C48EB0608C01B06FB02CC0BFB03CC8F
:1003300071EB0C01C1E70B46024641464846BDE859
:10034000F08B13B54FF000004FF00001AFF30080C9
:10035000BDE81C4070474FF0000200B513469446BC
:100360009646203922BFA0E80C50A0E80C50B1F10D
:100370002001BFF4F7AF090728BFA0E80C5048BF21
:100380000CC05DF804EB890028BF40F8042B08BFBF
:10039000704748BF20F8022B11F0804F18BF00F8BB
:1003A000012B7047704770477047754600F02CF876
:1003B000AE4605006946534620F00700854618B052
:1003C00020B5FFF73FFFBDE820404FF000064FF09B
:1003D00000074FF000084FF0000B21F00701AC467A
:1003E000ACE8C009ACE8C009ACE8C009ACE8C00999
:1003F0008D46704710B50446AFF300802046BDE837
:100400001040FFF70ABF000000487047EC020020D0
:1004100001491820ABBEFEE7260002007047FEE748
:10042000704772B6FEE700002DE9F84FDFF8BCA177
:100430000022012503264FF00F090AF1040BAAF14F
:10044000040E00BF0B6805FA02F42340A34270D1EA
:100450000F7907F00307012F01D0022F16D187680B
:100460004FEA420806FA08FC27EA0C07D1F80CC04C
:100470000CFA08FC4CEA070CC0F808C04768A74310
:100480000C79C4F3001494403C4344600C79E44379
:10049000A4070AD0C4684FEA420C06FA0CF7BC4322
:1004A0008F6807FA0CF72743C7600C7904F0030440
:1004B000022C12D1D40800EB840CDCF82040570742
:1004C000FF0E09FA07F824EA0804D1F8108008FAA8
:1004D00007F848EA0408CCF8208004684FEA420C88
:1004E00006FA0CF7BC430F7907F0030707FA0CF77D
:1004F000274307604C6814F4403F70D03C4C276899
:1005000047F480472760246822F0030704F48044FE
:100510000094384C07EB040CDCF8084897074FEAC6
:10052000177809FA08F7BC43334FB84202D10027C5
:1005300024E054E0314FB84201D101271EE0304F92
:10054000B84201D1022719E02E4FB84201D103274A
:1005500014E02D4FB84201D104270FE02B4FB842D1
:1005600001D105270AE02A4FB84201D1062705E04C
:10057000284FB84201D1072700E0082707FA08F7FB
:100580002743CCF80878DAF800405746D1F804C081
:100590009C435FEACC2C00D51C433C60DBF8004058
:1005A0005F46D1F804C09C435FEA8C2C00D51C4305
:1005B0003C60DEF800407746D1F804C09C435FEA17
:1005C0008C3C00D51C433C60084F083F3C68D1F888
:1005D00004C09C435FEACC3C00D51C433C60521CE9
:1005E000102AFFF42FAFBDE8F88F0000083C01404F
:1005F0004438024000300140000002400004024044
:1006000000080240000C02400010024000140240AA
:1006100000180240001C02400AB1816170470904C1
:10062000FBE70000014880687047000004000020DC
:1006300070B5040025D094F83D00002520B984F859
:100640003C50204600F0B8F8242084F83D00206893
:10065000016821F0010101602068016841F4004156
:1006600001602068016821F40041016000F000FA97
:100670004D4A6168914201D84C4900E04C4988429A
:1006800001D2012070BD4B492368B0FBF1F15E68D7
:1006900026F03F060E435E606368934206D94FF42E
:1006A000967359434FF47A73B1FBF3F12368491CF5
:1006B0001E6A26F03F06314319626168914210D8E4
:1006C0004900401EB0FBF1F2521CC2F30B02042A97
:1006D00001D2042022E0B0FBF1F0401CC0F30B007B
:1006E0001CE0A268F2B301EBC10303EB0116431E49
:1006F000B3FBF6F35B1C43F480431B0549D092B374
:1007000001EBC10202EB0111401EB0FBF1F0401CF5
:10071000C0F30B0040F4804040F400402168CA69F7
:100720004CF6FF739A431043C861D4E907100143A4
:100730002068026822F0C00211430160D4E903017D
:1007400001432068826848F2FF339A431143816075
:10075000D4E9050108432168CA6822F0FF0210436A
:10076000C86001E00EE016E02068016841F0010178
:1007700001602564202084F83D00256384F83E5004
:10078000002070BD01EB4106431EB3FBF6F35B1C7A
:10079000B3E70120C2E701EB4101401EB0FBF1F0DD
:1007A000401CC0F30B00B7E7A086010080841E0048
:1007B00000093D0040420F0010B586B004461421E8
:1007C0006846FFF7C8FD14492068884221D11348C4
:1007D0000021026842F002020260006800F002009C
:1007E00005904FF4407000901220CDE901010320E4
:1007F00003900420049069460948FFF715FE074856
:100800001030016841F400110160006800F400102C
:10081000059006B010BD0000005400403038024082
:1008200000040240024881680278114481607047E8
:10083000040000200B4810B5016841F4007101600C
:10084000016841F480610160016841F480710160D8
:10085000032000F061F80F2000F006F800F024F803
:10086000002010BD003C024070B50D4D04464FF411
:100870007A712878B1FBF0F00A490968B1FBF0F011
:1008800000F0FEFA48B9102C07D200222146501E73
:1008900000F022F800206C6070BD012070BD0000E7
:1008A00004000020000000200A4808B5016841F457
:1008B00080410160006800F4804000900548001FFE
:1008C000016841F080510160006800F080500090A4
:1008D00008BD000044380240F0B40E4B1B680C46C3
:1008E000C3F30223C3F10705042D00D90425191D04
:1008F000072901D2002300E0DB1E012606FA05F1DC
:10090000491E214099409E40761E16403143F0BC5E
:1009100001F02BBB0CED00E0064900F0070208686F
:100920004FF6FF03184040EA0220034A10430860D4
:10093000704700000CED00E00000FA052DE9F047DB
:100940000E46050065D0DFF81481D8F80000F7B234
:1009500000F00700B04207D288F80070D8F8000015
:1009600000F00700B04254D128683D4C810712D5F1
:10097000400703D5206840F4E05020602878000745
:1009800003D5206840F4604020602068A96820F00A
:10099000F000084320602878C0072DD030496868EF
:1009A0000839012812D0022813D0032811D0096871
:1009B000890700292DDA216821F003010143216014
:1009C000FFF730FE814641F2883A0EE0096889035C
:1009D000EFE709688901ECE7FFF724FEA0EB0901C6
:1009E000514502D90320BDE8F0872068696800F00E
:1009F0000C00B0EB810FEFD1D8F80010404601F0A9
:100A00000701B14207D90770006800F00700B04243
:100A100001D00120E7E72878400705D52068E9687C
:100A200020F4E050084320602878000706D52068AD
:100A3000296920F4604040EAC100206000F038F8E5
:100A40002168084AC1F30311515CC8400649086097
:100A500006480068FFF708FF0020C4E7003C02409A
:100A600008380240CA1F00080000002008000020CB
:100A70000448054900680968044AC1F38221515CB1
:100A8000C84070470000002008380240DA1F000804
:100A90000448054900680968044AC1F34231515CC1
:100AA000C84070470000002008380240DA1F0008E4
:100AB000154810B5006810F00C02144813D0144902
:100AC000042A0FD0082A0ED10F4C241F2268236855
:100AD00002F03F025B0207D52068C0F38810A0FB3C
:100AE000010106E0084610BD2168C1F38811A1FB91
:100AF00000010023FFF7B8FB2168C1F30141491C45
:100B00004900B0FBF1F010BD083802400024F400A9
:100B100040787D012DE9F84F04006ED02078DFF891
:100B20004C93C007A9F104054AD009F104000168FB
:100B3000C1F38101012908D00068C0F381000228B7
:100B40000AD1D9F80000400206D52868800337D5BD
:100B500060680028E1D033E06068B0F5803F10D0D5
:100B6000B0F5A02F286810D020F4803028602868C5
:100B700020F4802028606068A8B1FFF753FD064686
:100B80000DE0286840F48030F4E740F480202860CD
:100B9000F7E700BFFFF746FD801B642873D828687D
:100BA0008003F7D50CE0FFF73DFD064605E000BFEA
:100BB000FFF738FD801B6428F0D828688003F7D43D
:100BC0002078DFF8AC8280074FF0000A3ED5A748B6
:100BD000001D016811F00C0F08D00068C0F38100FF
:100BE00002280BD1D9F80000400207D428688007FA
:100BF00016D5E068012800D112E033E1E068B8B111
:100C00000120C8F80000FFF70DFD064605E000BF13
:100C1000FFF708FD801B0228C0D828688007F7D599
:100C20002868216920F0F80040EAC10028600DE042
:100C3000C8F800A0FFF7F6FC064604E0FFF7F2FC58
:100C4000801B02281FD828688007F7D42078000767
:100C500022D5864F87486169703771B101210160E3
:100C6000FFF7E0FC064604E0FFF7DCFC801B0228EF
:100C700009D838688007F7D50EE0C0F800A0FFF764
:100C8000D1FC064605E082E0FFF7CCFC801B022881
:100C90007DD838688007F7D42078400768D5DFF81A
:100CA000CCB100270BF13C0BDBF80000C0000BD4EB
:100CB000DBF8001041F08051CBF80010DBF80000A9
:100CC000012700F0805000906B4E3068C00510D4B2
:100CD000306840F480703060FFF7A4FC009005E0BD
:100CE000FFF7A0FC0099401A022850D83068C005D0
:100CF000F6D55E4EA0686C3601280FD00528306806
:100D000010D020F001003060306820F00400306026
:100D1000A068B8B1FFF786FC00900FE0306840F0A3
:100D20000100F4E740F004003060F7E7FFF77AFCD9
:100D30000099411A41F28830814266D830688007B4
:100D4000F4D50EE0FFF76EFC009007E0FFF76AFCB9
:100D50000099411A41F28830814256D830688007A4
:100D6000F4D42FB1DBF8001021F08051CBF8001043
:100D7000A069C8B33D49091D0968C1F38101022971
:100D80004AD00228504607D0C8F8600000E03CE096
:100D9000FFF748FC04463BE04746C8F86000FFF711
:100DA00041FC064605E000BFFFF73CFC801B022823
:100DB0002BD828688001F7D4D4E907010843A16A39
:100DC0002E4A490802EB0141626A41EA8211084356
:100DD00094F82C1040EA0161C9F80010012038662F
:100DE000FFF720FC044606E03EE000BFFFF71AFCD8
:100DF000001B022809D828688001F7D534E000BF1D
:100E0000FFF710FC001B022802D90320BDE8F88F71
:100E100028688001F4D427E00128F7D0D9F8000031
:100E2000E26900F4800191421CD1226A00F03F0186
:100E3000914217D147F6C071626A0140B1EB821F3F
:100E400010D1A26A4FF0FF3300F4403103EB52029D
:100E5000B1EB024F06D194F82C1000F07060B0EBAB
:100E6000016F01D00120D1E70020CFE70438024014
:100E700000004742800E4742007000400000FFFF24
:100E800010B5401EB0F1807F01D3012010BD4FF09E
:100E9000E02460610F21601701F067F80020A06175
:100EA00007202061002010BD10B590F83C20012AD9
:100EB00022D0012280F83C20CA688C6822F440725B
:100EC00022434C6822F4806222430C6822F40062C0
:100ED00022430C6922F4805222434C6922F40052CE
:100EE0002243C969002322F480420A4301684A640C
:100EF00080F83C30002010BD022010BD70B590F885
:100F00003C20012A32D0012480F83C40022280F8A3
:100F10003D2003685A689D6822F070060A683243D3
:100F20005A60134B02689A4214D0B2F1804F11D02C
:100F3000104B9A420ED0104B9A420BD00F4B9A4254
:100F400008D00F4B9A4205D00E4B9A4202D00E4B5E
:100F50009A4204D1496825F080031943916080F8D2
:100F60003D40002180F83C10084670BD022070BD55
:100F7000000001400004004000080040000C004058
:100F800000040140004001400018004010B504007A
:100F900003D094F83D0010B107E0012010BD0020FF
:100FA00084F83C00204600F01FF8022084F83D0041
:100FB000211D206800F0F2FD012084F8460084F82D
:100FC0003E0084F83F0084F8400084F8410084F833
:100FD000420084F8430084F8440084F8450084F813
:100FE0003D00002010BD000008B501681448814292
:100FF00001D1144810E01348001FB1F1804F0BD00D
:10100000114A914210D1016841F004010160006869
:1010100000F00400009008BD016841F0010101608A
:10102000006800F00100F5E7084A9142F3D1016839
:1010300041F008010160006800F00800EAE70000E4
:10104000000001404438024000080040000C00400D
:1010500070B5044690F83C000025012817D0012601
:1010600084F83C60022084F83D002068826822F009
:10107000770222F47F4282600868502838D00DDC65
:1010800020284FD005DC90B3102811D14AE002206F
:1010900070BD302846D040280AD13BE060282FD0D0
:1010A00070280DD0B0F5805F03D0B0F5005F12D08E
:1010B000012584F83D60002084F83C00284670BD7E
:1010C000CB68D1E90121206800F0D0FD206881685B
:1010D00041F0770109E0CB68D1E90121206800F0F7
:1010E000C5FD2068816841F480418160E1E719E035
:1010F000CA684968206800F08DFE5021206806E02B
:10110000CA684968206800F096FE6021206800F0F7
:10111000B7FDCEE7CA684968206800F07BFE402131
:101120002068F4E7226801461046F0E730B587B042
:10113000044614216846FFF70EF924682048002170
:10114000204A02230125844211D1106840F010008A
:101150001060106800F0100005904FF4D44000902B
:10116000CDE90131CDE903156946174815E0174867
:10117000B4F1804F15D0164DAC4210D1146844F034
:1011800001041460126802F0010205920C22009220
:10119000CDE90131CDE903136946FFF745F907B001
:1011A00030BD146844F001041460126802F00102BA
:1011B000059203220092CDE90131CDE90315EBE759
:1011C00000000140303802400010024000000240A0
:1011D000000C004070B5044690F83C000025012842
:1011E0000FD0012084F83C006AB1042A0FD0082AED
:1011F00011D00C2A13D00125002084F83C00284689
:1012000070BD022070BD206800F042FDF4E7206848
:1012100000F06EFDF0E7206800F0A0FDECE720682C
:1012200000F0D0FDE8E710B5040003D094F83D00CD
:1012300010B107E0012010BD002084F83C002046DA
:1012400000F01EF8022084F83D00211D206800F007
:10125000A5FC012084F8460084F83E0084F83F0095
:1012600084F8400084F8410084F8420084F8430088
:1012700084F8440084F8450084F83D00002010BD47
:10128000704770B5044690F83C0000260D460128D2
:101290000FD0012084F83C006AB1042A1DD0082A2E
:1012A0002FD00C2A3FD00126002084F83C00304685
:1012B00070BD022070BD206800F0EAFC20688169E2
:1012C00041F0080181612068816921F00401816198
:1012D000206881692A69114311E0206800F008FD47
:1012E0002068816941F4006181612068816921F48D
:1012F00080618161206881692A6941EA02218161F6
:10130000D2E7206800F02AFD2068C16941F0080199
:10131000C1612068C16921F00401C1612068C1690F
:101320002A69114311E0206800F04CFD2068C16972
:1013300041F40061C1612068C16921F48061C1612B
:101340002068C1692A6941EA0221C161ACE710B590
:10135000040003D094F83D0010B107E0012010BD57
:10136000002084F83C00204600F01EF8022084F89B
:101370003D00211D206800F011FC012084F846008A
:1013800084F83E0084F83F0084F8400084F841006F
:1013900084F8420084F8430084F8440084F845004F
:1013A00084F83D00002010BD704770B5040004D0E3
:1013B00094F84100002510B106E0012070BD84F8CA
:1013C0004050204600F024F8242084F84100206892
:1013D000C16821F40051C160204600F03FFD206843
:1013E000016921F4904101612068416921F02A01DD
:1013F00041612068C16841F40051C16065642020EA
:1014000084F8410084F842006563002070BD00004C
:101410002DE9F04387B0044614216846FEF79BFF90
:101420005749DFF8588123680024554A10390225AE
:101430000326082753484FF4406C434512D11368E4
:1014400043F400231360126802F4002205920A6834
:1014500042F004020A60096801F00401CDE9047158
:10146000694686E0DFF82081DFF8209143452ED1E0
:10147000136843F480131360126802F4801205921B
:101480000A6842F004020A600A6802F00402059247
:101490000A6842F008020A60096802AB01F008011C
:1014A00005914FF48051CDE9001583E8D0006946DD
:1014B000FEF7BAFF0420CDE9000502AB694683E8D8
:1014C000D0004846FEF7B0FF07B0BDE8F083304FCC
:1014D0000720BB421BD12A4A121D136843F0100398
:1014E0001360126802F0100205920A6842F00102CD
:1014F0000A600968029401F0010105914FF4C0618E
:10150000CDE90015CDE9036069462248DAE7224FAC
:10151000BB4218D1136843F400331360126802F41D
:10152000003205920A6842F008020A6009680294D3
:1015300001F0080105916021CDE90015CDE90360B6
:1015400069464846BEE7154FBB42BDD1136843F418
:1015500080231360126802F4802205920A6842F028
:1015600002020A60096801F00201CDE904010C4899
:101570006946CDE900C5CDE90246A3E7004C00402D
:10158000403802400008024000500040000C024079
:1015900000100140000002400044004000480040AC
:1015A00000040240FEE700002DE9F04F87B014214F
:1015B0006846FEF7D0FE47480024016841F010015C
:1015C0000160016801F010010591016841F004011A
:1015D0000160016801F004010591016841F080019A
:1015E0000160016801F080010591016841F001018D
:1015F0000160016801F001010591016841F00201FB
:101600000160016801F002010591016841F00801E3
:101610000160016801F008010591016841F0400195
:1016200001600068DFF8B09000F0400005900022F3
:1016300006214846FEF7F0FFDFF8A0A000220321B4
:101640005046FEF7E9FFDFF898B04FF470460022ED
:1016500031465846FEF7E0FF4FF44747002239462F
:101660002048FEF7D9FF4CF26C08002241461E4884
:10167000FEF7D2FF062000900125CDE9015469460E
:1016800048460394FEF7D0FE03200090CDE90154B4
:10169000694650460394FEF7C7FE0096CDE9015413
:1016A000694658460394FEF7BFFE0097CDE9015402
:1016B00069460C480394FEF7B7FECDF80080CDE9EB
:1016C0000154694608480394FEF7AEFE07B0BDE832
:1016D000F08F000030380240001002400008024045
:1016E00000040240000C0240001802400D4810B5F2
:1016F0000B4901600C49416000214FF48042816038
:10170000C0E9031241618161C1610162FEF790FF8E
:10171000002803D0BDE81040FEF783BE10BD0000D6
:101720000054004010000020A086010010B596B0C3
:1017300000240F9410941194129413941C21684661
:101740001494FEF708FE202107A8FEF704FE344893
:10175000324901600721C0E9011440F2E731C0E9D4
:10176000031444618461FFF711FC08B1FEF759FED0
:101770004FF480500F900FA92948FFF769FC08B17A
:10178000FEF74FFE2648FFF74EFD08B1FEF749FE73
:10179000139413A922481494FFF7B0FB08B1FEF785
:1017A00040FE009401940294039404940594002252
:1017B00069461B480694FFF70DFD08B1FEF731FEA0
:1017C000042269461648FFF705FD08B1FEF729FE19
:1017D000082269461248FFF7FDFC08B1FEF721FE1A
:1017E0000C2269460E48FFF7F5FC08B1FEF719FE1A
:1017F0000794089409944FF400500A94CDE90B40E3
:1018000007A907480E94FFF74FFB08B1FEF709FE42
:101810000348FFF78BFC16B010BD0000000001402C
:101820006400002010B58EB0002407940894099439
:101830000A940B941C2168460C94FEF78CFD2148F9
:101840004FF08041C0E90014611EC0E9024104610B
:101850008461FFF79BFB08B1FEF7E3FD4FF4805076
:10186000079007A91748FFF7F3FB08B1FEF7D9FD6A
:101870001448FFF76CFD08B1FEF7D3FD0B940BA9DC
:1018800010480C94FFF73AFB08B1FEF7CAFD602040
:10189000CDE900040294002269460A480494FFF747
:1018A000F0FC08B1FEF7BDFD042269460548FFF7CC
:1018B000E8FC08B1FEF7B5FD0248FFF737FC0EB0B3
:1018C00010BD0000AC00002010B586B00024164802
:1018D0000094019402940394049412490594C0E97D
:1018E00000144FF6FF71C0E9024104618461FFF703
:1018F0004DFB08B1FEF795FD4FF48050009069460E
:101900000948FFF7A5FB08B1FEF78BFD049404A975
:1019100005480594FFF7F2FA002801D0FEF781FD93
:1019200006B010BD00080040F400002010B58EB0D5
:1019300000240794089409940A940B941C21684687
:101940000C94FEF708FD21481F49C0E90014611EF0
:10195000C0E9024104618461FFF718FB08B1FEF79A
:1019600060FD4FF48050079007A91848FFF770FBFF
:1019700008B1FEF756FD1548FFF7E9FC08B1FEF780
:1019800050FD0B940BA911480C94FFF7B7FA08B15E
:10199000FEF747FD6020CDE9000402940822694665
:1019A0000A480494FFF76DFC08B1FEF73AFD0C22DB
:1019B00069460648FFF765FC08B1FEF732FD0348AB
:1019C000FFF7B4FB0EB010BD000C00403C0100203E
:1019D0000C4810B50A4901604FF4E1314160002123
:1019E00081600C22C160C0E904128161C161FFF70E
:1019F000DCFC002803D0BDE81040FEF712BD10BD8E
:101A0000004C0040840100200C4810B50A490160D8
:101A10004FF4E1314160002181600C22C160C0E9D6
:101A200004128161C161FFF7C0FC002803D0BDE84A
:101A30001040FEF7F6BC10BD00500040CC01002065
:101A40000C4810B50A4901604FF4E13141600021B2
:101A500081600C22C160C0E904128161C161FFF79D
:101A6000A4FC002803D0BDE81040FEF7DABC10BD8E
:101A700000100140140200200C4810B50A49016012
:101A80004FF4E1314160002181600C22C160C0E966
:101A900004128161C161FFF788FC002803D0BDE812
:101AA0001040FEF7BEBC10BD004400405C020020A8
:101AB0000C4810B50A4901604FF4165141600021ED
:101AC00081600C22C160C0E904128161C161FFF72D
:101AD0006CFC002803D0BDE81040FEF7A2BC10BD8E
:101AE00000480040A4020020FEE7FEE77047704770
:101AF000FEF798BE30B593B030216846FEF72BFC58
:101B000014210CA8FEF727FC1E480025016841F0AF
:101B100080510160006800F0805011901A480168FF
:101B200041F4804101600068022400F4804011907B
:101B300001200090000401908001CDE906400820BA
:101B400008904FF4A870CDE9090404200B90684672
:101B5000FEF7E0FF08B172B6FEE70CA90F2081E89E
:101B600031004FF4A0500F904FF480501090052199
:101B70000CA8FEF7E3FE002801D072B6FEE713B012
:101B800030BD00004038024000700040024801684B
:101B900041F470010160704788ED00E0F0B5026823
:101BA000274B284D284E294F294C4FF0804C984206
:101BB00009D0604507D0A84205D0B04203D0B84252
:101BC00001D0A04204D122F0700E4A6842EA0E020F
:101BD00098421BD0604519D0A84217D0B04215D00A
:101BE000B84213D0A04211D01A4DA8420ED01A4DBF
:101BF000A8420BD0194DA84208D0194DA84205D0D3
:101C0000184DA84202D0184DA84203D122F44075C5
:101C1000CA682A434D6922F080022A438D68C56252
:101C20000D688562984201D0A04201D10969016323
:101C3000016841F004010160012141610260F0BDD1
:101C4000000001400004004000080040000C00407B
:101C500000040140004001400044014000480140B0
:101C600000180040001C00400020004010B58468AF
:101C700042EA032224F47F440A432243826010BDD7
:101C8000826822F070020A4342F0070181607047C7
:101C9000F0B5036A026A22F00102026242688469B6
:101CA000124E24F073050C682C4323F002058B6858
:101CB0002B430D4DA84201D0B04205D123F00807B7
:101CC000CB683B4323F00403A84201D0B04205D1C6
:101CD0004D6922F4407215438A692A434260846147
:101CE000496841630362F0BD000001400004014007
:101CF000F0B5026A036A23F0100303624368846943
:101D00000D6824F4E64444EA05248D6822F020029C
:101D100042EA05120F4D104EA84201D0B04206D142
:101D2000CF6822F0800242EA071222F04002A84265
:101D300001D0B04207D14D6923F4406343EA8503E3
:101D40008D6943EA85034360846149688163026267
:101D5000F0BD00000000014000040140F0B5026A3F
:101D6000036A23F4807303624368C46922F4007237
:101D700024F073050C68124E2C438D6842EA05224C
:101D80000E4DA84201D0B04206D1CF6822F40062C5
:101D900042EA072222F48062A84201D0B04207D171
:101DA0004D6923F4405343EA05138D6943EA051353
:101DB0004360C4614968C1630262F0BD0000014034
:101DC0000004014030B5046A026A22F480520262C3
:101DD0004268C3690D6823F4E64343EA05238D682E
:101DE00024F4005444EA0534084DA84202D0084DBA
:101DF000A84204D14D6922F4804242EA8512426031
:101E0000C36149680164046230BD00000000014004
:101E10000004014010B5036A046A24F0010404625E
:101E2000846924F0F00444EA021423F00A020A430D
:101E30008461026210BD10B5036A046A24F01004C4
:101E40000462846923F0A00324F4704444EA02325B
:101E500043EA01118261016210BD000070B50446C1
:101E600000680169E26821F4405111430161216970
:101E7000A068E26908436169114308432168CA68A0
:101E800049F20C639A430243CA6020684169A2691F
:101E900021F440711143416131492068884202D0E8
:101EA0003049884202D1FEF7F3FD01E0FEF7E0FD84
:101EB000E2690023192164253226B2F5004F6268D9
:101EC00028D0A0FB0101930F9200FEF7CDF9014647
:101ED000B0FBF5F06FF01802504301EB800006EB09
:101EE0000010B0FBF5F000F0F002B1FBF5F002EBF2
:101EF0000012B1FBF5F06FF01803584301EB8000BE
:101F000006EB0010B0FBF5F000F00F002168104464
:101F1000886070BDA0FB010192185B41FEF7A4F937
:101F20000146B0FBF5F00201B1FBF5F06FF01803CC
:101F3000584301EB800006EBC000B0FBF5F000F069
:101F4000F80002EB4002B1FBF5F0584301EB8000D2
:101F500006EBC000B0FBF5F000F00700D6E700008C
:101F60000010014000140140FEE70907090E002897
:101F700004DB00F1E02080F80014704700F00F004F
:101F800000F1E02080F8141D7047FEF753FCFFF7C6
:101F9000B1FDFFF709FBFFF745FCFFF751FDFFF728
:101FA00087FDFFF7A3FBFFF7C1FBFFF78DFCFFF7F2
:101FB000BDFCFFF70DFDFFF727FDFFF75DFDFEE719
:101FC0004FF04070E1EE100A704700000000000082
:101FD00000000102030406070809000000000102D6
:101FE000030400000420000800000020100000008E
:101FF000C40100081420000810000020400900005F
:10200000E00100080024F4000100000010000000BE
:0420100000000000CC
:040000050800018965
:00000001FF
