:020000040800F2
:10000000680D00209D010008F56E0008115F0008D2
:100010007D6C00084D1B00084D85000800000000A5
:1000200000000000000000000000000059710008FE
:10003000C52000080000000055710008C5750008C3
:10004000B7010008B7010008B7010008B7010008B0
:10005000B7010008B7010008B7010008B7010008A0
:10006000B7010008B7010008B7010008691E0008C1
:10007000B7010008791E0008B7010008891E0008B2
:10008000991E0008A91E0008B7010008B701000862
:10009000B7010008B7010008B7010008B701000860
:1000A000B7010008B7010008B7010008B701000850
:1000B000B7010008B7010008B7010008B701000840
:1000C000B7010008B7010008B7010008B701000830
:1000D000B70100080D8500081D8500082D85000862
:1000E000B7010008B7010008B7010008B701000810
:1000F000B7010008B7010008B7010008B91E0008E1
:10010000B7010008B7010008B7010008B7010008EF
:100110008D7D00089D7D0008A5760008B7010008C8
:10012000B7010008C91E0008D91E0008B701000861
:10013000B7010008B7010008B7010008B7010008BF
:10014000B7010008B7010008B7010008B7010008AF
:10015000B7010008E91E0008F91E00083D850008E7
:10016000B7010008B7010008B7010008B70100088F
:10017000B7010008B7010008B7010008000000003F
:10018000B7010008B7010008DFF80CD000F062FEEC
:1001900000480047BD870008680D002006488047DA
:1001A00006480047FEE7FEE7FEE7FEE7FEE7FEE75C
:1001B000FEE7FEE7FEE7FEE791760008890100080A
:1001C0002DE9F05F0546002092469B46884606468C
:1001D000814640241BE0284641464746224600F01F
:1001E000CCF853465A46C01A914110D311461846CE
:1001F000224600F0B3F82D1A67EB01084F4622465D
:100200000120002100F0AAF817EB00094E41201E42
:10021000A4F10104DFDC484631462A464346BDE8E6
:10022000F09F2DE9F0410024061B254671F10006E0
:1002300005DA01240027D0EB070067EB0101161E49
:1002400073F1000605DA0027D2EB0702012567EB00
:100250000303FFF7B5FF86460E4617469C46AC42A1
:1002600004D00025D0EB050E65EB010624B100207B
:10027000D2EB000760EB030C704631463A4663460A
:10028000BDE8F081002800DA40427047D2B201E0B8
:1002900000F8012B491EFBD270470022F6E710B58B
:1002A00013460A4604461946FFF7F0FF204610BDE4
:1002B000421C10F8011B0029FBD1801A704710B5B1
:1002C000002200E0521C835C8C5CA34201D1002B15
:1002D000F8D1D8B2E1B2401A10BD30B505460020C1
:1002E000034600E05B1C934205D2EC5CC85C201A1C
:1002F00001D1002CF6D130BD0FB400B58DB010A9DE
:1003000009900B9000914FF0FF300A9000200C9064
:1003100005480690054807906A4609A80F9900F01D
:10032000B3FB0DB05DF814FBA50A0008C30A000872
:1003300030B50B46014600202022012409E021FAB5
:1003400002F59D4205D303FA02F5491B04FA02F5B2
:100350002844151EA2F10102F1DC30BD202A04DB85
:10036000203A00FA02F1002070479140C2F12003C8
:1003700020FA03F3194390407047202A04DB203A07
:1003800021FA02F00021704721FA02F3D040C2F1B5
:10039000200291400843194670472DE9FF4F1C4643
:1003A00081B00021D4E9016791464FF0FF358A46BC
:1003B0008846A1696D1C02988847216A8346884750
:1003C0000028F6D1BBF1FF3F0CD026F4C066002F09
:1003D0001ADD700615D5BBF12B0F0AD0BBF12D0F1E
:1003E0000FD104E04FF0FF3005B0BDE8F08F46F4C8
:1003F0008066A1696D1C029888477F1E8346002F86
:1004000002DDBBF1300F03D0B9F1000F2AD025E097
:10041000A1696D1C46F400767F1E029888478346CA
:10042000002F05DDBBF1780F06D0BBF1580F03D0CC
:10043000B9F1000F10D011E0B9F1000F02D0B9F1FD
:10044000100F0BD1A1696D1C26F400767F1E029857
:1004500088478346102000E0082081464FEAE97073
:10046000009017E00A20F8E74346AAFB092803FB9F
:100470000980DDF800C07F1E0AFB0C0112EB0B0A9D
:1004800041EBEB78A16946F4007605F1010502988D
:1004900088478346002F06DD4946584600F003FD95
:1004A0005FEA000BE0D5E16902988847B00502D405
:1004B0006FF0010098E7F00718D1700610D57005AD
:1004C000514605D50023D1EB030163EB080200E0A0
:1004D00042462068031D23600068C0E9001205E061
:1004E0002068011D21600068C0E900A828467BE75C
:1004F0002DE9FF5F1D464FF0FF3BD5E901469146D0
:100500005F464FF00008A9697F1C01988847296A57
:10051000824688470028F6D1BAF1FF3F0CD024F478
:10052000C064002E19DD600614D5BAF12B0F09D076
:10053000BAF12D0F0ED103E0584604B0BDE8F09F8C
:1005400044F48064A9697F1C01988847761E82461E
:10055000002E02DDBAF1300F03D0B9F1000F26D022
:1005600032E0A969761E44F400747F1C0198884724
:100570008246002E05DDBAF1780F06D0BAF1580F89
:1005800003D0B9F1000F10D01EE0B9F1000F02D076
:10059000B9F1100F18D1A969761E24F400747F1CDC
:1005A000019888478246102002E0082000E00A20D7
:1005B000814609E008FB0908A969761E44F4007425
:1005C0007F1C019888478246002E05DD494650462B
:1005D00000F069FC0028EDDAE96901988847A00578
:1005E00002D46FF00100A8E7E00725D1600613D51B
:1005F000600502D5C8F1000000E0404629680A1DE8
:100600002A600968220501D5087015E0220701D586
:10061000088011E008600FE02868011D296000686B
:10062000210502D580F8008006E0210702D5A0F858
:10063000008001E0C0F8008038467EE72DE9FF5FCA
:10064000D2E901A74FF00008916999461446DDF8F8
:1006500038B0464601988847054659EA0B0005D050
:1006600009E0A169761C019888470546216A284659
:1006700088470028F5D1681C03D05FEACA7005D00E
:1006800015E04FF0FF3004B0BDE8F09F2068011D79
:100690002160D0F800800AE05FEACA7001D108F852
:1006A000015BA169761C7F1E019888470546002FD3
:1006B0001ADD681C18D0B9F1000F0DD0E81705EB52
:1006C000D060421120F01F0059F822102A1A012090
:1006D00090400142E0D107E0BBF1000FDCD1216A7C
:1006E000284688470028D7D0E16901988847BBF1A0
:1006F000000F07D1002E05DD5FEACA7002D100218C
:1007000088F80010A068B84203DDBBF1000F03D0E9
:1007100017B16FF00100B6E73046B4E72DE9FF4F9F
:10072000087883B09946FF2805D0491C2D2804D0AD
:100730000024002008E000200BE00124F9E700EB92
:10074000800003EB4000491C0B78FF2BF7D104B16C
:10075000404200230293147819461D462D2C01D0E7
:100760002B2C04D1521C2D2C13D000240294AA4609
:100770001478FF2C0FD00A25A3FB057801FB058117
:100780004FF0000C03FB0C11521CE3194AEB010162
:10079000EEE70124EAE7814453EA010002D019F5AB
:1007A000C87F06DA03980021C0E9001107B0BDE850
:1007B000F08F0025AE4E2F46DFF8B882184600F0C5
:1007C00074FDCDE90001B9F1000002DAC9F10004BD
:1007D00000E004460023A74A1AEB030B42EB045A3D
:1007E00012E0E00707D02A4633463846414600F07B
:1007F00020FA074688462A4633461046194600F036
:1008000018FA05460E466410002CEAD1DDE9000115
:10081000B9F1000F5A46534606DA00F07CFA3A4620
:10082000434600F078FA05E000F003FA3A46434602
:1008300000F0FFF9029A0AB181F00041039AC2E97F
:100840000001B3E72DE9FF4F1F468DB0D7E9014600
:100850004FF0FF382E2045464FF000090B90B96944
:100860006D1C0E988847396A824688470028F6D161
:10087000BAF1FF3F0AD024F4D064002E11DDBAF1A2
:100880002B0F08D0BAF12D0F0BD102E0404611B06A
:100890008DE744F48064B9696D1C0E9888478246E0
:1008A000761E6946600501D52D2000E02B208DF8CD
:1008B000000001F1010B0DF1200809E0B9696D1C80
:1008C0000E98884782460F9844F40074761E05609F
:1008D000002E02DDBAF1300FF0D00B998A453ED1DF
:1008E00044F0800406E00F99681CA9F1010944F462
:1008F00000740860B9696D1C761E0E9888478246A0
:100900003028F0D02BE00B998A4505D1200603D47E
:1009100044F08004761E18E0504608F01BF908B336
:100920000DF11301761E44F400748B4508D2AAF130
:1009300030000BF8010B200607D5A9F1010003E0F8
:10094000200602D409F101008146A00502D50F99C5
:10095000681C0860B9696D1C0E9888478246002E95
:10096000D1DC53E0002E51DDBAF1650F02D0BAF1AF
:10097000450F4BD1A00549D5B9696D1C24F44074CD
:10098000761E0E9888478246002E0CDD2B2804D058
:10099000BAF12D0F07D144F48074B9696D1C0E981B
:1009A00088478246761EE00501D52D2100E02B21E7
:1009B00008F8011BCDF82C8021E00DF12901761EED
:1009C00044F4007488450CD2AAF1300010F0FF0006
:1009D00088F8000002D10B99884509D908F101086F
:1009E00006E0E00501D5244801E042F20F7081469F
:1009F000B9696D1C0E98884782460F980560002ED5
:100A000004DD504608F0A6F80028D6D1F9690E9802
:100A10008847FF208BF8000088F80000002006902F
:100A200007904B466A4608A906A8FFF777FEA0057F
:100A300002D46FF001002AE714F0240F0AD0E00777
:100A400014D1DDE906123868031D3B600068C0E977
:100A500000120BE0DDE9060100F033FC0146E0077F
:100A600004D13868021D3A600068016028460EE72C
:100A7000000014400000F03FF1D8FFFF026811446D
:100A80001378016018467047D160044951610449E8
:100A9000116200211161114600F014BA7D0A0008AC
:100AA0009D0E0008426842B1016811F8013B23B174
:100AB000521EC0E90012184670470121C160881E0D
:100AC000704742685AB1C368016843B983688B4272
:100AD00005D0491E521CC0E90012002070474FF09B
:100AE000FF3070472DE9FE4F804681EA0300C00FBA
:100AF0000C46009021F0004123F00045B8EB0200C5
:100B0000A94105D24046214690461C460B46024666
:100B100023F00040104347D0270DC7F30A00C3F36A
:100B20000A510290401A019040286BDAC3F3130077
:100B300040F4801B0098924620B10023D2EB030AB8
:100B400063EB0B0B01985946C0F140025046FFF78A
:100B500005FC06460D4650465946019A00F08CF9B0
:100B600010EB08006141002487EA115284EAE77320
:100B70001A4340D0009A62B3019A012A4FEA075201
:100B800015DC001B61EB02014FF0004202EA075244
:100B9000CDE90042001C41F5801132462B4600F0A1
:100BA00036FB03B0BDE8F08F40462146F9E7001B55
:100BB00061EB0201001C41F5801300185B41201815
:100BC000A2F5001747EB030140EAD570B6196D4155
:100BD00011E06D084FEA360645EAC0754FEA075244
:100BE000001B61EB0201001C41F5801149084FEA2E
:100BF00030000019514132462B4603B0BDE8F04F9A
:100C000000F0F6BA0098012240000023D0EB020267
:100C100063EBE073009821464FEAE074B8EB000004
:100C200061EB0401E9E783F000435BE781F00041F9
:100C300058E72DE9FE4F81EA030404F0004421F057
:100C4000004100944FF0000B23F0004350EA0104F0
:100C50005ED052EA03045BD0C3F30A54C1F30A55D1
:100C60002C44A4F2F3340194A0FB0254C1F3130109
:100C700041F48011C3F3130343F4801301FB0244D6
:100C800000FB034E840A970A44EA815447EA8357DB
:100C9000A4FB076802958D0A05FB07854FEA932C94
:100CA00004FB0C542705029D4FEA065847EA163705
:100CB000B5EB08056EEB070C870E920E47EA81171D
:100CC00042EA8312A7FB0201B6EB0B0164EB0004BE
:100CD0002B0D43EA0C335E1844EB1C50DA465146A8
:100CE000E7FB0201C5F313044FEA0B3343EA145345
:100CF0004FEA0432019C43EA0603A4F10C04029477
:100D0000009CCDE900B400F082FA03B0BDE8F08F9A
:100D100000200146F9E72DE9F04D81EA030404F0D3
:100D2000004B21F0004514464FF0000A23F000412B
:100D300050EA050220D054EA01021DD0C5F30A573B
:100D40000246C5F31303C1F31300C1F30A5640F47E
:100D5000801543F48013A7EB0608101BD64608F253
:100D6000FD3873EB050002D308F1010801E0921889
:100D70005B41B8F1000F03DA00200146BDE8F08DB9
:100D800000204FF48011064684460EE0171B73EBDB
:100D9000050705D3121B63EB050306434CEA010C60
:100DA00049084FEA300092185B4150EA0107EDD143
:100DB00052EA030012D082EA040083EA05010843E4
:100DC00005D0101BAB4106D20122002306E0002211
:100DD0004FF0004302E06FF0010253101AEB0600DF
:100DE0004CEB085110EB0A0041EB0B01BDE8F04D54
:100DF00000F0FEB9C1F30A52C1F3130140F2FF3310
:100E000041F480119A4202DA00200146704740F214
:100E100033439A42A2F2334202DC5242FFF7ADBAA8
:100E2000FFF79CBA30B5041E71F1000404DB4FF0EB
:100E30000044404264EB0101141E73F1000405DB21
:100E40001C464FF00043524263EB0403994208BF33
:100E5000904230BD064C074D06E0E06840F00103CB
:100E600094E8070098471034AC42F6D3FFF790F9A6
:100E700014AC000834AC0008202A06DBCB17203A5B
:100E800041FA02F043EAE07306E041FA02F3D0408F
:100E9000C2F120029140084319467047C0B24FF496
:100EA000F05100F02BBA3A2800D2303820F020025E
:100EB000412A01D3A2F13700884201D34FF0FF301D
:100EC000704700002DE9F34F8BB04FF0000801F19F
:100ED0000C000C464FF0010B46460DF1080A01903C
:100EE0006269012101989047051E2DD0252D2CD037
:100EF000216A8847C0B16269012101989047216A3F
:100F000088470028F7D1411E62690198904700E0A8
:100F1000761CA1690B988847216A88470028F7D179
:100F2000E1690B988847DBE7A1690B98884707467A
:100F3000A84201D1761CD3E7E1690B9888477F1C52
:100F400002D1B8F1000F6FD046E1002762693D463B
:100F50003946019890472A2804D1626901210198F5
:100F600090470125DFF8849262690121019890473A
:100F7000A0F130010A290AD24F45E5DC07EB8701D1
:100F800000EB4107303FDFD445F01005ECE7E90600
:100F900001D46FF000476C280AD04C2814D0682880
:100FA00015D06A280DD074281CD07A281AD01DE0DC
:100FB00062690121019890476C2802D045F0040530
:100FC00014E045F002050DE045F020050AE06269F5
:100FD000012101989047682802D045F0080505E0F6
:100FE00045F400656269012101989047C4E9015701
:100FF00065283DD019DC58287AD00CDC452837D03C
:1010000004DC252826D0412831D131E046282FD0D4
:1010100047282CD12CE05B2877D0612828D0632882
:101020007CD0642823D15AE0D0E06F2848D008DC77
:1010300066281DD067281BD0692821D06E2816D1BC
:1010400027E0702845D0732868D0752847D07828C5
:101050000DD14DE0A1690B988847054625283FF43E
:1010600069AFE1690B9888476D1C3FF46AAFB3E044
:1010700023466A466FF001000B99FFF7E3FB9EE001
:1010800045F040006060A80723464FF0000236D4C8
:101090003EE0E8077FF447AF2068011D216000684B
:1010A000290501D506701BE7290701D5068017E73A
:1010B000A90703D5F117C0E9006111E706600FE742
:1010C00045F040006060A80723464FF0080216D4A0
:1010D0001EE040F60E0125EA0100606016E045F0D2
:1010E00040006060A80723464FF00A0207D40FE0D3
:1010F00045F040006060A80708D5234610226FF035
:1011000001000B99FFF749F959E007E02346102247
:101110006FF001000B99FFF7EBF950E04FF0000979
:101120004F464B46632802D05B2806D040E0E806D5
:1011300001D40120A06001273AE0626901210198F1
:1011400090475E2805D14FF0010962694946019830
:101150009047216939B900210A46534643F82120B6
:10116000491C0829FADBB0B3216969B9C11700EB42
:10117000D16253110AEB830122F01F02821A01206F
:101180000B68904003430B6062690121019890470E
:101190005D28E8D1B9F1000F09D00020514651F87F
:1011A0002020D24341F82020401C0828F7DB02AB66
:1011B000224600976FF001000B99FFF73FFA0028D5
:1011C0000CDA401C08D1BBF1000F05D04FF0FF3006
:1011D0000DB0BDE8F08FFFE74046F9E7E90701D120
:1011E00008F1010806444FF0000B79E6CCCCCC0C9A
:1011F00010B5141E73F1000408DA401C41F100011F
:1012000092185B411A4301D120F0010010BD2DE975
:10121000F04D92469B4611B1B1FA81F202E0B0FA6C
:1012200080F220329046FFF799F804460F4640EAD4
:101230000A0041EA0B0153465A46084313D01146AF
:1012400053EA010019D0C8F140025046FFF795F863
:1012500005460E46504659464246FFF77FF808437A
:1012600005D0012004E020463946BDE8F08D00207D
:10127000054346EAE0762C4337430A986305E40ABF
:10128000A0EB08000022FD0A44EA47540A3002D5C8
:1012900000200146E9E7010510196941DDE908452B
:1012A00000196941BDE8F04DA2E70EB540F23342A6
:1012B00002920022CDE900221346FFF7A8FF03B0F7
:1012C00000BD01F0004330B421F0004150EA0102BA
:1012D00006D00A0DA2F56072C1F31301002A02DCE8
:1012E00030BC00207047440F44EAC104C100E0183C
:1012F00030BC00EBC25000F015B800007F2801D9C7
:10130000002208E0064A02EB5002C007127800D122
:10131000120902F00F0201209040084070470000BF
:10132000A89200080029A8BF7047401C490008BFC8
:1013300020F00100704710B4B0FA80FC00FA0CF005
:1013400050EA010404BF10BC704749B1CCF120043D
:1013500021FA04F411FA0CF118BF012121430843CA
:10136000A3EB0C01CB1D4FEA00614FEA102042BFF6
:10137000002010BC704700EBC35010440029A4BFEC
:1013800010BC7047401C490008BF20F0010010BC91
:101390007047000080B586B040F26C00C2F20000D9
:1013A0000078002833D0FFE701F05AFC059005983B
:1013B00040F2700EC2F2000EDEF800E0A0EB0E006C
:1013C00040F21C0EC2F2000EBEF800E070451DD3C4
:1013D000FFE7059840F27001C2F2000108600020AA
:1013E00005F04EFC0490012005F04AFC0390022019
:1013F00005F046FC0290032005F042FC01900498A1
:101400000399029A019B00F053FBFFE7FFE706B048
:1014100080BD000080B58AB040F22800C2F2000012
:101420000078012840F02782FFE749F25240C0F6D9
:10143000000000F065FB40F22900C2F200000190BC
:1014400000F05EFB49F22940C0F6000000F058FBB6
:1014500049F24941C0F6000108220198FEF73DFF1C
:10146000002818D1FFE700200990089040F22900D9
:10147000C2F2000049F26F41C0F6000109AA08ABB0
:10148000FEF73AFFBDF92010BDF924200090104668
:1014900005F064FCE8E140F22900C2F2000049F2E4
:1014A000BC41C0F60001FEF70AFF002809D1FFE7A2
:1014B00005F046FF49F2F430C0F6000000F020FBD2
:1014C000D1E140F22900C2F2000049F29D41C0F68C
:1014D0000001FEF7F4FE002809D1FFE705F02AFF1E
:1014E00049F2D630C0F6000000F00AFBBAE140F243
:1014F0002900C2F2000049F28141C0F60001FEF766
:10150000DEFE002813D1FFE705F074FF05F00AFFA7
:1015100049F2F43EC0F6000E49F2D631C0F60001A1
:10152000002818BF7146084600F0EAFA99E140F237
:101530002900C2F2000049F22D41C0F600010D223F
:10154000FEF7CBFE002825D1FFE70020079040F2F0
:101550002900C2F2000049F2F241C0F6000107AAD8
:10156000FEF7CAFE01280DD1FFE7079805F0EEFE51
:10157000012807D1FFE749F2B430C0F6000000F0BF
:10158000BFFA06E049F26830C0F6000000F0B8FA91
:10159000FFE765E140F22900C2F2000049F2145170
:1015A000C0F60001FEF78BFE002811D1FFE705F021
:1015B000B9FE49F2F43EC0F6000E49F2D631C0F64B
:1015C0000001002818BF7146084600F099FA46E16C
:1015D00040F22900C2F2000049F2C641C0F6000103
:1015E000FEF76DFE002809D1FFE705F01DFF49F267
:1015F0000240C0F6000000F083FA2FE140F229001B
:10160000C2F2000049F2A841C0F60001FEF757FE01
:10161000002809D1FFE705F001FF49F2E530C0F6E7
:10162000000000F06DFA18E140F22900C2F200005B
:1016300049F28F41C0F60001FEF741FE002813D1A8
:10164000FFE705F04BFF05F0E1FE49F2024EC0F660
:10165000000E49F2E531C0F60001002818BF7146BE
:10166000084600F04DFAF7E040F22900C2F200000F
:1016700049F23B41C0F600010D22FEF72EFE002884
:1016800025D1FFE70020069040F22900C2F20000B9
:1016900049F20351C0F6000106AAFEF72DFE01280B
:1016A0000DD1FFE7069805F0C5FE012807D1FFE739
:1016B00049F2C530C0F6000000F022FA06E049F217
:1016C0008E30C0F6000000F01BFAFFE7C3E040F2E6
:1016D0002900C2F2000049F22151C0F60001FEF7D4
:1016E000EEFD002811D1FFE705F090FE49F2024E11
:1016F000C0F6000E49F2E531C0F60001002818BF1F
:101700007146084600F0FCF9A4E040F22900C2F25C
:10171000000049F22851C0F60001FEF7D0FD002874
:1017200003D1FFE700F090F993E040F22900C2F204
:10173000000049F2ED41C0F60001FEF7C0FD0028AF
:101740000DD0FFE740F22900C2F2000049F2D84173
:10175000C0F60001FEF7B3FD002817D1FFE7002017
:1017600005F08EFA0590012005F08AFA0490022017
:1017700005F086FA0390032005F082FA029005989E
:101780000499039A029B00F093F961E040F229006A
:10179000C2F2000049F2DA41C0F60001FEF78FFD07
:1017A00000280DD0FFE740F22900C2F2000049F204
:1017B0005741C0F60001FEF782FD002803D1FFE784
:1017C00000F06EF943E040F22900C2F2000049F255
:1017D000D041C0F60001FEF772FD002814D1FFE7EA
:1017E00040F26C00C2F200000121017001F038FAF1
:1017F00040F27001C2F20001086049F21E40C0F6DA
:10180000000000F07DF921E040F22900C2F2000062
:1018100049F2D541C0F60001FEF751FD00280DD177
:10182000FFE740F26C00C2F200000021017049F2B3
:101830001040C0F6000000F063F906E040F2290015
:10184000C2F2000000F01AF8FFE7FFE7FFE7FFE74A
:10185000FFE7FFE7FFE7FFE7FFE7FFE7FFE7FFE758
:10186000FFE7FFE7FFE7FFE740F22800C2F20000D2
:1018700000210170FFE70AB080BD000080B598B07C
:1018800009A9024617900020169015901490139005
:101890001290119010900F900E9017986B460DF1CA
:1018A000380CC3F808C00DF13C0CC3F804C00DF1AE
:1018B000400CC3F800C049F25B43C0F600030DF1D1
:1018C000480C0DF1440E0791194606926246734684
:1018D000FEF712FD052840F09980FFE749F2B34179
:1018E000C0F6000112A8FEF7EAFC002824D1FFE7A9
:1018F000BDF940006FF0630164220591049206F087
:101900002BFFADF83600BDF944000599049A06F0A6
:1019100023FFADF83400BDF93C000599049A06F0A8
:101920001BFFADF83200BDF93220BDF93410BDF90E
:10193000360005F0E5F868E049F2E541C0F600013F
:1019400012A8FEF7BCFC002801D1FFE75CE049F2D9
:101950007D41C0F6000112A8FEF7B1FC002852D16B
:10196000FFE711988DF83100079890ED070AB8EE5F
:10197000C00A9FED271A80EE010A80ED020A90ED61
:10198000060AB8EEC00A80EE010A80ED010A90ED69
:10199000050AB8EEC00A80EE010A80ED000A9DF843
:1019A000311003290CDCFFE7079890ED020AD0ED17
:1019B000010A90ED001A9DF8310005F07FF921E051
:1019C0009DF8310004281CD1FFE700208DF823008A
:1019D000FFE79DF82300032812DCFFE7079890ED4E
:1019E000020AD0ED010A90ED001A9DF8230005F0DF
:1019F00065F9FFE79DF8230001308DF82300E8E743
:101A0000FFE7FFE7FFE7FFE7FFE7FFE718B080BD6D
:101A10000000C84280B540F22900C2F20000402117
:101A2000FEF73BFC40F26B00C2F2000000210170A7
:101A300040F26A00C2F20000017040F22800C2F2D7
:101A40000000017080BD000080B5AAB0002005F044
:101A500017F90990012005F013F90890022005F00C
:101A60000FF90790032005F00BF90690099B0898E1
:101A7000DDF81CE006996A469160C2F804E0106047
:101A800049F24C52C0F600020AA88021059006F0E7
:101A900077FF05990490084600F032F82AB080BD1F
:101AA00080B549F22E50C0F6000000F029F880BD44
:101AB00070B5AEB09C4696460C4605462D902C91CE
:101AC0002B922A932D9B2C982B992A9A6E46B260C2
:101AD0007160306049F23652C0F600020AA88021D7
:101AE0000990CDF820C0CDF81CE00694059506F0CD
:101AF00047FF09990490084600F002F82EB070BD27
:101B000080B584B001460390039802900191FEF7DE
:101B1000CFFB82B240F62800C2F200006423029993
:101B200004F0B4F8009004B080BD000080B582B02D
:101B300040F62800C2F2000040F26901C2F2000142
:101B4000012203F0CBFF019002B080BDFFE7FEE76A
:101B500080B582B000208DF80700FFE79DF80700F0
:101B600003280CD8FFE79DF80700002100F0A0F83B
:101B7000FFE79DF8070001308DF80700EEE702B09F
:101B800080BD000080B58CB0FFE700200B9043F6CD
:101B90003000C4F20200016841F0010101600068F8
:101BA00000F001000B900B980690FFE7FFE7002084
:101BB0000A9043F63000C4F20200016841F00201CD
:101BC0000160006800F002000A900A980590FFE7A3
:101BD000FFE70020099043F63000C4F202000168DC
:101BE00041F010010160006800F0100009900998B0
:101BF0000490FFE7FFE70020089043F63000C4F2AE
:101C00000200016841F020010160006800F020003E
:101C1000089008980390FFE740F25850C2F2000085
:101C200000210290019102F0F9FF0299D1F800E041
:101C3000019ACEF8342040F2004EC4F2020E032185
:101C40000090704606F06CFD41F20040C4F20200C4
:101C50004FF4C04106F064FD41F20000C4F20200FE
:101C60004FF4905106F05CFD0020C4F202003021D8
:101C700006F056FD01988DF81F00FFE79DF81F0044
:101C8000032813D8FFE79DF81F0000EB400049F23E
:101C90000831C0F6000101EBC00006F01DFEFFE7B1
:101CA0009DF81F0001308DF81F00E7E70CB080BDE4
:101CB00080B58CB00A4603468DF82F00ADF82C1085
:101CC0009DF82F0004280692059301D3FFE794E0C6
:101CD000BDF92C00652804DBFFE76420ADF82C007B
:101CE000FFE7BDF92C0010F1650F05DCFFE74FF6AB
:101CF0009C70ADF82C00FFE79DF82F0000EB400032
:101D000049F20831C0F6000101EBC0000A900A98C0
:101D1000807D002805D0FFE7BDF92C0040420490EB
:101D200003E0BDF92C000490FFE70498ADF826000D
:101D3000BDF92600012804DBFFE70A9806F0E8FD5C
:101D40000EE0BDF92600B0F1FF3F04DCFFE70A9882
:101D500006F0FAFD03E00A9806F0A2FDFFE7FFE7B0
:101D60000A9800680068C06A01300890BDF9260032
:101D7000FEF788FADDF820E000FB0EF048F21F5E67
:101D8000C5F2EB1EA0FB0E0E4FEA5E1ECDF81CE066
:101D9000DDF828E0DEF804E0BEF1000F039006D184
:101DA000FFE707980A9909680968486324E00A98D8
:101DB0004068042807D1FFE707980A99096809686D
:101DC0008863029015E00A984068082807D1FFE769
:101DD00007980A9909680968C863019006E007989E
:101DE0000A990968096808640190FFE70198029060
:101DF000FFE702980090FFE7FFE70CB080BD00000E
:101E000080B588B040F2C060C2F2000001680022D4
:101E1000CA6301680A64082107900691059202F0DE
:101E20000FFE0C21079A0490104602F009FE40F2C2
:101E30005851C2F200010A68DDF814E0C2F838E037
:101E40000A68C2F83CE00422039008460291114659
:101E500002F0F6FD029901900846069902F0F0FDA5
:101E6000009008B080BD000080B540F20420C2F2AE
:101E7000000000F0CFF980BD80B540F24410C2F2FE
:101E8000000000F0C7F980BD80B540F2A410C2F296
:101E9000000000F0BFF980BD80B540F28430C2F28E
:101EA000000000F0B7F980BD80B540F2E430C2F226
:101EB000000000F0AFF980BD80B540F26420C2F2AE
:101EC000000000F0A7F980BD80B540F24440C2F2A6
:101ED000000000F09FF980BD80B540F2C420C2F23E
:101EE000000000F097F980BD80B540F2A440C2F236
:101EF000000000F08FF980BD80B540F22430C2F2BE
:101F0000000000F087F980BD84B00146039003987B
:101F1000007810384AF6AB22CAF6AA22A0FB0202C9
:101F200012090292029A49F20033C0F600039A5C49
:101F3000039BDA65029A042A0191009007D3FFE718
:101F400003980168042262F30901816506E00398A1
:101F5000016840F2FF3291438165FFE70398806D8D
:101F600004B0704787B00146069000208DF8170036
:101F70000698806A0490069880690028039122D10F
:101F8000FFE70498032802901BD80299DFE801F0CC
:101F9000020D02180698C06AC001002804D5FFE7A8
:101FA00001208DF81700FFE70CE00698C06AB0F139
:101FB000C07F04D1FFE701208DF81700FFE701E0A3
:101FC00000E0FFE745E006988069B0F5005F25D1A5
:101FD000FFE70498032801901ED80199DFE801F07B
:101FE0000206021101208DF8170016E00698C06A5B
:101FF000C001002804D5FFE701208DF81700FFE796
:102000000BE00698C06AB0F1C07F04D1FFE7012061
:102010008DF81700FFE700E0FFE719E004980328B8
:10202000009004D3FFE70098032804D00EE00120BD
:102030008DF817000BE00698C06AC001002804D58F
:10204000FFE701208DF81700FFE700E0FFE7FFE75B
:10205000FFE79DF8170007B070470000B0B588B0E3
:102060009C4696460C4605460790069105920493B9
:1020700007980068016821F480210160049807999D
:1020800009684860079880684028CDF80CC0CDF8F2
:1020900008E00194009509D1FFE7059807990968C0
:1020A0008860069807990968C86008E0069807994B
:1020B00009688860059807990968C860FFE708B053
:1020C000B0BD00007047000072B6FFE7FEE70000F9
:1020D00080B586B0014604900498806D039001910C
:1020E00000F0BEFD0290049890F8350002280DD053
:1020F000FFE7049880214165FFE70498002180F8FC
:102100003410FFE701208DF817005BE004980068A9
:10211000016821F01601016004980068416921F00E
:10212000800141610498006C002805D1FFE7049804
:10213000806C002807D0FFE704980068016821F050
:1021400008010160FFE704980068016821F00101BF
:102150000160FFE704980068006810F0010F1BD0D1
:10216000FFE700F07DFDDDF808E0A0EB0E0006289B
:1021700011D3FFE70498202141650498032180F8DA
:102180003510FFE70498002180F83410FFE70320A2
:102190008DF8170016E0DDE70498C06D3F2101FAC5
:1021A00000F0039988600498012180F83510FFE75A
:1021B0000498002180F83410FFE7FFE700208DF835
:1021C0001700FFE79DF8170006B080BD83B00146F9
:1021D0000190019890F835000228009107D0FFE7A0
:1021E00001988021416501208DF80B000EE00198D7
:1021F000052180F8351001980068016821F001017F
:102200000160FFE700208DF80B00FFE79DF80B0051
:1022100003B0704780B588B0014607900020059054
:1022200040F21800C2F20000006848F2B512C1F690
:102230004E32A0FB0202920A0492079A926D039218
:10224000039A12680692069A079BDB6D4FF0080C02
:102250000CFA03F31A42029101901BD0FFE7079892
:102260000068006810F0040F13D0FFE707980068BB
:10227000016821F0040101600798C06D082101FA8E
:1022800000F0039988600798416D41F001014165B4
:10229000FFE7FFE706980799C96D012202FA01F1ED
:1022A000084215D0FFE707980068406910F0800FDA
:1022B0000DD0FFE70798C06D012101FA00F00399E6
:1022C00088600798416D41F002014165FFE7FFE733
:1022D00006980799C96D042202FA01F1084215D047
:1022E000FFE707980068006810F0020F0DD0FFE7C5
:1022F0000798C06D042101FA00F0039988600798DF
:10230000416D41F004014165FFE7FFE70698079939
:10231000C96D102202FA01F108424BD0FFE707987D
:102320000068006810F0080F43D0FFE70798C06D01
:10233000102101FA00F0039988600798006800688E
:1023400010F4802F1CD0FFE707980068006810F495
:10235000002F0AD1FFE70798006C002804D0FFE7A0
:102360000798016C8847FFE709E00798806C002810
:1023700004D0FFE70798816C8847FFE7FFE717E085
:1023800007980068006810F4807F07D1FFE707987E
:102390000068016821F008010160FFE70798006C00
:1023A000002804D0FFE70798016C8847FFE7FFE7A4
:1023B000FFE7FFE706980799C96D202202FA01F1AD
:1023C000084200F09580FFE707980068006810F069
:1023D000100F00F08C80FFE70798C06D202101FAF4
:1023E00000F003998860079890F83500052838D1E7
:1023F000FFE707980068016821F01601016007985F
:102400000068416921F0800141610798006C002853
:1024100005D1FFE70798806C002807D0FFE70798F1
:102420000068016821F008010160FFE70798C06DAE
:102430003F2101FA00F0039988600798012180F894
:102440003510FFE70798002180F83410FFE7079860
:10245000006D002804D0FFE70798016D8847FFE76B
:1024600081E007980068006810F4802F1CD0FFE717
:1024700007980068006810F4002F0AD1FFE707985A
:10248000406C002804D0FFE70798416C8847FFE7BD
:1024900009E00798C06B002804D0FFE70798C16BDC
:1024A0008847FFE7FFE721E007980068006810F41D
:1024B000807F11D1FFE707980068016821F01001C3
:1024C00001600798012180F83510FFE70798002187
:1024D00080F83410FFE7FFE70798C06B002804D0AE
:1024E000FFE70798C16B8847FFE7FFE7FFE7FFE7D4
:1024F0000798406D002836D0FFE70798406D10F030
:10250000010F26D0FFE70798052180F835100798BE
:102510000068016821F001010160FFE705980130C2
:1025200005900499884201D9FFE707E0FFE7079883
:102530000068006810F0010FF0D1FFE70798012153
:1025400080F83510FFE70798002180F83410FFE786
:10255000FFE70798C06C002804D0FFE70798C16C1C
:102560008847FFE7FFE708B080BD000080B586B070
:102570000146049000200390009100F071FB02904E
:102580000498002804D1FFE701208DF81700AAE085
:102590000498406A002801D0FFE7FFE70498022171
:1025A00080F83510FFE70498002180F83410FFE729
:1025B00004980068016821F001010160FFE70498B8
:1025C0000068006810F0010F14D0FFE700F048FB2E
:1025D000DDF808E0A0EB0E0006280AD3FFE7049818
:1025E000202141650498032180F835108DF81710DB
:1025F00079E0E4E70498006800680390039848F2E3
:102600003F01CFF2100108400390049841688268AE
:10261000C368D0F810C01143194341EA0C01426964
:10262000114382691143C2691143006A0843039947
:10263000084303900498406A042808D1FFE70498EF
:10264000C16A006B0843039908430390FFE70398AE
:102650000499096808600498006840690390039829
:1026600020F0070003900498406A03990843039000
:102670000498406A04281CD1FFE70498806A0399F3
:10268000084303900498C06A002811D0FFE704981B
:10269000FFF768FC00280AD0FFE704984021416555
:1026A0000498012180F835108DF817101BE0FFE722
:1026B000FFE703980499096848610498FFF724FC30
:1026C00001900498C06D3F2101FA00F001998860E3
:1026D00004980021416504984FF0010E80F835E020
:1026E0008DF81710FFE79DF8170006B080BD0000B9
:1026F000B0B58CB09C4696460C4605460A900991AA
:102700000892079300208DF81B000A98806D0590B1
:10271000CDF810C0CDF80CE002940195FFE70A98BF
:1027200090F83400012804D1FFE702208DF82F0033
:1027300047E00A98012180F83410FFE7FFE70A9884
:1027400090F8350001282DD1FFE70A98022180F882
:1027500035100A98002141650A980999089A079B43
:10276000FFF77CFC0A98C06D3F2101FA00F0059943
:1027700088600A980068016841F0160101600A98B3
:10278000006C002807D0FFE70A980068016841F054
:1027900008010160FFE70A980068016841F0010143
:1027A000016009E0FFE70A98002180F83410FFE794
:1027B00002208DF81B00FFE79DF81B008DF82F000D
:1027C000FFE79DF82F000CB0B0BD000080B584B0CD
:1027D00001460390009100F043FA029003980190A3
:1027E00001980130002809D0FFE740F21E00C2F234
:1027F00000000078019908440190FFE7FFE700F02E
:102800002FFADDF808E0A0EB0E00DDF804E07045DB
:1028100001D2FFE7F3E704B080BD000091B00A46A3
:10282000034610900F9100200D900C900B900E908D
:1028300009920893FFE70E980F2800F2D581FFE771
:102840000E98012101FA00F00D900F9800680D9983
:1028500008400C900C980D99884240F0C081FFE729
:102860000F98406800F00300012807D0FFE70F9899
:10287000406800F0030002282FD1FFE7109880681D
:102880000B900E984000032101FA00F00B9921EA09
:1028900000000B900F98C0680E99490088400B9972
:1028A00008430B900B9810998860109840680B9023
:1028B0000E98012101FA00F00B9921EA00000B901B
:1028C0000F984068C0F300100E9988400B99084398
:1028D0000B900B9810994860FFE70F98406800F044
:1028E0000300032818D0FFE71098C0680B900E98DB
:1028F0004000032101FA00F00B9921EA00000B903F
:102900000F9880680E99490088400B9908430B90F6
:102910000B981099C860FFE70F98406800F003001B
:10292000022828D1FFE710980E994FF6FC72C7F6DF
:10293000FF7202EA51010844006A0B900E9800F001
:10294000070080000F2101FA00F00B9921EA000036
:102950000B900F9800690E9901F0070189008840DB
:102960000B9908430B900B9810990E9B02EA5302A7
:1029700011440862FFE7109800680B900E98400021
:10298000032101FA00F00B9921EA00000B900F9847
:10299000406800F003000E99490088400B990843F5
:1029A0000B900B98109908600F9880798007002889
:1029B00000F01481FFE7FFE700200A9043F644008F
:1029C000C4F20200016841F480410160006800F433
:1029D00080400A900A980790FFE70E9820F00300C5
:1029E00043F60801C4F2010140580B900E9800F024
:1029F000030080000F2101FA00F00B9921EA00008A
:102A00000B9010980021C4F20201884203D1FFE725
:102A1000002006905EE0109840F20041C4F20201EE
:102A2000884203D1FFE70120059050E0109840F65E
:102A30000001C4F20201884203D1FFE702200490A2
:102A400042E0109840F60041C4F20201884203D1EE
:102A5000FFE70320039034E0109841F20001C4F234
:102A60000201884203D1FFE70420029026E010987B
:102A700041F20041C4F20201884203D1FFE7052080
:102A8000019018E0109841F60001C4F2020188425A
:102A900003D1FFE7062000900AE0109841F60041BC
:102AA000C4F202010822884208BF07220092FFE711
:102AB00000980190FFE701980290FFE702980390C9
:102AC000FFE703980490FFE704980590FFE7059857
:102AD0000690FFE70698C0B20E9901F00301890045
:102AE00088400B9908430B900B980E9921F0030135
:102AF00043F60802C4F20102885043F60840C4F2CB
:102B0000010000680B900C980B9921EA00000B90D3
:102B10000F988079C006002805D5FFE70C980B991F
:102B200008430B90FFE70B9843F60841C4F20101FC
:102B3000086043F60C40C4F2010000680B900C984A
:102B40000B9921EA00000B900F98807980060028ED
:102B500005D5FFE70C980B9908430B90FFE70B98FE
:102B600043F60C41C4F20101086043F60440C4F28C
:102B7000010000680B900C980B9921EA00000B9063
:102B80000F9880798007002805D5FFE70C980B99EE
:102B900008430B90FFE70B9843F60441C4F2010190
:102BA000086043F60040C4F2010000680B900C98E6
:102BB0000B9921EA00000B900F988079C00700283C
:102BC00005D0FFE70C980B9908430B90FFE70B9893
:102BD00043F60041C4F201010860FFE7FFE7FFE7A9
:102BE0000E9801300E9026E611B0704785B00A4667
:102BF00003460490ADF80E100498406902900298C4
:102C0000BDF80E1000EA010C21EA000040EA0C4079
:102C1000049988610192009305B0704780B585B032
:102C200013468C4686460490ADF80E108DF80D20A4
:102C30009DF80D0000280293CDF804C0CDF800E007
:102C400005D0FFE7BDF80E000499886105E0BDF8E6
:102C50000E00000404998861FFE705B080BD000004
:102C600040F66010C2F200000068704780B590B076
:102C700001460E900E9800280B9104D1FFE7012029
:102C80008DF83F004FE10E9890F83D00002808D1E4
:102C9000FFE70E98002180F83C100E9800F048F9EC
:102CA000FFE70E98242180F83D100E980068016817
:102CB00021F0010101600E980068016841F40041B3
:102CC00001600E980068016821F40041016000F085
:102CD00089FB0C900E98406848F2A061C0F2010197
:102CE00088420BD8FFE70C9848F28041C0F21E01E1
:102CF0000022884238BF01220A920AE00C9840F66E
:102D00000011C0F23D010022884238BF01220A9220
:102D1000FFE70A98012804D1FFE701208DF83F0062
:102D200001E10C984DF68361C4F21B31A0FB010157
:102D3000890C0D910E990968496821F03F010D9A9F
:102D400011430E9A126851600E990968096A21F0C0
:102D50003F010E9A526848F2A063C0F201039A4202
:102D60000990089104D8FFE70D98013007900FE013
:102D70000D984FF49671484344F6D351C1F2620165
:102D8000A0FB0101012202EB911106900791FFE7E0
:102D90000798089908430E9A126810620E98006806
:102DA000C0694CF6FF7290430E9A526848F2A063D5
:102DB000C0F201039A4205901FD8FFE70C98013832
:102DC0000E9949684900B0FBF1F001306FF31F30F4
:102DD000032803D8FFE7042004900BE00C98013887
:102DE0000E9949684900B0FBF1F001306FF31F30D4
:102DF0000490FFE7049803904FE00E988068002845
:102E00000DD1FFE70C9801380E99496801EB41019B
:102E1000B0FBF1F001306FF31F3002900DE00C9821
:102E200001380E99496819225143B0FBF1F0013085
:102E3000042161F31F300290FFE70298000500288B
:102E400003D1FFE70120019024E00E98806800285C
:102E50000DD1FFE70C9801380E99496801EB41014B
:102E6000B0FBF1F001306FF31F3000900DE00C98D3
:102E700001380E99496819225143B0FBF1F0013035
:102E8000042161F31F300090FFE7009840F40040F8
:102E90000190FFE701980390FFE703980599084325
:102EA0000E9A1268D0610E980068006820F0C00089
:102EB0000E9A1368D2F81CC0126A42EA0C02104340
:102EC00018600E980068806848F2FF3290430E9AAE
:102ED0001368D2F80CC0126942EA0C0210439860E1
:102EE0000E980068C06820F0FF000E9A1368D2F8B0
:102EF00014C0926942EA0C021043D8600E98006830
:102F0000026842F0010202600E98002202640E98EC
:102F1000202380F83D300E9802630E9880F83E2002
:102F20008DF83F20FFE79DF83F0010B080BD000006
:102F300080B58CB001460B9000200A900990089053
:102F4000079006900B98006845F20042C4F2000218
:102F50009042039137D1FFE7FFE70020059043F649
:102F60003000C4F20200016841F002010160006813
:102F700000F00200059005980290FFE74FF44070C2
:102F8000069012200790002008900320099004204A
:102F90000A9040F20040C4F2020006A9FFF73EFC8E
:102FA000FFE70020049043F64000C4F202000168ED
:102FB00041F400110160006800F4001004900498CE
:102FC0000190FFE7FFE70CB080BD000040F21E005B
:102FD000C2F20000007840F66011C2F200010A68F7
:102FE000104408607047000080B582B043F600408E
:102FF000C4F20200016841F400710160016841F40B
:1030000080610160016841F480710160032000F07B
:103010009DF80F2000F006F8019000F03FF8002026
:1030200002B080BD80B584B00146029040F2180025
:10303000C2F20000006840F21E02C2F200021278E2
:103040004FF47A73B3FBF2F2B0FBF2F0019100F0AF
:10305000E5FD002804D0FFE701208DF80F0018E0FF
:1030600002980F280DD8FFE702994FF0FF30002299
:1030700000F048F8029840F22001C2F20001086016
:1030800003E001208DF80F0003E000208DF80F0011
:10309000FFE79DF80F0004B080BD000084B0FFE79B
:1030A0000020039043F64400C4F20200016841F49A
:1030B00080410160006800F4804003900398019013
:1030C000FFE7FFE70020029043F64000C4F2020051
:1030D000016841F080510160006800F0805002906A
:1030E00002980090FFE704B07047000080B582B0FE
:1030F00001468DF807009DF90700009105F0A6FA3A
:1031000002B080BD80B58AB013468C4686468DF8E5
:10311000270008910792002006900593CDF810C073
:10312000CDF80CE005F0AEFA069006980899079ADB
:103130009DF92730029303F0DFFE029901900846C3
:10314000019905F0A7FA0AB080BD000080B582B0F1
:10315000014601900198009105F0C2FA02B080BDCD
:1031600080B588B00A460346069005910698002867
:103170000392029304D1FFE701208DF81F0026E19E
:10318000059843F60041C4F20201096801F0070105
:10319000884212D9FFE7059843F60041C4F20201C4
:1031A0000870086800F007000599884204D0FFE71E
:1031B00001208DF81F000AE1FFE7069800688007EC
:1031C00000282AD5FFE7069800684007002809D59F
:1031D000FFE743F60800C4F20200016841F4E05141
:1031E0000160FFE7069800680007002809D5FFE79F
:1031F00043F60800C4F20200016841F46041016036
:10320000FFE743F60800C4F20200016821F0F00174
:10321000069A926811430160FFE706980068C007AC
:10322000002870D0FFE706984068012811D1FFE719
:1032300043F60000C4F20200006800F400300021F0
:10324000B1EB504F04D1FFE701208DF81F00BEE025
:103250002CE006984068022805D0FFE706984068F1
:10326000032811D1FFE743F60000C4F20200006812
:1032700000F000700021B1EB506F04D1FFE7012096
:103280008DF81F00A3E010E043F60000C4F2020036
:10329000006800F002000021B1EB500F04D1FFE7FD
:1032A00001208DF81F0092E0FFE7FFE743F60800DA
:1032B000C4F20200016821F00301069A526811432A
:1032C0000160FFF7CDFC0490FFE743F60800C4F26D
:1032D0000200006800F00C0006994968B0EB810F0D
:1032E00010D0FFE7FFF7BCFCDDF810E0A0EB0E000C
:1032F00041F2893E704504D3FFE703208DF81F009B
:1033000065E0E2E7FFE7059843F60041C4F20201F9
:10331000096801F00701884212D2FFE7059843F6D9
:103320000041C4F202010870086800F00700059926
:10333000884204D0FFE701208DF81F0047E0FFE737
:1033400006980068400700280CD5FFE743F6080000
:10335000C4F20200016821F4E051069AD2681143D8
:103360000160FFE706980068000700280DD5FFE719
:1033700043F60800C4F20200016821F46041069A95
:10338000126941EAC2010160FFE700F053F843F619
:10339000080EC4F2020EDEF800E0CEF3031E49F27E
:1033A000E821C0F6000111F80E10C84040F21801E3
:1033B000C2F20001086040F22000C2F20000006882
:1033C000FFF730FE00218DF81F100190FFE79DF8F8
:1033D0001F0008B080BD000040F21800C2F20000DB
:1033E0000068704780B5FFF7F7FF43F6080EC4F298
:1033F000020EDEF800E0CEF3822E49F2F821C0F68C
:10340000000111F80E10C84080BD000080B5FFF724
:10341000E3FF43F6080EC4F2020EDEF800E0CEF33E
:10342000423E49F2F821C0F6000111F80E10C840E2
:1034300080BD000080B586B0002005900490039008
:10344000029043F60800C4F20200006800F00C008D
:1034500001460028019108D0FFE7019804280AD00E
:10346000FFE7019808280CD04FE042F20040C0F27C
:10347000F40002904FE041F20020C0F27A00029086
:1034800049E043F60400C4F20200016801F03F0184
:103490000591006810F4800F13D0FFE743F6040095
:1034A000C4F202000068C0F3881041F20021C0F2AB
:1034B0007A01A0FB0101059A0023FCF781FE04902C
:1034C00012E043F60400C4F202000068C0F3881062
:1034D00042F20041C0F2F401A0FB0101059A002371
:1034E000FCF76EFE0490FFE743F60400C4F202000E
:1034F000006800F44030022101EBD03003900498C2
:103500000399B0FBF1F0029005E042F20040C0F2F6
:10351000F4000290FFE7029806B080BD80B588B045
:103520000146069006980028019104D1FFE701208A
:103530008DF81F006EE306980068C007002800F0B1
:10354000AB80FFE743F60800C4F20200006800F019
:103550000C00042813D0FFE743F60800C4F2020071
:10356000006800F00C0008281FD1FFE743F60400B4
:10357000C4F20200006810F4800F16D0FFE743F693
:103580000000C4F20200006800F400300021B1EB3A
:10359000504F09D0FFE706984068002804D1FFE7A4
:1035A00001208DF81F0035E375E0FFE706984068BD
:1035B000B0F5803F09D1FFE743F60000C4F20200F6
:1035C000016841F48031016020E006984068B0F560
:1035D000A02F0DD1FFE743F60000C4F202000168FE
:1035E00041F480210160016841F4803101600CE008
:1035F00043F60000C4F20200016821F4803101604A
:10360000016821F480210160FFE7FFE7FFE70698EA
:10361000406800281FD0FFE7FFF722FB0590FFE777
:1036200043F60000C4F20200006800F400300021FC
:10363000B1EB504F0ED1FFE7FFF712FBDDF814E0BE
:10364000A0EB0E00652804D3FFE703208DF81F00D0
:10365000E0E2E5E71EE0FFF703FB0590FFE743F636
:103660000000C4F20200006800F400300021B1EB59
:10367000504F0ED0FFE7FFF7F3FADDF814E0A0EBB0
:103680000E00652804D3FFE703208DF81F00C1E278
:10369000E5E7FFE7FFE7FFE70698006880070028F7
:1036A00040F19B80FFE743F60800C4F20200006887
:1036B00010F00C0F13D0FFE743F60800C4F202002D
:1036C000006800F00C0008282CD1FFE743F6040046
:1036D000C4F20200006810F4800F23D1FFE743F624
:1036E0000000C4F20200006800F002000021B1EB0B
:1036F000500F09D0FFE70698C068012804D0FFE703
:1037000001208DF81F0085E243F60000C4F202009C
:10371000016821F0F801069A126941EAC2010160CC
:10372000FFE759E00698C068002830D0FFE7002086
:10373000C4F2472001210160FFF792FA0590FFE7EC
:1037400043F60000C4F20200006800F0020000210D
:10375000B1EB500F0ED1FFE7FFF782FADDF814E06E
:10376000A0EB0E00032804D3FFE703208DF81F0011
:1037700050E2E5E743F60000C4F20200016821F0E0
:10378000F801069A126941EAC201016023E00020B3
:10379000C4F2472000210160FFF762FA0590FFE7BD
:1037A00043F60000C4F20200006800F002000021AD
:1037B000B1EB500F0ED0FFE7FFF752FADDF814E03F
:1037C000A0EB0E00032804D3FFE703208DF81F00B1
:1037D00020E2E5E7FFE7FFE7FFE70698006800075C
:1037E000002850D5FFE706984069002825D0FFE75C
:1037F00040F68060C4F2472001210160FFF730FAF3
:103800000590FFE743F67400C4F20200006800F080
:1038100002000021B1EB500F0ED1FFE7FFF720FAB5
:10382000DDF814E0A0EB0E00032804D3FFE703202B
:103830008DF81F00EEE1E5E724E040F68060C4F279
:10384000472000210160FFF70BFA0590FFE743F6E0
:103850007400C4F20200006800F002000021B1EB25
:10386000500F0ED0FFE7FFF7FBF9DDF814E0A0EBF7
:103870000E00032804D3FFE703208DF81F00C9E1E1
:10388000E5E7FFE7FFE7069800684007002840F1FA
:10389000D680FFE700208DF80F0043F64000C4F209
:1038A0000200006810F0805F16D1FFE7FFE70020FC
:1038B000029043F64000C4F20200016841F08051DA
:1038C0000160006800F08050029002980090FFE7CD
:1038D00001208DF80F00FFE747F20000C4F200005E
:1038E000006810F4807F24D1FFE747F20000C4F2A3
:1038F0000000016841F480710160FFF7B1F90590A3
:10390000FFE747F20000C4F20000006810F4807F77
:103910000ED1FFE7FFF7A4F9DDF814E0A0EB0E00ED
:10392000032804D3FFE703208DF81F0072E1E8E7C6
:10393000FFE7FFE706988068012809D1FFE743F613
:103940007000C4F20200016841F0010101601FE053
:103950000698806805280DD1FFE743F67000C4F291
:103960000200016841F004010160016841F00101B9
:1039700001600CE043F67000C4F20200016821F01F
:1039800001010160016821F004010160FFE7FFE728
:10399000FFE706988068002821D0FFE7FFF760F96D
:1039A0000590FFE743F67000C4F20200006800F0E3
:1039B00002000021B1EB500F10D1FFE7FFF750F9E3
:1039C000DDF814E0A0EB0E0041F2893E704504D30F
:1039D000FFE703208DF81F001CE1E3E720E0FFF77D
:1039E0003FF90590FFE743F67000C4F2020000685B
:1039F00000F002000021B1EB500F10D0FFE7FFF7FD
:103A00002FF9DDF814E0A0EB0E0041F2893E70457D
:103A100004D3FFE703208DF81F00FBE0E3E7FFE797
:103A20009DF80F00012809D1FFE743F64000C4F2DA
:103A30000200016821F080510160FFE7FFE706986E
:103A40008069002800F0E280FFE743F60800C4F236
:103A50000200006800F00C00082800F08B80FFE7EF
:103A600006988069022860D1FFE76020C4F24720F1
:103A700000210160FFF7F4F80590FFE743F600002E
:103A8000C4F20200006800F000700021B1EB506F3A
:103A90000ED0FFE7FFF7E4F8DDF814E0A0EB0E002E
:103AA000032804D3FFE703208DF81F00B2E0E5E709
:103AB0000698C169026A436AD0F828C0114341EAF6
:103AC00083114FEACC324FF6FF739A43A2F580324E
:103AD0001143C06A41EA006043F60401C4F20201E6
:103AE00008606020C4F2472001210160FFF7B8F8A8
:103AF0000590FFE743F60000C4F20200006800F002
:103B000000700021B1EB506F0ED1FFE7FFF7A8F86E
:103B1000DDF814E0A0EB0E00032804D3FFE7032038
:103B20008DF81F0076E0E5E723E06020C4F247202F
:103B300000210160FFF794F80590FFE743F60000CD
:103B4000C4F20200006800F000700021B1EB506F79
:103B50000ED0FFE7FFF784F8DDF814E0A0EB0E00CD
:103B6000032804D3FFE703208DF81F0052E0E5E7A8
:103B7000FFE74AE006988069012804D1FFE70120A9
:103B80008DF81F0046E043F60400C4F2020000680E
:103B9000049006988069012831D0FFE7049800F46A
:103BA00080000699C969884229D1FFE7049800F08E
:103BB0003F000699096A884221D1FFE7049847F639
:103BC000C07108400699496AB0EB811F17D1FFE721
:103BD000049800F440300699896AC9034FF6FF72D1
:103BE0009143A1F58031884209D1FFE7049800F0A4
:103BF00070600699C96AB0EB016F04D0FFE701203D
:103C00008DF81F0006E0FFE7FFE7FFE700208DF8D3
:103C10001F00FFE79DF81F0008B080BD80B582B08F
:103C2000014601900198009103F09EFC02B080BD16
:103C300082B001460190009102B0704782B0014607
:103C40000190009102B0704786B00A460346049086
:103C500003910020029001920093FFE7049890F8EE
:103C60003C00012804D1FFE702208DF8170044E052
:103C70000498012180F83C10FFE7FFE7029820F04C
:103C8000FF000399C96808430290029820F440702D
:103C90000399896808430290029820F48060039990
:103CA000496808430290029820F40060039909686B
:103CB00008430290029820F4805003990969084350
:103CC0000290029820F40050039949690843029039
:103CD000029820F480400399C96908430290029831
:103CE000049909684864FFE70498002180F83C10B3
:103CF000FFE700208DF81700FFE79DF8170006B0DA
:103D00007047000087B00A4603460590049101926F
:103D10000093FFE7059890F83C00012804D1FFE7E5
:103D200002208DF81B007EE00598012180F83C10F0
:103D3000FFE7FFE70598022180F83D10059800682D
:103D4000406803900598006880680290039820F00E
:103D50007000039004980068039908430390039847
:103D6000059909684860059800680021C4F20101BE
:103D700088423CD0FFE705980068B0F1804F36D00C
:103D8000FFE70598006840F20041C4F20001884254
:103D90002DD0FFE70598006840F60001C4F200014D
:103DA000884224D0FFE70598006840F60041C4F23D
:103DB000000188421BD0FFE70598006840F20041EF
:103DC000C4F20101884212D0FFE70598006844F26E
:103DD0000001C4F20101884209D0FFE7059800689C
:103DE00041F60001C4F2000188420ED1FFE70298BB
:103DF00020F08000029004984068029908430290E5
:103E00000298059909688860FFE70598012180F804
:103E10003D10FFE70598002180F83C10FFE70020E7
:103E20008DF81B00FFE79DF81B0007B070470000EE
:103E300080B584B00146029002980028019104D117
:103E4000FFE701208DF80F0043E0029890F83D0055
:103E5000002808D1FFE70298002180F83C10029862
:103E600000F03CF8FFE70298022180F83D1002982C
:103E700050F8041B00900846009903F01BFC0298C0
:103E8000012180F84610FFE70298012180F83E10DA
:103E9000029880F83F10029880F84010029880F84D
:103EA0004110FFE7FFE70298012180F842100298D5
:103EB00080F84310029880F84410029880F845106A
:103EC000FFE70298012180F83D1000208DF80F00D7
:103ED000FFE79DF80F0004B080BD000080B58CB0F6
:103EE00001460B900B9800680022C4F20102904238
:103EF000069113D1FFE7FFE700200A9043F6440044
:103F0000C4F20200016841F001010160006800F0A4
:103F100001000A900A980590FFE760E00B9800689E
:103F200040F60041C4F20001884213D1FFE7FFE7E9
:103F30000020099043F64000C4F20200016841F0FD
:103F400008010160006800F00800099009980490D9
:103F5000FFE743E00B98006841F20001C4F2000162
:103F600088421DD1FFE7FFE70020089043F640009C
:103F7000C4F20200016841F010010160006800F025
:103F80001000089008980390FFE736200021029067
:103F90000191019AFFF7B6F80298FFF7A7F81CE025
:103FA0000B98006841F60001C4F20001884213D169
:103FB000FFE7FFE70020079043F64000C4F202004D
:103FC000016841F040010160006800F04000079086
:103FD00007980090FFE7FFE7FFE7FFE7FFE70CB078
:103FE00080BD000080B58EB00A4603460C900B9150
:103FF00000208DF82B0008920793FFE70C9890F8AB
:104000003C00012804D1FFE702208DF83700BBE017
:104010000C98012180F83C10FFE7FFE70C98022183
:1040200080F83D100C98006880680990099820F08D
:1040300077000990099820F47F40099009980C991D
:10404000096888600B9800680028069000F082805C
:10405000FFE7069810287DD0FFE70698202879D042
:10406000FFE70698302875D0FFE70698402861D012
:10407000FFE7069850283DD0FFE70698602849D012
:10408000FFE7069870280BD0FFE70698B0F5805F31
:1040900005D0FFE70698B0F5005F19D061E064E055
:1040A0000C9800680B994A688B68C9680591194695
:1040B000059B03F0FBFB0C98006880680990099849
:1040C00040F07700099009980C99096888604CE0E5
:1040D0000C9800680B994A688B68C9680491194666
:1040E000049B03F0E3FB0C980068816841F4804175
:1040F00081603AE00C9800680B994A68C96803919E
:104100001146039A03F0DEFD0C980068502103F07D
:10411000F3FB2AE00C9800680B994A68C968029181
:104120001146029A03F000FE0C980068602103F02B
:10413000E3FB1AE00C9800680B994A68C968019182
:104140001146019A03F0BEFD0C980068402103F06F
:10415000D3FB0AE00C9800680B99096803F0CCFBCC
:1041600003E001208DF82B00FFE70C98012180F877
:104170003D10FFE70C98002180F83C10FFE79DF808
:104180002B008DF83700FFE79DF837000EB080BD9B
:1041900080B58AB00A46034608900791089800281F
:1041A0000392029304D1FFE701208DF827008CE0F1
:1041B000089890F83D00002808D1FFE708980021F2
:1041C00080F83C10089800F085F8FFE70898022175
:1041D00080F83D1008980068816844F20702914316
:1041E0008160089850F8041B01900846019903F07B
:1041F00061FA0898006880680690089800688069ED
:10420000059008980068006A04900798006806996D
:1042100008430690059840F20331884305900798BB
:104220008168806941EA0020059908430590059856
:1042300040F60C418843059005984FF2F001884301
:1042400005900798C168C06941EA002005990843B4
:10425000059007980169006A090141EA0030059953
:1042600008430590049820F022000490049820F060
:104270008800049007984168406941EA0010049959
:104280000843049006980899096888600598089979
:1042900009688861049808990968086208980121EA
:1042A00080F84610089880F83E10089880F83F1073
:1042B000089880F84210089880F84310089880F811
:1042C0003D1000208DF82700FFE79DF827000AB079
:1042D00080BD000080B598B0014617900020169070
:1042E000159014901390129017980068B0F1804FB9
:1042F000099134D1FFE7FFE70020119043F6400019
:10430000C4F20200016841F001010160006800F0A0
:104310000100119011980890FFE7FFE7002010902E
:1043200043F63000C4F20200016841F0010101606F
:10433000006800F00100109010980790FFE703203C
:1043400012900220139000201490159001201690D6
:104350000020C4F2020012A9FEF760FAB9E0179833
:10436000006840F20041C4F20001884233D1FFE707
:10437000FFE700200F9043F64000C4F202000168FE
:1043800041F002010160006800F002000F900F98F8
:104390000690FFE7FFE700200E9043F63000C4F2DE
:1043A0000200016841F001010160006800F00100B5
:1043B0000E900E980590FFE7C020129002201390F7
:1043C00000211491159116900020C4F2020012A948
:1043D000FEF724FA7CE01798006840F60001C4F26A
:1043E0000001884234D1FFE7FFE700200D9043F63B
:1043F0004000C4F20200016841F00401016000685D
:1044000000F004000D900D980490FFE7FFE70020F6
:104410000C9043F63000C4F20200016841F0020142
:104420000160006800F002000C900C980390FFE718
:10443000C020129002201390002114911591169023
:1044400040F20040C4F2020012A9FEF7E7F93EE094
:104450001798006840F20041C4F20101884235D14A
:10446000FFE7FFE700200B9043F64400C4F2020090
:10447000016841F002010160006800F002000B9049
:104480000B980290FFE7FFE700200A9043F6300008
:10449000C4F20200016841F004010160006800F00C
:1044A00004000A900A980190FFE7C02012900220B1
:1044B00013900020149015900320169040F60000F1
:1044C000C4F2020012A9FEF7A9F9FFE7FFE7FFE730
:1044D000FFE718B080BD000082B001460190009156
:1044E00002B0704780B584B001460390039800681D
:1044F000C0680290039800680069019001988007E5
:104500000028009124D5FFE70298800700281ED5D7
:10451000FFE7039800686FF0020101610398012131
:10452000017703980068806910F0030F04D0FFE75B
:104530000398FFF7D1FF06E0039800F069F90398AC
:1045400000F078FAFFE7039800210177FFE7FFE723
:1045500001984007002824D5FFE70298400700286B
:104560001ED5FFE7039800686FF00401016103980E
:104570000221017703980068806910F4407F04D01D
:10458000FFE70398FFF7A8FF06E0039800F040F963
:10459000039800F04FFAFFE7039800210177FFE747
:1045A000FFE701980007002824D5FFE702980007DD
:1045B00000281ED5FFE7039800686FF0080101612D
:1045C00003980421017703980068C06910F0030F75
:1045D00004D0FFE70398FFF77FFF06E0039800F0A1
:1045E00017F9039800F026FAFFE7039800210177F6
:1045F000FFE7FFE70198C006002824D5FFE70298EF
:10460000C00600281ED5FFE7039800686FF0100170
:10461000016103980821017703980068C06910F4CC
:10462000407F04D0FFE70398FFF756FF06E00398AA
:1046300000F0EEF8039800F0FDF9FFE70398002181
:104640000177FFE7FFE70198C00700280FD0FFE7D9
:104650000298C007002809D0FFE7039800686FF0B0
:1046600001010161039800F065FBFFE7FFE7019896
:10467000000600280FD5FFE702980006002809D59C
:10468000FFE7039800686FF0800101610398FFF76E
:10469000CFFAFFE7FFE70198400600280FD5FFE7B4
:1046A00002984006002809D5FFE7039800686FF0DC
:1046B00040010161039800F043FBFFE7FFE7019829
:1046C000800600280FD5FFE702988006002809D54C
:1046D000FFE7039800686FF0200101610398FFF77E
:1046E000ADFAFFE7FFE704B080BD000080B58EB0F3
:1046F00001460D9000200C900B900A9009900890B4
:104700000D9800680022C4F201029042049124D165
:10471000FFE7FFE70020079043F63000C4F20200F5
:10472000016841F010010160006800F0100007907E
:1047300007980390FFE74FF4D040089002200990BB
:1047400000200A900B9001200C9041F20000C4F26E
:10475000020008A9FEF762F858E00D98006840F6DC
:104760000041C4F20001884221D1FFE7FFE70020A9
:10477000069043F63000C4F20200016841F00101E6
:104780000160006800F00100069006980290FFE7C3
:104790000C2008900220099000210A910B910C90A6
:1047A0000020C4F2020008A9FEF738F82DE00D98A9
:1047B000006841F60001C4F20001884224D1FFE7FD
:1047C000FFE70020059043F63000C4F202000168C4
:1047D00041F002010160006800F0020005900598B8
:1047E0000190FFE74FF4404008900220099000201C
:1047F0000A900B9009200C9040F20040C4F2020095
:1048000008A9FEF70BF8FFE7FFE7FFE70EB080BD52
:1048100082B001460190009102B0704780B58AB025
:1048200013468C46864608900791069200208DF824
:1048300017000493CDF80CC0CDF808E0FFE7089806
:1048400090F83C00012804D1FFE702208DF82700F2
:104850008FE00898012180F83C10FFE7FFE70698F9
:104860000C28019000F276800199DFE801F00773CF
:104870007373227373733D737373580008980068E1
:10488000079903F053F808980068816941F008011E
:10489000816108980068816921F0040181610798AD
:1048A000006908990968D1F818E040EA0E008861AB
:1048B00054E008980068079903F0B2F80898006877
:1048C000816941F40061816108980068816921F47F
:1048D000806181610798006908990968D1F818E03A
:1048E0004EEA0020886139E008980068079903F0D3
:1048F00015F908980068C16941F00801C16108987C
:104900000068C16921F00401C16107980069089934
:104910000968D1F81CE040EA0E00C8611EE0089862
:104920000068079903F078F908980068C16941F4B4
:104930000061C16108980068C16921F48061C161AA
:104940000798006908990968D1F81CE04EEA002030
:10495000C86103E001208DF81700FFE7FFE7089822
:10496000002180F83C10FFE79DF817008DF8270024
:10497000FFE79DF827000AB080BD000080B584B035
:104980000146029002980028019104D1FFE701201E
:104990008DF80F0043E0029890F83D00002808D100
:1049A000FFE70298002180F83C10029800F03CF8E4
:1049B000FFE70298022180F83D10029850F8041B8E
:1049C00000900846009902F075FE0298012180F8D7
:1049D0004610FFE70298012180F83E10029880F807
:1049E0003F10029880F84010029880F84110FFE7CD
:1049F000FFE70298012180F84210029880F84310E6
:104A0000029880F84410029880F84510FFE7029859
:104A1000012180F83D1000208DF80F00FFE79DF880
:104A20000F0004B080BD000082B0014601900091EB
:104A300002B0704782B001460190009102B0704709
:104A400080B58EB00A4603460C900B910B98002857
:104A50000992089305D1FFE70C9890F83E00079063
:104A60001CE00B98042805D1FFE70C9890F83F0054
:104A7000069010E00B98082805D1FFE70C9890F8F5
:104A80004000059004E00C9890F841000590FFE785
:104A900005980690FFE706980790FFE7079801281A
:104AA00004D0FFE701208DF83700B2E00B98002812
:104AB00005D1FFE70C98022180F83E101FE00B980B
:104AC000042806D1FFE70C98022180F83F100491DA
:104AD00012E00B98082806D1FFE70C98022180F815
:104AE0004010039105E00C98022180F841100391D9
:104AF000FFE703980490FFE704980290FFE70C9803
:104B000000680B990122019202F0AAFE0C9800683D
:104B100001990022C4F20102904200910CD0FFE7FB
:104B20000C9800684FF60041CBF6FE710844B0FACD
:104B300080F040090090FFE70098C007002807D0E8
:104B4000FFE70C980068416C41F400414164FFE7C5
:104B50000C9800680021C4F2010188423CD0FFE7B4
:104B60000C980068B0F1804F36D0FFE70C980068D1
:104B700040F20041C4F2000188422DD0FFE70C98BA
:104B8000006840F60001C4F20001884224D0FFE72B
:104B90000C98006840F60041C4F2000188421BD026
:104BA000FFE70C98006840F20041C4F2010188421E
:104BB00012D0FFE70C98006844F20001C4F2010132
:104BC000884209D0FFE70C98006841F60001C4F262
:104BD0000001884212D1FFE70C980068806800F05D
:104BE00007000A900A98062807D0FFE70C9800688B
:104BF000016841F001010160FFE706E00C980068E0
:104C0000016841F001010160FFE700208DF83700E5
:104C1000FFE79DF837000EB080BD000080B588B07A
:104C20000A460346079006910798006806994FF0D8
:104C3000000C05926246049302F012FE0798006889
:104C400001210022C4F20102904203910CD0FFE73F
:104C5000079800684FF60041CBF6FE710844B0FAA1
:104C600080F040090390FFE70398C00700281BD09D
:104C7000FFE7FFE707980068006A41F21111084258
:104C800010D1FFE707980068006A40F244410842EB
:104C900007D1FFE707980068416C21F400414164A7
:104CA000FFE7FFE7FFE7FFE7FFE707980068006A15
:104CB00041F21111084210D1FFE707980068006A1D
:104CC00040F24441084207D1FFE7079800680168B5
:104CD00021F001010160FFE7FFE7FFE706980028E8
:104CE00005D1FFE70798012180F83E101FE00698E4
:104CF000042806D1FFE70798012180F83F100291B0
:104D000012E00698082806D1FFE70798012180F8ED
:104D10004010019105E00798012180F841100191B0
:104D2000FFE701980290FFE702980090FFE700205C
:104D300008B080BD82B001460190009102B070477A
:104D400082B001460190009102B0704784B00A46DB
:104D500003460390ADF80A100192009304B0704727
:104D600082B001460190009102B0704780B584B0D6
:104D7000014603900091FFE7FFE70398006850E8C1
:104D8000030F20F0C0000290FFE702980399096822
:104D900041E80302002AF0D1FFE7FFE7039800682B
:104DA000406910F0800F38D0FFE7FFE7FFE7039876
:104DB000006850E8050F20F080000190FFE701989F
:104DC0000399096841E80502002AF0D1FFE7FFE7EF
:104DD0000398806B002814D0FFE70398806B47F698
:104DE000ED61C0F6000101650398806BFDF7EEF9F7
:104DF000002805D0FFE70398806B016D8847FFE727
:104E00000AE003980021C1840398202180F8411012
:104E10000398FFF7A5FFFFE70AE003980021C1848C
:104E20000398202180F841100398FFF799FFFFE7CE
:104E3000002004B080BD000082B0014601900091C6
:104E400002B0704780B598B0014617901798006877
:104E50000068169017980068C06815901798006849
:104E600040691490002013901290169800F00F00E3
:104E7000139013980028069112D1FFE79DF858006F
:104E8000800600280BD5FFE79DF854008006002817
:104E900005D5FFE7179803F0BDF8059011E2FFE78D
:104EA0001398002800F0CD80FFE79DF85000C00760
:104EB000002807D1FFE7BDF8540010F4907F00F000
:104EC000C080FFE79DF85800C00700280CD0FFE71E
:104ED0009DF85500C007002806D0FFE71798416CE1
:104EE00041F001014164FFE79DF8580040070028A8
:104EF0000CD5FFE79DF85000C007002806D0FFE75B
:104F00001798416C41F002014164FFE79DF8580099
:104F1000800700280CD5FFE79DF85000C007002847
:104F200006D0FFE71798416C41F004014164FFE7A8
:104F30009DF858000007002812D5FFE79DF854009F
:104F40008006002806D4FFE79DF85000C00700281F
:104F500006D0FFE71798416C41F008014164FFE774
:104F60001798406C00286BD0FFE79DF8580080062A
:104F700000280BD5FFE79DF854008006002805D5D2
:104F8000FFE7179803F046F80490FFE717980068CA
:104F90004069C0F3801012901798406C10F0080F11
:104FA00004D1FFE71298002840D0FFE7179802F0DD
:104FB000B1FF17980068406910F0400F31D0FFE74B
:104FC000FFE7FFE71798006850E8050F20F0400062
:104FD0001190FFE711981799096841E80502002A26
:104FE000F0D1FFE7FFE71798C06B002814D0FFE768
:104FF0001798C06B47F6AD51C0F6000101651798D0
:10500000C06BFDF7E3F8002805D0FFE71798C06BE9
:10501000016D8847FFE703E01798FFF70DFFFFE7F3
:1050200003E01798FFF708FFFFE708E01798FFF77E
:1050300003FF17984FF0000EC0F844E0FFE7FFE7CA
:105040003FE11798006B012840F01981FFE79DF8B8
:105050005800C006002840F11281FFE79DF8540077
:10506000C006002840F10B81FFE7FFE70020109009
:1050700017980068006810901798006840681090B2
:1050800010980390FFE717980068406910F0400FF0
:1050900000F09B80FFE71798C06B00684068ADF890
:1050A0003E00BDF83E00002876D0FFE7BDF83E0088
:1050B0001799898D88426FDAFFE7BDF83E0017998E
:1050C000C8851798C06BC069B0F5807F59D0FFE7DD
:1050D000FFE7FFE71798006850E8030F20F480709F
:1050E0000E90FFE70E981799096841E80302002A1D
:1050F000F0D1FFE7FFE7FFE7FFE71798006850E808
:10510000050F20F001000D90FFE70D981799096831
:1051100041E80502002AF0D1FFE7FFE7FFE7FFE7DC
:105120001798006850E8050F20F040000C90FFE74A
:105130000C981799096841E80502002AF0D1FFE7A9
:10514000FFE71798202180F842101798002101638B
:10515000FFE7FFE71798006850E8030F20F0100002
:105160000B90FFE70B981799096841E80302002AA2
:10517000F0D1FFE7FFE71798C06BFCF7A9FF02909B
:10518000FFE71798022141631798818DC28D891A14
:1051900089B2FFF7DBFD17E0BDF83E001799898D56
:1051A000884210D1FFE71798C06BC069B0F5807FC7
:1051B00008D1FFE71798022141631798818DFFF707
:1051C000C5FDFFE7FFE7FFE77BE01798818DC08D06
:1051D000081AADF82A001798C08D00284ED0FFE7B6
:1051E000BDF82A00002849D0FFE7FFE7FFE717983E
:1051F000006850E8030F20F490700990FFE70998C9
:105200001799096841E80302002AF0D1FFE7FFE798
:10521000FFE7FFE71798006850E8050F20F001004E
:105220000890FFE708981799096841E80502002AE5
:10523000F0D1FFE7FFE71798202180F84210179878
:1052400000210163FFE7FFE71798006850E8030FAC
:1052500020F010000790FFE707981799096841E8C8
:105260000302002AF0D1FFE7FFE71798022141630C
:105270001798BDF82A10FFF769FDFFE721E09DF8B8
:105280005800000600280BD5FFE79DF854000006E3
:10529000002805D5FFE7179803F068F8019010E0A3
:1052A0009DF85800400600280BD5FFE79DF85400F4
:1052B0004006002805D5FFE7179802F077FE00901A
:1052C000FFE718B080BD000080B584B001460290B1
:1052D00002980028019104D1FFE701208DF80F000A
:1052E00043E002988069002801D0FFE700E0FFE773
:1052F000029890F84100002808D1FFE702980021A9
:1053000080F84010029800F035F8FFE70298242159
:1053100080F8411002980068C16821F40051C16012
:10532000029802F033FF02980068016921F490416D
:10533000016102980068416921F02A0141610298E7
:105340000068C16841F40051C160029800214164C5
:1053500002984FF0200E80F841E0029880F842E079
:10536000029841638DF80F10FFE79DF80F0004B01D
:1053700080BD000080B5B6B0014635900020349065
:1053800033903290319030903598006844F6004266
:10539000C4F200029042229140F09A80FFE7FFE7BA
:1053A00000202F9043F64000C4F20200016841F44F
:1053B00000210160006800F400202F902F982190B8
:1053C000FFE7FFE700202E9043F63000C4F2020012
:1053D000016841F004010160006800F004002E90B3
:1053E0002E982090FFE74FF44060309002203190DB
:1053F00000203290032133910821349140F60001BE
:10540000C4F2020130AA1F9008461146FDF706FAC1
:1054100040F24410C2F2000046F24001C4F2020120
:1054200001604FF0006141601F998160C1604FF4DD
:1054300080620261416181614FF48072C2610162E8
:105440004162FDF793F8002803D0FFE7FCF73CFE2C
:10545000FFE7FFE7359840F24411C2F20001C16353
:1054600035988863FFE740F2A410C2F2000046F2CC
:105470007001C4F2020101604FF0006141604021FF
:1054800081600021C1604FF48062026141618161ED
:10549000C16101624162FDF769F8002803D0FFE7AE
:1054A000FCF712FEFFE7FFE7359840F2A411C2F2C5
:1054B0000001816335988863FFE7342000211E9046
:1054C0001D911D9AFDF71EFE1E98FDF70FFE03E3CA
:1054D0003598006845F20001C4F20001884240F0AE
:1054E000C380FFE7FFE700202D9043F64000C4F2A1
:1054F0000200016841F480110160006800F480102E
:105500002D902D981C90FFE7FFE700202C9043F68C
:105510003000C4F20200016841F00401016000683B
:1055200000F004002C902C981B90FFE7FFE7002070
:105530002B9043F63000C4F20200016841F00801EC
:105540000160006800F008002B902B981A90FFE78C
:105550004FF480503090022031900021329103228C
:1055600033920823349340F6000CC4F2020C0DF180
:10557000C00E1990604618917146CDF85CE0169304
:105580001592FDF74BF90420309019983190189935
:105590003291159A3392169B349340F60040C4F230
:1055A00002001799FDF73AF940F20420C2F2000018
:1055B00046F21001C4F2020101604FF00061416047
:1055C00018998160C1604FF480620261416181611C
:1055D0004FF48072C26101624162FCF7C7FF00288C
:1055E00003D0FFE7FCF770FDFFE7FFE7359840F2D7
:1055F0000421C2F20001C16335988863FFE740F2DD
:105600006420C2F2000046F2B801C4F20201016057
:105610004FF000614160402181600021C1604FF482
:105620008062026141618161C16101624162FCF796
:105630009DFF002803D0FFE7FCF746FDFFE7FFE7EB
:10564000359840F26421C2F2000181633598886385
:10565000FFE73520002114901391139AFDF752FDB6
:105660001498FDF743FD36E23598006841F20001D9
:10567000C4F20101884240F09980FFE7FFE7002073
:105680002A9043F64400C4F20200016841F0100180
:105690000160006800F010002A902A981290FFE73D
:1056A000FFE70020299043F63000C4F202000168B1
:1056B00041F001010160006800F001002990299883
:1056C0001190FFE74FF4C06030900220319000202D
:1056D000329003213391072134910021C4F2020159
:1056E00030AA109008461146FDF798F840F2C42001
:1056F000C2F2000046F24041C4F2020101604FF0E4
:105700000061416010998160C1604FF48062026164
:10571000416181614FF48072C26101624162FCF7B4
:1057200025FF002803D0FFE7FCF7CEFCFFE7FFE7EB
:10573000359840F2C421C2F20001C16335988863F4
:10574000FFE740F22430C2F2000046F2B841C4F252
:10575000020101604FF00061416040218160002141
:10576000C1604FF48062026141618161C161016287
:105770004162FCF7FBFE002803D0FFE7FCF7A4FC26
:10578000FFE7FFE7359840F22431C2F20001816360
:1057900035988863FFE7252000210F900E910E9A1F
:1057A000FDF7B0FC0F98FDF7A1FC93E13598006878
:1057B00044F20041C4F20001884240F09980FFE7C2
:1057C000FFE70020289043F64000C4F20200016881
:1057D00041F400310160006800F4003028902898FE
:1057E0000D90FFE7FFE70020279043F63000C4F25A
:1057F0000200016841F008010160006800F0080043
:10580000279027980C90FFE760203090022031907D
:1058100000203290032133910721349140F600415A
:10582000C4F2020130AA0B9008461146FCF7F6FFBD
:1058300040F28430C2F2000046F28801C4F2020154
:1058400001604FF0006141600B998160C1604FF4CD
:1058500080620261416181614FF48072C2610162C4
:105860004162FCF783FE002803D0FFE7FCF72CFC25
:10587000FFE7FFE7359840F28431C2F20001C163CF
:1058800035988863FFE740F2E430C2F2000046F248
:10589000A001C4F2020101604FF0006141604021AB
:1058A00081600021C1604FF48062026141618161C9
:1058B000C16101624162FCF759FE002803D0FFE795
:1058C000FCF702FCFFE7FFE7359840F2E431C2F253
:1058D0000001816335988863FFE7262000210A9044
:1058E0000991099AFDF70EFC0A98FDF7FFFBF0E01D
:1058F0003598006844F60001C4F20001884243D1A3
:10590000FFE7FFE70020269043F64000C4F20200C4
:10591000016841F480210160006800F48020269035
:1059200026980890FFE7FFE70020259043F6300017
:10593000C4F20200016841F002010160006800F059
:105940000200259025980790FFE74FF440603090C3
:1059500002203190002032900321339107213491AD
:1059600040F20041C4F2020130AA069008461146F6
:10597000FCF754FF272005900699069AFDF7C2FB15
:105980000598FDF7B3FBA3E03598006841F20041AC
:10599000C4F20101884240F09A80FFE7FFE700204F
:1059A000249043F64400C4F20200016841F0200153
:1059B0000160006800F02000249024980490FFE724
:1059C000FFE70020239043F63000C4F20200016894
:1059D00041F040010160006800F0400023902398EE
:1059E0000390FFE74FF48440309002203190002074
:1059F0003290032133910821349141F60001C4F221
:105A0000020130AA029008461146FCF707FF40F257
:105A10004440C2F2000046F22841C4F20201016093
:105A20004FF02061416002998160C1604FF4806253
:105A30000261416181614FF48072C2610162416221
:105A4000FCF794FD002803D0FFE7FCF73DFBFFE7E0
:105A5000FFE7359840F24441C2F20001C163359836
:105A60008863FFE740F2A440C2F2000046F2A04182
:105A7000C4F2020101604FF0206141604021816069
:105A80000021C1604FF48062026141618161C161A6
:105A900001624162FCF76AFD002803D0FFE7FCF7D2
:105AA00013FBFFE7FFE7359840F2A441C2F2000183
:105AB000816335988863FFE74720002101900091BA
:105AC000009AFDF71FFB0198FDF710FBFFE7FFE7CA
:105AD000FFE7FFE7FFE7FFE736B080BD80B588B09E
