:020000040800F2
:10000000780D002029020008DF29000839220008A5
:10001000DD29000863040008F92F00080000000033
:10002000000000000000000000000000E3290008BC
:100030004105000800000000E1290008E52900084A
:10004000430200084302000843020008430200087C
:10005000430200084302000843020008430200086C
:100060004302000843020008430200086504000838
:100070004302000871040008430200087D040008E0
:1000800089040008950400084302000843020008A0
:10009000430200084302000843020008430200082C
:1000A000430200084302000843020008430200081C
:1000B000430200084302000843020008430200080C
:1000C00043020008430200084302000843020008FC
:1000D00043020008D52F0008E12F0008ED2F00088B
:1000E00043020008430200084302000843020008DC
:1000F000430200084302000843020008A10400086C
:1001000043020008430200084302000843020008BB
:10011000592D0008652D00088D2A000843020008AB
:100120004302000843020008AD040008430200082F
:10013000430200084302000843020008430200088B
:10014000430200084302000843020008430200087B
:100150004302000843020008B904000843020008F3
:10016000430200084302000843020008430200085B
:100170004302000843020008430200080000000098
:10018000430200084302000800F002F800F03CF8C7
:100190000AA090E8000C82448344AAF10107DA45E2
:1001A00001D100F031F8AFF2090EBAE80F0013F0F8
:1001B000010F18BFFB1A43F001031847D02E0000AF
:1001C000F02E0000103A24BF78C878C1FAD8520740
:1001D00024BF30C830C144BF04680C6070470000C1
:1001E0000023002400250026103A28BF78C1FBD840
:1001F000520728BF30C148BF0B6070471FB502F0DF
:100200002FFF1FBD10B510BD00F0F1F81146FFF72C
:10021000F5FF02F002FF00F00FF903B4FFF7F2FF61
:1002200003BC00F017F9000009488047094800475F
:10023000FEE7FEE7FEE7FEE7FEE7FEE7FEE7FEE796
:10024000FEE7FEE704480549054A064B70470000F3
:100250007D2A00088901000878070020780D002019
:10026000780900207809002053EA020C00F0698028
:100270002DE9F04B4FF00006002B1FBFB3FA83F5BA
:1002800003FA05F424FA05F65E4012BF1643B2FAEB
:1002900082F502FA05F4C5F120051EBF22FA05FC1D
:1002A00044EA0C04203556EA044C4FEA144418BFC3
:1002B000641C4FF000084FF00009904271EB030CF2
:1002C00039D3002919BFB1FA81F701FA07F6B0FA5C
:1002D00080F700FA07F6C7F120071EBF20FA07FCD7
:1002E00046EA0C062037B6FBF4FCA7EB0507103FE7
:1002F00007F01F0BCBF120060CFA0BFB2CFA06F6CD
:1003000044BFB3460026202FA4BF5E464FF0000B2B
:100310005BEA060C08BF4FF0010B19EB0B09ABFBB6
:10032000027C48EB0608C01B06FB02CC0BFB03CC8F
:1003300071EB0C01C1E70B46024641464846BDE859
:10034000F08B13B54FF000004FF00001AFF30080C9
:10035000BDE81C4070474FF000020429C0F0128035
:1003600010F0030C00F01B80CCF1040CBCF1020F68
:1003700018BF00F8012BA8BF20F8022BA1EB0C013D
:1003800000F00DB85FEAC17C24BF00F8012B00F833
:10039000012B48BF00F8012B70474FF0000200B559
:1003A000134694469646203922BFA0E80C50A0E898
:1003B0000C50B1F12001BFF4F7AF090728BFA0E846
:1003C0000C5048BF0CC05DF804EB890028BF40F812
:1003D000042B08BF704748BF20F8022B11F0804F54
:1003E00018BF00F8012B704770477047704775467B
:1003F00000F02CF8AE4605006946534620F0070091
:10040000854618B020B5FFF71DFFBDE820404FF02E
:1004100000064FF000074FF000084FF0000B21F0EE
:100420000701AC46ACE8C009ACE8C009ACE8C009BB
:10043000ACE8C0098D46704710B50446AFF30080A4
:100440002046BDE81040FFF7E8BE000000487047B6
:100450001807002001491820ABBEFEE72600020065
:100460007047FEE7014800F0D1B80000D804002032
:10047000014800F0CBB8000018040020014800F04B
:10048000C5B8000078040020014800F0BFB80000A3
:1004900058060020014800F0B9B80000B806002056
:1004A000014800F0B3B8000038050020014800F012
:1004B000ADB8000098050020014800F0A7B8000082
:1004C000F805002001681823CAB2103AB2FBF3F213
:1004D000054B6FF30901032A9B5CC36500D9091D15
:1004E00081650846704700006A30000810B5014673
:1004F00000208B698A6A4FF0C07453B1B3F5005F76
:1005000015D072B1012A0CD0022A0AD0032A09D1CF
:1005100004E01AB1012A06D0022A03D1C96AC9012E
:1005200000D5012010BDC96AA142FAD010BD002A31
:10053000F7D0012AF2D0022AF3D0032AF3D010BD5B
:100540007047002804D002688A4201D100218175D9
:10055000704772B6FEE72DE9F0410446876D00F062
:100560008DFA064694F835000025022806D0802032
:10057000606584F834500120BDE8F081206801688E
:1005800021F0160101602068416921F0800141617C
:10059000206C08B9A06C20B12068016821F0080126
:1005A00001602068016821F0010101600CE000F0A9
:1005B00065FA801B052807D920206065032084F890
:1005C000350084F83450D7E720680068C007EED1C2
:1005D00094F85C103F208840B860012084F8350012
:1005E00084F834500020C7E790F83510022903D072
:1005F0008021416501207047052180F83510006891
:10060000016821F001010160002070472DE9F843E5
:1006100004464FF00009CDF8009063484FF416519E
:10062000A56D0068B0FBF1F72E6894F85C10082007
:1006300000FA01F131420FD021680A6852070BD548
:100640000A6822F004020A6094F85C108840A860EE
:10065000606D40F00100606594F85C104FF0010897
:1006600008FA01F0304208D021684969090604D52A
:10067000A860606D40F00200606594F85C10042092
:100680008840304208D021680968890704D5A860ED
:10069000606D40F00400606594F85C1010208840A4
:1006A000304218D021680968090714D5A86020686D
:1006B0000168490304D50068000308D5A16C07E070
:1006C0000168C90503D4016821F008010160216CAB
:1006D00009B12046884794F85C10202088403042B9
:1006E00031D021680968C9062DD5A86094F8350075
:1006F00005282068016806D0490347D50068000333
:100700001DD4616C1CE021F0160101602068416974
:1007100021F080014161206C08B9A06C20B12068F3
:10072000016821F00801016094F85C103F208840C6
:10073000A86084F8358084F83490216D1FE0E16B67
:1007400009B120468847606D00282BD0606DC00736
:1007500014D0052084F835002068016821F00101DB
:1007600001600098401C0090B84203D820680068DF
:10077000C007F6D184F8358084F83490E16C002904
:1007800010D001B02046BDE8F04308470168C90514
:10079000D5D4016821F01001016084F8358084F817
:1007A0003490CCE7BDE8F883100000202DE9F0413B
:1007B000044600F063F906465CB1022084F8350077
:1007C000002584F834502068016821F0010101609F
:1007D0000DE00120BDE8F08100F050F9801B0528F4
:1007E00005D920206065032084F83500F2E72068F1
:1007F0000068C007F0D12268116820480140D4E9A0
:1008000001031843D4E9033633431843636918439B
:10081000A3691843E3691843236A18430843616ACC
:10082000042903D1D4E90B1319430843106020684D
:100830004069666A20F0070130460E43012704280C
:100840000CD1A06A0643E06A40B12046FFF74EFE95
:1008500020B14020606584F83570BAE720684661B1
:100860002046FFF72FFE94F85C203F2191408160E5
:10087000656584F835700020ACE700003F8010F01B
:100880002DE9F84FDFF8BCA10022012503264FF027
:100890000F090AF1040BAAF1040E00BF0B6805FA58
:1008A00002F42340A34270D10F7907F00307012F10
:1008B00001D0022F16D187684FEA420806FA08FCD9
:1008C00027EA0C07D1F80CC00CFA08FC4CEA070C1C
:1008D000C0F808C04768A7430C79C4F300149440DB
:1008E0003C4344600C79E443A4070AD0C4684FEA4F
:1008F000420C06FA0CF7BC438F6807FA0CF7274343
:10090000C7600C7904F00304022C12D1D40800EB68
:10091000840CDCF820405707FF0E09FA07F824EA98
:100920000804D1F8108008FA07F848EA0408CCF85F
:10093000208004684FEA420C06FA0CF7BC430F799A
:1009400007F0030707FA0CF7274307604C6814F415
:10095000403F70D03C4C276847F4804727602468AC
:1009600022F0030704F480440094384C07EB040C95
:10097000DCF8084897074FEA177809FA08F7BC43EC
:10098000334FB84202D1002724E054E0314FB8423F
:1009900001D101271EE0304FB84201D1022719E0F2
:1009A0002E4FB84201D1032714E02D4FB84201D198
:1009B00004270FE02B4FB84201D105270AE02A4F48
:1009C000B84201D1062705E0284FB84201D10727D8
:1009D00000E0082707FA08F72743CCF80878DAF888
:1009E00000405746D1F804C09C435FEACC2C00D5A8
:1009F0001C433C60DBF800405F46D1F804C09C43D8
:100A00005FEA8C2C00D51C433C60DEF80040774642
:100A1000D1F804C09C435FEA8C3C00D51C433C6089
:100A2000084F083F3C68D1F804C09C435FEACC3CC7
:100A300000D51C433C60521C102AFFF42FAFBDE8C8
:100A4000F88F0000083C014044380240003001406B
:100A5000000002400004024000080240000C024076
:100A6000001002400014024000180240001C024026
:100A70000AB1816170470904FBE700000148806802
:100A8000704700000400002070B5040025D094F8E1
:100A90003D00002520B984F83C50204600F0B8F80D
:100AA000242084F83D002068016821F001010160E4
:100AB0002068016841F4004101602068016821F468
:100AC0000041016000F00EFA4D4A6168914201D880
:100AD0004C4900E04C49884201D2012070BD4B498D
:100AE0002368B0FBF1F15E6826F03F060E435E60BE
:100AF0006368934206D94FF4967359434FF47A735F
:100B0000B1FBF3F12368491C1E6A26F03F0631430E
:100B100019626168914210D84900401EB0FBF1F2A1
:100B2000521CC2F30B02042A01D2042022E0B0FBC3
:100B3000F1F0401CC0F30B001CE0A268F2B301EB23
:100B4000C10303EB0116431EB3FBF6F35B1C43F436
:100B500080431B0549D092B301EBC10202EB0111A6
:100B6000401EB0FBF1F0401CC0F30B0040F480408D
:100B700040F400402168CA694CF6FF739A43104361
:100B8000C861D4E9071001432068026822F0C0025E
:100B900011430160D4E9030101432068826848F2EF
:100BA000FF339A4311438160D4E90501084321686A
:100BB000CA6822F0FF021043C86001E00EE016E0B0
:100BC0002068016841F0010101602564202084F85B
:100BD0003D00256384F83E50002070BD01EB4106C6
:100BE000431EB3FBF6F35B1CB3E70120C2E701EB46
:100BF0004101401EB0FBF1F0401CC0F30B00B7E711
:100C0000A086010080841E0000093D0040420F00C4
:100C100010B586B0044614216846FFF7BEFB1449A0
:100C20002068884221D113480021026842F0020264
:100C30000260006800F0020005904FF440700090E0
:100C40001220CDE90101032003900420049069469D
:100C50000948FFF715FE07481030016841F40011FC
:100C60000160006800F40010059006B010BD00009F
:100C700000540040303802400004024002488168BD
:100C80000278114481607047040000200B4810B5C1
:100C9000016841F400710160016841F48061016004
:100CA000016841F480710160032000F06FF80F20AB
:100CB00000F006F800F024F8002010BD003C0240CF
:100CC00070B50D4D04464FF47A712878B1FBF0F001
:100CD0000A490968B1FBF0F000F00AFB48B9102C92
:100CE00007D200222146501E00F030F800206C6030
:100CF00070BD012070BD0000040000201000002025
:100D00000A4808B5016841F480410160006800F4B8
:100D1000804000900548001F016841F0805101604B
:100D2000006800F08050009008BD00004438024088
:100D3000002809DB00F01F020121914040098000DA
:100D400000F1E020C0F8001170470000F0B40E4B35
:100D50001B680C46C3F30223C3F10705042D00D919
:100D60000425191D072901D2002300E0DB1E0126FE
:100D700006FA05F1491E214099409E40761E164014
:100D80003143F0BC02F039B90CED00E0064900F047
:100D9000070208684FF6FF03184040EA0220034AA2
:100DA00010430860704700000CED00E00000FA05F9
:100DB0002DE9F0470E46050065D0DFF81481D8F81C
:100DC0000000F7B200F00700B04207D288F80070C8
:100DD000D8F8000000F00700B04254D128683D4C1C
:100DE000810712D5400703D5206840F4E050206009
:100DF0002878000703D5206840F460402060206810
:100E0000A96820F0F000084320602878C0072DD0A2
:100E1000304968680839012812D0022813D0032805
:100E200011D00968890700292DDA216821F0030112
:100E300001432160FFF722FE814641F2883A0EE02D
:100E400009688903EFE709688901ECE7FFF716FEF7
:100E5000A0EB0901514502D90320BDE8F0872068C5
:100E6000696800F00C00B0EB810FEFD1D8F80010EA
:100E7000404601F00701B14207D90770006800F051
:100E80000700B04201D00120E7E72878400705D5E8
:100E90002068E96820F4E0500843206028780007C3
:100EA00006D52068296920F4604040EAC10020602E
:100EB00000F038F82168084AC1F30311515CC840BA
:100EC0000649086006480068FFF7FAFE0020C4E7FC
:100ED000003C024008380240723000081000002038
:100EE000080000200448054900680968044AC1F365
:100EF0008221515CC8407047100000200838024031
:100F0000823000080448054900680968044AC1F3B2
:100F10004231515CC8407047100000200838024040
:100F200082300008154810B5006810F00C02144813
:100F300013D04110042A0FD0082A0ED10F4C241FC1
:100F40002268236802F03F025B0207D52068C0F3E5
:100F50008810A0FB010106E0084610BD2168C1F31E
:100F60008811A1FB00010023FFF77EF92168C1F37E
:100F70000141491C4900B0FBF1F010BD08380240A6
:100F80000024F4002DE9F84F04006ED02078DFF83B
:100F90004C93C007A9F104054AD009F10400016887
:100FA000C1F38101012908D00068C0F38100022843
:100FB0000AD1D9F80000400206D52868800337D549
:100FC00060680028E1D033E06068B0F5803F10D061
:100FD000B0F5A02F286810D020F480302860286851
:100FE00020F4802028606068A8B1FFF747FD06461E
:100FF0000DE0286840F48030F4E740F48020286059
:10100000F7E700BFFFF73AFD801B642873D8286814
:101010008003F7D50CE0FFF731FD064605E000BF81
:10102000FFF72CFD801B6428F0D828688003F7D4D4
:101030002078DFF8AC8280074FF0000A3ED5A74841
:10104000001D016811F00C0F08D00068C0F381008A
:1010500002280BD1D9F80000400207D42868800785
:1010600016D5E068012800D112E033E1E068B8B19C
:101070000120C8F80000FFF701FD064605E000BFAB
:10108000FFF7FCFC801B0228C0D828688007F7D532
:101090002868216920F0F80040EAC10028600DE0CE
:1010A000C8F800A0FFF7EAFC064604E0FFF7E6FCFC
:1010B000801B02281FD828688007F7D420780007F3
:1010C00022D5864F87486169703771B1012101606F
:1010D000FFF7D4FC064604E0FFF7D0FC801B022893
:1010E00009D838688007F7D50EE0C0F800A0FFF7F0
:1010F000C5FC064605E082E0FFF7C0FC801B022825
:101100007DD838688007F7D42078400768D5DFF8A5
:10111000CCB100270BF13C0BDBF80000C0000BD476
:10112000DBF8001041F08051CBF80010DBF8000034
:10113000012700F0805000906B4E3068C00510D43D
:10114000306840F480703060FFF798FC009005E054
:10115000FFF794FC0099401A022850D83068C00567
:10116000F6D55E4EA0686C3601280FD00528306891
:1011700010D020F001003060306820F004003060B2
:10118000A068B8B1FFF77AFC00900FE0306840F03B
:101190000100F4E740F004003060F7E7FFF76EFC71
:1011A0000099411A41F28830814266D83068800740
:1011B000F4D50EE0FFF762FC009007E0FFF75EFC5D
:1011C0000099411A41F28830814256D83068800730
:1011D000F4D42FB1DBF8001021F08051CBF80010CF
:1011E000A069C8B33D49091D0968C1F381010229FD
:1011F0004AD00228504607D0C8F8600000E03CE022
:10120000FFF73CFC04463BE04746C8F86000FFF7A8
:1012100035FC064605E000BFFFF730FC801B0228C6
:101220002BD828688001F7D4D4E907010843A16AC4
:101230002E4A490802EB0141626A41EA82110843E1
:1012400094F82C1040EA0161C9F8001001203866BA
:10125000FFF714FC044606E03EE000BFFFF70EFC7B
:10126000001B022809D828688001F7D534E000BFA8
:10127000FFF704FC001B022802D90320BDE8F88F09
:1012800028688001F4D427E00128F7D0D9F80000BD
:10129000E26900F4800191421CD1226A00F03F0112
:1012A000914217D147F6C071626A0140B1EB821FCB
:1012B00010D1A26A4FF0FF3300F4403103EB520229
:1012C000B1EB024F06D194F82C1000F07060B0EB37
:1012D000016F01D00120D1E70020CFE704380240A0
:1012E00000004742800E4742007000400000FFFFB0
:1012F00010B5401EB0F1807F01D3012010BD4FF02A
:10130000E02460610F21601701F077FE0020A061EA
:1013100007202061002010BD7047704710B590F87D
:101320003C20012A22D0012280F83C20CA688C6827
:1013300022F4407222434C6822F4806222430C68FB
:1013400022F4006222430C6922F4805222434C6949
:1013500022F400522243C969002322F480420A4346
:1013600001684A6480F83C30002010BD022010BDA6
:1013700070B590F83C20012A32D0012480F83C401E
:10138000022280F83D2003685A689D6822F07006AA
:101390000A6832435A60134B02689A4214D0B2F181
:1013A000804F11D0104B9A420ED0104B9A420BD066
:1013B0000F4B9A4208D00F4B9A4205D00E4B9A42DF
:1013C00002D00E4B9A4204D1496825F0800319439C
:1013D000916080F83D40002180F83C10084670BDC7
:1013E000022070BD000001400004004000080040E1
:1013F000000C004000040140004001400018004083
:1014000010B5040003D094F83D0010B107E00120AE
:1014100010BD002084F83C00204600F01FF8022098
:1014200084F83D00211D206801F036FB012084F87E
:10143000460084F83E0084F83F0084F8400084F8B9
:10144000410084F8420084F8430084F8440084F8A2
:10145000450084F83D00002010BD000010B586B0A6
:10146000044614216846FEF798FF2E4821680023A1
:101470002D4A814207D1106840F0010010601068C9
:1014800000F0010041E02848284C001FA1421ED175
:10149000016841F008010160006800F00800059053
:1014A00021481438016841F0010101600068694673
:1014B00000F001000590082000900220CDE9010312
:1014C000CDE903301A48FFF7DBF906B010BD194B20
:1014D000994210D1016841F01001016000680022BA
:1014E00000F01000059011463620FFF72FFC362043
:1014F000FFF71EFCE9E7104B994208D1106840F055
:1015000002001060106800F002000590DDE70B4A51
:101510009142DAD1016841F080010160006800F079
:101520008000F2E70000014044380240000C004017
:10153000000002400010004000040140001C004078
:1015400070B5044690F83C000025012817D001260C
:1015500084F83C60022084F83D002068826822F014
:10156000770222F47F4282600868502838D00DDC70
:1015700020284FD005DC90B3102811D14AE002207A
:1015800070BD302846D040280AD13BE060282FD0DB
:1015900070280DD0B0F5805F03D0B0F5005F12D099
:1015A000012584F83D60002084F83C00284670BD89
:1015B000CB68D1E90121206801F0D6FA2068816862
:1015C00041F0770109E0CB68D1E90121206801F001
:1015D000CBFA2068816841F480418160E1E719E03D
:1015E000CA684968206801F093FB5021206806E032
:1015F000CA684968206801F09CFB6021206801F0FE
:10160000BDFACEE7CA684968206801F081FB402135
:101610002068F4E7226801461046F0E72DE9F04122
:101620000D46040003D094F83D0018B108E00120F5
:10163000BDE8F081002084F83C00204600F040F82E
:10164000022084F83D002068816844F2070291433B
:101650008160211D206801F01FFA2268906891695D
:10166000166A2B68AF69034340F20330814341EAB5
:101670000721A868EF6908434FF6FC418843E968F1
:1016800040EA0720014328692F6A000140EA073039
:10169000084369686D6926F0AA0646EA05152943DC
:1016A00093602268906154F8460B0162012004F8AF
:1016B0001F09E0752076E0762077A0750020B7E757
:1016C00030B587B0044614216846FEF766FE21480F
:1016D000246800221F4910380223B4F1804F1FD024
:1016E0001D4DAC421AD10C6844F002040C6009682C
:1016F00001F002010591016841F0020101600068FA
:10170000694600F00200059030200090CDE90132DA
:101710001248CDE9032300BFFFF7B2F807B030BD90
:101720000C6844F001040C60096801F001010591A6
:10173000016841F0010101600068694600F00100A4
:10174000059003200090CDE901320120CDE903206E
:101750000348E1E740380240000400400004024032
:101760000000024070472DE9F04104460068C66859
:1017700005694FF00007A90713D5B10711D5F91E68
:10178000016101202077206880698007204602D00F
:10179000FFF7E8FF04E000F0F1F8204600F083F9DD
:1017A0002777680716D5700714D521686FF00400F5
:1017B0000861022020772068806910F4407F20466D
:1017C00002D0FFF7CFFF04E000F0D8F8204600F089
:1017D0006AF92777280715D5300713D521686FF0E8
:1017E00008000861042020772068C069800720462F
:1017F00002D0FFF7B7FF04E000F0C0F8204600F089
:1018000052F92777E80616D5F00614D521686FF04F
:1018100010000861082020772068C06910F4407F1C
:10182000204602D0FFF79EFF04E000F0A7F8204614
:1018300000F039F92777E80708D0F00706D02168CB
:101840006FF001000861204600F02EF9280608D547
:10185000300606D521686FF0800008612046FFF74A
:101860005BFD680608D5700606D521686FF040005C
:101870000861204600F019F9A8060AD5B00608D577
:1018800021686FF0200008612046BDE8F041FFF7B5
:1018900044BDBDE8F081000030B587B00446142196
:1018A0006846FEF77AFD24682C4800222C49022362
:1018B000844212D1086840F0100008600868694648
:1018C00000F0100005904FF4D4400090CDE90132B3
:1018D0000120CDE90320234812E0234D2348AC42E8
:1018E00012D10C6844F001040C60096801F0010198
:1018F000059104210091CDE901326946CDE9032328
:10190000FEF7BEFF07B030BD194DAC4212D10868DA
:1019100040F0040008600868694600F00400059083
:101920004FF470700090CDE901320320CDE903201F
:101930001048E5E7104DAC42E4D10C6844F00104D6
:101940000C60096801F00101059140210091CDE989
:1019500001320921CDE903216946D1E700000140A8
:101960003038024000100240000C004000000240ED
:101970000004014000080240001C0040704770B5A0
:10198000044690F83C0000260D4601280FD00120A7
:1019900084F83C006AB1042A1DD0082A2FD00C2AF2
:1019A0003FD00126002084F83C00304670BD022064
:1019B00070BD206801F0EAF82068816941F00801F3
:1019C00081612068816921F0040181612068816959
:1019D0002A69114311E0206801F008F92068816943
:1019E00041F4006181612068816921F48061816135
:1019F000206881692A6941EA02218161D2E7206871
:101A000001F02AF92068C16941F00801C16120682C
:101A1000C16921F00401C1612068C1692A691143CB
:101A200011E0206801F04CF92068C16941F40061BF
:101A3000C1612068C16921F48061C1612068C16908
:101A40002A6941EA0221C161ACE710B5040003D064
:101A500094F83D0010B107E0012010BD002084F88B
:101A60003C00204600F01EF8022084F83D00211DB5
:101A7000206801F011F8012084F8460084F83E0047
:101A800084F83F0084F8400084F8410084F8420064
:101A900084F8430084F8440084F8450084F83D004D
:101AA000002010BD704770477047704770470000B6
:101AB00030B5064C05460023294654F82300FEF7AE
:101AC00040FD5B1CDBB2042BF6D330BD14000020BC
:101AD000F8B5016804460868CA684B6910F00F0F32
:101AE0004FF0000559D003F0010602F49077374318
:101AF00065D0C10705D0D10503D5616C41F0010166
:101B00006164410705D5D90703D0616C41F002013A
:101B10006164810705D5D90703D0616C41F00401E8
:101B20006164010707D502F02001314303D0616CE5
:101B300041F008016164616C00293AD0800604D547
:101B4000900602D5204601F041F920684069616C99
:101B5000C0F38010090700D460B3204601F00FF9EC
:101B600020684069400621D52068143050E8001FE5
:101B700021F0400140E80012002AF5D1E06BA8B145
:101B800072490165E06BFEF72FFD002811D0E06B74
:101B9000016D01B0BDE8F040084783060FD59306FC
:101BA0000DD52046BDE8F84001F010B92046FFF7FA
:101BB0007FFFF8BD2046FFF77BFF6564F8BD266B0D
:101BC0002023012E7ED1C6067CD5D6067AD508689C
:101BD0004868009048694FF0020640064DD5E26B18
:101BE000106840684FF480770004000C3AD0A18D53
:101BF000814237D9E085D069B8422DD020680C30B9
:101C000050E8001F21F4807140E80012002AF5D14D
:101C10002068143050E8001F21F0010140E8001254
:101C2000002AF5D12068143050E8001F21F040014F
:101C300040E80012002AF5D184F84230256320687C
:101C40000C3050E8001F21F0100140E80012002A7B
:101C5000F5D1E06BFEF77FFC6663A08DE18D401A45
:101C600081B206E0A18D8142A8D1D069B842A5D148
:101C700066632046FFF71AFFF8BDA08DE18D401A7C
:101C800081B2E08D0028F7D00029F5D020680C3013
:101C900050E8002F22F4907240E80027002FF5D181
:101CA0002068143050E8002F22F0010240E800279D
:101CB000002FF5D184F84230256320680C3050E8BD
:101CC000002F00E006E022F0100240E80023002B85
:101CD000F3D1CDE705062BD5150629D594F841009B
:101CE0002128C9D1A068B0F5805F01D12069B0B1C9
:101CF000206A411C2162216800784860E08C401E07
:101D00000004000CE084B7D12068C16821F0800194
:101D1000C1602068C16841F04001C160F8BD206A1F
:101D20000088C0F308004860206A801C2062E5E754
:101D30004006F3D55006F1D5CA68204622F040028D
:101D4000CA6084F8413000F067FAF8BD712D0008D0
:101D500070B5040004D094F84100002510B106E0ED
:101D6000012070BD84F84050204600F023F8242064
:101D700084F841002068C16821F40051C160204608
:101D800001F086F82068016921F490410161206822
:101D9000416921F02A0141612068C16841F4005184
:101DA000C1606564202084F8410084F842006563C6
:101DB000002070BD2DE9F04F87B00546142168461C
:101DC000FEF7EBFAE148DFF8808310380221D5F8FE
:101DD00000C0DE4B032200248F0606154FF4406E30
:101DE0004FF0080B4FF480794FF0400AC44553D1AF
:101DF000D3F800C04CF4002CC3F800C01B6803F4F7
:101E000000230593036843F0040303600068CDF8E2
:101E100000E00392CDE9011400F00400CDE904B024
:101E20006946CB48FEF72CFDDFF82CB3C94958466C
:101E3000CBF80010C0E90174C0E90346CBF81440A8
:101E4000C0E90649CBF82040B846CBF82440FEF75D
:101E5000ADFC08B1FEF77DFBBF4FC5F83CB0603765
:101E6000CBF83850C7E903467C61BC61B948FC61D6
:101E70003C6230307C6287E801053846FEF796FC0C
:101E800008B1FEF766FBAF63002211463420BD6344
:101E9000FEF75CFF342070E0DFF8C082C44572D1E9
:101EA000D3F800C04CF4801CC3F800C01B6803F4D6
:101EB00080130593036843F004030360036803F091
:101EC00004030593036843F0080303600068884631
:101ED00000F0080005904FF48050CDE90001032088
:101EE000CDE902406946CDF810B09948FEF7C8FC2C
:101EF0000420CDE900080320CDE902406946CDF871
:101F000010B09748FEF7BCFCDFF84CB291490BF1DA
:101F1000C00B30395846CBF80010C0E90174C0E955
:101F20000346CBF81440C0E90649CBF82040B84638
:101F3000CBF82440FEF73AFC08B1FEF70AFB894FC4
:101F4000C5F83CB0CBF83850C7E903467C61BC61AA
:101F50008048FC613C6278307C6287E80105384645
:101F6000FEF724FC08B1FEF7F4FAAF630022114635
:101F70003520BD63FEF7EAFE3520FEF7D9FE07B037
:101F8000BDE8F08FFFE7DFF8E0814FF0070BC445B5
:101F90005CD16E4BA0461B1DD3F800C04CF0100C5A
:101FA000C3F800C01B6803F010030593036843F0F7
:101FB00001030360006800F0010005904FF4C06069
:101FC0008DE81300CDE9032B69466848FEF758FCFD
:101FD000DFF890B166490BF1600B5846CBF8001062
:101FE000C0E90174C0E90346CBF81440C0E90649D2
:101FF000CBF82040CBF82440FEF7D8FB08B1FEF721
:10200000A8FA584C5A48C5F83CB0C0347830CBF8E0
:10201000385084E88104C4E90386C4F81480C4F805
:102020001880C4F81C80C4F820802046C4F824809E
:10203000FEF7BCFB08B1FEF78CFAAC630022114638
:102040002520A563FEF782FE252096E7DFF8248190
:10205000C44554D1D3F800C000244CF4003CC3F86C
:1020600000C01B6803F400330593036843F00803C2
:102070000360006800F00800059060208DE8130000
:10208000CDE9032B69463648FEF7FAFB3149DFF804
:10209000E88048314046C8F80010C0E90174C0E942
:1020A0000346C8F81440C0E90649C8F82040C8F8FB
:1020B0002440FEF77BFB08B1FEF74BFA2E4C254877
:1020C000C5F83C8060346030C8F8385084E881043A
:1020D0000020C4E903066061A061E06120626062E3
:1020E0002046FEF763FB08B1FEF733FAAC6300222B
:1020F00011462620A563FEF729FE26203DE71F4D49
:10210000AC457FF43CAF1D6845F480251D601B681D
:1021100003F480230593036843F00203036000681F
:10212000CDF800E00392CDE9011400F00200CDE902
:1021300004B069461248FEF7A3FB0022114627208F
:10214000FEF704FE272018E7004C0040403802400C
:102150000008024040600240180400200050004087
:10216000000C024038050020001001400000024031
:1021700040640240004400405806002000480040EF
:102180000004024090F84230202B01D0022070471A
:1021900021B11AB10023036300F000BF0120704792
:1021A00070B50068184988422CD1184800230246AF
:1021B00081785278012411B1012906D01AE05B2AF6
:1021C00018D10178B1B984700FE01049104D5D2A23
:1021D000C97805D03F2907D26A54491CC17009E06B
:1021E00083706B54047005E08370C370402108480D
:1021F000FEF7B1F8BDE8704004490122491C0548CA
:10220000FFF7C0BF70BD0000004800400000002084
:1022100024000020D003002030B5064C05460023E2
:10222000294654F82300FEF78CF95B1CDBB2042B23
:10223000F6D330BD14000020FEE70000294808B5A1
:10224000016841F400110160016801F4001100917E
:10225000016841F4800101600068002200F4800000
:10226000009011460B20FEF771FD0B20FEF760FD7C
:10227000002211460D20FEF769FD0D20FEF758FDE6
:10228000002211460F20FEF761FD0F20FEF750FDE2
:10229000002211461020FEF759FD1020FEF748FDE0
:1022A000002211461120FEF751FD1120FEF740FDDE
:1022B000002211462F20FEF749FD2F20FEF738FDA2
:1022C000002211463A20FEF741FD3A20FEF730FD8C
:1022D000002211464620FEF739FDBDE808404620A1
:1022E000FEF726BD303802402DE9F04F87B01421AB
:1022F0006846FEF752F856480024016841F0100184
:102300000160016801F010010591016841F00401CC
:102310000160016801F004010591016841F080014C
:102320000160016801F080010591016841F001013F
:102330000160016801F001010591016841F00201AD
:102340000160016801F002010591016841F0080196
:102350000160016801F008010591016841F0400148
:1023600001600068DFF8ECB000F0400040F2064584
:102370000590002229465846FEF77AFB42F20306F2
:10238000002231463448FEF773FB4FF49877002261
:1023900039463248FEF76CFB4FF2030800224146F3
:1023A0002F48FEF765FB4CF28879002249462D48FC
:1023B000FEF75EFB4CF26C0A002251462A48FEF7FB
:1023C00057FB00950125CDE9015469465846039411
:1023D000FEF756FA0096CDE9015469461E4803946B
:1023E000FEF74EFA0097CDE9015469461B48039465
:1023F000FEF746FA3020CDE90004694616480294FB
:10240000FEF73EFACDF80080CDE901546946144844
:102410000394FEF735FACDF80090CDE901546946F2
:1024200010480394FEF72CFACDF800A0CDE9015432
:1024300069460D480394FEF723FAE8038DE831005E
:1024400069460648FEF71CFA07B0BDE8F08F0000A9
:1024500030380240001002400008024000000240F4
:1024600000040240000C0240001802400D4810B564
:102470000B4901600C49416000214FF480428160AA
:10248000C0E9031241618161C1610162FEF7FCFA9A
:10249000002803D0BDE81040FEF75BB810BD000077
:1024A0000054004064000020801A060010B588B077
:1024B0001C216846FDF771FF15481449002401608E
:1024C0005321C0E9011440F2E731C0E9031480212F
:1024D0008161FEF795FF08B1FEF73BF80C48FFF766
:1024E000B4FA08B1FEF735F86020CDE90004029493
:1024F0000022694606480494FFF741FA08B1FEF746
:1025000028F80348FFF7C8F908B010BD001C0040C8
:102510006802002010B596B000240F941094119416
:10252000129413941C2168461494FDF736FF202161
:1025300007A8FDF732FF3548334901600721C0E99C
:10254000011440F2E731C0E903148021C0E90541DC
:10255000FEF756FF08B1FDF7FCFF4FF480500F90D7
:102560000FA92A48FEF7ECFF08B1FDF7F2FF274854
:10257000FFF76BFA08B1FDF7ECFF139413A923489A
:102580001494FEF7F5FE08B1FDF7E3FF6020CDE9F6
:1025900000040294039404940594002269461B48A5
:1025A0000694FFF7ECF908B1FDF7D3FF0422694662
:1025B0001648FFF7E4F908B1FDF7CBFF082269469A
:1025C0001248FFF7DCF908B1FDF7C3FF0C2269469A
:1025D0000E48FFF7D4F908B1FDF7BBFF0794089444
:1025E00009944FF400500A94CDE90B4007A907481D
:1025F0000E94FEF793FE08B1FDF7ABFF0348FFF71B
:102600004BF916B010BD000000000140B8000020DA
:1026100010B58CB024216846FDF7BFFE0024154894
:1026200009944FF080410A94C0E90014611EC0E98A
:1026300002418021046181610320CDE90004012071
:10264000CDE902040494CDE90540079469460948A0
:102650000894FEF7E3FF08B1FDF77BFF099409A991
:1026600004480A94FEF784FE002801D0FDF771FFAC
:102670000CB010BD0001002010B58CB024216846BC
:10268000FDF78BFE00241548099413490A94C0E90C
:1026900000144FF6FF71C0E902410461846101201A
:1026A000CDE90004CDE902040494CDE90540079486
:1026B00069460A480894FEF7B1FF08B1FDF749FFE3
:1026C000099409A905480A94FEF752FE002801D092
:1026D000FDF73FFF0CB010BD000400404801002092
:1026E00010B58EB000240794089409940A940B94B2
:1026F0001C2168460C94FDF750FE20481E490160DD
:102700005321C0E9011440F2E731C0E903148021EC
:102710008161FEF775FE08B1FDF71BFF4FF4805095
:10272000079007A91548FEF70BFF08B1FDF711FF49
:102730001248FFF78AF908B1FDF70BFF0B940BA9BC
:102740000E480C94FEF714FE08B1FDF702FF60205E
:1027500000904FF4FA70CDE9010408226946074859
:102760000494FFF70CF908B1FDF7F3FE0348FFF7F7
:1027700093F80EB010BD0000000C00409001002046
:102780001CB500240F4800940D49019401605321A9
:10279000C0E9011440F2E731C16080218161FEF798
:1027A0002FFE08B1FDF7D5FE009469460548019457
:1027B000FEF7DEFD002801D0FDF7CBFE1CBD0000BA
:1027C00000100040D801002010B596B000240F94EE
:1027D00010941194129413941C2168461494FDF7DC
:1027E000DCFD202107A8FDF7D8FD354833490160FD
:1027F0000721C0E9011440F2E731C0E90314802148
:10280000C0E90541FEF7FCFD08B1FDF7A2FE4FF45B
:1028100080500F900FA92A48FEF792FE08B1FDF7ED
:1028200098FE2748FFF711F908B1FDF792FE1394BF
:1028300013A923481494FEF79BFD08B1FDF789FE08
:102840006020CDE9000402940394049405940022CE
:1028500069461B480694FFF792F808B1FDF779FE28
:10286000042269461648FFF78AF808B1FDF771FEA1
:10287000082269461248FFF782F808B1FDF769FEA1
:102880000C2269460E48FFF77AF808B1FDF761FEA1
:102890000794089409944FF400500A94CDE90B4032
:1028A00007A907480E94FEF739FD08B1FDF751FE60
:1028B0000348FEF7F1FF16B010BD00000004014010
:1028C000200200200C4810B50A4901604FF4E131A4
:1028D0004160002181600C22C160C0E90412816165
:1028E000C161FFF735FA002803D0BDE81040FDF7BD
:1028F00030BE10BD004C0040B00200200C4810B5A6
:102900000A4901604FF4E1314160002181600C22ED
:10291000C160C0E904128161C161FFF719FA0028A2
:1029200003D0BDE81040FDF714BE10BD00500040BC
:10293000F80200200C4810B50A4901604FF4E1315B
:102940004160002181600C22C160C0E904128161F4
:10295000C161FFF7FDF9002803D0BDE81040FDF785
:10296000F8BD10BD00100140400300200C4810B518
:102970000A4901604FF4E1314160002181600C227D
:10298000C160C0E904128161C161FFF7E1F900286B
:1029900003D0BDE81040FDF7DCBD10BD0044004091
:1029A000880300200C4810B50A4901604FF4165105
:1029B0004160002181600C22C160C0E90412816184
:1029C000C161FFF7C5F9002803D0BDE81040FDF74D
:1029D000C0BD10BD00480040D0030020FEE7FEE768
:1029E00070477047FEF74AB930B593B0302168465A
:1029F000FDF7D3FC14210CA8FDF7CFFC1D480025E2
:102A0000016841F080510160006800F08050119031
:102A10001948016841F4804101600068022400F413
:102A20008040119001200090000401908001CDE9C8
:102A3000064008AA0420A82182E813000B906846EB
:102A4000FEF7A0FA08B172B6FEE70CA90F2081E8E4
:102A500031004FF4A0500F904FF48050109005219A
:102A60000CA8FEF7A5F9002801D072B6FEE713B056
:102A700030BD00004038024000700040024801684C
:102A800041F470010160704788ED00E00148FEF7F5
:102A90006ABE0000D8010020F0B50268274B284D1F
:102AA000284E294F294C4FF0804C984209D0604560
:102AB00007D0A84205D0B04203D0B84201D0A0420E
:102AC00004D122F0700E4A6842EA0E0298421BD0EE
:102AD000604519D0A84217D0B04215D0B84213D0E3
:102AE000A04211D01A4DA8420ED01A4DA8420BD0C8
:102AF000194DA84208D0194DA84205D0184DA8423A
:102B000002D0184DA84203D122F44075CA682A4366
:102B10004D6922F080022A438D68C5620D68856286
:102B2000984201D0A04201D109690163016841F0D6
:102B300004010160012141610260F0BD000001401B
:102B40000004004000080040000C00400004014068
:102B5000004001400044014000480140001800408E
:102B6000001C00400020004010B5846842EA0322A7
:102B700024F47F440A432243826010BD826822F01D
:102B800070020A4342F0070181607047F0B5036AA2
:102B9000026A22F00102026242688469124E24F045
:102BA00073050C682C4323F002058B682B430D4DF5
:102BB000A84201D0B04205D123F00807CB683B43BF
:102BC00023F00403A84201D0B04205D14D6922F49C
:102BD000407215438A692A434260846149684163AF
:102BE0000362F0BD0000014000040140F0B5026A3C
:102BF000036A23F010030362436884690D6824F4B8
:102C0000E64444EA05248D6822F0200242EA0512D7
:102C10000F4D104EA84201D0B04206D1CF6822F02D
:102C2000800242EA071222F04002A84201D0B042DC
:102C300007D14D6923F4406343EA85038D6943EA74
:102C4000850343608461496881630262F0BD0000CE
:102C50000000014000040140F0B5026A036A23F459
:102C6000807303624368C46922F4007224F0730520
:102C70000C68124E2C438D6842EA05220E4DA84284
:102C800001D0B04206D1CF6822F4006242EA0722A6
:102C900022F48062A84201D0B04207D14D6923F4EA
:102CA000405343EA05138D6943EA05134360C46149
:102CB0004968C1630262F0BD0000014000040140A8
:102CC00030B5046A026A22F4805202624268C36923
:102CD0000D6823F4E64343EA05238D6824F4005489
:102CE00044EA0534084DA84202D0084DA84204D158
:102CF0004D6922F4804242EA85124260C36149680C
:102D00000164046230BD0000000001400004014085
:102D100010B5036A046A24F001040462846924F093
:102D2000F00444EA021423F00A020A4384610262B6
:102D300010BD10B5036A046A24F0100404628469AB
:102D400023F0A00324F4704444EA023243EA011160
:102D50008261016210BD00000148FEF7B9BE0000AB
:102D6000B00200200148FEF7B3BE0000F8020020C8
:102D700010B5806B0021C185FEF79AFE10BD016879
:102D80000C3151E8002F22F4907241E80023002B0F
:102D9000F5D10168143151E8002F22F0010241E819
:102DA0000023002BF5D1016B012909D101680C31F9
:102DB00051E8002F22F0100241E80023002BF5D14A
:102DC000202180F8421000210163704708B590F877
:102DD0004210222901D0022008BD82684FF480539E
:102DE0009A4201D1016921B1816A9A421BD04AB14C
:102DF0000AE00268816A5268C2F308020A80816AA6
:102E0000891C08E0026972B10268526802F07F0210
:102E10000A70816A491C8162C18D491E0904090C2E
:102E2000C18503D01BE002685268F1E70168CA68F7
:102E300022F02002CA600168CA6822F48072CA6067
:102E400001684A6922F001024A61202180F842109B
:102E500000214163026B012A03D0FFF7A1F9002092
:102E600008BD016301680C3151E8002F22F0100207
:102E700041E80023002BF5D101680A68D20602D58B
:102E80000A6849680091818DFEF710FEE7E70000AF
:102E900070B5044600680169E26821F440511143AD
:102EA00001612169A068E26908436169114308432F
:102EB0002168CA6849F20C639A430243CA602068D9
:102EC0004169A26921F4407111434161314920688F
:102ED000884202D03049884202D1FEF713F801E05F
:102EE000FEF700F8E2690023192164253226B2F5C5
:102EF000004F626828D0A0FB0101930F9200FDF7FC
:102F0000B3F90146B0FBF5F06FF01802504301EB46
:102F1000800006EB0010B0FBF5F000F0F002B1FB12
:102F2000F5F002EB0012B1FBF5F06FF01803584317
:102F300001EB800006EB0010B0FBF5F000F00F0095
:102F400021681044886070BDA0FB010192185B41AC
:102F5000FDF78AF90146B0FBF5F00201B1FBF5F08F
:102F60006FF01803584301EB800006EBC000B0FB84
:102F7000F5F000F0F80002EB4002B1FBF5F0584329
:102F800001EB800006EBC000B0FBF5F000F007009D
:102F9000D6E70000001001400014014081628285E4
:102FA000C28500214164222180F84210016921B1CB
:102FB0000168CA6842F48072CA6001684A6942F0D6
:102FC00001024A610068C16841F02001C16000202F
:102FD000704700000148FEF77BBD00004003002061
:102FE0000148FEF775BD0000880300200148FEF788
:102FF0006FBD0000D0030020FEE70907090E00287E
:1030000004DB00F1E02080F80014704700F00F00AE
:1030100000F1E02080F8141D7047FDF737FEFFF740
:10302000E3FCFFF761F9FFF709F9FFF7F1FAFFF7A2
:1030300081FCFFF7B7FCFFF719FAFFF76BFAFFF710
:103040004FFBFFF73FFCFFF759FCFFF78FFCFFF743
:1030500013FBFFF795FBFFF729FAFFF7B5FBFEE738
:103060004FF04070E1EE100A70470006101600069F
:103070001016000000000000000001020304060713
:10308000080900000000010203040000AC30000841
:103090000000002014000000C4010008C030000837
:1030A00014000020640D0000E00100080000000092
:1030B0000100000010000000000000000024F400E7
:040000050800018965
:00000001FF
