:020000040800F2
:10000000E807002029020008FB150008CD120008AF
:10001000F91500081F0400080D1A00080000000070
:10002000000000000000000000000000FF150008B4
:100030002104000800000000FD150008011600085A
:10004000430200084302000843020008430200087C
:10005000430200084302000843020008430200086C
:10006000430200084302000843020008430200085C
:10007000430200084302000843020008430200084C
:10008000430200084302000843020008430200083C
:10009000430200084302000843020008430200082C
:1000A000430200084302000843020008430200081C
:1000B000430200084302000843020008430200080C
:1000C00043020008430200084302000843020008FC
:1000D00043020008430200084302000843020008EC
:1000E00043020008430200084302000843020008DC
:1000F00043020008430200084302000843020008CC
:1001000043020008430200084302000843020008BB
:1001100043020008430200084302000843020008AB
:10012000430200084302000843020008430200089B
:10013000430200084302000843020008430200088B
:10014000430200084302000843020008430200087B
:10015000430200084302000843020008430200086B
:10016000430200084302000843020008430200085B
:100170004302000843020008430200080000000098
:10018000430200084302000800F002F800F03CF8C7
:100190000AA090E8000C82448344AAF10107DA45E2
:1001A00001D100F031F8AFF2090EBAE80F0013F0F8
:1001B000010F18BFFB1A43F001031847B8180000DD
:1001C000D8180000103A24BF78C878C1FAD852076E
:1001D00024BF30C830C144BF04680C6070470000C1
:1001E0000023002400250026103A28BF78C1FBD840
:1001F000520728BF30C148BF0B6070471FB501F0E0
:1002000027FC1FBD10B510BD00F0CFF81146FFF759
:10021000F5FF01F00CFC00F0EDF803B4FFF7F2FF7E
:1002200003BC00F0F5F80000094880470948004782
:10023000FEE7FEE7FEE7FEE7FEE7FEE7FEE7FEE796
:10024000FEE7FEE704480549054A064B70470000F3
:100250009D16000889010008E8010020E807002039
:10026000E8030020E803002053EA020C00F0698054
:100270002DE9F04B4FF00006002B1FBFB3FA83F5BA
:1002800003FA05F424FA05F65E4012BF1643B2FAEB
:1002900082F502FA05F4C5F120051EBF22FA05FC1D
:1002A00044EA0C04203556EA044C4FEA144418BFC3
:1002B000641C4FF000084FF00009904271EB030CF2
:1002C00039D3002919BFB1FA81F701FA07F6B0FA5C
:1002D00080F700FA07F6C7F120071EBF20FA07FCD7
:1002E00046EA0C062037B6FBF4FCA7EB0507103FE7
:1002F00007F01F0BCBF120060CFA0BFB2CFA06F6CD
:1003000044BFB3460026202FA4BF5E464FF0000B2B
:100310005BEA060C08BF4FF0010B19EB0B09ABFBB6
:10032000027C48EB0608C01B06FB02CC0BFB03CC8F
:1003300071EB0C01C1E70B46024641464846BDE859
:10034000F08B13B54FF000004FF00001AFF30080C9
:10035000BDE81C4070474FF0000200B513469446BC
:100360009646203922BFA0E80C50A0E80C50B1F10D
:100370002001BFF4F7AF090728BFA0E80C5048BF21
:100380000CC05DF804EB890028BF40F8042B08BFBF
:10039000704748BF20F8022B11F0804F18BF00F8BB
:1003A000012B7047704770477047754600F02CF876
:1003B000AE4605006946534620F00700854618B052
:1003C00020B5FFF73FFFBDE820404FF000064FF09B
:1003D00000074FF000084FF0000B21F00701AC467A
:1003E000ACE8C009ACE8C009ACE8C009ACE8C00999
:1003F0008D46704710B50446AFF300802046BDE837
:100400001040FFF70ABF0000004870478401002039
:1004100001491820ABBEFEE7260002007047FEE748
:10042000704772B6FEE700002DE9F84FDFF8BCA177
:100430000022012503264FF00F090AF1040BAAF14F
:10044000040E00BF0B6805FA02F42340A34270D1EA
:100450000F7907F00307012F01D0022F16D187680B
:100460004FEA420806FA08FC27EA0C07D1F80CC04C
:100470000CFA08FC4CEA070CC0F808C04768A74310
:100480000C79C4F3001494403C4344600C79E44379
:10049000A4070AD0C4684FEA420C06FA0CF7BC4322
:1004A0008F6807FA0CF72743C7600C7904F0030440
:1004B000022C12D1D40800EB840CDCF82040570742
:1004C000FF0E09FA07F824EA0804D1F8108008FAA8
:1004D00007F848EA0408CCF8208004684FEA420C88
:1004E00006FA0CF7BC430F7907F0030707FA0CF77D
:1004F000274307604C6814F4403F70D03C4C276899
:1005000047F480472760246822F0030704F48044FE
:100510000094384C07EB040CDCF8084897074FEAC6
:10052000177809FA08F7BC43334FB84202D10027C5
:1005300024E054E0314FB84201D101271EE0304F92
:10054000B84201D1022719E02E4FB84201D103274A
:1005500014E02D4FB84201D104270FE02B4FB842D1
:1005600001D105270AE02A4FB84201D1062705E04C
:10057000284FB84201D1072700E0082707FA08F7FB
:100580002743CCF80878DAF800405746D1F804C081
:100590009C435FEACC2C00D51C433C60DBF8004058
:1005A0005F46D1F804C09C435FEA8C2C00D51C4305
:1005B0003C60DEF800407746D1F804C09C435FEA17
:1005C0008C3C00D51C433C60084F083F3C68D1F888
:1005D00004C09C435FEACC3C00D51C433C60521CE9
:1005E000102AFFF42FAFBDE8F88F0000083C01404F
:1005F0004438024000300140000002400004024044
:1006000000080240000C02400010024000140240AA
:1006100000180240001C02400AB1816170470904C1
:10062000FBE70000014880687047000000000020E0
:1006300070B5040025D094F83D00002520B984F859
:100640003C50204600F0B8F8242084F83D00206893
:10065000016821F0010101602068016841F4004156
:1006600001602068016821F40041016000F000FA97
:100670004D4A6168914201D84C4900E04C4988429A
:1006800001D2012070BD4B492368B0FBF1F15E68D7
:1006900026F03F060E435E606368934206D94FF42E
:1006A000967359434FF47A73B1FBF3F12368491CF5
:1006B0001E6A26F03F06314319626168914210D8E4
:1006C0004900401EB0FBF1F2521CC2F30B02042A97
:1006D00001D2042022E0B0FBF1F0401CC0F30B007B
:1006E0001CE0A268F2B301EBC10303EB0116431E49
:1006F000B3FBF6F35B1C43F480431B0549D092B374
:1007000001EBC10202EB0111401EB0FBF1F0401CF5
:10071000C0F30B0040F4804040F400402168CA69F7
:100720004CF6FF739A431043C861D4E907100143A4
:100730002068026822F0C00211430160D4E903017D
:1007400001432068826848F2FF339A431143816075
:10075000D4E9050108432168CA6822F0FF0210436A
:10076000C86001E00EE016E02068016841F0010178
:1007700001602564202084F83D00256384F83E5004
:10078000002070BD01EB4106431EB3FBF6F35B1C7A
:10079000B3E70120C2E701EB4101401EB0FBF1F0DD
:1007A000401CC0F30B00B7E7A086010080841E0048
:1007B00000093D0040420F0010B586B004461421E8
:1007C0006846FFF7C8FD14492068884221D11348C4
:1007D0000021026842F002020260006800F002009C
:1007E00005904FF4407000901220CDE901010320E4
:1007F00003900420049069460948FFF715FE074856
:100800001030016841F400110160006800F400102C
:10081000059006B010BD0000005400403038024082
:1008200000040240024881680278114481607047E8
:10083000000000200B4810B5016841F40071016010
:10084000016841F480610160016841F480710160D8
:10085000032000F061F80F2000F006F800F024F803
:10086000002010BD003C024070B50D4D04464FF411
:100870007A712878B1FBF0F00A490968B1FBF0F011
:1008800000F0FCFA48B9102C07D200222146501E75
:1008900000F022F800206C6070BD012070BD0000E7
:1008A000000000200C0000200A4808B5016841F44F
:1008B00080410160006800F4804000900548001FFE
:1008C000016841F080510160006800F080500090A4
:1008D00008BD000044380240F0B40E4B1B680C46C3
:1008E000C3F30223C3F10705042D00D90425191D04
:1008F000072901D2002300E0DB1E012606FA05F1DC
:10090000491E214099409E40761E16403143F0BC5E
:1009100001F07DB80CED00E0064900F00702086820
:100920004FF6FF03184040EA0220034A10430860D4
:10093000704700000CED00E00000FA052DE9F047DB
:100940000E46050065D0DFF81481D8F80000F7B234
:1009500000F00700B04207D288F80070D8F8000015
:1009600000F00700B04254D128683D4C810712D5F1
:10097000400703D5206840F4E05020602878000745
:1009800003D5206840F4604020602068A96820F00A
:10099000F000084320602878C0072DD030496868EF
:1009A0000839012812D0022813D0032811D0096871
:1009B000890700292DDA216821F003010143216014
:1009C000FFF730FE814641F2883A0EE0096889035C
:1009D000EFE709688901ECE7FFF724FEA0EB0901C6
:1009E000514502D90320BDE8F0872068696800F00E
:1009F0000C00B0EB810FEFD1D8F80010404601F0A9
:100A00000701B14207D90770006800F00700B04243
:100A100001D00120E7E72878400705D52068E9687C
:100A200020F4E050084320602878000706D52068AD
:100A3000296920F4604040EAC100206000F038F8E5
:100A40002168084AC1F30311515CC8400649086097
:100A500006480068FFF708FF0020C4E7003C02409A
:100A6000083802405A1A00080C0000200400002038
:100A70000448054900680968044AC1F38221515CB1
:100A8000C84070470C000020083802406A1A00086D
:100A90000448054900680968044AC1F34231515CC1
:100AA000C84070470C000020083802406A1A00084D
:100AB000154810B5006810F00C02144813D041100E
:100AC000042A0FD0082A0ED10F4C241F2268236855
:100AD00002F03F025B0207D52068C0F38810A0FB3C
:100AE000010106E0084610BD2168C1F38811A1FB91
:100AF00000010023FFF7B8FB2168C1F30141491C45
:100B00004900B0FBF1F010BD083802400024F400A9
:100B10002DE9F84F04006ED02078DFF84C93C00721
:100B2000A9F104054AD009F104000168C1F381016B
:100B3000012908D00068C0F3810002280AD1D9F841
:100B40000000400206D52868800337D56068002879
:100B5000E1D033E06068B0F5803F10D0B0F5A02F51
:100B6000286810D020F480302860286820F4802085
:100B700028606068A8B1FFF755FD06460DE02868BB
:100B800040F48030F4E740F480202860F7E700BFAD
:100B9000FFF748FD801B642873D828688003F7D5C9
:100BA0000CE0FFF73FFD064605E000BFFFF73AFD0A
:100BB000801B6428F0D828688003F7D42078DFF8F9
:100BC000AC8280074FF0000A3ED5A748001D01689F
:100BD00011F00C0F08D00068C0F3810002280BD17F
:100BE000D9F80000400207D42868800716D5E068CD
:100BF000012800D112E033E1E068B8B10120C8F863
:100C00000000FFF70FFD064605E000BFFFF70AFDF5
:100C1000801B0228C0D828688007F7D5286821697A
:100C200020F0F80040EAC10028600DE0C8F800A0FC
:100C3000FFF7F8FC064604E0FFF7F4FC801B0228EF
:100C40001FD828688007F7D42078000722D5864F60
:100C500087486169703771B101210160FFF7E2FCDB
:100C6000064604E0FFF7DEFC801B022809D838683E
:100C70008007F7D50EE0C0F800A0FFF7D3FC0646CA
:100C800005E082E0FFF7CEFC801B02287DD83868A3
:100C90008007F7D42078400768D5DFF8CCB100276B
:100CA0000BF13C0BDBF80000C0000BD4DBF80010AC
:100CB00041F08051CBF80010DBF80000012700F074
:100CC000805000906B4E3068C00510D4306840F4FE
:100CD00080703060FFF7A6FC009005E0FFF7A2FCF3
:100CE0000099401A022850D83068C005F6D55E4EEB
:100CF000A0686C3601280FD00528306810D020F08D
:100D000001003060306820F004003060A068B8B1A5
:100D1000FFF788FC00900FE0306840F00100F4E736
:100D200040F004003060F7E7FFF77CFC0099411ABF
:100D300041F28830814266D830688007F4D50EE0F1
:100D4000FFF770FC009007E0FFF76CFC0099411A78
:100D500041F28830814256D830688007F4D42FB1F0
:100D6000DBF8001021F08051CBF80010A069C8B367
:100D70003D49091D0968C1F3810102294AD00228B1
:100D8000504607D0C8F8600000E03CE0FFF74AFC9E
:100D900004463BE04746C8F86000FFF743FC0646C0
:100DA00005E000BFFFF73EFC801B02282BD8286817
:100DB0008001F7D4D4E907010843A16A2E4A490803
:100DC00002EB0141626A41EA8211084394F82C1057
:100DD00040EA0161C9F8001001203866FFF722FCE3
:100DE000044606E03EE000BFFFF71CFC001B0228A3
:100DF00009D828688001F7D534E000BFFFF712FC5E
:100E0000001B022802D90320BDE8F88F2868800162
:100E1000F4D427E00128F7D0D9F80000E26900F403
:100E2000800191421CD1226A00F03F01914217D10A
:100E300047F6C071626A0140B1EB821F10D1A26A0D
:100E40004FF0FF3300F4403103EB5202B1EB024F9D
:100E500006D194F82C1000F07060B0EB016F01D057
:100E60000120D1E70020CFE70438024000004742CC
:100E7000800E4742007000400000FFFF10B5401E8A
:100E8000B0F1807F01D3012010BD4FF0E0246061FC
:100E90000F21601700F0BBFD0020A061072020613A
:100EA000002010BD10B590F83C20012A22D001226C
:100EB00080F83C20CA688C6822F4407222434C6857
:100EC00022F4806222430C6822F4006222430C69FF
:100ED00022F4805222434C6922F400522243C96911
:100EE000002322F480420A4301684A6480F83C30BF
:100EF000002010BD022010BD70B590F83C20012AE2
:100F000032D0012480F83C40022280F83D20036862
:100F10005A689D6822F070060A6832435A60134B83
:100F200002689A4214D0B2F1804F11D0104B9A420D
:100F30000ED0104B9A420BD00F4B9A4208D00F4B59
:100F40009A4205D00E4B9A4202D00E4B9A4204D1DF
:100F5000496825F080031943916080F83D400021E5
:100F600080F83C10084670BD022070BD00000140B2
:100F70000004004000080040000C00400004014054
:100F800000400140001800402DE9F0410D460400EA
:100F900003D094F83D0018B108E00120BDE8F081CD
:100FA000002084F83C00204600F040F8022084F83D
:100FB0003D002068816844F2070291438160211D51
:100FC000206800F073FB226890689169166A2B68AC
:100FD000AF69034340F20330814341EA0721A86827
:100FE000EF6908434FF6FC418843E96840EA07206F
:100FF000014328692F6A000140EA07300843696805
:101000006D6926F0AA0646EA051529439360226811
:10101000906154F8460B0162012004F81F09E07545
:101020002076E0762077A0750020B7E710B586B06F
:10103000044614216846FFF78EF92068B0F1804F0E
:101040001FD111480021026842F0010202600068CD
:1010500000F0010005900C481038026842F00102CF
:101060000260006800F0010005900320009002205B
:10107000CDE901010120CDE9031069460348FFF7DE
:10108000D3F906B010BD0000403802400000024015
:1010900010B586B0044614216846FFF75CF90E4986
:1010A0002068884216D10D480021026842F01002E3
:1010B0000260006800F0100005904FF4D4400090EA
:1010C0000220CDE901010120CDE903106946044861
:1010D000FFF7AAF906B010BD000001403038024009
:1010E0000010024070B5044690F83C00002501282D
:1010F0000FD0012084F83C006AB1042A0FD0082ADE
:1011000011D00C2A13D00125002084F83C00284679
:1011100070BD022070BD206800F030FBF4E720684D
:1011200000F05CFBF0E7206800F08EFBECE7206845
:1011300000F0BEFBE8E710B5040003D094F83D00D2
:1011400010B107E0012010BD002084F83C002046CB
:1011500000F01EF8022084F83D00211D206800F0F8
:10116000A5FA012084F8460084F83E0084F83F0088
:1011700084F8400084F8410084F8420084F8430079
:1011800084F8440084F8450084F83D00002010BD38
:1011900008B500680649884208D10648016841F050
:1011A00001010160006800F00100009008BD00002E
:1011B000000001404438024070B5040004D094F8A7
:1011C0004100002510B106E0012070BD84F84050B8
:1011D000204600F023F8242084F841002068C168EC
:1011E00021F40051C160204600F08AFB20680169AB
:1011F00021F4904101612068416921F02A01416197
:101200002068C16841F40051C1606564202084F801
:10121000410084F842006563002070BD70B586B05F
:10122000044614216846FFF796F8234E22680021F1
:101230002248022303240725B2421AD11F4A14323E
:10124000166846F010061660126802F01002059249
:10125000026842F001020260006802AA00F0010088
:10126000059082E832006002CDE900036946144827
:101270001DE0144EB2421CD1104A1032166846F4DA
:1012800080261660126802F480220592026842F0FD
:1012900002020260006802AA00F00200059082E8E3
:1012A00032004FF44060CDE9000369460648FFF77D
:1012B000BBF806B070BD000000100140303802409D
:1012C000000002400048004000040240FEE7000029
:1012D0002DE9F04F87B014216846FFF73CF84748E6
:1012E0000024016841F010010160016801F0100163
:1012F0000591016841F004010160016801F00401F9
:101300000591016841F080010160016801F08001F0
:101310000591016841F001010160016801F00101DE
:101320000591016841F002010160016801F00201CC
:101330000591016841F008010160016801F00801B0
:101340000591016841F0400101600068DFF8B0904C
:1013500000F040000590002206214846FFF75CF9A6
:10136000DFF8A0A0002203215046FFF755F9DFF86F
:1013700098B04FF47046002231465846FFF74CF9BA
:101380004FF44747002239462048FFF745F94CF211
:101390006C08002241461E48FFF73EF906200090E7
:1013A0000125CDE90154694648460394FFF73CF80E
:1013B00003200090CDE90154694650460394FFF79D
:1013C00033F80096CDE90154694658460394FFF777
:1013D0002BF80097CDE9015469460C480394FFF7B8
:1013E00023F8CDF80080CDE90154694608480394FC
:1013F000FFF71AF807B0BDE8F08F00003038024060
:10140000001002400008024000040240000C0240AC
:10141000001802400D4810B50B4901600C494160AD
:1014200000214FF480428160C0E903124161816173
:10143000C1610162FFF7FCF8002803D0BDE810404D
:10144000FEF7EFBF10BD0000005400401000002068
:10145000A086010010B592B000240F941C216846AC
:101460001094FEF778FF202107A8FEF774FF2C48A0
:101470002A4901600721C0E9011440F2E731C0E9BF
:10148000031444618461FFF756FE08B1FEF7C9FFFB
:101490000F940FA922481094FFF72EFD08B1FEF714
:1014A000C0FF0094019402940394049405940022D4
:1014B00069461B480694FFF715FE08B1FEF7B1FF19
:1014C000042269461648FFF70DFE08B1FEF7A9FF92
:1014D000082269461248FFF705FE08B1FEF7A1FF92
:1014E0000C2269460E48FFF7FDFD08B1FEF799FF93
:1014F0000794089409944FF400500A94CDE90B40E6
:1015000007A907480E94FFF7CDFC08B1FEF789FF45
:101510000348FFF7BDFD12B010BD00000000014000
:101520006400002010B58CB024216846FEF713FF3C
:101530000024144809944FF080410A94C0E9001433
:10154000611EC0E90241046184610120CDE900040B
:10155000CDE902040494CDE90540079469460948A1
:101560000894FFF711FD08B1FEF75BFF099409A984
:1015700004480A94FFF7C0FC002801D0FEF751FF91
:101580000CB010BDAC0000200C4810B50A49016039
:101590004FF416514160002181600C22C160C0E906
:1015A00004128161C161FFF707FE002803D0BDE886
:1015B0001040FEF736BF10BD00100140F4000020BF
:1015C0000C4810B50A4901604FF4165141600021E2
:1015D00081600C22C160C0E904128161C161FFF722
:1015E000EBFD002803D0BDE81040FEF71ABF10BD88
:1015F000004800403C010020FEE7FEE770477047CE
:10160000FFF710B930B593B030216846FEF7A3FE5E
:1016100014210CA8FEF79FFE1E480025016841F02A
:1016200080510160006800F0805011901A480168F4
:1016300041F4804101600068022400F48040119070
:1016400001200090000401908001CDE906400820AF
:1016500008904FF4A870CDE9090404200B90684667
:10166000FFF756FA08B172B6FEE70CA90F2081E821
:1016700031004FF4A0500F904FF48050109005218E
:101680000CA8FFF75BF9002801D072B6FEE713B093
:1016900030BD000040380240007000400248016840
:1016A00041F470010160704788ED00E0F0B5026818
:1016B000274B284D284E294F294C4FF0804C9842FB
:1016C00009D0604507D0A84205D0B04203D0B84247
:1016D00001D0A04204D122F0700E4A6842EA0E0204
:1016E00098421BD0604519D0A84217D0B04215D0FF
:1016F000B84213D0A04211D01A4DA8420ED01A4DB4
:10170000A8420BD0194DA84208D0194DA84205D0C7
:10171000184DA84202D0184DA84203D122F44075BA
:10172000CA682A434D6922F080022A438D68C56247
:101730000D688562984201D0A04201D10969016318
:10174000016841F004010160012141610260F0BDC6
:10175000000001400004004000080040000C004070
:1017600000040140004001400044014000480140A5
:1017700000180040001C004000200040F0B5036A43
:10178000026A22F00102026242688469124E24F069
:1017900073050C682C4323F002058B682B430D4D19
:1017A000A84201D0B04205D123F00807CB683B43E3
:1017B00023F00403A84201D0B04205D14D6922F4C0
:1017C000407215438A692A434260846149684163D3
:1017D0000362F0BD0000014000040140F0B5026A60
:1017E000036A23F010030362436884690D6824F4DC
:1017F000E64444EA05248D6822F0200242EA0512FC
:101800000F4D104EA84201D0B04206D1CF6822F051
:10181000800242EA071222F04002A84201D0B04200
:1018200007D14D6923F4406343EA85038D6943EA98
:10183000850343608461496881630262F0BD0000F2
:101840000000014000040140F0B5026A036A23F47D
:10185000807303624368C46922F4007224F0730544
:101860000C68124E2C438D6842EA05220E4DA842A8
:1018700001D0B04206D1CF6822F4006242EA0722CA
:1018800022F48062A84201D0B04207D14D6923F40E
:10189000405343EA05138D6943EA05134360C4616D
:1018A0004968C1630262F0BD0000014000040140CC
:1018B00030B5046A026A22F4805202624268C36947
:1018C0000D6823F4E64343EA05238D6824F40054AD
:1018D00044EA0534084DA84202D0084DA84204D17C
:1018E0004D6922F4804242EA85124260C361496830
:1018F0000164046230BD00000000014000040140AA
:1019000070B5044600680169E26821F44051114352
:1019100001612169A068E2690843616911430843D4
:101920002168CA6849F20C639A430243CA6020687E
:101930004169A26921F44071114341613149206834
:10194000884202D03049884202D1FFF7A1F801E075
:10195000FFF78EF8E2690023192164253226B2F5DB
:10196000004F626828D0A0FB0101930F9200FEF7A0
:101970007BFC0146B0FBF5F06FF01802504301EB21
:10198000800006EB0010B0FBF5F000F0F002B1FBB8
:10199000F5F002EB0012B1FBF5F06FF018035843BD
:1019A00001EB800006EB0010B0FBF5F000F00F003B
:1019B00021681044886070BDA0FB010192185B4152
:1019C000FEF752FC0146B0FBF5F00201B1FBF5F069
:1019D0006FF01803584301EB800006EBC000B0FB2A
:1019E000F5F000F0F80002EB4002B1FBF5F05843CF
:1019F00001EB800006EBC000B0FBF5F000F0070043
:101A0000D6E700000010014000140140FEE709077E
:101A1000090E002804DB00F1E02080F80014704774
:101A200000F00F0000F1E02080F8141D7047FEF771
:101A300001FFFFF7E7FDFFF74BFCFFF773FDFFF733
:101A4000A3FDFFF7BDFDFFF7E5FCFFF703FDFEE794
:101A50004FF04070E1EE100A7047000000000000F7
:101A6000000001020304060708090000000001024B
:101A700003040000941A0008000000201000000079
:101A8000C4010008A41A000810000020D8070000B4
:101A9000E00100080100000010000000000000004C
:041AA0000024F4002A
:040000050800018965
:00000001FF
