:020000040800F2
:10000000A00F002001030008B17C0008A16D0008CA
:10001000E57A000881300008C18D0008000000006A
:10002000000000000000000000000000E17E000869
:100030004935000800000000DD7E0008D18000087E
:100040001B0300081B0300081B0300081B03000818
:100050001B0300081B0300081B0300081B03000808
:100060001B0300081B0300081B0300086133000882
:100070001B030008713300081B03000881330008CC
:1000800091330008A13300081B0300081B0300087C
:100090001B0300081B0300081B0300081B030008C8
:1000A0001B0300081B0300081B0300081B030008B8
:1000B0001B0300081B0300081B0300081B030008A8
:1000C0001B0300081B0300081B0300081B03000898
:1000D0001B030008818D0008918D0008A18D000888
:1000E0001B0300081B0300081B0300081B03000878
:1000F0001B0300081B0300081B030008B1330008A2
:100100001B0300081B0300081B0300081B03000857
:100110001188000821880008A98100081B03000835
:100120001B030008C1330008D13300081B0300087B
:100130001B0300081B0300081B0300081B03000827
:100140001B0300081B0300081B0300081B03000817
:100150001B030008E1330008F1330008B18D0008EB
:100160001B0300081B0300081B0300081B030008F7
:100170001B0300081B0300081B030008000000000D
:100180001B0300081B03000800F002F800F0A8F8A9
:1001900014A696E8000CB244B344DA4501D100F04D
:1001A0009FF8BAE80F000FA696E83000A5EB04050B
:1001B00004EB0607AAEB0704A7F101074FEA1515A0
:1001C0004FEA3414A4F10104AC4201D300F088F8E2
:1001D00013F0010F18BFFB1A43F0010300F001F800
:1001E000DBE7184714B9000034B90000103A24BF07
:1001F00078C878C1FAD8520724BF30C830C144BF8C
:1002000004680C6070470000704700000023002461
:1002100000250026103A28BF78C1FBD8520728BF16
:1002200030C148BF0B6070476E2900F00D83702904
:1002300000F05184662909F06887652909F065870F
:10024000672909F06287612909F0618703681B0A41
:1002500028BF41F08001692900F0BA82642900F0CA
:10026000B782752900F0B4826F2900F0DF83782906
:1002700000F01D84E92900F07983E42900F07683F9
:10028000F52900F07383EF2900F0DC83F82900F0F2
:100290001C840368DB0928BF41F08001632901F059
:1002A0008584732901F08A84E32901F09584F32978
:1002B00001F09A84002070471FB509F011FF02F089
:1002C0005BF904000020002109F002FD401C606081
:1002D0000020002109F0E6FCE0601FBD10B510BD54
:1002E00002F01DF91146FFF7E7FF08F085FE02F066
:1002F00011FA03B4FFF7F2FF03BC02F04FFC000059
:100300000948804709480047FEE7FEE7FEE7FEE7A9
:10031000FEE7FEE7FEE7FEE7FEE7FEE704480549E5
:10032000054A064B704700009581000889010008C6
:10033000A0090020A00F0020A00B0020A00B00208F
:1003400053EA020C00F069802DE9F04B4FF00006F3
:10035000002B1FBFB3FA83F503FA05F424FA05F660
:100360005E4012BF1643B2FA82F502FA05F4C5F1F7
:1003700020051EBF22FA05FC44EA0C04203556EA8B
:10038000044C4FEA144418BF641C4FF000084FF0AF
:100390000009904271EB030C39D3002919BFB1FA5F
:1003A00081F701FA07F6B0FA80F700FA07F6C7F10D
:1003B00020071EBF20FA07FC46EA0C062037B6FBD2
:1003C000F4FCA7EB0507103F07F01F0BCBF120064D
:1003D0002CFA06F60CFA0BFB44BFB3460026202F7E
:1003E000A4BF5E464FF0000B5BEA060C08BF4FF05F
:1003F000010B19EB0B0948EB0608ABFB027C06FB73
:1004000002CC0BFB03CCC01B71EB0C01C1E70B460C
:10041000024641464846BDE8F08B13B5084318BF75
:100420004FF0FF300146AFF30080BDE81C4070473D
:1004300053EA020C23D010B54C1084EA530404D5BF
:100440004042C1F1000138BF491E1B4204D552424F
:10045000C3F1000338BF5B1EFFF772FF14F0804F3B
:1004600004D04042C1F1000138BF491E14F0004FD2
:1004700004D05242C3F1000338BF5B1E10BD13B558
:1004800040424FF0000070EB0104B8BF012001F0C2
:10049000004100281CBF6FF000414FF0FF30AFF368
:1004A00000801CBD0FB41CB50C0007AA009007D03B
:1004B0004142A14202D32044401E01E04FF0FF30F0
:1004C000074B7B4469460190069800F0D6F900215D
:1004D000002C01D0009A11701CBC5DF814FB0000C8
:1004E000DB0300000FB400B58DB010A90990009196
:1004F0000B904FF0FF300A9000200C900648784493
:100500000690064878446A4607900F9909A800F0BB
:1005100079FD0DB05DF814FB230B00003B0B0000D0
:1005200010B5431C02E010F8011B71B18107FAD12C
:100530004FF0013202C88C1A8C4314EAC211F9D070
:10054000C01A0A0603D0C01E10BDC01A10BD0A048E
:1005500001D0801E10BD0902FCD0401E10BD40EA33
:10056000010370B59B072ED14FF00136042A2AD320
:1005700008C810C99D1B9D43121F15EAC61517D048
:10058000D8B2E1B2401A50EA056110D198B2A1B2D6
:10059000401A50EA05410AD123F07F4024F07F4100
:1005A000401A50EA052102D1180EA0EB146070BD6C
:1005B000A342DBD018BA21BA884201D9012070BD0C
:1005C0004FF0FF3070BD0AB9002070BD10F8013B3C
:1005D00011F8014B63B1A3420AD1521E08D010F8A2
:1005E000013B11F8014B1BB1A34201D1521EEDD1C9
:1005F000181B70BD4FF000020429C0F0128010F0EB
:10060000030C00F01B80CCF1040CBCF1020F18BFEE
:1006100000F8012BA8BF20F8022BA1EB0C0100F081
:100620000DB85FEAC17C24BF00F8012B00F8012B54
:1006300048BF00F8012B70474FF0000200B5134689
:1006400094469646203922BFA0E80C50A0E80C50F2
:10065000B1F12001BFF4F7AF090728BFA0E80C50A3
:1006600048BF0CC05DF804EB890028BF40F8042B9C
:1006700008BF704748BF20F8022B11F0804F18BF09
:1006800000F8012B7047000030B44FF0013C50F8E7
:10069000042B51F8043BCCFA52F4D51A20D1FCB902
:1006A00050F8042B51F8043BCCFA52F4D51A17D168
:1006B000B4B950F8042B51F8043BCCFA52F4D51AD3
:1006C0000ED16CB950F8042B51F8043BCCFA52F41B
:1006D000D51A05D1002CDAD030BC4FF0000070479D
:1006E00029BAB1FA81F111F01801D1F1200084404A
:1006F000F2D1CA40CB4012F0FF0213F0FF0330BC2E
:10070000D01A704770477047704770B504468569C6
:100710000068C10601D5302600E02026C00707D0BA
:1007200070BDD4E9012130469047206A401C206208
:100730006D1EF6D570BD70B5044685690078C0079A
:1007400007D170BDD4E9012120209047206A401CC8
:1007500020626D1EF6D570BD09684A0501D540B20C
:100760007047C905FCD500B2704709684A0501D534
:10077000C0B27047C905FCD580B2704770B50C4651
:100780000546012A05D02878800600D5EA690023AD
:1007900002E0012305E05B1C934202D2E05C0028EA
:1007A000F9D1A869E618C01AA861286A1844286215
:1007B0002846FFF7AAFF04E0D5E9012114F8010B50
:1007C0009047B442F8D32846FFF7B5FF70BD00004C
:1007D0002DE9F0410646002410687529314616A51A
:1007E00010D0FFF7B9FF002802DA404213A507E056
:1007F00031688A0701D512A502E0490704D511A581
:10080000012401E0FFF7B1FF00210A2206F12407CD
:1008100009E0B0FBF2FCB0FBF2F302FB1C0030304D
:1008200078541846491C0028F3D123462A463046FE
:10083000BDE8F04100F0CABD000000002D0000003E
:100840002B0000002000000011680268006A5305B8
:1008500001D508700AE0D30501D5088006E013062B
:1008600003D5C217C1E9000200E00860012070470B
:1008700001694A1C02610878704700B58FB0CDE964
:1008800001310021059105497944CDE90310114654
:10089000684600F02BF90FB000BD0000E5FFFFFF38
:1008A000D1E900239A4202D2531C0B6010707047AA
:1008B0002DE9FF5F15468A460446DFF8AC80F84410
:1008C0000027D8E900103E46CDE9001010E03AF8C4
:1008D00016106A4602A801F0FEFD411C07D02178DF
:1008E000890603D5E269391891420DD80744761C70
:1008F0002078800602D5E069B84205DDAE42E6DB2D
:100900003AF816000028E2D1A069C01BA061204679
:10091000FFF7FBFED8E90010CDE90010002017E03A
:100920003AF818106A4602A801F0D5FDB0F1FF3F71
:1009300081460BD000250DF1080B05E0D4E901211B
:100940001BF8050090476D1C4D45F7D308F10100D9
:10095000B0428046E4DB206A384420622046FFF73C
:10096000EAFEBDE8FF9F00004E9900002DE9F0412E
:100970008046D21D22F007020025D2E90002F529A7
:1009800015A614D0011E72F1000106DA0023D0EB87
:10099000030063EB020211A608E0D8F800108B07F1
:1009A00001D50FA602E0490701D50EA60125114683
:1009B000002408F1240704E000F0BAFC30323A5574
:1009C000641C50EA0102F7D12B46324621464046CC
:1009D000BDE8F04100F0FABC000000002D0000006E
:1009E0002B0000002000000030B4002100F124049E
:1009F00008E002F00705D208303542EA4372DB080E
:100A00006554491C52EA0305F3D10468002310A27F
:100A1000250708D504F020040C4304D0C469012341
:100A20000CA2641EC46130BC00F0D0BC10B50446FA
:100A300021461068FFF799FE02462046BDE81040A7
:100A40000023D1E7D21D22F00701D1E90023CBE733
:100A50000000000030000000F0B40D4601880905D8
:100A600002D5214C7C4402E01F4C7C440E34002112
:100A700000F1240608E002F00F071209E75D42EAE0
:100A800003721B097754491C52EA0307F3D1027819
:100A90000023120704D5702D06D009B102231134AA
:100AA0002246F0BC00F092BC01231034F8E770B588
:100AB00004460D4621461068FFF757FE02462946B8
:100AC0002046BDE870400023C6E7D21D22F0070390
:100AD000D3E90023C0E70368126843F020030360F2
:100AE0000823C3610023B7E7B09700002DE9F05F4A
:100AF000894604464FF0000ADFF874B1FB44C0F8A1
:100B000020A02046E1688847002874D0252806D018
:100B1000D4E901219047206A401C2062F1E70026B9
:100B20005F462046E16888472028054607DB312DCF
:100B300005D2781910F8200C08B10643F1E7B00788
:100B400001D526F00406C4F81CA00027C4F818A09C
:100B50002A2D09D0284609F056F838B304EB870847
:100B6000303DC8F8185019E059F8041B204604EB32
:100B700087029161E1688847012F054618D1E06935
:100B8000002820DA26F020061DE0D8F8180000EB37
:100B9000800005EB40003038C8F818002046E168B6
:100BA0008847054609F02FF80028EED1012F0AD01A
:100BB0002E2D08D12046E16888477F1C0546022F6C
:100BC00046F02006C4DBA069002803DA404246F064
:100BD0000106A061F00701D026F010066C2D0BD0A5
:100BE000682D09D04C2D39D06A2D35D0742D35D0D3
:100BF0007A2D33D016E038E0E1682F46204688474A
:100C0000B842054609D16C2F26D04FF48060E168C8
:100C1000064320468847054604E06C2F1AD04FF45F
:100C2000807006430DB3A5F14100192802D8203584
:100C300046F400664A462946204626604E46FFF79F
:100C4000F3FA80B101280BD0F61D26F0070000F161
:100C5000080956E74020E4E78020D8E70020D6E7DF
:100C600006F104094DE7284652E7206ABDE8F09FE7
:100C7000409700002DE9FF4F1C4691464FF0FF358D
:100C800081B000218A468846D4E90167A1690298AB
:100C90006D1C8847216A834688470028F6D1BBF13E
:100CA000FF3F0CD0002F26F4C0661ADD700615D564
:100CB000BBF12B0F0AD0BBF12D0F0FD104E04FF089
:100CC000FF3005B0BDE8F08F46F48066A169029858
:100CD0006D1C88477F1E8346002F02DDBBF1300F5D
:100CE00003D0B9F1000F2AD025E0A1696D1C02984C
:100CF0007F1E46F400768847002F834605DDBBF152
:100D0000780F06D0BBF1580F03D0B9F1000F10D007
:100D100011E0B9F1000F02D0B9F1100F0BD1A169A8
:100D20006D1C02987F1E26F40076884783461020AB
:100D300000E0082081464FEAE970009017E00A20A1
:100D4000F8E74346AAFB0928DDF800C07F1E03FB35
:100D5000098046F4007605F101050AFB0C0112EB4F
:100D60000B0A029841EBEB78A16988478346002F74
:100D700006DD4946584600F03BFF5FEA000BE0D530
:100D8000E16902988847B00502D46FF0010098E746
:100D9000F00718D1700610D55146700505D500230F
:100DA000D1EB030163EB080200E042462068031D1B
:100DB00023600068C0E9001205E02068011D216081
:100DC0000068C0E900A828467BE72DE9FF5F1D46C3
:100DD0004FF0FF3B91464FF000085F46D5E90146D2
:100DE000A96901987F1C8847296A8246884700289C
:100DF000F6D1BAF1FF3F0CD0002E24F4C06419DD07
:100E0000600614D5BAF12B0F09D0BAF12D0F0ED10F
:100E100003E0584604B0BDE8F09F44F48064A9693B
:100E200001987F1C8847761E8246002E02DDBAF1AB
:100E3000300F03D0B9F1000F26D032E0A969761E39
:100E400001987F1C44F400748847002E824605DD1B
:100E5000BAF1780F06D0BAF1580F03D0B9F1000FEC
:100E600010D01EE0B9F1000F02D0B9F1100F18D167
:100E7000A969761E01987F1C24F400748847824675
:100E8000102002E0082000E00A20814609E0A9695C
:100E900008FB0908761E01987F1C44F400748847FB
:100EA0008246002E05DD4946504600F0A1FE00288E
:100EB000EDDAE96901988847A00502D46FF00100D6
:100EC000A8E7E00725D1600613D5600502D5C8F173
:100ED000000000E0404629680A1D2A6009682205D2
:100EE00001D5087015E0220701D5088011E00860DF
:100EF0000FE02868011D29600068210502D580F8EF
:100F0000008006E0210702D5A0F8008001E0C0F8CB
:100F1000008038467EE72DE9FF5F4FF000089946D4
:100F2000144646469169D2E901A7DDF838B0019828
:100F30008847054659EA0B0005D009E0A1690198E8
:100F4000761C88470546216A284688470028F5D13F
:100F5000681C03D05FEACA7005D015E04FF0FF307F
:100F600004B0BDE8F09F2068011D2160D0F800802A
:100F70000AE05FEACA7001D108F8015BA169761C3A
:100F800001987F1E88470546002F1ADD681C18D07F
:100F9000B9F1000F0DD0E81705EBD060421120F039
:100FA0001F0059F822102A1A012090400142E0D176
:100FB00007E0BBF1000FDCD12846216A88470028F2
:100FC000D7D0E16901988847BBF1000F07D1002E07
:100FD00005DD5FEACA7002D1002188F80010A06820
:100FE000B84203DDBBF1000F03D017B16FF0010071
:100FF000B6E73046B4E70000026811441378016098
:1010000018467047D16005497944516104497944D3
:10101000116200211161114600F0F8BDEDFFFFFFE4
:10102000A9030000426842B1016811F8013B23B1F5
:10103000521EC0E90012184670470121C160881E87
:10104000704742685AB1C368016843B983688B42EC
:1010500005D0491E521CC0E90012002070474FF015
:10106000FF3070472DE9FF4F4FF000089A461446B5
:10107000C146464683B0D2E901B7CDF80080CDF82D
:101080000480916904988847109905465AEA01003E
:1010900005D009E0A1690498761C88470546216AB5
:1010A000284688470028F5D1681C03D05FEACB703A
:1010B00005D02AE04FF0FF3007B0BDE8F08F206880
:1010C000011D2160D0F800801FE002A86A46E9B245
:1010D00001F0E1F9411C07D0801C09D04FF0000954
:1010E0005FEACB7007D00AE0E169049888473EE0E8
:1010F0004FF0010904E0BDF8081028F8021B7F1E1C
:10110000A1690498761C88470546002F1ADD681CE3
:1011100018D0BAF1000F0DD0E81705EBD0604211DE
:1011200020F01F005AF822102A1A01209040014294
:10113000CBD107E010980028C7D12846216A8847FC
:101140000028C2D0E16904988847B9F1000F0ED198
:10115000109830B9002E04DD5FEACB7001D1A8F8F9
:101160000000A068B84202DD109818B117B16FF006
:101170000100A1E730469FE72DE9FF4F4FF000083F
:101180009B461446454683B0D2E90196CDF80080CF
:10119000CDF804809169DDF848A004988847074697
:1011A0005BEA0A0005D009E0A16904986D1C884734
:1011B0000746216A384688470028F5D1781C03D0B5
:1011C0005FEAC97005D01BE04FF0FF3007B0BDE803
:1011D000F08F2068011D2160D0F8008010E05FEAE8
:1011E000C97007D16A464046B9B201F074F9411C92
:1011F00031D08044A1696D1C0498761E884707464B
:10120000002E14DD781C12D0BBF1000007D03B4645
:10121000DDE9101201F030F90028E0D107E0BAF161
:10122000000FDCD13846216A88470028D7D0E16911
:1012300004988847BAF1000F06D1002D04DD5FEA5B
:10124000C97001D188F80000A068B04203DDBAF18E
:10125000000F03D016B16FF00100B7E72846B5E7DD
:101260002DE9FF5F9B46144600273D469169D2E970
:101270000196DDF840A00198884780465BEA0A00A5
:1012800005D009E0A16901986D1C88478046216A54
:10129000404688470028F5D1B8F1FF3F03D05FEA08
:1012A000C97005D014E04FF0FF3004B0BDE8F09FE6
:1012B0002068011D216007680AE05FEAC97001D15A
:1012C00027F8028BA1696D1C0198761E884780461D
:1012D000002E15DDB8F1FF3F12D0BBF1000007D0A2
:1012E0004346DDE90E1201F0C7F80028E5D107E01A
:1012F000BAF1000FE1D14046216A88470028DCD0CE
:10130000E16901988847BAF1000F05D1002D03DD8E
:101310005FEAC97000D13880A068B04203DDBAF13D
:10132000000F03D016B16FF00100BEE72846BCE7FE
:1013300030B5B0F10A0271F100034FEA900E4EEAA7
:10134000817EB0EB0E0061EB91014FEA101E4EEA78
:10135000017E10EB0E0041EB11114FEA102E4EEA08
:10136000016E10EB0E0041EB11214FEA104E4EEAD8
:10137000014E10EB0E0041EB1141401841F100010C
:101380004FEAD00040EA41704FEAD1014FEA8104B0
:1013900044EA907410EB800544EB01046D1944EBB2
:1013A0000404521BA3414FF0000348BF0A3200D58A
:1013B00030BD401C41F1000130BD10B5044601F0C4
:1013C000D3F80068005D00F0010010BD2DE9F04782
:1013D0000D4699469246044600F1240801688806A5
:1013E00004D5E06921F01001216000E00120A8424D
:1013F00001DD471B00E00027A1697A1902EB090013
:10140000081AA0612078C00602D42046FFF77DF9B3
:10141000002608E0D4E901211AF806009047206A66
:10142000401C761C20624E45F4DB2078C0060AD5AD
:101430002046FFF76AF906E0D4E901213020904701
:10144000206A401C2062381EA7F10107F4DC07E087
:10145000D4E9012118F805009047206A401C206259
:10146000281EA5F10105F3DC2046FFF764F920787A
:10147000000602D50220BDE8F0870120FBE72DE938
:10148000FF4F0C461E464FF0FF378BB0D2E90001EC
:10149000DDF860800A908A46C1F30A5505B93D46D9
:1014A000002108464FF00000BAF1000F00F44000A0
:1014B00005DA00EB80004FF4400101EA50004FEAEA
:1014C0009059B9F1010F00DDB9460A9850EA4A0077
:1014D0000ED044F61050A5F2FF3545432F14B8F155
:1014E000000F1ED07542291E1EDDC9F100021CE04E
:1014F000B8F1010F4FF0000001D0302103E0F243BA
:1015000005E02154401CB042FBDB304600220021A4
:1015100021540B99C1F80880C1E900200FB0BDE843
:10152000F08FBD1B6D1CDEE74A4600DA694206A853
:1015300001F07EF806AB93E8070003AB83E80700F1
:1015400050460A9907F0F9FD8DE80700A0F5005014
:101550001F3800900398002D0ADD42F21F014A4611
:101560000844002303A90390684608F0A5F809E0A1
:10157000A0F500504A461F38002303A9039068468F
:1015800008F0C4F88DE807000004000C03D04FF009
:10159000FF30410800E01046B8F1000F03D00022F0
:1015A000009215461EE0751E05D4FFF7C1FE3032CD
:1015B00062556D1EF9D5B3460122084302D00022C0
:1015C0007F1C04E02078302801D100227F1E002AF1
:1015D000099784D01DE0112D07DAFFF7A9FE3032FC
:1015E00062556D1C50EA0102F5D1084302D0009803
:1015F000C8B10EE00021681E05E0235C625C635404
:101600002254401E491C8142F7DBAB46A81B401EFA
:101610000990002004F80B000B98099AC0F8088084
:10162000C0E9002B7AE711264FF0000857E72DE9B3
:10163000F04F88460446D21D22F0070191B0D1E94F
:101640000001CDE90A0108F0ADF902460B98C00F80
:1016500001D02D2007E02068810701D52B2002E072
:10166000202101EAC000032A099001D0072A05DBE6
:1016700003464146204600F09BFF0BE120788006A0
:1016800001D5E06900E00620B8F1650F814606D07B
:10169000B8F1660F18D0B8F1670F70D131E00020B3
:1016A000B9F1110F009001DB112301E009F10103F1
:1016B0000AAA01A90CA8FFF7E2FEDDE90C700026DA
:1016C00009F10105834647E001204B4600904FF0A9
:1016D00000470AAA01A90CA8FFF7D1FEDDE90DB069
:1016E0000C995D46002610B909F101000D18B9EBFF
:1016F000050003D4C0F1FF3609F10105A5EB09008F
:101700002BE0B9F1010F01DA4FF001090020B9F126
:10171000110F0090484601DD112300E003460AAA9C
:1017200001A90CA8FFF7ABFEDDE90C704D460026C1
:101730008346207800070AD4AB4500DA5D4601A84D
:10174000012D04DD411911F8011C302907D04F4546
:1017500002DA17F1040F04DA012082460FE06D1E51
:10176000EEE7002F02DCED1B3E4403E0781CA842AC
:1017700000DD7D1CB81B00F1010A4FF00047207806
:10178000000703D4AA4501DB4FF0FF3A0021B7F16F
:10179000004F0DF143088DF8431024D002202B2375
:1017A000002F01DA7F422D230A21021EA0F1010041
:1017B00000DC5FB197FBF1FC97FBF1F201FB1C7CB5
:1017C00017460CF1300C08F801CDEEE7A8F1010046
:1017D00003702188090501D5452100E06521A0F1AC
:1017E000010800F8011C09980FA9A1EB0807FF1DCB
:1017F00000B10120411901EBEA70A1693844081ACF
:10180000401EA0612078C00602D42046FEF77DFF6E
:10181000099828B1D4E901219047206A401C206230
:101820002078C00622D52046FEF76FFF1EE0002E6E
:1018300004DBB34502DD01A8805D00E03020D4E97F
:1018400001219047206A401C2062761CAAF1010009
:101850005FEA000A0AD100F08FFEC0680168405CB0
:10186000D4E901219047206A401C2062281EA5F17E
:101870000105DCDC07E0D4E9012118F8010B9047F1
:10188000206A401C2062381EA7F10107F3DC2046C5
:10189000FEF751FF032011B041E600002DE9F04FA3
:1018A00004460D46D21D22F0070089B0D0E900970A
:1018B0004846394608F076F80246F80F01D02D2345
:1018C00007E02068810701D52B2302E0202101EAEF
:1018D000C0038DF820300BB1012000E00020032A66
:1018E000824601D0072A04DB2946204600F060FE2C
:1018F0003FE12078800601D40D2500E0E569C7F3BB
:101900000A560D2D49DA00214FEA175B08464FF0C1
:101910000000002F00F4400007DA00EB80004FF4D5
:10192000400100EBD07001EA60008115012901DD62
:101930004FF0FF3100224FEA850CBCF1180F06D39F
:101940001346ACF118004FF08052C24003E04FF450
:10195000801323FA0CF30CF10C0CBCF1200F04D310
:10196000ACF1200C09FA0CF001E007FA0CF00029A8
:101970004FF0004801DD18B90FE00ED140450CD3FF
:1019800019EB02095F4121B9404502D19F4329EA81
:101990000209BBEB175F00D0761C2088000502D53A
:1019A0007B48784402E07A487844193808AA302302
:1019B00002F80A30037C0AF10101002E0AF1020A42
:1019C00053546A4602DC4FF0300101E04FF0310120
:1019D0004FF001088DF8001002D0A6F2FF3603E0A8
:1019E00059EA470100D06B4E002D02DC217809072F
:1019F00004D54FF002082E218DF80110C4460021B5
:101A00000BE0C7F303433F01C35C491C6D1E02F8A2
:101A10000830052908F1010801DA002DF1DC002168
:101A20000CE000EB1973491C1B786D1E082902F8A5
:101A300008304FEA091908F1010801DA002DF0DC3D
:101A400021688B0602D516E0A8F10108E04505DD06
:101A500002EB080313F8013C302BF5D0B8F1000F6E
:101A600009DD02EB080313F8013C2E2B03D1090713
:101A700001D4A8F10108002D05DD3E2102F808106F
:101A80006D1E08F10108407C002E02F8080008F1E4
:101A9000010804DA2D20764202F8080002E02B202B
:101AA00002F808000A214FF47A70864208F1010812
:101AB0000BDB96FBF0F3303302F8083096FBF0F3C3
:101AC00008F1010800FB136601E0642E0CDB6420C2
:101AD00096FBF0F3303302F8083096FBF0F308F190
:101AE000010800FB136601E00A2E06DB96FBF1F00D
:101AF000303002F8080008F1010896FBF1F001FB14
:101B00001060303002F80800A16908F1010808EB04
:101B1000050202EB0A00081AA0612078C00602D470
:101B20002046FEF7F2FD216A08AE01EB0A002062B2
:101B300004E0D4E9012116F8010B9047BAF1010A3B
:101B4000F7D22078C00602D52046FEF7DEFD6E46AD
:101B500009E016F8010B3E280FD0D4E90121904787
:101B6000206A401C2062B8F10108F2D22046FEF73C
:101B7000E2FD09B00320BDE8F08F206A284420620E
:101B800003E0D4E90121302090476D1EEBD3F8E744
:101B9000BE88000002FCFFFF10B5436913B1AFF32C
:101BA000008001E0FEF7EAFD012010BD127800F18F
:101BB00024010A7000224A700122EDE711684FF0FB
:101BC000FF32E9E710B5436913B1AFF3008001E0DC
:101BD000FEF76EFE012010BD128800F12401828400
:101BE0000022C2840122EDE711684FF0FF32E9E7DD
:101BF0003A2800D2303820F02002412A01D3A2F145
:101C00003700884201D34FF0FF3070472DE9F34F82
:101C10004FF0000A0C4656468DB001200C9001F1A1
:101C20000C000B9062690B9801219047051E2DD086
:101C3000252D2CD0216A8847C0B162690B980121FB
:101C40009047216A88470028F7D16269411E0B98A6
:101C5000904700E0761CA1690D988847216A884763
:101C60000028F7D1E1690D988847DBE7A1690D9855
:101C70008847A842074601D1761CD3E7E1690D9851
:101C800088477F1C02D1BAF1000F6FD06BE1626907
:101C90000B9800273D46394690472A2804D16269AF
:101CA0000B98012190470125DFF8D08262690B98DB
:101CB00001219047A0F130010A290AD24745E5DC0D
:101CC00007EB870100EB4107303FDFD445F01005FB
:101CD000ECE7E90601D46FF000476C280AD04C28E5
:101CE00014D0682815D06A280DD074281CD07A2802
:101CF0001AD01DE062690B98012190476C2802D030
:101D000045F0040514E045F002050DE045F020051E
:101D10000AE062690B9801219047682802D045F0DB
:101D2000080505E045F4006562690B9801219047BC
:101D3000C4E9015765283DD019DC58287AD00CDC5D
:101D4000452837D004DC252826D041289ED131E013
:101D500046282FD0472899D12CE05B2877D06128DE
:101D600028D063287CD0642823D15AE0F6E06F287D
:101D700048D008DC66281DD067281BD0692821D0F0
:101D80006E2816D127E0702845D0732868D07528B2
:101D900047D078280DD14DE0A1690D9888472528B6
:101DA00005463FF469AFE1690D9888476D1C3FF423
:101DB0006AAFD8E00D9923466A466FF0010008F03B
:101DC00008FAC5E045F0400023464FF0000260608D
:101DD000A80736D43EE0E8077FF447AF2068011D2E
:101DE00021600068290501D506701BE7290701D588
:101DF000068017E7A90703D5F117C0E9006111E7CD
:101E000006600FE745F0400023464FF0080260608F
:101E1000A80716D41EE040F60E0125EA0100606016
:101E200016E045F0400023464FF00A026060A80724
:101E300007D40FE045F040006060A80708D52346AE
:101E400010220D996FF00100FEF714FF80E007E00B
:101E5000102223460D996FF00100FEF7B6FF77E0E0
:101E60004FF0000963284F46C8464B46CB4602D088
:101E70005B2806D038E0E80601D40120A0600127E5
:101E800032E06269D4F80CB00B98012190475E28CB
:101E900007D14FF0010949466269D4F80CB00B989C
:101EA0009047216939B900210A4603AB43F8212044
:101EB000491C0829FADBD8B3216949B308F10108A4
:101EC00062690B98012190475D28F4D1B9F1000FA8
:101ED00009D0002003A951F82020D24341F8202046
:101EE000401C0828F7DB03AB2069002820794FEA63
:101EF00040701ED05B462246CDF80080CDE90197A8
:101F00000D9900286FF0010020DAFFF7A9F91FE012
:101F1000C11703AA00EBD1614B1121F01F0102EBA5
:101F20008302411A13680120884003431360C7E706
:101F300019E00D99224600286FF00100009702DA9F
:101F4000FFF790F804E0FEF7E6FF01E0FFF714F971
:101F500000280ADA401C06D10C9820B14FF0FF305F
:101F60000FB0BDE8F08F5046FAE7E90701D10AF15A
:101F7000010A064400200C9054E60000CCCCCC0CA6
:101F80002DE9FF4F06468BB00878FF2806D0491C84
:101F90002D2805D000244FF0000908E000200CE0B7
:101FA0000124F8E709EB8903491C00EB4309087891
:101FB000FF28F7D114B1C9F100008146107800253F
:101FC0002C46AA4629462D2801D02B2804D1521C84
:101FD0002D2813D0002082468B461078FF280FD082
:101FE0004FF0000C0A21521CA5FB017804FB018173
:101FF00005FB0C11C5194BEB0104EEE70120EAE7E4
:10200000002108464FF00000BAF1000F02D000EBAB
:1020100080004008C0F38157012F01DD4FF0FF37EA
:102020000E9955EA040009EB01080BD04FF00209A4
:1020300018F5FA7F16DA4FEACA70002F706008DDD3
:10204000012007E04FEACA70C6E900B00FB0BDE852
:10205000F08F0020306000F093FAC0F80090182153
:10206000084616E0B8F5FA7F18DD002F02DAF748C7
:10207000784401E0F6487844D0E90010C6E9001041
:1020800040EACA70706000F07BFAC0F8009014213A
:1020900008460FB0BDE8F04F08F034B800210846FC
:1020A0004FF00000B8F10001099002DAC7F1000218
:1020B00000E03A4601DAC8F1000106A800F0B8FADB
:1020C00006AB93E8070003AB83E8070044F23E0049
:1020D0005BEA04010090584604D144F21E012C46EC
:1020E0005D460091210C0904014306D100992404A6
:1020F00044EA15442D041039009104F07F41014356
:1021000006D10099240244EA15642D020839009191
:1021100004F07041014306D10099240144EA15748A
:102120002D01091F009104F04041014306D100999F
:10213000A40044EA9574AD00891E009104F00041AA
:10214000084304D100986D196441401E00904FF07F
:1021500001033A466846B8F1000FCDE9014503A9ED
:1021600002DD07F0E8FA01E007F0BBFABAF1000F70
:1021700004460D4601D084F00044002108464FF08B
:102180000000099940F2FF77484010F00C0F07D18A
:1021900024F00040284303D0C4F30A50B84212D1BF
:1021A00000F0EEF9C0F80090C4F30A50B8420AD12A
:1021B000A8487844D0E90010C6E9001004F00041B6
:1021C0000843706042E7C6E900543FE72DE9FF4F3E
:1021D0001F464FF0000A4FF0FF38454691B0D7E94F
:1021E0000146CDF83CA000F0C7F9C0680168405C2A
:1021F0001090B96912986D1C8847396A81468847E2
:102200000028F6D1B9F1FF3F0AD0002E24F4D064A3
:1022100011DDB9F12B0F08D0B9F12D0F0BD102E070
:10222000404615B013E744F48064B96912986D1CF8
:102230008847761E8146600504A901D52D2000E05F
:102240002B20002E01F1010B0DF130088DF810004C
:102250003FDDB9F1690F08D0B9F1490F05D0B9F1E7
:102260006E0F02D0B9F14E0F1CD13B4601A800956C
:1022700080E85002DDE912126FF0020007F0ADFFB6
:10228000C11CCED10EE0B96912986D1C88478146F9
:102290001398761E44F4007405600F98401C002EBD
:1022A0000F9016DDB9F1300FEDD0B9F1780F02D0F3
:1022B000B9F1580F0DD10F9801280AD13B46CDE94D
:1022C0000054DDE91212001F029607F084FFC11CC2
:1022D000A7D1109989453ED144F0800406E01399B6
:1022E000681CAAF1010A44F400740860B9696D1C05
:1022F0001298761E884730288146F0D02BE010993E
:10230000894505D1200603D4761E44F0800418E0E8
:10231000484607F078FC08B3761E0DF1230293457A
:10232000A9F1300044F4007406D20BF8010B20062A
:1023300007D5AAF1010003E0200602D40AF101004A
:102340008246A00502D51399681C0860B9691298E5
:102350006D1C88478146002ED1DC53E0002E51DDF4
:10236000B9F1650F02D0B9F1450F4BD1A00549D5A0
:10237000B9696D1C1298761E24F440748847002EAB
:1023800081460CDD2B2804D0B9F12D0F07D144F480
:102390008074B96912986D1C8847761E8146E005E5
:1023A00001D52D2100E02B2108F8011BCDF800807C
:1023B00021E0761E0DF13901884544F400740CD2F9
:1023C000A9F1300010F0FF0088F8000002D1009958
:1023D000884509D908F1010806E0E00501D51E4845
:1023E00001E042F20F708246B96912986D1C88476D
:1023F000814613980560002E04DD484607F003FC73
:102400000028D6D1F96912988847FF2053468BF8E7
:10241000000088F8000000200A900B9004AA0CA984
:102420000AA8FFF7ADFDA00502D46FF00100F8E6A1
:1024300014F0240F12D0E0071CD13868DDE90A122D
:10244000031D3B600068C0E9001213E0AC9A000075
:102450009E9A000062990000F1D8FFFF0AA9684621
:1024600007F0BEFBE00705D13868009A011D39600E
:10247000006802602846D4E610B508E030F8024B48
:102480009C4204D10AB1002010BD012010BD491E9C
:10249000F4D2104610BDF8B516460C46054600F0BD
:1024A00063F8036893F80101012804D0185D78B13E
:1024B00001202C80F8BDD3F803013246214603F2F7
:1024C0000313C71868460023B84700992980F8BD50
:1024D0004FF0FF30F8BD2DE9F04116460C46054699
:1024E00000F042F8036893F80101012807D0FF2C9F
:1024F00012D8185D80B101202C70BDE8F081D3F8AE
:1025000007013246214603F20713C7182846BC4686
:10251000BDE8F041002360474FF0FF30EDE775461E
:1025200000F002F9AE4605006946534620F0070068
:10253000854618B020B5FDF7F1FEBDE820404FF00C
:1025400000064FF000074FF000084FF0000BAC46BC
:10255000ACE8C009ACE8C009ACE8C009ACE8C00907
:1025600021F007018D46704710B500F005F8001DF9
:1025700010BD00BF5D770000004870474800002094
:102580000048704728000020B2F120030AD5C2F1AC
:10259000200301FA02F120FA03F341EA030100FAF1
:1025A00002F0704700FA03F14FF00000704700009E
:1025B0002DE9F0411F46044603260168072A01F46D
:1025C000006004DB08B116A505E016A503E008B11C
:1025D00015A500E015A521F010002060A069C01E1F
:1025E000A0610FB1401EA0612046FEF78EF84FB1EA
:1025F000D4E9012138469047206A401C2062C01C63
:10260000206206E0206AFAE7D4E9012115F8010BFF
:102610009047761EF8D22046FEF78DF8BDE8F0818F
:102620004E414E006E616E00494E4600696E660076
:102630002DE9F047814616468AB0354878440DC8E2
:102640008DE80D0032487844801C03AC0DC884E846
:102650000D0041F69B300844372190FBF1F290FBCE
:10266000F1F5A5F1800501FB12041B3C02D5644283
:10267000012000E00020DFF898A080460027FA44FF
:10268000AAF1BE0A0EE0E0070AD03246684607EB20
:10269000470101230AEB810107F038F88DE80700B4
:1026A00064107F1C002CEED1194F7F44AE3F19E01F
:1026B000E80715D007EB04100DF1180A90E80E009A
:1026C0008AE80E00C068F04201D19819089032469D
:1026D000012306A903A807F019F803AB83E8070054
:1026E0006D10641C002DE3D14FF0010332466946A2
:1026F000B8F1000F03A802D006F0DEFF01E007F0FA
:1027000005F8C9E90001C9F808200AB0BDE8F0875A
:10271000B47C000010B50446AFF300802046BDE84D
:102720001040FDF7E6BD000000487047280000207B
:1027300010B5FFF725FF006810BD10B50446FFF780
:102740001FFF046010BD00002DE9FF4F1F464FF032
:102750003C0987B04FF00042DDE9141001F1010897
:10276000DDF858A002EA405003900020059083460F
:10277000054604460490B969461E08988847AAF1A0
:10278000010A0290BAF1000F3BDD02982E2815D005
:102790001021FFF72DFA00282EDB4FF0010B0599D1
:1027A000014317D0B9F1000F0BDB4A46C117FFF701
:1027B000EBFE05430C43A9F1040905E00120049058
:1027C0000BE008B145F0010501200590049820B9FF
:1027D000361D02E0049800B1361FB969089808F167
:1027E00001088847BBF1000FAAF1010A0290C9D085
:1027F0000999C1F80080C5E70298702808D05028D0
:1028000006D0F96908988847BBF1000F14D04FE053
:10281000002002900120BBF1000F049009D0B9699B
:10282000089808F101088847AAF10109B9F1000FD9
:1028300007DCF969089888476FF001000BB0BDE824
:10284000F08F2B2804D02D280CD14FF0FF300490AE
:10285000B969089808F101088847A9F10109B9F197
:10286000000FE6DD411CE4D00A21FFF7C1F9002882
:10287000DFDB029908F1010801EB810100EB410067
:102880000290B969089888470A21FFF7B1F9099AB7
:10289000A9F10109B9F1000FC2F8008001DD00289B
:1028A000E7DAF969089888470499029800FB0166FD
:1028B00055EA040004D004F04041090002D006E0CB
:1028C000039898E0A40044EA9574AD00B61E04F0A5
:1028D0000041080002D16D196441761E159810F070
:1028E000240F03D04FF00B095C4803E04FF0280998
:1028F0006FF07D008246564507DAAAEB060189444F
:10290000B9F1410F01DD4FF0410901200021A9F18A
:102910000102FFF739FE024628400B4621400843DA
:1029200001D0012100E00021501E029143F1FF314E
:1029300028402140084301D0012000E000200299F6
:10294000834651EA0B014FD0002108464FF00000AA
:10295000039900F4400039B100EB80004FF44001CE
:1029600000EBD07001EA60008015012802DD4FF015
:10297000FF3000E013D0401C36D0029860B3BBF1AA
:10298000000F0CD14A4601200021FFF7FDFD284031
:102990002140084301D0012000E00020E0B10120E7
:1029A0004A460021FFF7F0FD034640190A466141FF
:1029B0002D1A8C4111D3B9F1400F09DD159810F093
:1029C000240F02D0AAF1340603E0AAF1170600E0B2
:1029D000761C00254FF0004406E05B1E42F1FF32FA
:1029E00020EA030521EA0204CAF10100B04206DA36
:1029F0001B49039808430190002000900EE0039AC1
:102A0000C4F3D321E80A0A43164940EA44500A4372
:102A10003146CDE90002684607F0EBF8159810F052
:102A2000240F0BD01598C00715D13868DDE90012C6
:102A3000031D3B600068C0E900120CE002A8694673
:102A400007F0CEF81598C00705D13868029A011D25
:102A50003960006802604046F0E6000002FCFFFFBB
:102A60000000F07F0000F03F2DE9FF4F92461D4629
:102A700085B04FF00041DDE9124BDDE914727F1E95
:102A800001EA4B50414940F0FF4940EA010800216A
:102A900022F020004928049102D04E2828D04CE092
:102AA0003BA0012607C88DE80700A9690698641CA9
:102AB00088477F1E014606D41DF8060018B121F094
:102AC000200181420BD0E96906988847032E34D053
:102AD000082E32D06FF0010009B0BDE8F08F761CEF
:102AE000032E01D0082EE0D1601CCAF80000DCE7FC
:102AF000A9690698641C88477F1E2AD420F020000C
:102B0000412826D1A9690698641C88477F1E20D4D5
:102B100020F020004E281CD1A9690698641C884723
:102B20007F1E48F4002849F48009CAF8004001D407
:102B3000282806D0E969069888475FEACB7012D04A
:102B400022E0A9690698641C88477F1E01D40028EA
:102B500003DAE96906988847BCE72928F1D1641CA3
:102B6000CAF80040E9E71BF0240F07D02868049951
:102B7000031D2B600068C0E9001805E02868021DED
:102B80002A600068C0F800902046A5E70000F07FAA
:102B9000494E46494E495459000000000149182049
:102BA000ABBEFEE7260002007047000080B586B08D
:102BB00040F2CC00C2F20000007880B3FFE701F0E1
:102BC000BFF90590059840F2D001C2F200010968F2
:102BD000401A40F21C01C2F20001098888421DD34C
:102BE000FFE7059840F2D001C2F200010860002022
:102BF00004F07AFF0490012004F076FF0390022095
:102C000004F072FF0290032004F06EFF019004981C
:102C10000399029A019B00F0F5F9FFE7FFE706B080
:102C200080BD000080B588B040F28800C2F200008C
:102C30000078012840F0D980FFE74AF2B230C0F6B0
:102C4000000000F0FDF940F28900C2F2000001909E
:102C500000F0F6F94AF2A530C0F6000000F0F0F9F5
:102C600001984AF2A931C0F600010822FDF777FC6D
:102C7000B0B9FFE700200790069040F28900C2F249
:102C800000004AF2CF31C0F6000107AA06ABFDF7FB
:102C900029FCBDF91C00BDF9181004F06FFF9DE080
:102CA00040F28900C2F200004AF20C41C0F6000175
:102CB000FDF7EAFC18B9FFE700F072F98DE040F289
:102CC0008900C2F200004AF20741C0F60001FDF798
:102CD000DBFC60B1FFE740F28900C2F200004AF27B
:102CE000F231C0F60001FDF7CFFCB8B9FFE70020D4
:102CF00004F0FAFE0590012004F0F6FE0490022094
:102D000004F0F2FE0390032004F0EEFE029005981A
:102D10000499039A029B00F075F95DE040F2890086
:102D2000C2F200004AF2F431C0F60001FDF7ACFC3B
:102D300060B1FFE740F28900C2F200004AF2B73109
:102D4000C0F60001FDF7A0FC18B9FFE700F052F94A
:102D500041E040F28900C2F200004AF2EA31C0F6D6
:102D60000001FDF791FCA0B9FFE740F2CC01C2F2EF
:102D700000010120087001F0E3F840F2D001C2F236
:102D8000000108604AF29A30C0F6000000F058F9DD
:102D900020E040F28900C2F200004AF2EF31C0F6B2
:102DA0000001FDF771FC68B9FFE740F2CC01C2F207
:102DB0000001002008704AF28C30C0F6000000F0DC
:102DC0003FF906E040F28900C2F2000000F010F87E
:102DD000FFE7FFE7FFE7FFE7FFE7FFE740F28801D4
:102DE000C2F2000100200870FFE708B080BD0000BB
:102DF00080B598B009A90691179000200790169009
:102E00001590149013901290119010900F900E90B6
:102E100017986A460EA991600FA9516010A9116018
:102E20004AF2BB31C0F6000112AA11ABFDF75AFB02
:102E3000052840F09780FFE74AF2E131C0F6000133
:102E400012A8FDF721FC20BBFFE7BDF940006FF0A1
:102E5000630104916422059206F0A6F80499059A8C
:102E6000ADF83600BDF9440006F09EF80499059AC5
:102E7000ADF83400BDF93C0006F096F8ADF832002C
:102E8000BDF93600BDF93410BDF9322004F050FD13
:102E900067E04AF2FF31C0F6000112A8FDF7F4FB2B
:102EA00008B9FFE75CE04AF2DD31C0F6000112A884
:102EB000FDF7EAFB002852D1FFE7069811998DF83B
:102EC000311090ED070AB8EEC00A9FED271A80EE88
:102ED000010A80ED020A90ED060AB8EEC00A80EE03
:102EE000010A80ED010A90ED050AB8EEC00A80EEF5
:102EF000010A80ED000A9DF8310003280CDCFFE791
:102F000006999DF8310091ED020AD1ED010A91ED8B
:102F1000001A04F005FE21E09DF8310004281CD1C0
:102F2000FFE700208DF82300FFE79DF8230003282A
:102F300012DCFFE706999DF8230091ED020AD1ED1E
:102F4000010A91ED001A04F0EBFDFFE79DF8230064
:102F500001308DF82300E8E7FFE7FFE7FFE7FFE731
:102F6000FFE7FFE718B080BD0000C84280B540F21F
:102F70008900C2F200004021FDF73CFB40F2CB018A
:102F8000C2F200010020087040F2CA01C2F2000142
:102F9000087040F28801C2F20001087080BD000094
:102FA00080B5A8B0002004F09FFD0790012004F038
:102FB0009BFD0690022004F097FD0590032004F08D
:102FC00093FD0490079B0698059ADDF810C06946AA
:102FD000C1F808C04A6008604AF23042C0F60002F8
:102FE00008A803908021FDF75DFA039800F028F807
:102FF00028B080BD80B54AF21240C0F6000000F053
:103000001FF880BD80B5A8B0279026912592249303
:10301000279B2698259ADDF890C06946C1F808C01C
:103020004A6008604AF21A42C0F6000204A80390FF
:103030008021FDF737FA039800F002F828B080BD30
:1030400080B582B0019001980090FDF769FA00996F
:1030500082B240F67800C2F20000642303F004FE5E
:1030600002B080BD80B540F67800C2F2000040F2A8
:10307000C901C2F20001012203F02CFD80BD000055
:10308000FFE7FEE780B582B000208DF80700FFE77C
:103090009DF8070003280CD8FFE79DF807000021E2
:1030A00000F098F8FFE79DF8070001308DF8070061
:1030B000EEE702B080BD000080B588B0FFE70020D9
:1030C000079043F63000C4F20200016841F00101AC
:1030D0000160006800F0010007900798FFE7FFE734
:1030E0000020069043F63000C4F20200016841F06F
:1030F00002010160006800F0020006900698FFE7F8
:10310000FFE70020059043F63000C4F2020001689A
:1031100041F010010160006800F010000590059872
:10312000FFE7FFE70020049043F63000C4F20200FE
:10313000016841F020010160006800F02000049067
:103140000498FFE740F2A850C2F20000019000216D
:10315000029102F015FE019902980968486340F255
:103160000040C4F20200032105F006FF41F20040D6
:10317000C4F202004FF4C04105F0FEFE41F200002F
:10318000C4F202004FF4905105F0F6FE0020C4F2A4
:103190000200302105F0F0FE02988DF80F00FFE7E5
:1031A0009DF80F00032813D8FFE79DF80F0000EBF0
:1031B00040014AF22C30C0F6000000EBC10005F0DF
:1031C00087FFFFE79DF80F0001308DF80F00E7E75C
:1031D00008B080BD80B58AB08DF82700ADF8241006
:1031E0009DF82700042801D3FFE78FE0BDF92400F4
:1031F000652804DBFFE76420ADF82400FFE7BDF994
:10320000240010F1650F05DCFFE74FF69C70ADF868
:103210002400FFE79DF8270000EB40014AF22C3024
:10322000C0F6000000EBC10008900898807D28B12E
:10323000FFE7BDF924004042049003E0BDF92400FB
:103240000490FFE70498ADF81E00BDF91E000128A8
:1032500004DBFFE7089805F04DFF0EE0BDF91E0006
:10326000B0F1FF3F04DCFFE7089805F055FF03E0ED
:10327000089805F01BFFFFE7FFE708980068006863
:10328000C06A01300690BDF91E000290002803902C
:1032900002D502984042039003980699484348F2A9
:1032A0001F51C5F2EB11A0FB0110400905900898D1
:1032B000406830B9FFE705980899096809684863CC
:1032C00023E008984068042807D1FFE7059808998B
:1032D000096809688863019015E008984068082823
:1032E00007D1FFE70598089909680968C863009045
:1032F00006E0059808990968096808640090FFE7E6
:1033000000980190FFE70198FFE7FFE70AB080BD52
:1033100080B584B040F21070C2F2000000900268E4
:1033200000210191D163026811640821029102F029
:1033300041FC00980C2102F03DFC019940F2A8509C
:10334000C2F200000390026891630268D163042115
:1033500002F030FC0299039802F02CFC04B080BD0E
:1033600080B540F25420C2F2000000F08BF980BD1D
:1033700080B540F29410C2F2000000F083F980BDE5
:1033800080B540F2F410C2F2000000F07BF980BD7D
:1033900080B540F2D430C2F2000000F073F980BD75
:1033A00080B540F23440C2F2000000F06BF980BDFD
:1033B00080B540F2B420C2F2000000F063F980BD95
:1033C00080B540F29440C2F2000000F05BF980BD8D
:1033D00080B540F21430C2F2000000F053F980BD15
:1033E00080B540F2F440C2F2000000F04BF980BD1D
:1033F00080B540F27430C2F2000000F043F980BDA5
:1034000082B001900198007810384AF6AB21CAF6D4
:10341000AA21A0FB01100009009000994AF2243073
:10342000C0F60000405C0199C8650098042807D3E5
:10343000FFE701990868042262F30900886506E045
:103440000199086840F2FF3290438865FFE70198D0
:10345000806D02B07047000086B0059000208DF8A6
:1034600013000598806A03900598806910BBFFE7F8
:103470000398029003281BD80299DFE801F0020D9F
:103480000218059890F82F00C00720B1FFE701202F
:103490008DF81300FFE70CE00598C06AB0F1C07F1B
:1034A00004D1FFE701208DF81300FFE701E000E001
:1034B000FFE745E005988069B0F5005F25D1FFE79B
:1034C0000398019003281ED80199DFE801F0020655
:1034D000021101208DF8130016E0059890F82F00D6
:1034E000C00720B1FFE701208DF81300FFE70BE0D4
:1034F0000598C06AB0F1C07F04D1FFE701208DF8C4
:103500001300FFE700E0FFE719E0039800900328AD
:1035100004D3FFE70098032804D00EE001208DF8C3
:1035200013000BE0059890F82F00C00720B1FFE7CB
:1035300001208DF81300FFE700E0FFE7FFE7FFE75A
:103540009DF8130006B070477047000072B6FFE7A1
:10355000FEE7000080B584B002900298806D019073
:1035600000F0EEFC0090029890F8350002280DD093
:10357000FFE7029980204865FFE70299002081F863
:103580003400FFE701208DF80F0055E00298016834
:10359000086820F01600086002980168486920F069
:1035A000800048610298006C20B9FFE70298806CA7
:1035B00038B1FFE702980168086820F00800086049
:1035C000FFE702980168086820F001000860FFE743
:1035D000029800680068C007C8B1FFE700F0B0FCBF
:1035E0000099401A062811D3FFE702992020486568
:1035F0000299032081F83500FFE70299002081F845
:103600003400FFE703208DF80F0015E0E0E7029893
:10361000C16D3F208840019988600299012081F89E
:103620003500FFE70299002081F83400FFE7FFE74B
:1036300000208DF80F00FFE79DF80F0004B080BD5B
:1036400082B00090009890F83500022807D0FFE77C
:1036500000998020486501208DF807000EE0009950
:10366000052081F8350000980168086820F0010005
:103670000860FFE700208DF80700FFE79DF80700CE
:1036800002B0704780B586B005900020039040F2EC
:103690001800C2F20000006848F2B511C1F64E31C0
:1036A000A0FB0110800A02900598806D019001989E
:1036B0000068049004980599C96DC8400007002867
:1036C0001AD5FFE70598006800684007002812D562
:1036D000FFE705980168086820F004000860059875
:1036E000C16D08208840019988600599486D40F0B7
:1036F00001004865FFE7FFE704980599C96DC840D8
:10370000C007A0B1FFE705980068406900060028DF
:103710000CD5FFE70598C16D0120884001998860AC
:103720000599486D40F002004865FFE7FFE70498FF
:103730000599C96DC8404007002814D5FFE70598D2
:1037400000680068800700280CD5FFE70598C16D68
:1037500004208840019988600599486D40F0040074
:103760004865FFE7FFE704980599C96DC840C006A2
:10377000002847D5FFE70598006800680007002883
:103780003FD5FFE70598C16D1020884001998860FA
:10379000059800680068400300281AD5FFE70598DF
:1037A000006800680003002809D4FFE70598006C52
:1037B00020B1FFE70598016C8847FFE708E005980E
:1037C000806C20B1FFE70598816C8847FFE7FFE731
:1037D00016E0059800680068C005002807D4FFE7D8
:1037E00005980168086820F008000860FFE7059860
:1037F000006C20B1FFE70598016C8847FFE7FFE701
:10380000FFE7FFE704980599C96DC84080060028C6
:1038100040F18D80FFE7059800680068C006002829
:1038200040F18480FFE70598C16D20208840019910
:103830008860059890F83500052834D1FFE7059891
:103840000168086820F0160008600598016848695A
:1038500020F0800048610598006C20B9FFE70598CA
:10386000806C38B1FFE705980168086820F008000F
:103870000860FFE70598C16D3F2088400199886086
:103880000599012081F83500FFE70599002081F8AE
:103890003400FFE70598006D20B1FFE70598016D42
:1038A0008847FFE77BE00598006800684003002830
:1038B0001AD5FFE70598006800680003002809D4BE
:1038C000FFE70598406C20B1FFE70598416C8847F9
:1038D000FFE708E00598C06B20B1FFE70598C16BD2
:1038E0008847FFE7FFE720E0059800680068C0050B
:1038F000002811D4FFE705980168086820F010003F
:1039000008600599012081F83500FFE7059900203E
:1039100081F83400FFE7FFE70598C06B20B1FFE7AF
:103920000598C16B8847FFE7FFE7FFE7FFE70598CA
:10393000406DA0B3FFE70598406DC00730B3FFE7C7
:103940000599052081F8350005980168086820F080
:1039500001000860FFE70398013003900299884254
:1039600001D9FFE707E0FFE7059800680068C00796
:103970000028F0D1FFE70599012081F83500FFE725
:103980000599002081F83400FFE7FFE70598C06C37
:1039900020B1FFE70598C16C8847FFE7FFE706B055
:1039A00080BD000080B586B004900020039000F038
:1039B000C7FA0290049820B9FFE701208DF817009C
:1039C000A3E00498406A08B1FFE7FFE704990220EA
:1039D00081F83500FFE70499002081F83400FFE703
:1039E00004980168086820F001000860FFE7049867
:1039F00000680068C00790B1FFE700F0A1FA0299E3
:103A0000401A06280AD3FFE7049920204865049944
:103A1000032081F835008DF8170076E0E7E7049879
:103A2000006800680390039848F23F01CFF210014C
:103A300008400390049900914868D1F808C0CB6809
:103A40000A6940EA0C00184310434A6910438A6926
:103A50001043CA691043096A01430398084303905D
:103A60000498406A042808D1FFE70499C86A096BE2
:103A70000143039808430390FFE7039804990968FA
:103A800008600498006840690390039820F00700DC
:103A900003900498416A0398084303900498406A8D
:103AA00004281AD1FFE70498816A03980843039019
:103AB0000498C06A80B1FFE70498FFF7CDFC50B1CD
:103AC000FFE70499402048650499012081F83500FA
:103AD0008DF8170019E0FFE7FFE7039804990968DC
:103AE00048610498FFF78CFC01900498C16D3F2059
:103AF000884001998860049900204865049A012152
:103B000082F835108DF81700FFE79DF8170006B012
:103B100080BD000080B584B0039000F011FA0290DF
:103B2000039801900198013048B1FFE740F21E0070
:103B3000C2F200000178019808440190FFE7FFE716
:103B400000F0FEF90299401A0199884201D2FFE77C
:103B5000F6E704B080BD00008EB00D900C910020FF
:103B60000A90099008900B90FFE70B980F2800F23D
:103B7000CC81FFE70B99012088400A900C980068DF
:103B80000A990840099009980A99884240F0B8813A
:103B9000FFE70C98406800F00300012807D0FFE71A
:103BA0000C98406800F0030002282FD1FFE70D9821
:103BB000806808900B984100032000FA01F10898F2
:103BC000884308900C98C0680B99490000FA01F1ED
:103BD00008980843089008980D9988600D984068E7
:103BE00008900B99012000FA01F108988843089089
:103BF0000C984068C0F300100B9900FA01F1089886
:103C00000843089008980D994860FFE70C984068B1
:103C100000F00300032818D0FFE70D98C068089053
:103C20000B984100032000FA01F10898884308909E
:103C30000C9880680B99490000FA01F10898084334
:103C4000089008980D99C860FFE70C98406800F04C
:103C50000300022826D1FFE70D980B996FF00302AD
:103C600002EA51010844006A08900B9800F007002E
:103C700081000F2000FA01F10898884308900C9801
:103C800000690B9901F00701890000FA01F1089819
:103C90000843089008980D990B9B02EA53021144BF
:103CA0000862FFE70D98006808900B984100032018
:103CB00000FA01F10898884308900C98406800F0D9
:103CC00003000B99490000FA01F108980843089095
:103CD00008980D9908600C9880798007002800F0FA
:103CE0000E81FFE7FFE70020079043F64400C4F28F
:103CF0000200016841F480410160006800F48040E6
:103D000007900798FFE70B9820F0030043F608019F
:103D1000C4F20101405808900B9800F003008100A4
:103D20000F2000FA01F10898884308900D980021AF
:103D3000C4F20201884203D1FFE7002006905EE052
:103D40000D9840F20041C4F20201884203D1FFE71E
:103D50000120059050E00D9840F60001C4F20201E8
:103D6000884203D1FFE70220049042E00D9840F61C
:103D70000041C4F20201884203D1FFE7032003900F
:103D800034E00D9841F20001C4F20201884203D1EF
:103D9000FFE70420029026E00D9841F20041C4F2B2
:103DA0000201884203D1FFE70520019018E00D9839
:103DB00041F60001C4F20201884203D1FFE7062068
:103DC00000900AE00D9941F60042C4F20202082078
:103DD000914208BF07200090FFE700980190FFE79D
:103DE00001980290FFE702980390FFE70398049080
:103DF000FFE704980590FFE705980690FFE706980F
:103E0000C0B20B9901F00301890000FA01F1089892
:103E10000843089008980B9921F0030143F6080223
:103E2000C4F20102885043F60840C4F20100006861
:103E3000089009990898884308900C988079C006E2
:103E4000002805D5FFE70999089808430890FFE77F
:103E5000089843F60841C4F20101086043F60C409B
:103E6000C4F20100006808900999089888430890F6
:103E70000C9880798006002805D5FFE709990898F5
:103E800008430890FFE7089843F60C41C4F201018B
:103E9000086043F60440C4F20100006808900999E4
:103EA0000898884308900C9880798007002805D5E9
:103EB000FFE70999089808430890FFE7089843F638
:103EC0000441C4F20101086043F60040C4F201005D
:103ED0000068089009990898884308900C988079A0
:103EE000C00728B1FFE70999089808430890FFE741
:103EF000089843F60041C4F201010860FFE7FFE7BC
:103F0000FFE70B9801300B902FE60EB070470000D2
:103F100082B00190ADF802108DF801209DF80100EB
:103F200028B1FFE7BDF802000199886105E0BDF8FE
:103F30000200000401998861FFE702B070470000A9
:103F400040F69810C2F200000068704780B58EB04D
:103F50000C900C9820B9FFE701208DF8370043E161
:103F60000C9890F83D0040B9FFE70C99002081F8CB
:103F70003C000C9800F03CF9FFE70C99242081F8F4
:103F80003D000C980168086820F0010008600C985A
:103F90000168086840F4004008600C9801680868EF
:103FA00020F40040086000F059FB0A900C9840682B
:103FB00048F2A061C0F2010188420BD8FFE70A99DC
:103FC00048F28042C0F21E020020914238BF012018
:103FD00009900AE00A9940F60012C0F23D02002062
:103FE000914238BF01200990FFE70998012804D1C8
:103FF000FFE701208DF83700F6E00A984DF683615F
:10400000C4F21B31A0FB0110800C0B900C980068CF
:10401000406820F03F000B9908430C9909684860FC
:104020000C980068006A20F03F0008900C984068E7
:1040300048F2A061C0F20101884204D8FFE70B9862
:10404000013007900EE00B984FF49671484344F608
:10405000D351C1F26201A0FB0101012000EB9110DC
:104060000790FFE70898079908430C9909680862C8
:104070000C980068C0694CF6FF71884306900C9854
:10408000406848F2A061C0F2010188421FD8FFE7F2
:104090000A9801380C9949684900B0FBF1F00130E9
:1040A0006FF31F30032803D8FFE7042005900BE0CF
:1040B0000A9801380C9949684900B0FBF1F00130C9
:1040C0006FF31F300590FFE7059804904CE00C98C3
:1040D000806868B9FFE70A9801380C99496801EBD4
:1040E0004101B0FBF1F001306FF31F3003900DE0A0
:1040F0000A9801380C99496819225143B0FBF1F034
:104100000130042161F31F300390FFE7039800059D
:1041100018B9FFE70120029023E00C98806868B985
:10412000FFE70A9801380C99496801EB4101B0FB9F
:10413000F1F001306FF31F3001900DE00A98013863
:104140000C99496819225143B0FBF1F00130042168
:1041500061F31F300190FFE7019840F400400290A6
:10416000FFE702980490FFE70698049908430C992A
:104170000968C8610C980068006820F0C0000C9BBA
:104180001968DA691B6A1A43104308600C980068C2
:10419000806848F2FF3188430C9A1168D36812692D
:1041A0001A43104388600C980068C06820F0FF0034
:1041B0000C9B19685A699B691A431043C8600C9894
:1041C0000168086840F0010008600C99002008644C
:1041D0000C9A202182F83D100C9908630C9981F803
:1041E0003E008DF83700FFE79DF837000EB080BD28
:1041F00080B588B007900020069005900490039049
:1042000002900798006845F20041C4F2000188421C
:1042100035D1FFE7FFE70020019043F63000C4F2FC
:104220000200016841F002010160006800F0020034
:1042300001900198FFE74FF4407002901220039024
:1042400000200490032005900420069040F20040D6
:10425000C4F2020002A9FFF77FFCFFE700200090F4
:1042600043F64000C4F20200016841F4001101600D
:10427000006800F4001000900098FFE7FFE708B026
:1042800080BD000040F21E00C2F20000027840F63D
:104290009811C2F2000108681044086070470000DD
:1042A00080B543F60041C4F20201086840F4007092
:1042B0000860086840F480600860086840F4807016
:1042C0000860032000F08AF80F2000F005F800F0E5
:1042D0003BF8002080BD000080B582B0009040F225
:1042E0001800C2F20000006840F21E01C2F2000194
:1042F0000A784FF47A71B1FBF2F1B0FBF1F000F003
:10430000A5FD20B1FFE701208DF8070018E0009817
:104310000F280DD8FFE700994FF0FF30002200F082
:1043200043F8009840F22001C2F20001086003E067
:1043300001208DF8070003E000208DF80700FFE75B
:104340009DF8070002B080BD82B0FFE70020019019
:1043500043F64400C4F20200016841F48041016068
:10436000006800F4804001900198FFE7FFE700201B
:10437000009043F64000C4F20200016841F0805111
:104380000160006800F0805000900098FFE702B0E4
:104390007047000080B582B08DF807009DF90700D6
:1043A00004F08AFD02B080BD80B586B08DF817009C
:1043B000049103920020029004F096FD02909DF972
:1043C0001700019002980499039A03F073FC0146C8
:1043D000019804F091FD06B080BD000080B582B068
:1043E0000190019804F0AAFD02B080BD80B584B0B0
:1043F00002900191029820B9FFE701208DF80F008B
:1044000021E1019843F60041C4F20201096801F07C
:104410000701884212D9FFE7019943F60040C4F230
:1044200002000170006800F007000199884204D082
:10443000FFE701208DF80F0005E1FFE70298007803
:10444000800700282AD5FFE7029800784007002857
:1044500009D5FFE743F60801C4F20201086840F4F9
:10446000E0500860FFE7029800780007002809D5AF
:10447000FFE743F60801C4F20201086840F4604017
:104480000860FFE743F60801C4F20201086820F063
:10449000F000029A926810430860FFE702980078E3
:1044A000C00700286ED0FFE702984068012811D1AC
:1044B000FFE743F60000C4F20200006800F4003198
:1044C0000020B0EB514F04D1FFE701208DF80F0021
:1044D000B9E02CE002984068022805D0FFE7029876
:1044E0004068032811D1FFE743F60000C4F2020040
:1044F000006800F000710020B0EB516F04D1FFE7BD
:1045000001208DF80F009EE010E043F60000C4F299
:104510000200006800F002010020B0EB510F04D14E
:10452000FFE701208DF80F008DE0FFE7FFE743F67E
:104530000801C4F20201086820F00300029A5268E0
:1045400010430860FFF7FCFC0090FFE743F608000B
:10455000C4F20200006800F00C0002994968B0EB58
:10456000810F0ED0FFE7FFF7EBFC0099401A41F2F4
:104570008931884204D3FFE703208DF80F0062E001
:10458000E4E7FFE7019843F60041C4F2020109683D
:1045900001F00701884212D2FFE7019943F600407B
:1045A000C4F202000170006800F00700019988421F
:1045B00004D0FFE701208DF80F0044E0FFE70298E8
:1045C0000078400700280CD5FFE743F60801C4F245
:1045D0000201086820F4E050029AD2681043086093
:1045E000FFE702980078000700280DD5FFE743F6A3
:1045F0000801C4F20201086820F46040029A1269BE
:1046000040EAC2000860FFE700F04CF843F60801FA
:10461000C4F202010968C9B20A094AF20C31C0F6B3
:104620000001895CC84040F21801C2F20001086034
:1046300040F22000C2F200000068FFF74DFE0020AB
:104640008DF80F00FFE79DF80F0004B080BD00005B
:1046500040F21800C2F200000068704780B5FFF712
:10466000F7FF43F60801C4F202010968C1F3822290
:104670004AF21C31C0F60001895CC84080BD0000D0
:1046800080B5FFF7E5FF43F60801C4F202010968AF
:1046900089B24A0B4AF21C31C0F60001895CC8405D
:1046A00080BD000080B586B0002005900490039086
:1046B000029043F60800C4F20200006800F00C000B
:1046C0000146019140B1FFE7019804280AD0FFE7B5
:1046D000019808280CD04FE042F20040C0F2F400EC
:1046E00002904FE041F20020C0F27A00029049E0CF
:1046F00043F60400C4F20200016801F03F01059195
:1047000000684002002813D5FFE743F60400C4F216
:1047100002000068C0F3881041F20021C0F27A0163
:10472000A0FB0101059A0023FBF70AFE049012E0AA
:1047300043F60400C4F202000068C0F3881042F29D
:104740000041C0F2F401A0FB0101059A0023FBF730
:10475000F7FD0490FFE743F60400C4F2020000688E
:1047600000F44031022000EBD1300390049803990B
:10477000B0FBF1F0029005E042F20040C0F2F4001C
:104780000290FFE7029806B080BD000080B586B0B9
:104790000490049820B9FFE701208DF8170050E33A
:1047A00004980078C007002800F0A580FFE743F6D2
:1047B0000800C4F20200006800F00C00042813D0C6
:1047C000FFE743F60800C4F20200006800F00C00A6
:1047D00008281ED1FFE743F60400C4F20200006877
:1047E0004002002815D5FFE743F60000C4F202009E
:1047F000006800F400310020B0EB514F08D0FFE713
:104800000498406820B9FFE701208DF8170018E3ED
:1048100070E0FFE704984068B0F5803F09D1FFE7FA
:1048200043F60001C4F20201086840F480300860D9
:1048300020E004984068B0F5A02F0DD1FFE743F6C3
:104840000001C4F20201086840F480200860086892
:1048500040F4803008600CE043F60001C4F202012D
:10486000086820F480300860086820F48020086020
:10487000FFE7FFE7FFE704984068E8B1FFE7FFF7CD
:104880005FFB0390FFE743F60000C4F202000068FC
:1048900000F400310020B0EB514F0CD1FFE7FFF7DF
:1048A0004FFB0399401A652804D3FFE703208DF8D6
:1048B0001700C6E2E7E71CE0FFF742FB0390FFE7C3
:1048C00043F60000C4F20200006800F4003100204A
:1048D000B0EB514F0CD0FFE7FFF732FB0399401AC2
:1048E000652804D3FFE703208DF81700A9E2E7E766
:1048F000FFE7FFE7FFE7049800788007002840F112
:104900009680FFE743F60800C4F20200006810F04A
:104910000C0F13D0FFE743F60800C4F20200006852
:1049200000F00C0008282CD1FFE743F60400C4F285
:10493000020000684002002823D4FFE743F600008D
:10494000C4F20200006800F002010020B0EB510F39
:1049500009D0FFE70498C068012804D0FFE70120D0
:104960008DF817006DE243F60001C4F202010868F9
:1049700020F0F800049A126940EAC2000860FFE7DC
:1049800054E00498C06870B3FFE70021C4F24721E7
:1049900001200860FFF7D4FA0390FFE743F6000018
:1049A000C4F20200006800F002010020B0EB510FD9
:1049B0000CD1FFE7FFF7C4FA0399401A032804D388
:1049C000FFE703208DF817003BE2E7E743F600011D
:1049D000C4F20201086820F0F800049A126940EA63
:1049E000C200086021E00021C4F2472100200860D5
:1049F000FFF7A6FA0390FFE743F60000C4F20200B7
:104A0000006800F002010020B0EB510F0CD0FFE76E
:104A1000FFF796FA0399401A032804D3FFE703200F
:104A20008DF817000DE2E7E7FFE7FFE7FFE70498DF
:104A30000078000700284BD5FFE70498406918B3B9
:104A4000FFE740F68061C4F2472101200860FFF7CC
:104A500077FA0390FFE743F67400C4F2020000689F
:104A600000F002010020B0EB510F0CD1FFE7FFF77F
:104A700067FA0399401A032804D3FFE703208DF84F
:104A80001700DEE1E7E722E040F68061C4F247214B
:104A900000200860FFF754FA0390FFE743F6740024
:104AA000C4F20200006800F002010020B0EB510FD8
:104AB0000CD0FFE7FFF744FA0399401A032804D308
:104AC000FFE703208DF81700BBE1E7E7FFE7FFE70B
:104AD000049800784007002840F1CE80FFE70020CE
:104AE0008DF8070043F64000C4F202000068C000E1
:104AF000002815D4FFE7FFE70020009043F64000B0
:104B0000C4F20200016841F080510160006800F0C9
:104B1000805000900098FFE701208DF80700FFE724
:104B200047F20000C4F200000068C005002822D44B
:104B3000FFE747F20001C4F20001086840F480700A
:104B40000860FFF7FDF90390FFE747F20000C4F2A9
:104B500000000068C00500280CD4FFE7FFF7F0F95B
:104B60000399401A032804D3FFE703208DF81700A8
:104B700067E1EAE7FFE7FFE704988068012809D1C9
:104B8000FFE743F67001C4F20201086840F001003B
:104B900008601FE00498806805280DD1FFE743F600
:104BA0007001C4F20201086840F00400086008685F
:104BB00040F0010008600CE043F67001C4F202010D
:104BC000086820F001000860086820F00400086010
:104BD000FFE7FFE7FFE704988068F8B1FFE7FFF71A
:104BE000AFF90390FFE743F67000C4F202000068DB
:104BF00000F002010020B0EB510F0ED1FFE7FFF7EC
:104C00009FF90399401A41F28931884204D3FFE7A2
:104C100003208DF8170014E1E5E71EE0FFF790F997
:104C20000390FFE743F67000C4F20200006800F052
:104C300002010020B0EB510F0ED0FFE7FFF780F923
:104C40000399401A41F28931884204D3FFE70320D7
:104C50008DF81700F5E0E5E7FFE79DF8070001286C
:104C600009D1FFE743F64001C4F20201086820F0D1
:104C700080500860FFE7FFE704988069002800F093
:104C8000DC80FFE743F60800C4F20200006800F091
:104C90000C00082800F08580FFE70498806902284E
:104CA0005CD1FFE76021C4F2472100200860FFF7D4
:104CB00047F90390FFE743F60000C4F202000068E2
:104CC00000F000710020B0EB516F0CD0FFE7FFF750
:104CD00037F90399401A032804D3FFE703208DF81E
:104CE0001700AEE0E7E70499C869D1F820C04B6A25
:104CF0008A6A40EA0C0040EA8310D2034FF6FF7341
:104D00009A43A2F580321043C96A40EA016043F633
:104D10000401C4F2020108606021C4F247210120AD
:104D20000860FFF70DF90390FFE743F60000C4F2B7
:104D30000200006800F000710020B0EB516F0CD150
:104D4000FFE7FFF7FDF80399401A032804D3FFE7B4
:104D500003208DF8170074E0E7E721E06021C4F23A
:104D6000472100200860FFF7EBF80390FFE743F6C8
:104D70000000C4F20200006800F000710020B0EBF7
:104D8000516F0CD0FFE7FFF7DBF80399401A0328B7
:104D900004D3FFE703208DF8170052E0E7E7FFE7B1
:104DA0004AE004988069012804D1FFE701208DF8CA
:104DB000170046E043F60400C4F2020000680290C7
:104DC00004988069012831D0FFE7029800F4800040
:104DD0000499C969884229D1FFE7029800F03F0091
:104DE0000499096A884221D1FFE7029847F6C07109
:104DF00008400499496AB0EB811F17D1FFE7029878
:104E000000F440300499896AC9034FF6FF72914358
:104E1000A1F58031884209D1FFE7029800F0706067
:104E20000499C96AB0EB016F04D0FFE701208DF847
:104E3000170006E0FFE7FFE7FFE700208DF8170007
:104E4000FFE79DF8170006B080BD000080B582B076
:104E50000190019803F012F902B080BD81B000907A
:104E600001B0704781B0009001B0704784B00290EB
:104E7000019100200090FFE7029890F83C00012883
:104E800004D1FFE702208DF80F0044E002990120D1
:104E900081F83C00FFE7FFE7009820F0FF00019950
:104EA000C96808430090009820F44070019989680F
:104EB00008430090009820F48060019949680843F5
:104EC0000090009820F40060019909680843009060
:104ED000009820F4805001990969084300900098D7
:104EE00020F400500199496908430090009820F48B
:104EF00080400199C96908430090009802990968A7
:104F00004864FFE70299002081F83C00FFE7002099
:104F10008DF80F00FFE79DF80F0004B07047000008
:104F200085B003900291FFE7039890F83C000128B8
:104F300004D1FFE702208DF813007EE003990120E1
:104F400081F83C00FFE7FFE70399022081F83D006C
:104F5000039800684068019003980068806800909A
:104F6000019820F0700001900298016801980843B0
:104F7000019001980399096848600398006800212E
:104F8000C4F2010188423CD0FFE703980068B0F109
:104F9000804F36D0FFE70398006840F20041C4F22A
:104FA000000188422DD0FFE70398006840F6000119
:104FB000C4F20001884224D0FFE70398006840F65D
:104FC0000041C4F2000188421BD0FFE7039800684B
:104FD00040F20041C4F20101884212D0FFE7039879
:104FE000006844F20001C4F20101884209D0FFE7E1
:104FF0000398006841F60001C4F2000188420ED116
:10500000FFE7009820F08000009002984168009827
:10501000084300900098039909688860FFE70399A6
:10502000012081F83D00FFE70399002081F83C0052
:10503000FFE700208DF81300FFE79DF8130005B08F
:105040007047000080B582B00090009820B9FFE75B
:1050500001208DF807003FE0009890F83D0040B92E
:10506000FFE70099002081F83C00009800F038F834
:10507000FFE70099022081F83D00009951F8040BE8
:1050800003F09AF80099012081F84600FFE70099A3
:10509000012081F83E00009981F83F00009981F8D5
:1050A0004000009981F84100FFE7FFE700990120E7
:1050B00081F84200009981F84300009981F844008A
:1050C000009981F84500FFE70099012081F83D0033
:1050D00000208DF80700FFE79DF8070002B080BDB3
:1050E00080B586B00590059800680021C4F20101E2
:1050F000884212D1FFE7FFE70020049043F6440006
:10510000C4F20200016841F001010160006800F092
:10511000010004900498FFE75CE00598006840F601
:105120000041C4F20001884212D1FFE7FFE70020EE
:10513000039043F64000C4F20200016841F0080108
:105140000160006800F0080003900398FFE740E06A
:105150000598006841F20001C4F2000188421BD1A9
:10516000FFE7FFE70020029043F64000C4F2020090
:10517000016841F010010160006800F01000029029
:105180000298FFE73620009000221146FFF70CF945
:105190000098FFF7FFF81BE00598006841F6000152
:1051A000C4F20001884212D1FFE7FFE7002001901E
:1051B00043F64000C4F20200016841F04001016082
:1051C000006800F0400001900198FFE7FFE7FFE76B
:1051D000FFE7FFE706B080BD80B586B0049003917D
:1051E00000208DF80B00FFE7049890F83C000128A0
:1051F00004D1FFE702208DF81700ABE004990120ED
:1052000081F83C00FFE7FFE70499022081F83D00A8
:105210000498006880680190019820F07700019060
:10522000019820F47F4001900198049909688860F2
:10523000039800680090002872D0FFE700981028BB
:105240006ED0FFE7009820286AD0FFE7009830284A
:1052500066D0FFE70098402855D0FFE70098502817
:1052600037D0FFE70098602840D0FFE7009870280B
:105270000BD0FFE70098B0F5805F05D0FFE70098FE
:10528000B0F5005F16D052E055E004980068039B2B
:105290005A689968DB6803F07DF8049800688068B4
:1052A0000190019840F077000190019804990968F5
:1052B000886040E004980068039B5A689968DB683E
:1052C00003F068F804980168886840F480408860BA
:1052D00031E004980068039A5168D26803F046FAF6
:1052E00004980068502103F06FF824E004980068E7
:1052F000039A5168D26803F061FA0498006860214B
:1053000003F062F817E004980068039A5168D268C5
:1053100003F02CFA04980068402103F055F80AE0E5
:10532000049800680399096803F04EF803E001202F
:105330008DF80B00FFE70499012081F83D00FFE79D
:105340000499002081F83C00FFE79DF80B008DF8E0
:105350001700FFE79DF8170006B080BD80B586B046
:1053600004900391049820B9FFE701208DF81700FD
:1053700088E0049890F83D0040B9FFE704990020C8
:1053800081F83C00049800F081F8FFE704990220BE
:1053900081F83D0004980168886844F20702904350
:1053A0008860049951F8040B02F006FF0498006825
:1053B00080680290049800688069019004980068F1
:1053C000006A0090039801680298084302900198CF
:1053D00040F203318843019003998868896940EA63
:1053E0000121019808430190019840F60C4188433F
:1053F000019001984FF2F001884301900399C86829
:10540000C96940EA0121019808430190039908699C
:10541000096A000140EA01310198084301900098AF
:1054200020F022000090009820F08800009003995E
:105430004868496940EA01110098084300900298C1
:10544000049909688860019804990968886100983E
:105450000499096808620499012081F846000499BA
:1054600081F83E00049981F83F00049981F84200D8
:10547000049981F84300049981F83D0000208DF8DB
:105480001700FFE79DF8170006B080BD80B58EB00D
:105490000D9000200C900B900A90099008900D98A8
:1054A0000068B0F1804F32D1FFE7FFE7002007909E
:1054B00043F64000C4F20200016841F001010160BE
:1054C000006800F0010007900798FFE7FFE7002061
:1054D000069043F63000C4F20200016841F0010179
:1054E0000160006800F0010006900698FFE70320C5
:1054F00008900220099000200A900B9001200C9047
:105500000020C4F2020008A9FEF726FBB3E00D98C4
:10551000006840F20041C4F20001884231D1FFE747
:10552000FFE70020059043F64000C4F20200016846
:1055300041F002010160006800F00200059005984A
:10554000FFE7FFE70020049043F63000C4F20200BA
:10555000016841F001010160006800F00100049061
:105560000498FFE7C02008900220099000210A91CA
:105570000B910C900020C4F2020008A9FEF7ECFA8F
:1055800078E00D98006840F60001C4F200018842FE
:1055900032D1FFE7FFE70020039043F64000C4F25A
:1055A0000200016841F004010160006800F004009D
:1055B00003900398FFE7FFE70020029043F63000D6
:1055C000C4F20200016841F002010160006800F0CD
:1055D000020002900298FFE7C02008900220099084
:1055E00000210A910B910C9040F20040C4F202009D
:1055F00008A9FEF7B1FA3CE00D98006840F20041BE
:10560000C4F20101884233D1FFE7FFE70020019097
:1056100043F64400C4F20200016841F00201016057
:10562000006800F0020001900198FFE7FFE700200A
:10563000009043F63000C4F20200016841F004011A
:105640000160006800F0040000900098FFE7C020AF
:1056500008900220099000200A900B9003200C90E3
:1056600040F60000C4F2020008A9FEF775FAFFE751
:10567000FFE7FFE7FFE70EB080BD000081B00090BC
:1056800001B0704780B584B0039003980068C0688B
:10569000029003980068006901909DF8040080075B
:1056A000002824D5FFE79DF80800800700281DD5B5
:1056B000FFE7039801686FF0020008610399012079
:1056C0000877039800688069800720B1FFE7039896
:1056D000FFF7D4FF06E0039800F070F9039800F09C
:1056E00065FAFFE7039900200877FFE7FFE79DF8D9
:1056F00004004007002825D5FFE79DF80800400773
:1057000000281ED5FFE7039801686FF004000861C8
:1057100003990220087703980068806910F4407F9D
:1057200004D0FFE70398FFF7A9FF06E0039800F015
:1057300045F9039800F03AFAFFE70399002008774B
:10574000FFE7FFE79DF804000007002824D5FFE7E6
:105750009DF80800000700281DD5FFE703980168A1
:105760006FF0080008610399042008770398006827
:10577000C069800720B1FFE70398FFF77FFF06E0CD
:10578000039800F01BF9039800F010FAFFE7039963
:1057900000200877FFE7FFE79DF80400C006002817
:1057A00025D5FFE79DF80800C00600281ED5FFE7B5
:1057B000039801686FF010000861039908200877CA
:1057C00003980068C06910F4407F04D0FFE7039895
:1057D000FFF754FF06E0039800F0F0F8039800F09C
:1057E000E5F9FFE7039900200877FFE7FFE79DF859
:1057F0000400C00778B1FFE79DF80800C00748B172
:10580000FFE7039801686FF001000861039800F05A
:105810003BFBFFE7FFE79DF804000006002810D5DA
:10582000FFE79DF808000006002809D5FFE7039868
:1058300001686FF0800008610398FFF70FFBFFE736
:10584000FFE79DF804004006002810D5FFE79DF80B
:1058500008004006002809D5FFE7039801686FF0AB
:1058600040000861039800F013FBFFE7FFE79DF895
:1058700004008006002810D5FFE79DF80800800688
:10588000002809D5FFE7039801686FF02000086140
:105890000398FFF7E7FAFFE7FFE704B080BD0000D9
:1058A00080B58AB009900020089007900690059076
:1058B0000490099800680021C4F20101884223D1B4
:1058C000FFE7FFE70020039043F63000C4F2020038
:1058D000016841F010010160006800F010000390C1
:1058E0000398FFE74FF4D040049002200590002079
:1058F000069007900120089041F20000C4F20200D7
:1059000004A9FEF729F956E00998006840F600411D
:10591000C4F20001884220D1FFE7FFE70020029097
:1059200043F63000C4F20200016841F00101016059
:10593000006800F0010002900298FFE70C2004903C
:105940000220059000210691079108900020C4F2E2
:10595000020004A9FEF700F92CE00998006841F65E
:105960000001C4F20001884223D1FFE7FFE70020D5
:10597000019043F63000C4F20200016841F00201D8
:105980000160006800F0020001900198FFE74FF409
:1059900040400490022005900020069007900920C6
:1059A000089040F20040C4F2020004A9FEF7D4F8C7
:1059B000FFE7FFE7FFE70AB080BD000081B000907D
:1059C00001B0704780B586B0049003910292002028
:1059D0008DF80700FFE7049890F83C00012804D1F7
:1059E000FFE702208DF8170089E00499012081F873
:1059F0003C00FFE7FFE7029800900C2800F270805F
:105A00000099DFE801F0076D6D6D206D6D6D3A6DE9
:105A10006D6D530004980068039902F0EBFC049844
:105A20000168886940F00800886104980168886905
:105A300020F004008861039802690498016888696D
:105A40001043886150E004980068039902F048FD13
:105A500004980168886940F40060886104980168CE
:105A6000886920F48060886103980269049801685D
:105A7000886940EA0220886136E00498006803994A
:105A800002F0A8FD04980168C86940F00800C861E8
:105A900004980168C86920F00400C861039802698D
:105AA00004980168C8691043C8611DE00498006843
:105AB000039902F009FE04980168C86940F4006087
:105AC000C86104980168C86920F48060C8610398BF
:105AD000026904980168C86940EA0220C86103E0CD
