:020000040800F2
:10000000800F0020450200080D3E0008233500083F
:10001000A93C00084D1000088D47000800000000B2
:10002000000000000000000000000000AB3E0008DF
:10003000DD12000800000000A93E00083140000861
:100040005F0200085F0200085F0200085F0200080C
:100050005F0200085F0200085F0200085F020008FC
:100060005F0200085F0200085F020008C11100087B
:100070005F020008CD1100085F020008D9110008D6
:10008000E5110008F11100085F0200085F02000896
:100090005F0200085F0200085F0200085F020008BC
:1000A0005F0200085F0200085F0200085F020008AC
:1000B0005F0200085F0200085F0200085F0200089C
:1000C0005F0200085F0200085F0200085F0200088C
:1000D0005F0200085D47000869470008754700088F
:1000E0005F0200085F0200085F0200085F0200086C
:1000F0005F0200085F0200085F020008FD110008AF
:100100005F0200085F0200085F0200085F0200084B
:10011000C1430008CD430008D94000085F02000831
:100120005F02000809120008151200085F020008AB
:100130005F0200085F0200085F0200085F0200081B
:100140005F0200085F0200085F0200085F0200080B
:100150005F020008211200082D12000881470008E4
:100160005F0200085F0200085F0200085F020008EB
:100170005F0200085F0200085F0200080000000044
:100180005F0200085F02000800F002F800F04AF881
:100190000AA090E8000C82448344AAF10107DA45E2
:1001A00001D100F03FF8AFF2090EBAE80F0013F0EA
:1001B000010F18BFFB1A43F001031847584700000E
:1001C00078470000103A24BF78C878C1FAD852079F
:1001D00024BF30C830C144BF04680C6070470000C1
:1001E0000023002400250026103A28BF78C1FBD840
:1001F000520728BF30C148BF0B607047642900F028
:10020000D380002070471FB504F03EFB00F006FECF
:1002100004000020002104F021FB401C60601FBD91
:1002200010B510BD00F0BEFD1146FFF7ECFF04F065
:10023000DAFA00F0E5FD03B4FFF7F2FF03BC00F0CB
:10024000F1FD00000948804709480047FEE7FEE746
:10025000FEE7FEE7FEE7FEE7FEE7FEE7FEE7FEE776
:1002600004480549054A064B70470000C94000088C
:100270008901000880090020800F0020800B0020E9
:10028000800B002053EA020C00F069802DE9F04B4E
:100290004FF00006002B1FBFB3FA83F503FA05F4F5
:1002A00024FA05F65E4012BF1643B2FA82F502FA4E
:1002B00005F4C5F120051EBF22FA05FC44EA0C0432
:1002C000203556EA044C4FEA144418BF641C4FF022
:1002D00000084FF00009904271EB030C39D300295C
:1002E00019BFB1FA81F701FA07F6B0FA80F700FA00
:1002F00007F6C7F120071EBF20FA07FC46EA0C06E6
:100300002037B6FBF4FCA7EB0507103F07F01F0BE7
:10031000CBF120060CFA0BFB2CFA06F644BFB346D1
:100320000026202FA4BF5E464FF0000B5BEA060CB0
:1003300008BF4FF0010B19EB0B09ABFB027C48EB3C
:100340000608C01B06FB02CC0BFB03CC71EB0C01B7
:10035000C1E70B46024641464846BDE8F08B13B55F
:100360004FF000004FF00001AFF30080BDE81C40EB
:10037000704700000FB41CB50C0007AA009001D014
:100380002044401E074B7B4469460190069800F0CC
:10039000E0FA002C03D06946002000F0EDFA1CBC06
:1003A0005DF814FBF90500002DE9F0410646002434
:1003B00010687529314616A510D0AFF300800028CB
:1003C00002DA404213A507E031688A0701D512A579
:1003D00002E0490704D511A5012401E0AFF3008034
:1003E00000210A2206F1240709E0B0FBF2FCB0FB71
:1003F000F2F302FB1C00303078541846491C0028E8
:10040000F3D123462A463046BDE8F04100F043BA16
:10041000000000002D0000002B0000002000000064
:100420002DE9F0410F460546002028622846E9687C
:10043000884770B3252805D0D5E901219047286A5F
:10044000401CF2E7E9682846002688476C280446E5
:100450000AD0682C08D04C2C35D06A2C31D0742CA2
:1004600031D07A2C2FD016E0E96806462846884716
:10047000B042044608D16C2E23D04FF48066284643
:10048000E9688847044606E06C2E03D04FF4807676
:1004900001E01EE04026E4B1A4F14100192802D891
:1004A000203446F400663A46214628462E60FFF77F
:1004B000A5FE60B1012808D0FF1D27F00707083707
:1004C000B4E78026DBE70026D9E73F1DAEE72046EC
:1004D000B2E7286ABDE8F0810FB400B58DB010A96D
:1004E000099000910B904FF0FF300A9000200C9083
:1004F000064878440690064878446A4607900F9963
:1005000009A800F05BFA0DB05DF814FBE7040000E9
:10051000FF0400002DE9FF5F1D464FF0FF3B9146B1
:100520004FF000085F46D5E90146A96901987F1C94
:100530008847296A824688470028F6D1BAF1FF3FEA
:100540000CD0002E24F4C06419DD600614D5BAF175
:100550002B0F09D0BAF12D0F0ED103E0584604B08D
:10056000BDE8F09F44F48064A96901987F1C884726
:10057000761E8246002E02DDBAF1300F03D0B9F1AB
:10058000000F26D032E0A969761E01987F1C44F442
:1005900000748847002E824605DDBAF1780F06D038
:1005A000BAF1580F03D0B9F1000F10D01EE0B9F125
:1005B000000F02D0B9F1100F18D1A969761E019869
:1005C0007F1C24F4007488478246102002E0082033
:1005D00000E00A20814609E0A96908FB0908761EA7
:1005E00001987F1C44F4007488478246002E05DD84
:1005F0004946504600F0CDF90028EDDAE969019846
:100600008847A00502D46FF00100A8E7E00725D1D4
:10061000600613D5600502D5C8F1000000E0404631
:1006200029680A1D2A600968220501D5087015E0AD
:10063000220701D5088011E008600FE02868011D3D
:1006400029600068210502D580F8008006E02107B6
:1006500002D5A0F8008001E0C0F8008038467EE7AF
:100660002DE9FF5F4FF00008994614464646916910
:10067000D2E901A7DDF838B001988847054659EA64
:100680000B0005D009E0A1690198761C8847054652
:10069000216A284688470028F5D1681C03D05FEA04
:1006A000CA7005D015E04FF0FF3004B0BDE8F09FF0
:1006B0002068011D2160D0F800800AE05FEACA705E
:1006C00001D108F8015BA169761C01987F1E88475B
:1006D0000546002F1ADD681C18D0B9F1000F0DD0A7
:1006E000E81705EBD060421120F01F0059F82210E6
:1006F0002A1A012090400142E0D107E0BBF1000F2F
:10070000DCD12846216A88470028D7D0E1690198C2
:100710008847BBF1000F07D1002E05DD5FEACA70E4
:1007200002D1002188F80010A068B84203DDBBF1B7
:10073000000F03D017B16FF00100B6E73046B4E701
:1007400010B5431C02E010F8011B71B18107FAD10A
:100750004FF0013202C88C1A8C4314EAC211F9D04E
:10076000C01A0A0603D0C01E10BDC01A10BD0A046C
:1007700001D0801E10BD0902FCD0401E10BD4FF0FC
:1007800000020429C0F0128010F0030C00F01B805E
:10079000CCF1040CBCF1020F18BF00F8012BA8BF6C
:1007A00020F8022BA1EB0C0100F00DB85FEAC17C30
:1007B00024BF00F8012B00F8012B48BF00F8012BE3
:1007C00070474FF0000200B5134694469646203914
:1007D00022BFA0E80C50A0E80C50B1F12001BFF4FA
:1007E000F7AF090728BFA0E80C5048BF0CC05DF860
:1007F00004EB890028BF40F8042B08BF704748BFAE
:1008000020F8022B11F0804F18BF00F8012B704721
:100810004FF0013C50F8042B51F8043B9A4221D18F
:10082000A2EB0C03934313EACC1317D150F8042B1B
:1008300051F8043B9A4215D1A2EB0C03934313EAFF
:10084000CC130BD150F8042B51F8043B9A4209D138
:10085000A2EB0C03934313EACC13DBD04FF0000060
:10086000704700BFD01A01BAB1FA81F101F0180146
:1008700022FA01F0CB40C1F12001DBB2C0B2C01AB4
:100880002CFA01F3D11A914311EAC311E6D1704752
:100890007047704770472DE9F0470D4699469246DC
:1008A000044600F124080168880604D5E06921F0B7
:1008B0001001216000E00120A84201DD471B00E09B
:1008C0000027A1697A1902EB0900081AA0612078B3
:1008D000C00602D42046AFF30080002608E0D4E929
:1008E00001211AF806009047206A401C761C2062FD
:1008F0004E45F4DB2078C0060AD52046AFF30080D1
:1009000006E0D4E9012130209047206A401C206293
:10091000381EA7F10107F4DC07E0D4E9012118F83B
:1009200005009047206A401C2062281EA5F10105A1
:10093000F3DC2046AFF300802078000602D50220C9
:10094000BDE8F0870120FBE701694A1C02610878D5
:10095000704700B58FB0CDE90131002105910549FF
:100960007944CDE9031011466846FFF759FD0FB0F1
:1009700000BD0000E5FFFFFF0A6802F8010B0A60F6
:100980007047D1E900239A4202D2531C0B601070C9
:1009900070473A2800D2303820F02002412A01D393
:1009A000A2F13700884201D34FF0FF3070470000BA
:1009B000026811441378016018467047D1600549F8
:1009C0007944516104497944116200211161114651
:1009D00000F02EB8EDFFFFFF53000000426842B167
:1009E000016811F8013B23B1521EC0E900121846FC
:1009F00070470121C160881E704742685AB1C368C0
:100A0000016843B983688B4205D0491E521CC0E976
:100A10000012002070474FF0FF30704710B50446B9
:100A200000F0E6F90068005D00F0010010BD000074
:100A30002DE9F34F4FF0000A0C4656468DB00120C9
:100A40000C9001F10C000B9062690B98012190470A
:100A5000051E2DD0252D2CD0216A8847C0B1626992
:100A60000B9801219047216A88470028F7D16269D5
:100A7000411E0B98904700E0761CA1690D988847AD
:100A8000216A88470028F7D1E1690D988847DBE79C
:100A9000A1690D988847A842074601D1761CD3E783
:100AA000E1690D9888477F1C02D1BAF1000F6FD021
:100AB0006BE162690B9800273D46394690472A282A
:100AC00004D162690B98012190470125DFF8D0829B
:100AD00062690B9801219047A0F130010A290AD2DE
:100AE0004745E5DC07EB870100EB4107303FDFD4EA
:100AF00045F01005ECE7E90601D46FF000476C28DB
:100B00000AD04C2814D0682815D06A280DD0742833
:100B10001CD07A281AD01DE062690B9801219047F9
:100B20006C2802D045F0040514E045F002050DE004
:100B300045F020050AE062690B980121904768287A
:100B400002D045F0080505E045F4006562690B98A0
:100B500001219047C4E9015765283DD019DC582888
:100B60007AD00CDC452837D004DC252826D0412853
:100B70009ED131E046282FD0472899D12CE05B2820
:100B800077D0612828D063287CD0642823D15AE00C
:100B9000F6E06F2848D008DC66281DD067281BD0F7
:100BA000692821D06E2816D127E0702845D07328F7
:100BB00068D0752847D078280DD14DE0A1690D98EF
:100BC0008847252805463FF469AFE1690D988847B5
:100BD0006D1C3FF46AAFD8E00D9923466A466FF06A
:100BE0000100AFF30080C5E045F0400023464FF020
:100BF00000026060A80736D43EE0E8077FF447AF04
:100C00002068011D21600068290501D506701BE7D9
:100C1000290701D5068017E7A90703D5F117C0E911
:100C2000006111E706600FE745F0400023464FF0F2
:100C300008026060A80716D41EE040F60E0125EAFF
:100C40000100606016E045F0400023464FF00A02C4
:100C50006060A80707D40FE045F040006060A80777
:100C600008D5234610220D996FF00100AFF30080E4
:100C700080E007E0102223460D996FF00100FFF796
:100C800049FC77E04FF0000963284F46C8464B46C1
:100C9000CB4602D05B2806D038E0E80601D401201C
:100CA000A060012732E06269D4F80CB00B980121F2
:100CB00090475E2807D14FF0010949466269D4F890
:100CC0000CB00B989047216939B900210A4603AB53
:100CD00043F82120491C0829FADBD8B3216949B31C
:100CE00008F1010862690B98012190475D28F4D151
:100CF000B9F1000F09D0002003A951F82020D243F8
:100D000041F82020401C0828F7DB03AB20690028AD
:100D100020794FEA40701ED05B462246CDF8008015
:100D2000CDE901970D9900286FF0010020DAAFF3AB
:100D300000801FE0C11703AA00EBD1614B1121F025
:100D40001F0102EB8302411A13680120884003430C
:100D50001360C7E719E00D99224600286FF00100E3
:100D6000009702DAAFF3008004E0FFF779FC01E0BE
:100D7000AFF3008000280ADA401C06D10C9820B19D
:100D80004FF0FF300FB0BDE8F08F5046FAE7E907AB
:100D900001D10AF1010A064400200C9054E600003B
:100DA000CCCCCC0C754600F035F8AE460500694653
:100DB000534620F00700854618B020B5FFF750FADB
:100DC000BDE820404FF000064FF000074FF000084C
:100DD0004FF0000B21F00701AC46ACE8C009ACE8CD
:100DE000C009ACE8C009ACE8C0098D4670470000F6
:100DF00010B500F013F8001D10BD00BF613A0000EF
:100E000010B50446AFF300802046BDE81040FFF760
:100E100012BA0000004870472009002000487047BF
:100E20004009002001491820ABBEFEE72600020061
:100E30007047000010B50D4C2078012812D10CA08D
:100E400000F0ECF80C4800F0E9F80CA000F0E6F82F
:100E50000BA10948FFF7DCFC28B1074800F014F8A3
:100E60000020207010BD00F0ADF8F9E70000002070
:100E70005B72783A00000000640000205D0D0A00FB
:100E8000717565727900000070B52DED048B8CB022
:100E90000446142103A8FFF794FC0021089109914E
:100EA0000A910B910BAA0AA909A88DE8070008ABC3
:100EB00003AA30A12046FFF70FFB052830D132A14D
:100EC00003A8FFF7A5FC00282AD032A103A8FFF74A
:100ED0009FFC48B331A103A8FFF79AFC00281FD15B
:100EE0009DED090ADFED2E1A0898B8EEC00AC0B2CF
:100EF0000428C0EE218A9DED0A0AB8EEC00A80EEF1
:100F0000218A9DED0B0AB8EEC00A80EE219A20D20C
:100F1000F0EE480AB0EE680AB0EE491A02F00EFF91
:100F20000CB0BDEC048B70BD4FF4967508986E4202
:100F30002A46314600B203F04EFC044609982A4680
:100F4000314600B203F047FC0146204600F018FA93
:100F5000E6E7E5D14FF00004B0EE491AF0EE480A9A
:100F6000B0EE680A204602F0E9FE641CE4B2042CEC
:100F7000F2D3D5E72531395B5E2C5D2C25642C2519
:100F8000642C25642C2564006A6F79737469636B23
:100F9000000000006772697070657200706964001B
:100FA0000000C84210B540210448FFF7E8FB0448A0
:100FB00000218170C170017010BD0000640000202C
:100FC0000000002070B5A4B0002002F06FFE0446BF
:100FD000012002F06BFE0546022002F067FE064685
:100FE000032002F063FE0095CDE90160234605A2CF
:100FF000802103A8FFF7BEF903A800F00FF824B082
:1010000070BD00005B732C256C642C256C642C2552
:101010006C642C256C645D0D0A00000010B504465C
:10102000FFF78EFB214682B2BDE8104064230148E1
:1010300002F0D4B91004002001220249024802F053
:1010400083B900000100002010040020FEE700002A
:10105000F8B52448016841F001010160016801F020
:1010600001010091016841F002010160016801F095
:1010700002010091016841F010010160016801F076
:1010800010010091016841F0200101600068032116
:1010900000F020000090144803F089FB4FF4C04199
:1010A000124803F084FB4FF48451114803F07FFB96
:1010B0003021104803F07BFB0F4E002404EB44006A
:1010C00006EBC0050022A989A86800F0F7FCA98AF0
:1010D0000022286900F0F2FC641CE4B2042CEDD379
:1010E000F8BD000030380240000402400014024005
:1010F00000100240000002409448000870B5042827
:101100003ED2642901DD642104E06FF06302914264
:1011100000DA11461E4A00EB400002EBC004A07D3D
:1011200000B149420DB2002D09DDA1894FF0010245
:10113000A06800F0C3FCA18A002220690CE0A1890C
:10114000A06802DA4FF0000201E04FF0010200F067
:10115000B5FCA18A0122206900F0B0FC206800687B
:10116000C16A491C002D00DA6D424D436421B5FB74
:10117000F1F162682AB1042A05D0082A05D0016479
:1011800070BD416370BD816370BDC16370BD0000FF
:101190009448000810B50021084801F0C7FC04215C
:1011A000064801F0C3FC0821044801F0BFFCBDE87B
:1011B00010400C21014801F0B9BC0000F8000020EB
:1011C000014800F04BB9000060050020014800F024
:1011D00045B90000A0040020014800F03FB900001C
:1011E00000050020014800F039B90000E0060020A9
:1011F000014800F033B9000040070020014800F02A
:101200002DB90000C0050020014800F027B90000FA
:10121000A0070020014800F021B9000020060020AE
:10122000014800F01BB9000000080020014800F050
:1012300015B900008006002001681823CAB2103AD0
:10124000B2FBF3F2054B6FF30901032A9B5CC36504
:1012500000D9091D8165084670470000F448000860
:1012600010B5014600208B698A6A4FF0C07453B1F3
:10127000B3F5005F15D072B1012A0CD0022A0AD052
:10128000032A09D104E01AB1012A06D0022A03D1A7
:10129000C96AC90100D5012010BDC96AA142FAD0AE
:1012A00010BD002AF7D0012AF2D0022AF3D0032A77
:1012B000F3D010BD30B50468256825F4802525607D
:1012C000046863608368402B036803D099600068FA
:1012D000C26030BD9A600068C16030BD704770B5B3
:1012E000040005D0206818B1607908B90D2B01D928
:1012F000012070BDA07D00BB2079A071E1710020AC
:1013000007E00AB1115C00E000212518401C297299
:10131000C0B29842F5D3E1186B200872DA1C0120A4
:10132000A075A11D206802F0A9F80028E1D00021D5
:10133000A175022801D0042070BD032070BD1CB52A
:10134000049C80B18DF80010110A8DF801108DF801
:1013500002208DF803308DF8044005236A46F621FB
:10136000FFF7BDFF1CBD01201CBD002804D0026892
:101370008A4201D100218175704772B6FEE70000F4
:1013800010B50C460146064802F026FD022000F08A
:10139000D7F921460248BDE81040183002F01CBDC4
:1013A000340000202DE9F0410446876D00F08CFBED
:1013B000064694F835000025022806D08020606596
:1013C00084F834500120BDE8F0812068016821F0E4
:1013D000160101602068416921F080014161206CA3
:1013E00008B9A06C20B12068016821F008010160F3
:1013F0002068016821F0010101600CE000F064FB4D
:10140000801B052807D920206065032084F835005B
:1014100084F83450D7E720680068C007EED194F80C
:101420005C103F208840B860012084F8350084F8C3
:1014300034500020C7E790F83510022903D08021EE
:10144000416501207047052180F83510006801686A
:1014500021F0010101600020704700002DE9F843F0
:1014600004464FF00009CDF8009063484FF4165140
:10147000A56D0068B0FBF1F72E6894F85C100820A9
:1014800000FA01F131420FD021680A6852070BD5EA
:101490000A6822F004020A6094F85C108840A86090
:1014A000606D40F00100606594F85C104FF0010839
:1014B00008FA01F0304208D021684969090604D5CC
:1014C000A860606D40F00200606594F85C10042034
:1014D0008840304208D021680968890704D5A8608F
:1014E000606D40F00400606594F85C101020884046
:1014F000304218D021680968090714D5A86020680F
:101500000168490304D50068000308D5A16C07E011
:101510000168C90503D4016821F008010160216C4C
:1015200009B12046884794F85C102020884030425A
:1015300031D021680968C9062DD5A86094F8350016
:1015400005282068016806D0490347D500680003D4
:101550001DD4616C1CE021F0160101602068416916
:1015600021F080014161206C08B9A06C20B1206895
:10157000016821F00801016094F85C103F20884068
:10158000A86084F8358084F83490216D1FE0E16B09
:1015900009B120468847606D00282BD0606DC007D8
:1015A00014D0052084F835002068016821F001017D
:1015B00001600098401C0090B84203D82068006881
:1015C000C007F6D184F8358084F83490E16C0029A6
:1015D00010D001B02046BDE8F04308470168C905B6
:1015E000D5D4016821F01001016084F8358084F8B9
:1015F0003490CCE7BDE8F883200000202DE9F041CD
:10160000044600F061FA06465CB1022084F8350019
:10161000002584F834502068016821F00101016040
:101620000DE00120BDE8F08100F04EFA801B052896
:1016300005D920206065032084F83500F2E7206892
:101640000068C007F0D12268116820480140D4E941
:1016500001031843D4E9033633431843636918433D
:10166000A3691843E3691843236A18430843616A6E
:10167000042903D1D4E90B131943084310602068EF
:101680004069666A20F0070130460E4301270428AE
:101690000CD1A06A0643E06A40B12046FFF7E0FDA6
:1016A00020B14020606584F83570BAE72068466153
:1016B0002046FFF7C1FD94F85C203F2191408160F6
:1016C000656584F835700020ACE700003F8010F0BD
:1016D0002DE9F0410446866D90F83400002501287C
:1016E0000DD0012084F8340094F835700020012FCB
:1016F00007D084F8340002252846BDE8F081022096
:10170000FBE7022784F8357060652046FFF7D2FDBD
:1017100094F85C103F208840B0602068016841F078
:1017200016010160206C20B12068016841F00801B9
:1017300001602068016841F001010160DCE7000000
:1017400070B5044600F0C0F90546601C02D004489C
:101750000078044400F0B8F9401BA042FAD370BDF1
:10176000140000202DE9F04F0022DFF838B10126E7
:101770004FF00F0906FA02F401EA0403A3427DD1F7
:1017800022F003075F44D7F8088895074FEA157CD5
:1017900009FA0CFA0AEA0805DFF80C81404502D183
:1017A0004FF0000832E0DFF80481404502D14FF0ED
:1017B00001082BE0DFF8F880404502D14FF0020825
:1017C00024E0DFF8F080404502D14FF003081DE02F
:1017D000DFF8E480404502D14FF0040816E0DFF85E
:1017E000DC80404502D14FF005080FE0DFF8D080E3
:1017F000404502D14FF0060808E0DFF8C8804045B8
:1018000002D14FF0070801E04FF0080808FA0CF881
:10181000A84522D12C4DD5F800C02CEA030CC5F800
:1018200000C005F1040CDCF800509D43CCF80050DA
:10183000254D0C35D5F800C02CEA030CC5F800C0C6
:101840002D1FD5F800C02CEA030CC5F800C0D7F84E
:10185000085825EA0A05C7F8085805685700032301
:10186000BB409D430560D50800EB8505D5F820C039
:1018700057074FEAD76809FA08F700E00CE02CEAAE
:10188000070CC5F820C0C5689D43C5604568A543E1
:10189000456084689C438460521C102AFFF46AAF40
:1018A000BDE8F08F0030014000000240000402401B
:1018B00000080240000C02400010024000140240E8
:1018C00000180240001C0240003C01402DE9F84F86
:1018D000DFF8BCA10022012503264FF00F090AF111
:1018E000040BAAF1040E00BF0B6805FA02F42340B2
:1018F000A34270D10F7907F00307012F01D0022F07
:1019000016D187684FEA420806FA08FC27EA0C0756
:10191000D1F80CC00CFA08FC4CEA070CC0F808C05F
:101920004768A7430C79C4F3001494403C434460D7
:101930000C79E443A4070AD0C4684FEA420C06FAC3
:101940000CF7BC438F6807FA0CF72743C7600C7984
:1019500004F00304022C12D1D40800EB840CDCF850
:1019600020405707FF0E09FA07F824EA0804D1F8C7
:10197000108008FA07F848EA0408CCF820800468C8
:101980004FEA420C06FA0CF7BC430F7907F0030745
:1019900007FA0CF7274307604C6814F4403F70D0F7
:1019A0003C4C276847F480472760246822F00307EF
:1019B00004F480440094384C07EB040CDCF808482D
:1019C00097074FEA177809FA08F7BC43334FB84234
:1019D00002D1002724E054E0314FB84201D1012761
:1019E0001EE0304FB84201D1022719E02E4FB84215
:1019F00001D1032714E02D4FB84201D104270FE095
:101A00002B4FB84201D105270AE02A4FB84201D135
:101A1000062705E0284FB84201D1072700E0082734
:101A200007FA08F72743CCF80878DAF80040574659
:101A3000D1F804C09C435FEACC2C00D51C433C6029
:101A4000DBF800405F46D1F804C09C435FEA8C2C71
:101A500000D51C433C60DEF800407746D1F804C056
:101A60009C435FEA8C3C00D51C433C60084F083F18
:101A70003C68D1F804C09C435FEACC3C00D51C43D1
:101A80003C60521C102AFFF42FAFBDE8F88F000015
:101A9000083C014044380240003001400000024050
:101AA0000004024000080240000C02400010024006
:101AB0000014024000180240001C02400AB181617B
:101AC00070470904FBE70000014880687047000088
:101AD0001400002070B5040025D094F83D000025C6
:101AE00020B984F83C50204600F0B8F8242084F84F
:101AF0003D002068016821F0010101602068016853
:101B000041F4004101602068016821F40041016056
:101B100000F00EFA4D4A6168914201D84C4900E04C
:101B20004C49884201D2012070BD4B492368B0FB6B
:101B3000F1F15E6826F03F060E435E6063689342F3
:101B400006D94FF4967359434FF47A73B1FBF3F10E
:101B50002368491C1E6A26F03F06314319626168FA
:101B6000914210D84900401EB0FBF1F2521CC2F362
:101B70000B02042A01D2042022E0B0FBF1F0401C49
:101B8000C0F30B001CE0A268F2B301EBC10303EB4E
:101B90000116431EB3FBF6F35B1C43F480431B05A5
:101BA00049D092B301EBC10202EB0111401EB0FB20
:101BB000F1F0401CC0F30B0040F4804040F40040C2
:101BC0002168CA694CF6FF739A431043C861D4E98F
:101BD000071001432068026822F0C002114301602F
:101BE000D4E9030101432068826848F2FF339A4335
:101BF00011438160D4E9050108432168CA6822F0D5
:101C0000FF021043C86001E00EE016E020680168A2
:101C100041F0010101602564202084F83D00256326
:101C200084F83E50002070BD01EB4106431EB3FB1B
:101C3000F6F35B1CB3E70120C2E701EB4101401E54
:101C4000B0FBF1F0401CC0F30B00B7E7A086010029
:101C500080841E0000093D0040420F0010B586B090
:101C6000044614216846FEF7ACFD144920688842FA
:101C700021D113480021026842F00202026000688C
:101C800000F0020005904FF4407000901220CDE962
:101C90000101032003900420049069460948FFF7DE
:101CA00015FE07481030016841F40011016000681A
:101CB00000F40010059006B010BD00000054004074
:101CC0003038024000040240024881680278114422
:101CD00081607047140000200B4810B5016841F482
:101CE00000710160016841F480610160016841F4A4
:101CF00080710160032000F06FF80F2000F006F8FB
:101D000000F024F8002010BD003C024070B50D4DDD
:101D100004464FF47A712878B1FBF0F00A4909685B
:101D2000B1FBF0F000F00AFB48B9102C07D20022FA
:101D30002146501E00F030F800206C6070BD01207C
:101D400070BD000014000020200000200A4808B5E3
:101D5000016841F480410160006800F48040009017
:101D60000548001F016841F080510160006800F0E3
:101D70008050009008BD000044380240002809DB74
:101D800000F01F02012191404009800000F1E02095
:101D9000C0F8001170470000F0B40E4B1B680C46F1
:101DA000C3F30223C3F10705042D00D90425191D2F
:101DB000072901D2002300E0DB1E012606FA05F107
:101DC000491E214099409E40761E16403143F0BC8A
:101DD00002F0DDBC0CED00E0064900F007020868E7
:101DE0004FF6FF03184040EA0220034A1043086000
:101DF000704700000CED00E00000FA052DE9F04707
:101E00000E46050065D0DFF81481D8F80000F7B25F
:101E100000F00700B04207D288F80070D8F8000040
:101E200000F00700B04254D128683D4C810712D51C
:101E3000400703D5206840F4E05020602878000770
:101E400003D5206840F4604020602068A96820F035
:101E5000F000084320602878C0072DD0304968681A
:101E60000839012812D0022813D0032811D009689C
:101E7000890700292DDA216821F00301014321603F
:101E8000FFF722FE814641F2883A0EE00968890395
:101E9000EFE709688901ECE7FFF716FEA0EB0901FF
:101EA000514502D90320BDE8F0872068696800F039
:101EB0000C00B0EB810FEFD1D8F80010404601F0D4
:101EC0000701B14207D90770006800F00700B0426F
:101ED00001D00120E7E72878400705D52068E968A8
:101EE00020F4E050084320602878000706D52068D9
:101EF000296920F4604040EAC100206000F038F811
:101F00002168084AC1F30311515CC84006490860C2
:101F100006480068FFF7FAFE0020C4E7003C0240D4
:101F200008380240FC48000820000020180000206B
:101F30000448054900680968044AC1F38221515CDC
:101F4000C840704720000020083802400C490008B3
:101F50000448054900680968044AC1F34231515CEC
:101F6000C840704720000020083802400C49000893
:101F7000154810B5006810F00C02144813D0411039
:101F8000042A0FD0082A0ED10F4C241F2268236880
:101F900002F03F025B0207D52068C0F38810A0FB67
:101FA000010106E0084610BD2168C1F38811A1FBBC
:101FB00000010023FEF766F92168C1F30141491CC5
:101FC0004900B0FBF1F010BD083802400024F400D5
:101FD0002DE9F84F04006ED02078DFF84C93C0074D
:101FE000A9F104054AD009F104000168C1F3810197
:101FF000012908D00068C0F3810002280AD1D9F86D
:102000000000400206D52868800337D560680028A4
:10201000E1D033E06068B0F5803F10D0B0F5A02F7C
:10202000286810D020F480302860286820F48020B0
:1020300028606068A8B1FFF747FD06460DE02868F4
:1020400040F48030F4E740F480202860F7E700BFD8
:10205000FFF73AFD801B642873D828688003F7D502
:102060000CE0FFF731FD064605E000BFFFF72CFD51
:10207000801B6428F0D828688003F7D42078DFF824
:10208000AC8280074FF0000A3ED5A748001D0168CA
:1020900011F00C0F08D00068C0F3810002280BD1AA
:1020A000D9F80000400207D42868800716D5E068F8
:1020B000012800D112E033E1E068B8B10120C8F88E
:1020C0000000FFF701FD064605E000BFFFF7FCFC3E
:1020D000801B0228C0D828688007F7D528682169A6
:1020E00020F0F80040EAC10028600DE0C8F800A028
:1020F000FFF7EAFC064604E0FFF7E6FC801B022837
:102100001FD828688007F7D42078000722D5864F8B
:1021100087486169703771B101210160FFF7D4FC14
:10212000064604E0FFF7D0FC801B022809D8386877
:102130008007F7D50EE0C0F800A0FFF7C5FC064603
:1021400005E082E0FFF7C0FC801B02287DD83868DC
:102150008007F7D42078400768D5DFF8CCB1002796
:102160000BF13C0BDBF80000C0000BD4DBF80010D7
:1021700041F08051CBF80010DBF80000012700F09F
:10218000805000906B4E3068C00510D4306840F429
:1021900080703060FFF798FC009005E0FFF794FC3A
:1021A0000099401A022850D83068C005F6D55E4E16
:1021B000A0686C3601280FD00528306810D020F0B8
:1021C00001003060306820F004003060A068B8B1D1
:1021D000FFF77AFC00900FE0306840F00100F4E770
:1021E00040F004003060F7E7FFF76EFC0099411AF9
:1021F00041F28830814266D830688007F4D50EE01D
:10220000FFF762FC009007E0FFF75EFC0099411ABF
:1022100041F28830814256D830688007F4D42FB11B
:10222000DBF8001021F08051CBF80010A069C8B392
:102230003D49091D0968C1F3810102294AD00228DC
:10224000504607D0C8F8600000E03CE0FFF73CFCD7
:1022500004463BE04746C8F86000FFF735FC0646F9
:1022600005E000BFFFF730FC801B02282BD8286850
:102270008001F7D4D4E907010843A16A2E4A49082E
:1022800002EB0141626A41EA8211084394F82C1082
:1022900040EA0161C9F8001001203866FFF714FC1C
:1022A000044606E03EE000BFFFF70EFC001B0228DC
:1022B00009D828688001F7D534E000BFFFF704FC97
:1022C000001B022802D90320BDE8F88F286880018E
:1022D000F4D427E00128F7D0D9F80000E26900F42F
:1022E000800191421CD1226A00F03F01914217D136
:1022F00047F6C071626A0140B1EB821F10D1A26A39
:102300004FF0FF3300F4403103EB5202B1EB024FC8
:1023100006D194F82C1000F07060B0EB016F01D082
:102320000120D1E70020CFE70438024000004742F7
:10233000800E4742007000400000FFFF10B5401EB5
:10234000B0F1807F01D3012010BD4FF0E024606127
:102350000F21601702F01BFA0020A0610720206106
:10236000002010BD7047704710B590F83C20012A3E
:1023700022D0012280F83C20CA688C6822F4407286
:1023800022434C6822F4806222430C6822F40062EB
:1023900022430C6922F4805222434C6922F40052F9
:1023A0002243C969002322F480420A4301684A6437
:1023B00080F83C30002010BD022010BD70B590F8B0
:1023C0003C20012A32D0012480F83C40022280F8CF
:1023D0003D2003685A689D6822F070060A683243FF
:1023E0005A60134B02689A4214D0B2F1804F11D058
:1023F000104B9A420ED0104B9A420BD00F4B9A4280
:1024000008D00F4B9A4205D00E4B9A4202D00E4B89
:102410009A4204D1496825F080031943916080F8FD
:102420003D40002180F83C10084670BD022070BD80
:10243000000001400004004000080040000C004083
:1024400000040140004001400018004010B50400A5
:1024500003D094F83D0010B107E0012010BD00202A
:1024600084F83C00204600F01FF8022084F83D006C
:10247000211D206801F036FE012084F8460084F812
:102480003E0084F83F0084F8400084F8410084F85E
:10249000420084F8430084F8440084F8450084F83E
:1024A0003D00002010BD000008B5016817488142BA
:1024B00008D11748016841F001010160006800F08F
:1024C00001000BE01248134A001F914208D1016835
:1024D00041F008010160006800F00800009008BDAC
:1024E0000D4A9142FBD1016841F010010160006882
:1024F000002200F01000009011463620FFF74CFC3F
:10250000BDE808403620FFF739BC0000000001405C
:1025100044380240000C00400010004070B50446F2
:1025200090F83C000025012817D0012684F83C6073
:10253000022084F83D002068826822F0770222F4AD
:102540007F4282600868502838D00DDC20284FD0A8
:1025500005DC90B3102811D14AE0022070BD30286C
:1025600046D040280AD13BE060282FD070280DD0FB
:10257000B0F5805F03D0B0F5005F12D0012584F87C
:102580003D60002084F83C00284670BDCB68D1E94E
:102590000121206801F01BFE2068816841F077016D
:1025A00009E0CB68D1E90121206801F010FE206824
:1025B000816841F480418160E1E719E0CA684968B7
:1025C000206801F0D9FE5021206806E0CA684968F9
:1025D000206801F0E2FE6021206801F002FECEE7F3
:1025E000CA684968206801F0C7FE40212068F4E706
:1025F000226801461046F0E72DE9F0410D4604003F
:1026000003D094F83D0018B108E00120BDE8F08146
:10261000002084F83C00204600F040F8022084F8B6
:102620003D002068816844F2070291438160211DCA
:10263000206801F057FD226890689169166A2B683E
:10264000AF69034340F20330814341EA0721A868A0
:10265000EF6908434FF6FC418843E96840EA0720E8
:10266000014328692F6A000140EA0730084369687E
:102670006D6926F0AA0646EA05152943936022688B
:10268000906154F8460B0162012004F81F09E075BF
:102690002076E0762077A0750020B7E7F0B587B008
:1026A000044614216846FEF78CF83D49256800224F
:1026B0003B4B1039032702243A48B5F1804F1FD015
:1026C000DFF8E4C0C026654531D11D6845F002053C
:1026D0001D601B6803F0020305930B6843F00103C0
:1026E0000B6009680096CDE9014201F00101CDE9D6
:1026F000044103924FEA0D01FFF7E8F807B0F0BD7F
:102700001D6845F001051D601B6803F0010305937A
:102710000B6843F001030B600968009701F00101A9
:102720000591CDE901420121CDE90321E2E71F48EE
:10273000854217D1186840F004001860186800F04E
:1027400004000590086840F00200086008680096E0
:10275000CDE9014200F00200CDE904406946039250
:102760001348C9E713488542C8D10D48001D0368C6
:1027700043F002030360006800F00200059008685F
:1027800040F00400086008680096CDE9014200F0BE
:102790000400CDE90470694603920748ACE70000E5
:1027A00040380240000002400004004000080040A1
:1027B00000040240000401400008024070B590F897
:1027C0003E60044690F83F5090F8423090F8432025
:1027D000022021B104290ED0012E1BD114E0012EBC
:1027E00018D1012B16D184F83E0084F84200012252
:1027F0000021206820E0012D0CD1012A0AD184F8A3
:102800003F0084F8430014E0012D03D1012B01D1D6
:10281000012A01D0012070BD84F83E0084F83F00F9
:1028200084F8420084F8430001220021206801F06E
:10283000C1FC01220421206801F0BCFC2068016871
:1028400041F001010160002070BD70472DE9F041A9
:1028500004460068C66805694FF00007A90713D54C
:10286000B10711D5F91E0161012020772068806928
:102870008007204602D0FFF7E8FF04E000F0C0F830
:10288000204600F052F92777680716D5700714D54F
:1028900021686FF0040008610220207720688069B9
:1028A00010F4407F204602D0FFF7CFFF04E000F095
:1028B000A7F8204600F039F92777280715D5300703
:1028C00013D521686FF00800086104202077206884
:1028D000C0698007204602D0FFF7B7FF04E000F090
:1028E0008FF8204600F021F92777E80616D5F00684
:1028F00014D521686FF01000086108202077206847
:10290000C06910F4407F204602D0FFF79EFF04E02C
:1029100000F076F8204600F008F92777E80708D09D
:10292000F00706D021686FF001000861204600F032
:1029300061F9280608D5300606D521686FF08000B9
:1029400008612046FFF70EFD680608D5700606D51B
:1029500021686FF040000861204600F04CF9A8069D
:102960000AD5B00608D521686FF02000086120461E
:10297000BDE8F041FFF7F7BCBDE8F08110B586B0C7
:10298000044614216846FDF71CFF2368174C0021FC
:1029900017480222A34212D1036843F010030360D8
:1029A000006800F0100005904FF4D4400090CDE98D
:1029B00001210120CDE9031069460E4812E00E4CBA
:1029C000A34211D1036843F001030360006800F0E3
:1029D000010005900C200090CDE90121CDE9031202
:1029E00069460648FEF772FF06B010BD00000140C0
:1029F0003038024000100240000C0040000002404D
:102A0000704770B5044690F83C0000260D4601283A
:102A10000FD0012084F83C006AB1042A1DD0082A96
:102A20002FD00C2A3FD00126002084F83C003046ED
:102A300070BD022070BD206801F0DCFB2068816958
:102A400041F0080181612068816921F00401816100
:102A5000206881692A69114311E0206801F0FAFBBE
:102A60002068816941F4006181612068816921F4F5
:102A700080618161206881692A6941EA022181615E
:102A8000D2E7206801F01CFC2068C16941F0080110
:102A9000C1612068C16921F00401C1612068C16978
:102AA0002A69114311E0206801F03EFC2068C169E9
:102AB00041F40061C1612068C16921F48061C16194
:102AC0002068C1692A6941EA0221C161ACE710B5F9
:102AD000040003D094F83D0010B107E0012010BDC0
:102AE000002084F83C00204600F01EF8022084F804
:102AF0003D00211D206801F0F5FA012084F8460010
:102B000084F83E0084F83F0084F8400084F84100D7
:102B100084F8420084F8430084F8440084F84500B7
:102B200084F83D00002010BD7047704710B5044682
:102B3000022249B104290ED0082913D094F841008B
:102B4000012816D0012010BD94F83E000128F9D1CB
:102B500084F83E200FE094F83F000128F2D184F879
:102B60003F2008E094F840000128EBD184F8402091
:102B700001E084F841200122206801F01BFB164986
:102B80002068164A884201D0904203D1436C43F436
:102B9000004343642068884213D0B0F1804F10D0C6
:102BA0000F4988420DD00F4988420AD00E49884209
:102BB00007D0904205D00D49884202D00C49884286
:102BC00004D1816801F00701062903D0016841F0B2
:102BD00001010160002010BD00000140000401401F
:102BE0000004004000080040000C0040004001408C
:102BF00000180040704770477047000030B5064C21
:102C000005460023294654F82300FEF7AEFB5B1C63
:102C1000DBB2042BF6D330BD24000020F8B50168E8
:102C200004460868CA684B6910F00F0F4FF00005A2
:102C300059D003F0010602F49077374365D0C107FD
:102C400005D0D10503D5616C41F0010161644107F4
:102C500005D5D90703D0616C41F002016164810799
:102C600005D5D90703D0616C41F004016164010707
:102C700007D502F02001314303D0616C41F0080117
:102C80006164616C00293AD0800604D5900602D5B3
:102C9000204601F028FC20684069616CC0F3801078
:102CA000090700D460B3204601F0E8FB20684069C2
:102CB000400621D52068143050E8001F21F0400163
:102CC00040E80012002AF5D1E06BA8B17249016515
:102CD000E06BFEF7B0FB002811D0E06B016D01B096
:102CE000BDE8F040084783060FD593060DD5204672
:102CF000BDE8F84001F0F7BB2046FFF77FFFF8BDC5
:102D00002046FFF77BFF6564F8BD266B2023012E6C
:102D10007ED1C6067CD5D6067AD50868486800906C
:102D200048694FF0020640064DD5E26B10684068D6
:102D30004FF480770004000C3AD0A18D814237D93E
:102D4000E085D069B8422DD020680C3050E8001FD3
:102D500021F4807140E80012002AF5D12068143077
:102D600050E8001F21F0010140E80012002AF5D1CF
:102D70002068143050E8001F21F0400140E80012A4
:102D8000002AF5D184F84230256320680C3050E8E1
:102D9000001F21F0100140E80012002AF5D1E06B7D
:102DA000FEF700FB6663A08DE18D401A81B206E05C
:102DB000A18D8142A8D1D069B842A5D166632046D1
:102DC000FFF71AFFF8BDA08DE18D401A81B2E08DAA
:102DD0000028F7D00029F5D020680C3050E8002FEB
:102DE00022F4907240E80027002FF5D120681430BB
:102DF00050E8002F22F0010240E80027002FF5D113
:102E000084F84230256320680C3050E8002F00E041
:102E100006E022F0100240E80023002BF3D1CDE7BA
:102E200005062BD5150629D594F841002128C9D1CE
:102E3000A068B0F5805F01D12069B0B1206A411C63
:102E40002162216800784860E08C401E0004000C7C
:102E5000E084B7D12068C16821F08001C16020689A
:102E6000C16841F04001C160F8BD206A0088C0F32C
:102E700008004860206A801C2062E5E74006F3D520
:102E80005006F1D5CA68204622F04002CA6084F894
:102E9000413000F035FBF8BDD943000870B504009F
:102EA00004D094F84100002510B106E0012070BD67
:102EB00084F84050204600F023F8242084F8410094
:102EC0002068C16821F40051C160204601F06CFB0C
:102ED0002068016921F4904101612068416921F075
:102EE0002A0141612068C16841F40051C1606564F4
:102EF000202084F8410084F842006563002070BD02
:102F00002DE9F04F87B0044614216846FDF759FCBF
:102F1000FC48DFF8EC831038D4F800C0F94A0221ED
:102F20000327F94B002506154FF0080E4FF4807962
:102F30004FF0400A4FF0006BC4454AD1D2F800C0B0
:102F40004CF4002CC2F800C0126802F40022059272
:102F5000026842F004020260006800F0040005907C
:102F6000B8028DE8A34069461846FEF7AFFCE84F6B
:102F7000E6483860C7E901B5C7E903567D61C7E98E
:102F800006593D6238467D62FEF738FB08B1FEF710
:102F9000F4F9E763BC63DE4FDC4860373030C7F8D4
:102FA00008A0C7E903567D61BD61FD613D627D6298
:102FB000C7E9000B3846FEF721FB08B1FEF7DDF943
:102FC000A763002211463420BC63FEF7E5FE3420DF
:102FD00070E0DFF84083C44572D1D2F800C000250C
:102FE0004CF4801CC2F800C0126802F480120592F2
:102FF000026842F004020260026802F004020592D4
:10300000026842F00802026000680DF1040C00F052
:10301000080005904FF4805000900220F0468CE8A4
:10302000A10169461846FEF751FC042000900DF1FD
:10303000040C02208CE8A1016946B748FEF746FC63
:10304000DFF8CC82B14908F1C00830394046C8F8F1
:103050000010C0E901B5C0E90356C8F81450C0E932
:103060000659C8F820505F46C8F82450FEF7C6FA43
:1030700008B1FEF782F9A548A84DC4F83C80783025
:10308000C8F8384085E881040020C5E90306686176
:10309000A861E861286268622846FEF7AFFA08B1C5
:1030A000FEF76BF9A563002211463520AC63FEF7ED
:1030B00073FE3520FEF762FE07B0BDE8F08FFFE734
:1030C000904BDFF85C821B1DC4454CD11A6842F05E
:1030D00010021A601A6802F010020592026842F0AB
:1030E00001020260006800F0010005904FF4C0602A
:1030F0008DE8A3000720049069468A48FEF7E6FBA6
:10310000864F894860373860C7E901B5C7E903567B
:103110007D61C7E906593D6238467D62FEF76EFA69
:1031200008B1FEF72AF9E763BC637C4F7E48C037DD
:103130007830C7F808A0C7E903567D61BD61FD611D
:103140003D627D62C7E9000B3846FEF757FA08B1C9
:10315000FEF713F9A763002211462520BC63FEF792
:103160001BFE2520A6E7DFF8C481C44553D11368B0
:10317000002543F400331360126802F40032059214
:10318000026842F008020260006800F00800059042
:1031900060208DE8A3000720049069465E48FEF792
:1031A00095FB5A49DFF8888148314046C8F800103D
:1031B000C0E901B5C0E90356C8F81450C0E9065982
:1031C000C8F820505F46C8F82450FEF717FA08B137
:1031D000FEF7D3F8564D4D48C4F83C80603560305A
:1031E000C8F8384085E881040020C5E90306686115
:1031F000A861E861286268622846FEF7FFF908B115
:10320000FEF7BBF8A563002211462620AC63FEF74B
:10321000C3FD26204EE7DFF81C81C44520D113688A
:1032200043F480231360126802F48022059202683E
:1032300042F002020260006800F0020005904FF4C4
:1032400040608DE8A3000720049069463A48FEF7E5
:103250003DFB002211462720FEF79EFD272029E78F
:10326000364A94457FF428AF1A6842F020021A606B
:103270001A6802F020020592026842F040020260E1
:10328000006800F0400005904FF484408DE8A340B2
:1032900069462B48FEF71AFB254F2348C0371838DC
:1032A00038604FF02068C7E90185C7E903567D61A2
:1032B000C7E906593D6238467D62FEF79FF908B1BD
:1032C000FEF75BF8E763BC631E4F1748C7E9035678
:1032D0007D61BD61FD613D6260307D6287E8010511
:1032E0003846FEF78BF908B1FEF747F8A7630022CE
:1032F00011464720BC63FEF74FFD4720DAE6000089
:10330000004C00404038024000080240406002404B
:10331000A004002000500040000C0240C005002026
:1033200000100140000002404064024000440040A0
:10333000E006002000480040000402400014014064
:10334000001802400008002090F84230202B01D0E5
:103350000220704721B11AB10023036301F0AAB91A
:103360000120704770B50068184988422CD1184870
:103370000023024681785278012411B1012906D038
:103380001AE05B2A18D10178B1B984700FE01049B6
:10339000104D5D2AC97805D03F2907D26A54491CCF
:1033A000C17009E083706B54047005E08370C370D2
:1033B00040210848FDF7E3F9BDE8704004490122C7
:1033C000491C0548FFF7C0BF70BD00000048004021
:1033D0000000002064000020100400202DE9F843C4
:1033E000044690F84100984616460D46202802D023
:1033F0000220BDE8F88385B17EB100206064212001
:1034000084F84100FEF760FBA6848146E684A0684C
:103410002027B0F5805F02D003E00120E9E72069B2
:1034200010B12E4600250EE000260CE0802120463B
:1034300001F05BF9A8B9C6B116F8010B2168486024
:10344000E08C401EE084E08C4B464FF00002CDF84B
:1034500000800028EAD14FF04001204601F045F9F4
:1034600040B184F841700320C3E735F8020BC0F384
:103470000800E3E784F841700020BAE770B504461D
:1034800090F84100202801D0022070BD01B3FAB1AC
:103490002162A284E28400206064212384F8413008
:1034A000A56B144BEB63A56B134B2B64A56B134BF4
:1034B000EB64A36B186520681346A56B021D2846B4
:1034C000FEF706F930B110206064202084F8410036
:1034D000012070BD21686FF0400008602068143042
:1034E00050E8001F41F0800140E80012002AF5D1A9
:1034F000002070BD3144000873440008E743000811
:1035000030B5064C05460023294654F82300FDF744
:103510002CFF5B1CDBB2042BF6D330BD2400002053
:103520007047FEE7314808B5016841F400110160B9
:10353000016801F400110091016841F4800101600B
:103540000068002200F48000009011460B20FEF776
:1035500023FC0B20FEF712FC002211460D20FEF783
:103560001BFC0D20FEF70AFC002211460F20FEF77F
:1035700013FC0F20FEF702FC002211461020FEF77C
:103580000BFC1020FEF7FAFB002211461120FEF77B
:1035900003FC1120FEF7F2FB002211462F20FEF75C
:1035A000FBFB2F20FEF7EAFB002211463920FEF735
:1035B000F3FB3920FEF7E2FB002211463A20FEF72A
:1035C000EBFB3A20FEF7DAFB002211464520FEF71E
:1035D000E3FB4520FEF7D2FB002211464620FEF712
:1035E000DBFBBDE808404620FEF7C8BB3038024090
:1035F0002DE9F04F87B014216846FDF7E2F85648F0
:103600000024016841F010010160016801F010011F
:103610000591016841F004010160016801F00401B5
:103620000591016841F080010160016801F08001AD
:103630000591016841F001010160016801F001019B
:103640000591016841F002010160016801F0020189
:103650000591016841F008010160016801F008016D
:103660000591016841F0400101600068DFF8ECB0AD
:1036700000F0400040F206450590002229465846D9
:10368000FEF71CFA42F20336002231463448FEF7B8
:1036900015FA4FF49877002239463248FEF70EFAB1
:1036A0004FF23308002241462F48FEF707FA4CF24A
:1036B0008879002249462D48FEF700FA48F26C0A44
:1036C000002251462A48FEF7F9F900950125CDE977
:1036D0000154694658460394FEF7F8F80096CDE980
:1036E000015469461E480394FEF7F0F80097CDE9AF
:1036F000015469461B480394FEF7E8F83020CDE9F1
:103700000004694616480294FEF7E0F8CDF8008000
:10371000CDE90154694614480394FEF7D7F8CDF873
:103720000090CDE90154694610480394FEF7CEF8A5
:10373000CDF800A0CDE9015469460D480394FEF789
:10374000C5F8E8038DE8310069460648FEF7BEF883
:1037500007B0BDE8F08F0000303802400010024092
:10376000000802400000024000040240000C024039
:10377000001802400D4810B50B4901600C4941602A
:1037800000214FF480428160C0E9031241618161F0
:10379000C1610162FEF79EF9002803D0BDE8104028
:1037A000FDF7EBBD10BD000000540040A400002058
:1037B000801A060010B596B000240F94109411944E
:1037C000129413941C2168461494FCF7FAFF2021EC
:1037D00007A8FCF7F6FF3548334901600721C0E927
:1037E000011440F2E731C0E903148021C0E905412A
:1037F000FEF72CFE08B1FDF7C0FD4FF480500F908E
:103800000FA92A48FEF78AFE08B1FDF7B6FD274842
:10381000FFF75DF908B1FDF7B0FD139413A9234834
:103820001494FEF7CBFD08B1FDF7A7FD6020CDE9AC
:1038300000040294039404940594002269461B48F2
:103840000694FFF7DEF808B1FDF797FD04226946FC
:103850001648FFF7D6F808B1FDF78FFD0822694634
:103860001248FFF7CEF808B1FDF787FD0C22694634
:103870000E48FFF7C6F808B1FDF77FFD07940894DE
:1038800009944FF400500A94CDE90B4007A907486A
:103890000E94FEF769FD08B1FDF76FFD0348FFF7D1
:1038A0006DF816B010BD000000000140F8000020C7
:1038B00010B58CB024216846FCF783FF002415481E
:1038C00009944FF080410A94C0E90014611EC0E9D8
:1038D00002418021046181610320CDE900040120BF
:1038E000CDE902040494CDE90540079469460948EE
:1038F0000894FEF781FE08B1FDF73FFD099409A980
:1039000004480A94FEF75AFD002801D0FDF735FD62
:103910000CB010BD4001002010B58CB024216846C9
:10392000FCF74FFF00241648099414490A94C0E993
:1039300000144FF6FF71C0E9024104618461032065
:10394000CDE900040120CDE902040494CDE905404D
:10395000079469460A480894FEF74EFE08B1FDF741
:103960000CFD099409A906480A94FEF727FD0028D2
:1039700001D0FDF702FD0CB010BD000000040040B6
:103980008801002010B58CB024216846FCF719FF8F
:1039900000241648099414490A94C0E900144FF60B
:1039A000FF71C0E90241046184610320CDE9000494
:1039B0000120CDE902040494CDE90540079469464D
:1039C0000A480894FEF718FE08B1FDF7D6FC0994E2
:1039D00009A906480A94FEF7F1FC002801D0FDF77A
:1039E000CCFC0CB010BD000000080040D00100204D
:1039F00010B58EB000240794089409940A940B948F
:103A00001C2168460C94FCF7DCFE24482249016026
:103A10005321C0E9011440F2E731C0E903148021C9
:103A20008161FEF713FD08B1FDF7A7FC4FF480504C
:103A3000079007A91948FEF771FD08B1FDF79DFC35
:103A40001648FFF744F808B1FDF797FC0B940BA953
:103A500012480C94FEF7B2FC08B1FDF78EFC602012
:103A600000904FF4FA70CDE90104082269460B4832
:103A70000494FEF7C6FF08B1FDF77FFC0C226946EF
:103A800006480194FEF7BDFF08B1FDF776FC034838
:103A9000FEF774FF0EB010BD000C004018020020AD
:103AA0001CB500240F4800940D4901940160532176
:103AB000C0E9011440F2E731C16080218161FEF765
:103AC000C5FC08B1FDF759FC00946946054801940E
:103AD000FEF774FC002801D0FDF74FFC1CBD000070
:103AE000001000406002002010B58CB02421684610
:103AF000FCF767FE00241748099415490A94C0E9A9
:103B000000144FF6FF71C0E9024180210461C0E951
:103B100005410320CDE900040120CDE9020404940D
:103B2000CDE90540079469460A480894FEF764FD0C
:103B300008B1FDF722FC099409A906480A94FEF78A
:103B40003DFC002801D0FDF718FC0CB010BD0000B2
:103B500000040140A80200200C4810B50A49016089
:103B60004FF4E1314160002181600C22C160C0E965
:103B700004128161C161FFF791F9002803D0BDE80B
:103B80001040FDF7FABB10BD004C0040F0020020D1
:103B90000C4810B50A4901604FF4E1314160002141
:103BA00081600C22C160C0E904128161C161FFF72C
:103BB00075F9002803D0BDE81040FDF7DEBB10BD4D
:103BC00000500040380300200C4810B50A4901603D
:103BD0004FF4E1314160002181600C22C160C0E9F5
:103BE00004128161C161FFF759F9002803D0BDE8D3
:103BF0001040FDF7C2BB10BD001001408003002043
:103C00000C4810B50A4901604FF4E13141600021D0
:103C100081600C22C160C0E904128161C161FFF7BB
:103C20003DF9002803D0BDE81040FDF7A6BB10BD4C
:103C300000440040C80300200C4810B50A49016048
:103C40004FF416514160002181600C22C160C0E92F
:103C500004128161C161FFF721F9002803D0BDE89A
:103C60001040FDF78ABB10BD004800401004002042
:103C70000C4810B50A4901604FF4E1314160002160
:103C800081600C22C160C0E904128161C161FFF74B
:103C900005F9002803D0BDE81040FDF76EBB10BD4C
:103CA0000014014058040020FEE70000042801D35E
:103CB00000207047034900EB400001EB0010C06892
:103CC000704700006008002030B50021154C164BED
:103CD0009FED162A9FED160ADFED162ADFED160A74
:103CE0000A46B0EE001AF6EE001A00BF01EB4100E2
:103CF00003EB001054F82150E0E80252491C40F850
:103D0000082BC9B240F8042C828380ED030A80EDB1
:103D1000040AC0ED052AC0ED060A042980EC031A46
:103D2000E4D330BD0400002060080020CDCCCC3DA1
:103D3000000000000000C8C20000C842042807D2EA
:103D400000EB4001034800EB0110103080EC030A47
:103D5000704700006008002070B5084D002400BFC7
:103D600004EB440005EB00103C210068FEF726FD43
:103D7000641CE4B2042CF3D370BD00006008002082
:103D80002DE9F0410025134E2F4600BF05EB4500FD
:103D900006EB001420680168486A4F6200B2E060D8
:103DA000A168081A00EE100A04F11000B8EEC00A6B
:103DB00000F02EF8BDEEC00A10EE100A01B2A18587
:103DC0002846FDF79BF96D1CEDB2042DDED3BDE84E
:103DD000F08100006008002038B50B4B00245A42E7
:103DE000994202DA0124594206E00B46914201DD74
:103DF000114601E00029F5DB8AB2002100910A2377
:103E00002146FDF79CFA38BDD4FEFFFFFEE7000017
:103E1000D0ED000A204A20EE801AD0ED030A70EEA1
:103E2000800A10EE901AC0ED030A914203DDDFED27
:103E30001B0AC0ED030A10EE901A194A914203D9E9
:103E4000DFED180AC0ED030AD0ED010AD0ED031A28
:103E500090ED042A60EEA10A30EE422AD0ED021A5B
:103E600080ED040A31EE200A61EE821AD0ED060AD6
:103E700030EE210AF4EEC00AF1EE10FA01D2B0EEF3
:103E8000600AD0ED050AF4EEC00AF1EE10FA01DD89
:103E9000B0EE600A7047000000007A4400007A44E7
:103EA00000007AC400007AC470477047F0B585B04E
:103EB0000D4607461C46164614216846FCF781FC51
:103EC0000020CDE90240CDE9005669463846FDF7AD
:103ED000FDFC05B0F0BD00002DE9F04786B01421CF
:103EE0006846FCF76EFC4D48016841F040010160F6
:103EF000016801F040010591016841F00401016091
:103F0000006800F00400059044481430016841F056
:103F1000200101600068DFF808A100F020004FF4E4
:103F20008044059021465046FDF71CFC02250126E1
:103F300003274FF008088DE8F00169465046FDF769
:103F4000C5FC4FF4007949465046FDF70BFC01AA29
:103F5000CDF8009082E8E00169465046FDF7B6FCD6
:103F6000002211464720FDF717FF4720FDF706FF07
:103F70002C4D0023012208212846FFF797FF01223C
:103F800008212846FDF79AFD274D21462846FDF7D2
:103F9000E9FB0023012221462846FFF787FF002284
:103FA00021462846FDF78AFD0023012220215046A4
:103FB000FFF77CFF002220215046FDF77FFD6410B3
:103FC00021462846FDF7CEFB002301222146284644
:103FD000FFF76CFF012221462846FDF76FFDA40084
:103FE00021462846FDF7BEFB002301222146284634
:103FF000FFF75CFF002221462846FDF75FFD0B4CD2
:104000000023012249462046FFF750FF002249467F
:104010002046FDF753FD06B0BDE8F087303802407A
:1040200000180240000C0240000402400008024058
:10403000FDF74ABE30B593B030216846FCF7C1FBAE
:1040400014210CA8FCF7BDFB1D480025016841F0B8
:1040500080510160006800F080501190194801689B
:1040600041F4804101600068022400F48040119016
:1040700001200090000401908001CDE9064008AACB
:104080000420A82182E813000B906846FDF7A0FFEA
:1040900008B172B6FEE70CA90F2081E831004FF499
:1040A000A0500F904FF48050109005210CA8FDF700
:1040B000A5FE002801D072B6FEE713B030BD0000A7
:1040C00040380240007000400248016841F470012D
:1040D0000160704788ED00E00148FEF7B7BB0000C3
:1040E00060020020F0B50268274B284D284E294F6A
:1040F000294C4FF0804C984209D0604507D0A84227
:1041000005D0B04203D0B84201D0A04204D122F081
:10411000700E4A6842EA0E0298421BD0604519D0E0
:10412000A84217D0B04215D0B84213D0A04211D047
:104130001A4DA8420ED01A4DA8420BD0194DA842D4
:1041400008D0194DA84205D0184DA84202D0184DEC
:10415000A84203D122F44075CA682A434D6922F06F
:1041600080022A438D68C5620D688562984201D03D
:10417000A04201D109690163016841F004010160B5
:10418000012141610260F0BD0000014000040040D7
:1041900000080040000C00400004014000400140C5
:1041A000004401400048014000180040001C00404D
:1041B0000020004010B501F01F030121046A99405E
:1041C0008C430462016A9A401143016210BD10B52C
:1041D000846842EA032224F47F440A432243826033
:1041E00010BD826822F070020A4342F0070181602C
:1041F00070470000F0B5036A026A22F00102026211
:1042000042688469124E24F073050C682C4323F035
:1042100002058B682B430D4DA84201D0B04205D159
:1042200023F00807CB683B4323F00403A84201D0E6
:10423000B04205D14D6922F4407215438A692A4380
:1042400042608461496841630362F0BD000001403F
:1042500000040140F0B5026A036A23F01003036210
:10426000436884690D6824F4E64444EA05248D68B3
:1042700022F0200242EA05120F4D104EA84201D052
:10428000B04206D1CF6822F0800242EA071222F043
:104290004002A84201D0B04207D14D6923F44063E7
:1042A00043EA85038D6943EA850343608461496875
:1042B00081630262F0BD0000000001400004014083
:1042C000F0B5026A036A23F4807303624368C46929
:1042D00022F4007224F073050C68124E2C438D6892
:1042E00042EA05220E4DA84201D0B04206D1CF6865
:1042F00022F4006242EA072222F48062A84201D03E
:10430000B04207D14D6923F4405343EA05138D6948
:1043100043EA05134360C4614968C1630262F0BDAA
:10432000000001400004014030B5046A026A22F432
:10433000805202624268C3690D6823F4E64343EA8F
:1043400005238D6824F4005444EA0534084DA8423E
:1043500002D0084DA84204D14D6922F4804242EABD
:1043600085124260C36149680164046230BD000087
:10437000000001400004014010B5036A046A24F003
:1043800001040462846924F0F00444EA021423F076
:104390000A020A438461026210BD10B5036A046A0E
:1043A00024F010040462846923F0A00324F4704410
:1043B00044EA023243EA01118261016210BD000049
:1043C0000148FEF72BBC0000F00200200148FEF778
:1043D00025BC00003803002010B5806B0021C1858A
:1043E000FEF70CFC10BD70B5846B2068406994F832
:1043F0004110C0F3C0100025212904D118B1E58473
:10440000204600F062F82068406994F84210C0F33A
:104410008010222904D118B1E585204600F02EF83D
:10442000606C40F0100060642046FEF7E7FB70BD52
:1044300010B50146806B09680968C90516D40021CA
:10444000C1840168143151E8002F22F0800241E854
:104450000023002BF5D101680C3151E8002F42F008
:10446000400241E80023002BF5D110BDFFF748F8CA
:1044700010BD10B5806BFFF753F810BD01680C310B
:1044800051E8002F22F4907241E80023002BF5D16F
:104490000168143151E8002F22F0010241E80023A5
:1044A000002BF5D1016B012909D101680C3151E8CC
:1044B000002F22F0100241E80023002BF5D120212B
:1044C00080F8421000210163704701680C3151E807
:1044D000002F22F0C00241E80023002BF5D120215B
:1044E00080F84110704708B590F84210222901D099
:1044F000022008BD82684FF480539A4201D10169BD
:1045000021B1816A9A421BD04AB10AE00268816AED
:104510005268C2F308020A80816A891C08E00269B5
:1045200072B10268526802F07F020A70816A491C07
:104530008162C18D491E0904090CC18503D01BE0AD
:1045400002685268F1E70168CA6822F02002CA6076
:104550000168CA6822F48072CA6001684A6922F060
:1045600001024A61202180F8421000214163026B60
:10457000012A03D0FEF7F6FE002008BD01630168A2
:104580000C3151E8002F22F0100241E80023002BEB
:10459000F5D101680A68D20602D50A684968009117
:1045A000818DFEF729FBE7E770B5044600680169D5
:1045B000E26821F44051114301612169A068E26978
:1045C00008436169114308432168CA6849F20C63D2
:1045D0009A430243CA6020684169A26921F440718C
:1045E0001143416131492068884202D030498842F4
:1045F00002D1FDF7ADFC01E0FDF79AFCE269002372
:10460000192164253226B2F5004F626828D0A0FB3C
:104610000101930F9200FBF735FE0146B0FBF5F068
:104620006FF01802504301EB800006EB0010B0FB66
:10463000F5F000F0F002B1FBF5F002EB0012B1FB77
:10464000F5F06FF01803584301EB800006EB001003
:10465000B0FBF5F000F00F0021681044886070BDD9
:10466000A0FB010192185B41FBF70CFE0146B0FB79
:10467000F5F00201B1FBF5F06FF01803584301EBC0
:10468000800006EBC000B0FBF5F000F0F80002EB94
:104690004002B1FBF5F0584301EB800006EBC0008F
:1046A000B0FBF5F000F00700D6E700000010014075
:1046B0000014014081628285C2850021416422216B
:1046C00080F84210016921B10168CA6842F4807221
:1046D000CA6001684A6942F001024A610068C16823
:1046E00041F02001C160002070472DE9F843984651
:1046F00017460D460446089E24E0701C22D0FDF7A4
:10470000E3F9A0EB0800B0421AD8CEB12068C16826
:10471000490717D5802D15D0402D13D00168C94306
:1047200009070FD401680025406800902046FFF774
:10473000A5FE0820606484F840500120BDE8F8839D
:104740000320FBE72068006835EA000004D0002061
:10475000B842D2D00020F1E70120F9E70148FEF786
:104760005DBA0000800300200148FEF757BA000040
:10477000C80300200148FEF751BA000010040020D1
:104780000148FEF74BBA000058040020FEE7090775
:10479000090E002804DB00F1E02080F800147047C7
:1047A00000F00F0000F1E02080F8141D704730B5D4
:1047B00085B00C46054614216846FCF702F8012036
:1047C00000210094CDE90101039169462846FDF7D7
:1047D0007DF805B030BD884201DA08467047904246
:1047E000FCDD10467047FDF777FAFFF723FCFEF774
:1047F000FFFEFEF797FEFFF75BF8FFF7E5F9FFF71F
:104800001BFAFEF7B7FFFEF7D5FFFFF7F1F8FFF74A
:10481000A3F9FFF7BDF9FFF7F3F9FFF741F9FFF748
:1048200063F9FFF725FAFFF777F8FFF7ABF8FFF723
:1048300053FBFCF70DFCFCF7ADFCFFF745FAFFF767
:104840008BFAFCF7AFFBFCF7F7FBFCF7F3FAFFF78B
:1048500097FA0A20FCF774FFF7E7000010B500296B
:104860000AD00878002807D005487844FBF7D0FF25
:10487000002801D0002010BD0248784410BD00007F
:10488000CA000000C20000004FF04070E1EE100AC4
:1048900070470000F8000020000000000004024003
:1048A000010000000004024002000000F8000020A7
:1048B0000400000000140240002000000014024028
:1048C00000400000F8000020080000000010024036
:1048D000800000000010024000100000F8000020DE
:1048E0000C00000000000240200000000000024018
:1048F0001000000000061016000610160000000050
:10490000000000000102030406070809000000007F
:1049100001020304444A00080000002024000000B3
:10492000C4010008684A0008240000205C0F000051
:10493000E00100081001000043000000F8FFFFFF45
:1049400000404040404040404040414141414140A2
:104950004040404040404040404040404040404057
:1049600040050202020202020202020202020202E6
:1049700002202020202020202020200202020202EB
:104980000202909090909090101010101010101043
:10499000101010101010101010101010020202024F
:1049A0000202888888888888080808080808080893
:1049B000080808080808080808080808020202028F
:1049C00040000000000000000000000000000000A7
:1049D00000000000000000000000000000000000D7
:1049E00000000000000000000000000000000000C7
:1049F00000000000000000000000000000000000B7
:104A000000000000000000000000000000000000A6
:104A10000000000000000000000000000000000096
:104A20000000000000000000000000000000000086
:104A30000000000000000000000000000000000076
:104A4000000000000000000040010020880100205C
:104A5000D0010020A802002001000000100000008A
:084A6000000000000024F40036
:040000050800018965
:00000001FF
